:100000006F00705B1300000013000000130000007D
:100010001300000013000000130000001300000094
:100020001300000013000000130000001300000084
:08003000130000007300100032
:100038000000000000000000A8020000AC02000060
:1000480000000000FC0C00000000000000000000A0
:10005800FE0C0000000D0000000000000000000081
:10006800020D000000000000040D00000000000068
:10007800060D0000080D00000A0D00000C0D000020
:100088000E0D0000100D0000020400001604000010
:10009800380400004E040000640400001C0D000039
:1000A8001E0D0000200D0000220D0000240D000090
:1000B800260D0000280D00002A0D00002C0D000060
:1000C8002E0D0000300D0000320D00007A040000F3
:1000D800360D00006E0500003A0D00003C0D0000D2
:1000E80094050000B4050000DA050000440D000086
:1000F800460D0000480D00004A0D00004C0D0000A0
:100108004E0D0000AE020000D802000002030000FD
:10011800EC040000580D00005A0D00005C0D0000B2
:1001280066060000600D0000620D0000640D00000E
:10013800660D0000680D0000000600006C0D000050
:100148002C030000560300002606000040060000AD
:10015800760D0000780D00007A0D00007C0D00007F
:100168007E0D0000800D0000820D0000840D00004F
:10017800860D0000880D00008A0D00000A1300009B
:100188008E0D0000900D0000E603000074030000CF
:100198009E030000C80300009A0D00008C060000B2
:1001A8009E0D0000A00D0000A20D0000B206000088
:1001B800A60D0000A80D0000AA0D0000AC0D00005F
:1001C800AE0D0000B00D0000B20D0000B40D00002F
:1001D8000000000000000000000000000000000017
:1001E8000000000000000000000000000000000007
:0801F8000000000000000000FF
:100200003D432A876373C3029377F700BDEFADE5E3
:10021000937606FF3D8ABA960CC34CC30CC74CC7F5
:100220004107E36BD7FE11E28280B306C3408A0622
:100230009702000096966780A6002307B700A306E2
:10024000B7002306B700A305B7002305B700A30432
:10025000B7002304B700A303B7002303B700A3022A
:10026000B7002302B700A301B7002301B700A30022
:10027000B7002300B700828093F5F50F93968500B1
:10028000D58D93960501D58D61B79396270097027A
:10029000000096968682E78086FA9680C1171D8FA9
:1002A0003E96E374C3F8A5B77300203001A0411156
:1002B00022C6374401409305505213050480EF00D5
:1002C000307819C59305505213050480EF00907BD8
:1002D0003244410173002030411122C637440040AE
:1002E0009305505213050440EF00907519C593050E
:1002F000505213050440EF00F0783244410173007E
:100300002030411122C63754004093055052130546
:100310000480EF00F07219C5930550521305048054
:10032000EF0050763244410173002030411122C663
:100330003754004093055052130504C0EF0050702D
:1003400019C593055052130504C0EF00B073324431
:100350004101730020309305505237550040EF00A3
:10036000306E19C59305505237550040EF0090711B
:1003700073002030411122C63724004093055052AB
:1003800013050480EF00D06B19C593055052130577
:100390000480EF00306F324441017300203041117E
:1003A00022C63724004093055052130504C0EF00C5
:1003B000306919C593055052130504C0EF00906CC5
:1003C00032444101730020309305505237250040DC
:1003D000EF00106719C59305505237250040EF0014
:1003E000706A73002030B707055003C70701118BEF
:1003F00019C703C707011377B70F2388E7007300F6
:1004000020300545EF00102485476314F500EF0008
:100410005025730020300945EF00D0228547631B2B
:10042000F5000945EF00F023130520088145492117
:100430005145852E730020301145EF00B0208547CF
:100440006315F5001145EF00D021730020302145E0
:10045000EF00501F85476315F5002145EF00702020
:10046000730020304145EF00F01D85476315F5000E
:100470004145EF00101F7300203013050002EF000C
:10048000701C85476316F50013050002EF00701D10
:1004900013050004EF00101B85476316F5001305D4
:1004A0000004EF00101C13050008EF00B019854789
:1004B0006316F50013050008EF00B01A13050010CD
:1004C000EF00501885476316F50013050010EF0084
:1004D000501913050020EF00F01685476316F5004C
:1004E00013050020EF00F0177300203041111305B1
:1004F000004022C6EF00101585476316F50013056E
:100500000040EF001016056413050480EF009013FF
:1005100085476316F50013050480EF009014056508
:10052000EF00501285476315F5000565EF00701365
:100530000965EF00301185476315F5000965EF0087
:1005400050121165EF00101085476315F500116515
:10055000EF0030112165EF00F00E85476315F500BF
:100560002165EF0010103244410173002030411129
:1005700022C6373401408545130504C0EF00103909
:1005800011C58545130504C0EF00103A32444101FE
:1005900073002030854537050040EF00303709C92A
:1005A000370500408545EF00303813053008A9268F
:1005B00073002030411122C63704004085451305E1
:1005C0000440EF00B03411C5854513050440EF0029
:1005D000B0353244410173002030411122C6371436
:1005E0000040854513050480EF00503211C5854554
:1005F00013050480EF005033324441017300203072
:10060000411122C6371400408545130504C0EF0090
:10061000F02F11C58545130504C0EF00F0303244BA
:10062000410173002030854537150040EF00102E42
:1006300011C5854537150040EF00102F730020309D
:10064000411122C637140040854513050440EF00D0
:10065000F02B11C5854513050440EF00F02C324402
:10066000410173002030411122C6373401408545D5
:1006700013050440EF00902911C58545130504407A
:10068000EF00902A3244410173002030411122C60C
:10069000375401408545130504C0EF00302711C5CC
:1006A0008545130504C0EF00302832444101730032
:1006B0002030854537550140EF00502511C585454F
:1006C00037550140EF00502673002030F16541118D
:1006D000930610021306000293850520094506C6FD
:1006E000A12937350000130505DEEF105049C1463A
:1006F0000546854513053008C520C1460546854594
:1007000013054008D128C146054685451305500804
:10071000E120C14605468545130560087528930606
:10072000800401468145130510047D201305100443
:100730005D226DFD13053008C122130540086D2AA6
:1007400013055008552A130560087D222945912874
:10075000F1BF011126CAB754004022CC4AC84EC688
:1007600006CEAE893289014493840480634A240111
:10077000F24062444A85D2444249B24905618280CE
:10078000930500042685EF00F02A7DD9B387890000
:100790008385070026850504C205C181EF00F02886
:1007A000F1B783A7C1800967130707F4B3D7E7023E
:1007B000814601473385A702B7F700E023A0070071
:1007C00094C7D8C7054798C3B7F600E09846DC46FB
:1007D00099E3E37DE5FE82809307F00F6309F50C52
:1007E000797122D41354550026D24AD04ECE52CC21
:1007F00006D61D889374F5003689328AAE8925E0C5
:1008000085451145EF00D00C8547B3949700C2048D
:10081000C180231291006399F90093170901C183E4
:10082000A18391E38D473EC48D67938787DF0A04D8
:100830003E9400401379F90F4C0022854AC63D25AD
:1008400085476396F9005286A6852285CD25B2504C
:10085000225492540259F249624A45618280854786
:100860006315F4008545214571BF89476315F40080
:100870008545414541BF8D476316F4008545130505
:10088000000249B791476316F4008545130500043B
:1008900095BF95476316F4008545130500089DB77D
:1008A0009947E313F4F6854513050010A1BF828034
:1008B00093575500139727008D67938787DFBA9763
:1008C00098439377F50005453315F50099C108CB9A
:1008D000828048CB8280135735009376C7010D671D
:1008E000130787DF36971C43984785473395A70042
:1008F000798D3335A00082809357350013F7C701F7
:100900008D67938787DFBA9798439377F5000545FE
:1009100054473315F500358D48C78280411106C60E
:1009200019ED85476397F520E146014625456D356C
:100930009146014681452945B240410171BD894733
:10094000631EF500E14601468545130560026935E1
:1009500091460146814513057002F9BFC147631CEA
:10096000F500E146014685450945BD3591460146FC
:1009700081450D45D1B7C947631EF500E1460146E3
:10098000854513055006893D91460146814513056D
:1009900060065DB793070002631EF500E14601465D
:1009A00085451305A0020D3D91460146814513057D
:1009B000B00259B793072002631EF500E1460146D5
:1009C00085451305A004093D91460146814513055F
:1009D000B0049DB793074002631FF500E14601464E
:1009E000854513058006CD3B93068004014681456D
:1009F0001305900691B793070004E301F5FC9307F4
:100A00002004631EF500E1460146854513050002FA
:100A1000E1339146014681451305100231BF93072A
:100A20000005631EF500E146014685451305C00437
:100A3000653391460146814513052006F5BD9307B0
:100A40002005631EF500E146014685451305800833
:100A5000613391460146814513059008F1BD930726
:100A60000006631FF500E1460146854513050004B5
:100A7000A5339306800401468145130510046DBD1E
:100A800093072006631EF500E146014685451305E0
:100A9000A00899339146014681451305B00869BD08
:100AA00093070007631EF500E146014685451305DF
:100AB00020041D3391460146814513053004ADBD28
:100AC000930720076317F500E14601468545194560
:100AD000CDB793074007631EF500E1460146854503
:100AE0001305C008D5399146014681451305D00844
:100AF000A1B593070008631EF500E1460146854550
:100B000013054004D139914601468145130550042F
:100B100025B593072008631EF500E146014685458B
:100B20001305E00855399146014681451305F00843
:100B300021B5B24041018280797122D44ECE2A84FF
:100B4000AE890545854526D24AD006D6B284368977
:100B500041238947639AF4048D476315F90085455D
:100B60001145D92E63180412854511659523CA8550
:100B700026856D33B7070C003EC48D679387C7E0A9
:100B80000A043E9400408A854EC0228502C2231684
:100B900001005523228585459D2DB2502254925443
:100BA0000259F24945618280C9476398F400CD47F4
:100BB000E31AF9FA854521456DB793072002639B37
:100BC000F40093073002E31FF9F837051400854558
:100BD000410541BF93074002639CF4009307500214
:100BE000E312F9F83705140085451305050395BF91
:100BF000930720046399F40093073004E314F9F693
:100C000085450565B9BF93072005639BF4009307ED
:100C10003005E319F9F4370520008545050591B73E
:100C200093072006639CF40093073006E31CF9F257
:100C30003715008085451305058025B793072007E4
:100C4000639EF40093073007E31EF9F03707014075
:100C50005C4FB7064000D58F5CCF29B7930740079C
:100C6000639CF40093075007E31EF9EE3707014039
:100C70005C4FB7068000C5B793072008E394F4EEF5
:100C800093073008E310F9EE370701405C4FB706D1
:100C90000002D1B785476317F40085453705020088
:100CA000B921F1B589476316F4008545370504007D
:100CB000C5BF8D476316F400854537050800CDB7DD
:100CC00091476316F400854537051000D1BF95475D
:100CD0006316F400854513050004D9B799476316D8
:100CE000F40085451305000865BF9D47E311F4E84E
:100CF0008545130500106DB701A001A001A001A05A
:100D000001A001A001A001A001A001A001A001A0DB
:100D100001A001A001A001A001A001A001A001A0CB
:100D200001A001A001A001A001A001A001A001A0BB
:100D300001A001A001A001A001A001A001A001A0AB
:100D400001A001A001A001A001A001A001A001A09B
:100D500001A001A001A001A001A001A001A001A08B
:100D600001A001A001A001A001A001A001A001A07B
:100D700001A001A001A001A001A001A001A001A06B
:100D800001A001A001A001A001A001A001A001A05B
:100D900001A001A001A001A001A001A001A001A04B
:100DA00001A001A001A001A001A001A001A001A03B
:100DB00001A001A001A0739012349701002093813B
:100DC000E1AF177100201301E1231725000013057F
:100DD000E52197F5FF1F9385E5221386018263FACB
:100DE000C5008322050023A0550011059105E3EA03
:100DF000C5FE13850182938581996377B500232011
:100E000005001105E36DB5FEFD42739002BCFD4285
:100E100073904280B78200009382828873A0023070
:100E200097F2FFFF9382822193E232007390523057
:100E3000EF00D039970200009382828973901234B8
:100E400073002030B70701401387074083A707408E
:100E5000584B698F09C77D8D3335A00082800145CD
:100E60008280B707014023AAA74082809C4513F7E0
:100E7000070113F8F70001C7D8413368E80083D5AC
:100E8000050013F7F50F39C318418146854E3D4FD4
:100E9000930F800293028004214E3396DE00B3F854
:100EA000C500631116039398260033131F011343E3
:100EB000F3FF3377E300B318180133E7E800639FCB
:100EC000F70550C98506E39AC6FD18C11307F00F50
:100ED0006375B70454412146854E3D4F930F800200
:100EE00093028004414EB398CE0033F7150163920C
:100EF000E8021317260001173313EF001343F3FF23
:100F0000B376D3003317E800D98E639DF701232A07
:100F100015010506E319C6FD54C18280E39457FA12
:100F200010C94DB7E39757FE23281501DDB719C245
:100F30000CC982804CC98280B70701406355050403
:100F4000D44FB7073000131705013376F5004183FE
:100F5000631DF602370600F17D1637080140B3F72E
:100F6000C60083264800758E2322C80099C5935673
:100F7000550192063317D700D98F37070140635EBA
:100F800005025CCF8280D4436DBF9317B50063D058
:100F900007029357050113F6F7008D47B397C70073
:100FA00093C7F7FFF58FB706000FD58FC1B79357DB
:100FB00055019207B317F700E5B75CC38280371776
:100FC00002405C439146B18B6385D700A14663889C
:100FD000D706B7177A00938707201CC1371602403F
:100FE0005C4237070020130707009183BD8BBA9737
:100FF00083C607001C41B3D7D7005CC15442A1820D
:101000009D8ABA9683C60600B3D6D70014C554424B
:10101000AD829D8A369703470700B3D7E7005CC5CA
:101020005842398393763700370700201307870B20
:10103000369703470700B3D7E7021CC982805C4399
:1010400054434167C983F98E37F7FF1F0327C770E1
:10105000BD8B8907131617016348060045460147F3
:101060006392C702C94739A809476389E7023D4728
:101070006388E70241476388E70245460147639377
:10108000C700C14785E6B746024083A60680C18AED
:101090008DC6B7167A009386062025A00147D9B7DA
:1010A0000547B547C5B70147BD47E9BFB716024079
:1010B000D4421396E600E35E06FCB7163D00938625
:1010C0000690B387D7021CC111DB1C41858331B761
:1010D00099C5371702401C4F5D8D08CF8280B71726
:1010E0000240984F1345F5FF798D88CF828099C5CE
:1010F000371702405C4F5D8D48CF8280B7170240A2
:10110000D84F1345F5FF798DC8CF828083570501ED
:101110000355C500ED8F4205418189C76D8D33357B
:10112000A00082800145828093C5F5FFC205C18180
:101130002318B500828083560501F577FD17F58FDA
:1011400083D66500397122DC06DED58F03D7C50052
:101150002318F5008356C500FD779387379FF58FD9
:1011600083D645002A842EC6D58F83D68500D58F99
:1011700083D6A500D58F2316F50083574501C207F6
:10118000C18393F7F7CFD98F231AF5006808053D7F
:10119000B747014093870780B245631EF404A25706
:1011A0008356C4006547B387E702C206C1869841EB
:1011B00063D5060406070356C4004206B3D7E70208
:1011C000130740064186B3D6E702B3F7E70292065B
:1011D000635706028E0793872703B3D7E70213F7F7
:1011E0007700B367D700C207C1832314F400F2501D
:1011F000625421618280925765B70A076DBF9207DA
:1012000093872703B3D7E702BD8BD58FE9BF81C989
:101210008357C5000967D98F2316F50082800357CD
:10122000C500F977FD17F98FC5BF93F5F51F231298
:10123000B5008280035505006D8D3335A000828096
:1012400013F7F50F85461583B397B6006313D702DE
:101250000357C500F98F0357050001454207418335
:1012600081CB0545A181B315B5006D8F3335E00005
:10127000828089466315D70003570501E1BF0357F4
:101280004501C9BFA1818547B397B70093C7F7FF51
:10129000C207C1832310F5008280B7070050239A4C
:1012A000A70203C767031377C70F238BE702828068
:1012B000B7070050239CA70203C7A7031377C70FE4
:1012C000238DE7028280814713F7F70F6363A7003E
:1012D000E9B703A701993E9783460700850793C6A0
:1012E000F6FF2300D704CDB7814713F7F70F6363E9
:1012F000A7007DBF03A7C18B3E97834607008507E4
:1013000093C6F6FF2300D704CDB7B707005003C735
:1013100067001377F70F937627006388066601113D
:1013200022CE26CC4ACA4EC852C656C403C777003E
:1013300093060002137707036301D74C13060003DB
:101340006301C7046314072203C7770005461377B8
:10135000F703630AC7606304075889466318D720F8
:1013600003C77700137707046302072003C7B70397
:1013700013474700A38DE70288471375F50FAD3774
:10138000F5A219472389E7021147A389E70283A43D
:10139000018C83C7740003C76400A207D98F239A06
:1013A000F18A03C71400238BE18A03CA0400137770
:1013B0000A066308070E03C7618B1377070219CF6C
:1013C00083C7618B1307100293F7F70F638AE70057
:1013D000130720026384E7006393D718014989A0AB
:1013E0009387418023ACF18A83D7418B1D472149E4
:1013F0006366F70003D9418B1379F90F4A86938509
:1014000041802685ED2583D7418BB3872741C207CD
:10141000C183239AF18A83A7818BCA9723ACF18A6F
:1014200083D7418B4209135909016374F900239A48
:10143000218B9387018203D707009D46A14463E671
:10144000E60083D4070093F4F40F03A9818B26866A
:10145000CA8513854194CA94592D23AC918A620A96
:10146000135A8A41814763520A0203D7418BA1472D
:1014700063E6E70083D7418B93F7F70F03D7418BE0
:101480001D8F42074183239AE18AC2073707005024
:10149000C1832318F70291472309F702A309F70232
:1014A000F1A083C7618B2D4793F7F70F6369F70AA4
:1014B0000D678A071307C7E2BA979C43828783C7E1
:1014C000340003C724008D46A207D98F13D78700A5
:1014D0006305D70C63ECE6008547630BF702894789
:1014E0006304F70A1309F00F814715A89D476308A5
:1014F000F71093072002630CF70E9947E314F7FEE9
:101500008D679387C7EF23ACF18A0149A94701A8EA
:101510008D67938707EA23ACF18A0149C94703D74E
:10152000418BC207C18363F4E700239AF18A83D712
:10153000418B1D47A14A6366F70083DA418B93FA1A
:10154000FA0F83A5818B56862685552383A7818B29
:10155000BE9A23AC518B9307F00FE312F9F0B70753
:1015600000501D472389E702A389E702B70700500F
:1015700009472383E7007244E2445249C249324A90
:10158000A24A0561730020308D679387C7E523ACBD
:10159000F18A01499307300459B793F7F70F85464D
:1015A0006387D70291CF8946638BD702E39CE7F22A
:1015B0008D67938747EE23ACF18A0149D94785B7F8
:1015C0009387418123ACF18A0149914789BF8D6797
:1015D000938747EB23ACF18A0149B94789B78D67F7
:1015E000938747EC23ACF18A0149B1470DBF8D6762
:1015F000938707ED23ACF18A0149D1470DB783C723
:10160000B18093F7F70FE39F07EC37090020130928
:1016100009018D65130610049385E5E5130529007E
:10162000F92123AC218BB5B783C72400239AF18A13
:101630003DB583C701832380F40003D7418B8547E1
:10164000E3E6E7FE29BD03C724002388E18201BD4C
:101650001377FA018947E314F7F083C744006383E3
:10166000E704636EF7000547E39BE7EE370700509A
:101670008347770393F7870FA30BF702CDB31307C5
:101680001008638AE70213072008E39AE7EC37079C
:1016900000508347A70393F7870F93E72700230D95
:1016A000F70275BB370700508347B70393F7870FDF
:1016B000A30DF7026DB3370700508347670393F715
:1016C000870F93E72700230BF70251BB03C7419411
:1016D0007D8B19EB9387419483D727000547E390CF
:1016E000E7E82381F182A5BB8946E31AD7E6938711
:1016F000419483D62700E39406E683C747006385B9
:10170000E7046360F7020547E39BE7E4370700500F
:101710008347770393F7C70FA30BF70293E73700CD
:10172000A1BF13071008638CE70213072008E39892
:10173000E7E2370700508347A70393F7C70F230D4E
:10174000F70293E73700A1BF370700508347B7037D
:1017500093F7C70FA30DF70293E7370091BF370741
:1017600000508347670393F7C70F230BF70293E7F4
:10177000370091BF23800400C9B523820194938769
:10178000018283D607000547E37BD7CC2390E7008F
:10179000F9B11387419403574700239201949306AC
:1017A00010086313D70237070050034767030D8BF8
:1017B0008D466315D70005472382E1949387018204
:1017C00083D607000947C9B785466317D70037078F
:1017D000005003477703E1BF930620086317D70043
:1017E000370700500347A703D9B78946E318D7FC4A
:1017F000370700500347B7035DBF83C67700130662
:10180000100293F6F6036380C60A1306200263896A
:10181000C60AE39DE6D403C7618B95461377F70F9D
:10182000630FD7049946631DD70683D7418B1D47A5
:1018300021446366F70003D4418B1374F40F03A5AE
:10184000018C83A5818B22865D2483D7418B13175E
:1018500004014183998FC207C183239AF18A83A728
:10186000818B3E9423AC818AB70700502398E7020E
:1018700003C72703134747002389E702C5B903C7F6
:10188000370083D6418B13770708558F1377F70FEF
:10189000A381E70009472389E702A3890702F9B179
:1018A00023980702C5BF03C767031377C70F238BAE
:1018B000E70203C7670313474700238BE7027DB1A5
:1018C00003C7A70313474700238DE70203C7A703F6
:1018D0001377C70F13672700238DE70241B983C72A
:1018E000618B6393F60483A7018C83C6170003C73B
:1018F0000700558F83C62700558F83C63700558F45
:1019000005CB83C5170003C7070037350000A205C4
:10191000D98D03C72700130585F042074D8F939596
:101920008601D98DEF001014B70700509C473DB9D0
:1019300083C5670037350000130585F1EF0090126D
:1019400083A7018C37350000130585F283C5470056
:10195000EF00501183A7018C37350000130585F384
:1019600083C55700C1B703C7770013770704E30F98
:1019700007BE03C7770313474700A38BE7028847D7
:101980001375F50FEFF03F94D5B69376170085CA1F
:10199000A3810700A3890702A38B0702A38D070277
:1019A00009472389E702238BE702238DE70203C758
:1019B0006700136717002383E700730020309376D6
:1019C0004700F5DA03C757001147F5B7B7170240CC
:1019D0009843B706FFF841111367170098C3D8431F
:1019E00037060200758FD8C39843B706F7FEFD1679
:1019F000758F98C39843B706FCFFFD16758F98C383
:101A0000D843B70681FFFD16758FD8C337079F00EF
:101A100098C702C402C69843C166558F98C3B716CB
:101A20000240130700509C42F18F3EC6A247850733
:101A30003EC4B24781E7A247E397E7FEB7170240EB
:101A40009C431397E7006350070A85473EC6324719
:101A500085476318F708B72702409843B706C1FFC8
:101A6000FD161367070198C39843719B98C3984369
:101A70001367270098C3B7170240D843D8C3D84389
:101A8000D8C3D84313670740D8C3D843758FD8C38A
:101A900037F7FF1F0327C77093161701D84363C694
:101AA0000604B7063D00558FD8C3371702401C43C4
:101AB000B7060001D58F1CC3B71702409843931691
:101AC0006700E3DD06FED843B7160240719BD8C31A
:101AD000D84313672700D8C32147DC42B18BE39E6C
:101AE000E7FE4101828002C69DB7C1666DBFB3C7E4
:101AF000A5008D8B3307C50081E78D4763EEC700D6
:101B0000AA876370E50A83C6050085078505A38F4C
:101B1000D7FEE3EAE7FE828093763500AA8791CA72
:101B200083C6050085078505A38FD7FE93F637008A
:101B3000FDB79376C7FF138606FE63F0C70683A33F
:101B4000050083A2450083AF850003AFC50083AEC7
:101B5000050103AE450103A3850183A8C501938553
:101B6000450223A0770003A8C5FF23A2570023A4A2
:101B7000F70123A6E70123A8D70123AAC70123ACB5
:101B8000670023AE17019387470223AE07FF75B79F
:101B900090419107910523AEC7FEE3EBD7FEE3E446
:101BA000E7F682801C46FD171CC663DA0700184E54
:101BB00063C5E700A9476394F5006F00E07C1C4211
:101BC0002E851387170018C22380B7008280011169
:101BD00022CC26CA4AC84EC652C406CE2A89AE892D
:101BE0003284B304D6007D5A63149400014509A8D9
:101BF000834504004E864A8575370504E31645FF84
:101C0000F2406244D2444249B249224A056182808C
:101C1000357122CD26CB4AC94EC706CF52C556C311
:101C20005AC1DEDEE2DCE6DAAA89AE843289368485
:101C300009C51C4D99E3EF00903797170000938773
:101C4000E736639CF40C83A4490083D7C400A18BBE
:101C5000FDC79C48EDC793070002A304F102930758
:101C6000000302D22305F10222C6930B5002971AF9
:101C70000000938AEA2D054C294B4A8483470400CF
:101C800099C36390770FB30C2441638D0C00E686F3
:101C90004A86A6854E85253FFD576308F51E925658
:101CA000E69636D2834704006381071EFD57130969
:101CB000140002C802CE3ECA02CCA309010482D499
:101CC0008345090015465685EF009054130419000A
:101CD000C24751E913F7070109C713070002A30917
:101CE000E10413F7870009C71307B002A309E10451
:101CF000834609001307A002638FE606F2474A8471
:101D0000814625460347040093051400130707FD89
:101D10006378E60AADCA3ECEBDA097170000938750
:101D2000E72A6395F40083A4890005B7971700009C
:101D30009387C725E39BF4F083A4C90039B7A68530
:101D40004E85192709D97D55FA406A44DA444A4933
:101D5000BA492A4A9A4A0A4BF65B665CD65C0D6120
:101D60008280050421BF330555413315AC00C98F6E
:101D70003EC82289B1B7324793064700184336C69A
:101D8000634907023ACE034704009307E002631F4A
:101D9000F704034714009307A002631BF702B2473E
:101DA0000904138747009C433AC663C107023ECA31
:101DB00035A83307E04093E727003ACE3EC8E1B7A5
:101DC000B387670385462E84BA972DBFFD57C5B7E5
:101DD000050402CA8146814725460347040093054E
:101DE0001400130707FD6378E606F1F2834504004B
:101DF0000D461715000013052516EF00704111CD93
:101E000097170000938747151D8D93070004B3971C
:101E1000A700424505045D8D2AC883450400194684
:101E20001715000013058513130914002304B102CC
:101E3000EF00103E3DC197E7FFFF9387A71C95E792
:101E40004247B2471377071009CF91073EC6925712
:101E5000D2973ED21DB5B387670385462E84BA97C5
:101E6000ADBF9D07E19BA107D5B77800970600009D
:101E7000938626D626860C084E8597000000E7003C
:101E80000000FD572A8AE314F5FC83D7C40093F7BA
:101E90000704E39A07EA125545BD7800970600004B
:101EA000938626D326860C084E85012AD9BF7971E0
:101EB00056CA9C49BA8A984522D426D24ECE52CCD4
:101EC00006D64AD05AC85EC6AA892E84B284368AFB
:101ED00063D3E700BA879CC00347340419C385075E
:101EE0009CC01C4093F7070281C79C4089079CC097
:101EF0000329040013796900631A0900130B940184
:101F0000FD5B5C449840998F634CF9041C40834608
:101F1000340493F70702B336D000A5EB130634045C
:101F2000D2854E85829AFD576303F5041C40114605
:101F30009840998B544481446397C700B384E6402A
:101F400063D3040081441C4418486354F700998FFC
:101F5000BE94014969047D5B63982405014509A885
:101F600085465A86D2854E85829A631E75017D55B7
:101F7000B250225492540259F249624AD24A424B18
:101F8000B24B456182800509ADBF3307D40013060B
:101F90000003A301C7040347540493871600A297C4
:101FA0008906A381E7049DBF85462286D2854E859A
:101FB000829AE30E65FB050945B7797122D426D2D2
:101FC0004AD04ECE06D652CC56CA5AC8B68983C617
:101FD0008501930790063289AA842E8413863504DE
:101FE000638DF60263E2D706930780056388F618CF
:101FF00063EDD7006381062293073004638FF60AEE
:10200000930A24042301D404D1A0930730066386E5
:10201000F60A93074006E395F6FE1C40084393F644
:10202000070893054500CDC61C410CC363D80700C3
:102030001307D002B307F040A301E4049716000091
:10204000938646F2294775A8930700076384F6161E
:1020500063E5D7029307E006638BF6189307F00653
:10206000E390F6FA0C401C4313F80508138547006B
:102070006308080608C39C4395A893075007E383A9
:10208000F6FE93078007638BF61293073007E399F8
:10209000F6F61C43D04181459386470014C383AABA
:1020A00007005685EF00D01601C53305554148C0DD
:1020B0005C401CC8A301040471A81C43930A2404B7
:1020C000938647009C4314C32301F4048547D5B786
:1020D00093F607041C410CC3B1DAC207C187B9B734
:1020E00093F5050408C3C1D983D707001307F00689
:1020F0006387E60E971600009386C6E62947A3017C
:1021000004044C400CC463C5050008406D9908C028
:1021100099E3B28A91CDB28AB3F5E702FD1AB6957A
:1021200083C505002380BA00B3D5E70263FFE70A41
:10213000A147631EF7001C40858B91CB58401C487B
:1021400063C7E70093070003A38FFAFEFD1A330667
:10215000564110C84E87CA867000A2852685813BED
:102160007D5A631E450B7D55B2502254925402593C
:10217000F249624AD24A424B45618280A382D50429
:1021800097160000938606DE0C40084313F80508F6
:102190001C411105630D080208C313F7150001C7A0
:1021A00093E505020CC04147B9FB0C4093F5F5FDE2
:1021B0000CC0B1B79C4193E707029CC1930780070D
:1021C000A302F40497160000938606DB75BF13F88C
:1021D000050408C3E30308FCC207C1837DBF97164B
:1021E0000000938626D8214719BFAE8735B79441A2
:1021F0001C43CC4913F80608138547006306080002
:1022000008C39C438CC301A808C393F606049C43EF
:10221000F5DA2390B70023280400B28A25BF1448BA
:102220005686CA8526858299E30F45F31C40898B23
:102230008DE7B2474844E359F5F23E8535B7854608
:102240005686CA8526858299E30F65F1050A5C44A6
:102250003247998FE345FAFEE9BF014A930A940198
:102260007D5BF5B739713EDA2ED232D436D63AD804
:1022700042DC46DE9387018122CC804326CA06CE0B
:10228000AA8409C41C4C99E3228515230C445410DC
:102290002686228536C6EFF0BF97F2406244D244CC
:1022A00021618280011126CA4AC806CE22CC4EC6C0
:1022B00052C4AA842E8901C51C4D91E3CD299C4CA2
:1022C000804499E32685E52197170000938707CE80
:1022D000631CF402C0408357C400A18BB1C71C48E3
:1022E000A1C7FD59294A1C4483450900FD17B1E9DE
:1022F0001CC463DE07062286A94526857120FD578A
:102300006308F502294535A097170000938707CC8D
:102310006314F4008044C1B797170000938707C780
:10232000E31BF4FAC04445BFA2852685312A55D95E
:102330007D55F2406244D2444249B249224A056185
:1023400082801CC4050963D70700184C63CBE700E3
:10235000638945011C401387170018C02380B7000C
:1023600059B7228626850D20E31F35F7D1B71C40CB
:102370001387170018C029472380E70061B79387A8
:102380000181AA85884339BF011122CC26CA4AC8D7
:1023900006CE4EC6AA842E89328401C51C4D91E317
:1023A000392197170000938767C06319F406C0406E
:1023B0001C4C1CC48357C400A18BC9C31C48BDCF8F
:1023C0001C4808409379F90F1379F90F1D8D5C486B
:1023D0006346F500A2852685652C2DE51C44050580
:1023E000FD171CC41C401387170018C02380370139
:1023F0005C486389A7008357C400858B81CBA947BC
:102400006316F900A285268561240DEDF240624431
:102410004A85D2444249B24905618280971700003B
:102420009387C7BA6314F400804459B79717000024
:102430009387C7B5E31EF4F6C0449DBFA2852685E9
:1024400021203DDD7D59D9B741119387018126C2F5
:10245000844322C44AC006C62A892E8489C49C4C5F
:1024600099E32685A92697170000938727B4631C54
:10247000F402C0400317C40093170701C18393F609
:102480008700B5EE93F607019DEEA5472320F900DE
:10249000136707042316E4007D55B240224492449A
:1024A00002494101828097170000938727B2631485
:1024B000F4008044C1B797170000938727ADE31B52
:1024C000F4FAC04445BF918B8DC74C5889C9930716
:1024D00044046384F5004A85892B232A0402835728
:1024E000C4002322040093F7B7FD2316F4001C4810
:1024F0001CC08357C40093E787002316F4001C48D0
:1025000081EF8357C4001307002093F707286385E2
:10251000E700A2854A85B9298357C40013F717003D
:1025200005C75C4823240400B307F0401CCC1C48BA
:102530000145A5F78317C40013F7070839DF93E7B0
:1025400007042316F40089BF898B014791E358489B
:1025500018C4F1BF83D7C500011122CC26CA06CE0C
:102560004AC84EC613F78700AA842E8471EFD8415B
:10257000634DE000B841634AE0000145F240624427
:10258000D2444249B2490561828058547DD703A99B
:1025900004009396370123A0040063DD060670480B
:1025A0008357C400918B99C75C401D8E5C5899C3BA
:1025B0003C401D8E5C540C50814626858297FD5709
:1025C0000357C400631DF5009440F54763E8D70640
:1025D000B70740208507B3D7D700858BA5C31C4814
:1025E000232204001CC09317370163D80700FD574E
:1025F0006314F5009C4091E368C84C5823A0240163
:10260000ADDD930744046384F50026853929232A28
:102610000402A5B70C500146854626850297FD5752
:102620002A86E31FF5F69C40A5DF75476385E70022
:1026300059476394E70423A0240181B71367070473
:102640002316E4007D551DBF83A90501E38709F228
:1026500003A905008D8B23A03501330939410147BA
:1026600091E3D84918C4E35A20F11C540C50CA868F
:102670004E86268582976349A0008357C40093E75E
:1026800007042316F4007DBFAA993309A940E1BFCE
:102690009C49B9CF011122CC06CE2A8411C51C4D0C
:1026A00081E72EC62922B24597170000938707902D
:1026B000639BF5004C408397C50095C72285624413
:1026C000F240056141BD97170000938727906394FE
:1026D000F5000C44CDB7971700009387278BE39C38
:1026E000F5FC4C44C9BFF24062440145056182805B
:1026F00001458280411122C406C62A842316B500F2
:102700002317C500232005002322050023240500EC
:102710002322050623280500232A0500232C050073
:10272000214681451305C505EFD09FAD97070000F1
:10273000938787495CD0970700009387E74B1CD4A9
:1027400097070000938727505CD497070000938772
:10275000E75200D01CD8B240224441018280970544
:102760000000938525F3A9A2411126C21306800615
:102770009384F5FFB384C4024AC02E8922C406C6DE
:1027800093854407A9262A8401CD2320050023220E
:102790002501310508C4138684068145EFD05FA664
:1027A0002285B240224492440249410182801C4D5C
:1027B000ADE3411106C622C497070000938767FA6C
:1027C0001CD5938781819C4323240504232605047B
:1027D000232805046314F50085471CCD2A841D2891
:1027E00048C02285052808C422852D2048C44840B9
:1027F00001469145013708440546A545E53D484455
:102800000946C945C53D85471CCCB240224441011B
:102810008280828041119387818126C284434AC08D
:1028200006C69C4C22C42A8999E32685493793849D
:1028300084048044DC40FD1763D607009C40B9CF78
:102840008440C5BF0317C40039E7C1778507232239
:1028500004062320040023220400232404005CC473
:1028600023280400232A0400232C04002146814548
:102870001305C405EFD0DF98232A0402232C040299
:1028800023240404232604042285B24022449244D3
:102890000249410182801304840671BF91454A8533
:1028A000E13588C051FDB1472320F9000144E9BF5B
:1028B000797122D44AD052CC56CA5AC85EC606D6BE
:1028C00026D24ECE2A8AAE8A130485040149054BCE
:1028D000FD5B09ECB25022544A8592540259F249E8
:1028E000624AD24A424BB24B4561828004448329FA
:1028F0004400FD1963D409000040E1BF83D7C40040
:10290000637BFB008397E40063877701A68552858C
:10291000829A3369A90093848406E1BF1971A6DA0B
:10292000AE848395E500A2DC86DE328463DC05009C
:1029300083D7C40023A0060093F707089DE39307FD
:10294000004015A0300836C67126B246E34205FEA7
:102950007247BD67F98F7977BA9793B717009CC212
:10296000F9BF930700041CC0F6506654D6540145C5
:102970000961828083D7C500011122CC06CE26CA08
:102980004AC8898B2E8489CF930774041CC01CC845
:1029900085475CC8F2406244D24442490561828066
:1029A00074003000AA849D3FA2452A89268505220D
:1029B00001ED8317C40013F7072069FFF19B93E72C
:1029C00027002316F400C9B797070000938767D93B
:1029D0009CD48357C40008C008C893E7070823168F
:1029E000F400A2475CC8B24789CF8315E40026856E
:1029F000392601C98357C400F19B93E717002316BA
:102A0000F4008357C4003369F9002316240159B731
:102A100093F5F50F2A966314C5000145828083471C
:102A20000500E38DB7FE0505FDB7CDC183A7C5FF42
:102A3000411122C406C626C21384C5FF63D3070012
:102A40003E94AA843926938741829C4399EB2322A2
:102A5000040023A281822244B2402685924441018F
:102A6000D5AC637EF40014403307D4006396E700CE
:102A70009843DC43369718C05CC0E1BFBA87D8439F
:102A800019C3E37DE4FE94433386D700631F8600B9
:102A90001040B29694C33386D700E31EC7FA1043A2
:102AA0005843B29694C3D8C37DB76375C400B14789
:102AB0009CC055B71040B306C4006316D70014433A
:102AC0005843B29614C058C0C0C371B78280011178
:102AD00026CA93843500F19806CE22CC4AC84EC649
:102AE000A104B14763F1F404B14463E0B4042A895A
:102AF0008D249387418298433A8431E09387818281
:102B00009C4391E781454A85512823A4A182A6854B
:102B10004A856920FD5963173507B1472320F9001D
:102B20004A850D2C29A0E3D204FCB1471CC1014504
:102B3000F2406244D2444249B249056182801C405D
:102B4000858F63CE0702AD4663F6F6001CC03E9447
:102B500004C031A05C406312870223A2F1824A853F
:102B6000D52A1305B4009307440061993307F54053
:102B700061D33A94898F1CC065BF5CC3CDB72287EF
:102B80004040A5BF130435007198E30385FCB305ED
:102B9000A4404A852120E31D35FB41B7411122C4E1
:102BA0002A842E8523AA019806C6112CFD57631787
:102BB000F500938741999C4391C31CC0B2402244C5
:102BC00041018280411122C42E848395E50006C60E
:102BD0005922634905007C48AA977CC8B240224428
:102BE000410182808357C4007D777D17F98F2316BA
:102BF000F400EDB783D7C500011122CC26CA4AC81C
:102C00004EC606CE93F70710AA842E843289B68961
:102C100091C78395E5008946014631228357C40058
:102C20007D777D17F98F2316F4008315E400624445
:102C3000F240CE864A86B24942492685D244056191
:102C40003DA8411122C42E848395E50006C6E128E3
:102C5000FD570357C400631BF500FD77FD17F98F7F
:102C60002316F400B2402244410182808567D98F47
:102C70002316F40068C8FDB78395E50005A8411147
:102C800022C42A842E85B285368623AA019806C6D8
:102C9000EFD03FACFD576317F500938741999C43F4
:102CA00091C31CC0B240224441018280411122C420
:102CB0002A842E8523AA019806C6E120FD576317B2
:102CC000F500938741999C4391C31CC0B2402244B4
:102CD00041018280411122C42A842E85B28523AA13
:102CE000019806C66D20FD576317F500938741993B
:102CF0009C4391C31CC0B2402244410182804111D7
:102D000022C42A842E8523AA019806C67920FD575D
:102D10006317F500938741999C4391C31CC0B2404F
:102D2000224441018280411122C42A842E85B28529
:102D3000368623AA019806C6BD20FD576317F50005
:102D4000938741999C4391C31CC0B24022444101E6
:102D5000828082808280411122C42A842E85B2859D
:102D6000368623AA019806C6A920FD576317F500E9
:102D7000938741999C4391C31CC0B24022444101B6
:102D800082809307800523AAF1987D55828093075E
:102D9000800523AAF1987D5582809307800523AA98
:102DA000F198014582809307800523AAF1987D550B
:102DB00082809307800523AAF1987D5582809387AE
:102DC000C1829C4391C73E9523A6A1823E85828005
:102DD000938781993E9523A6A1823E85828000003B
:102DE00054686973206973207072696E7466206517
:102DF00078616D706C650D0000080140000C0140A9
:102E0000001001400014014000180140003801404A
:102E10000044004000480040004C0040005000408A
:102E200000180040001C00400020004092170000E5
:102E3000501600005E150000CC1600005E15000064
:102E400028160000BE1400005E15000032160000B7
:102E500046160000741700007A17000009024300AC
:102E6000020100A032090400000102020100052451
:102E700000100105240100000424020205240600BC
:102E800001070581034000FF09040100020A000058
:102E90000007050202400000070582024000000012
:102EA0001201000202000008861A225700010102E6
:102EB000030100000E037700630068002E0063002A
:102EC0006E0000000C034300480033003000370060
:102ED000140332003000310037002D0032002D0085
:102EE0003200350016033000310032003300340068
:102EF0003500360037003800390000000A060002AD
:102F0000FF00FF40010000000A4261756420526129
:102F10007465203D202564000A646174614269740F
:102F2000203D2025640000000A73746F70426974AC
:102F3000203D2025640000000A7061726974795494
:102F4000797065203D20256400000000232D302B82
:102F500020000000686C4C0065666745464700002D
:102F600030313233343536373839414243444546BF
:102F70000000000030313233343536373839616281
:102F800063646566000000000000000000000000AF
:102F90000000000000000000000000000000000031
:102FA0000000000000000000000000000000000021
:102FB0000000000000000000000000000000000011
:102FC0000000000000000000000000000000000001
:102FD00000000000000000000000000000000000F1
:082FE0000000000000000000E9
:102FE80000000000010203040102030406070809A7
:102FF80009070000000000000000000000000000B9
:1030080000000000000000000000000000000000B8
:1030180000000000000000000000000000000000A8
:103028000000000000000000000000000000000098
:103038000000000000000000A82F0000C82F0000BA
:10304800882F0000000000000000000000000000C1
:103058000000000000000000000000000000000068
:103068000000000000000000000000000000000058
:103078000000000000000000000000000000000048
:103088000000000000000000000000000000000038
:1030980000000000000000000204060800C2010051
:1030A80000000801004495085400002004030904A6
:0830B80054000020000000009C
:00000001FF
