:100000006F10D00F13000000130000001300000059
:100010001300000013000000130000001300000094
:100020001300000013000000130000001300000084
:08003000130000007300100032
:100038000000000000000000A8020000AC02000060
:10004800000000004218000000000000000000004E
:1000580044180000461800000000000000000000DE
:1000680048180000000000004A18000000000000C6
:100078004C1800004E1800005018000052180000DC
:10008800541800005618000002040000160400006E
:100098003A040000500400006604000062180000E2
:1000A8006418000066180000681800006A1800004C
:1000B8006C1800006E18000070180000721800001C
:1000C8007418000076180000781800007C040000FE
:1000D8007C180000700500008018000082180000DD
:1000E80096050000B6050000DC0500008A1800002F
:1000F8008C1800008E18000090180000921800005C
:1001080094180000AE020000D802000002030000AC
:10011800EE0400009E180000A0180000A2180000BD
:1001280068060000A6180000A8180000AA18000019
:10013800AC180000AE18000002060000B21800005B
:100148002C030000560300002806000042060000A9
:10015800BC180000BE180000C0180000C21800003B
:10016800C4180000C6180000C8180000CA1800000B
:10017800CC180000CE180000D0180000AA230000F8
:10018800D4180000D6180000E6030000740300002D
:100198009E030000C8030000E01800008E0600005F
:1001A800E4180000E6180000E8180000B406000093
:1001B800EC180000EE180000F0180000F21800001B
:1001C800F4180000F6180000F8180000FA180000EB
:1001D8000000000000000000000000000000000017
:1001E8000000000000000000000000000000000007
:0801F8000000000000000000FF
:100200003D432A876373C3029377F700BDEFADE5E3
:10021000937606FF3D8ABA960CC34CC30CC74CC7F5
:100220004107E36BD7FE11E28280B306C3408A0622
:100230009702000096966780A6002307B700A306E2
:10024000B7002306B700A305B7002305B700A30432
:10025000B7002304B700A303B7002303B700A3022A
:10026000B7002302B700A301B7002301B700A30022
:10027000B7002300B700828093F5F50F93968500B1
:10028000D58D93960501D58D61B79396270097027A
:10029000000096968682E78086FA9680C1171D8FA9
:1002A0003E96E374C3F8A5B77300203001A0411156
:1002B00022C6374401409305505213050480EF20B5
:1002C000200219C59305505213050480EF208005C4
:1002D0003244410173002030411122C637440040AE
:1002E0009305505213050440EF10907F19C59305F4
:1002F000505213050440EF20E002324441017300E4
:100300002030411122C63754004093055052130546
:100310000480EF10F07C19C593055052130504803A
:10032000EF2040003244410173002030411122C6C9
:100330003754004093055052130504C0EF10507A13
:1003400019C593055052130504C0EF10B07D324417
:100350004101730020309305505237550040EF1093
:10036000307819C59305505237550040EF10907BF7
:1003700073002030411122C63724004093055052AB
:1003800013050480EF10D07519C59305505213055D
:100390000480EF1030793244410173002030411164
:1003A00022C63724004093055052130504C0EF10B5
:1003B000307319C593055052130504C0EF109076A1
:1003C00032444101730020309305505237250040DC
:1003D000EF10107119C59305505237250040EF10EA
:1003E000707473002030B707055003C70701118BE5
:1003F00019C703C707011377B70F2388E7007300F6
:1004000020300545EF10806585476314F500EF1037
:10041000C066730020300945EF1040648547631CB7
:10042000F5000945EF106065130520088145EF00D0
:10043000A0735145C921730020301145EF100062AF
:1004400085476315F5001145EF10206373002030D8
:100450002145EF10A06085476315F5002145EF1099
:10046000C061730020304145EF10405F8547631540
:10047000F5004145EF106060730020301305000265
:10048000EF10C05D85476316F50013050002EF10FD
:10049000C05E13050004EF10605C85476316F5002D
:1004A00013050004EF10605D13050008EF10005BFA
:1004B00085476316F50013050008EF10005C13056F
:1004C0000010EF10A05985476316F50013050010C2
:1004D000EF10A05A13050020EF104058854763160F
:1004E000F50013050020EF10405973002030411132
:1004F0001305004022C6EF10605685476316F500CD
:1005000013050040EF106057056413050480EF10D9
:10051000E05485476316F50013050480EF10E0559D
:100520000565EF10A05385476315F5000565EF10CD
:10053000C0540965EF10805285476315F5000965C1
:10054000EF10A0531165EF10605185476315F5005A
:100550001165EF1080522165EF10405085476315FB
:10056000F5002165EF1060513244410173002030E5
:10057000411122C6373401408545130504C0EF10F0
:10058000D04211C58545130504C0EF10D043324455
:10059000410173002030854537050040EF10F040E1
:1005A00009C9370500408545EF10F04113053008B3
:1005B000F92B73002030411122C6370400408545D5
:1005C00013050440EF10703E11C585451305044026
:1005D000EF10703F3244410173002030411122C6B8
:1005E00037140040854513050480EF10103C11C5F9
:1005F000854513050480EF10103D3244410173001E
:100600002030411122C6371400408545130504C02F
:10061000EF10B03911C58545130504C0EF10B03A8D
:100620003244410173002030854537150040EF10FA
:10063000D03711C5854537150040EF10D03873000D
:100640002030411122C6371400408545130504406F
:10065000EF10B03511C5854513050440EF10B036D5
:100660003244410173002030411122C63734014029
:10067000854513050440EF10503311C5854513051A
:100680000440EF10503432444101730020304111D6
:1006900022C6375401408545130504C0EF10F030E1
:1006A00011C58545130504C0EF10F03132444101F6
:1006B00073002030854537550140EF10102F11C5CC
:1006C000854537550140EF1010307300203041113F
:1006D00006C6EF10A005930510060945EF10E015BA
:1006E0000945EF104015AA85CDBF411106C622C4A9
:1006F00015E537C40200A1460146930504F213052F
:100700003020EF005015A1460146930504F2130571
:1007100020202244B24041016F00F013854763134B
:10072000F50237C4020081460146930504F2130521
:100730001010EF00501281460146930504F2130594
:100740000010C1BFB240224441018280797122D49D
:100750004AD04ECE52CC56CA06D626D28347150072
:100760003734014081452306F10083470500130912
:10077000C100130AF100A306F10083472500130509
:1007800004C0130404C02307F100EF101020896592
:10079000938AC55193894513A14483470900FD14E9
:1007A000CE85B3D79740858B91E3D6850D45212122
:1007B00085452285EF10501385452285EF10501D89
:1007C00065DD81452285EF10301285452285EF10C9
:1007D000F01C81452285EF10501BE1F00509E31D57
:1007E0002AFBB250225492540259F249624AD24A28
:1007F00045618280B7C5020001118146014693859B
:1008000005F20D4506CE2316010023070100EF0077
:100810009004373501408945130505C0EF10701568
:1008200068002D3713054006592868000537F24047
:1008300005618280B7170240DC4337177A0013073F
:100840000720C983BD8BB387E7023727F40013075E
:100850000740F165930610021306000293850520F8
:100860000945BA9723A0F1826F00104D011126CAE5
:10087000B754004022CC4AC84EC606CEAE89328953
:10088000014493840480634A2401F24062444A850F
:10089000D2444249B249056182809305000426850D
:1008A000EF1050237DD9B387890083850700268503
:1008B0000504C205C181EF105021F1B7828083A7E2
:1008C000C18037177A0013070720B3D7E7028146A4
:1008D00001473385A702B7F700E023A0070094C7BC
:1008E000D8C7054798C3B7F600E09846DC4699E3B9
:1008F000E37DE5FE828083A7C1800967130707F4C3
:10090000B3D7E702814601473385A702B7F700E076
:1009100023A0070094C7D8C7054798C3B7F600E0DF
:100920009846DC4699E3E37DE5FE828009E5814651
:1009300001468145A1AA0547E30BE5FE0947E30807
:10094000E5FE0D47E305E5FE1147E302E5FE154729
:10095000E30FE5FC1947E30CE5FC1D47E309E5FC63
:1009600021476318E50081460146814513050002D1
:10097000D1B725476318E500814601468145130537
:1009800010024DBF29476318E500814601468145A5
:100990001305000445B72D476318E500814601465D
:1009A00081451305100479B731476318E500814686
:1009B0000146814513052004B5BF35476318E5009E
:1009C00081460146814513053004ADB739476318A8
:1009D000E50081460146814513054004A1BF3D471E
:1009E0006318E5008146014681451305500499B717
:1009F0008280797122D485452A841305002006D689
:100A000026D2EF10802F2285153703A70182B7C7A2
:100A10000105938707D0316563E3E700216537243B
:100A20000140EF10401B13050440EF001076B7079C
:100A30000E003EC68A85854713050440230AF1004F
:100A400002C002C202C402C8EF00907885451305B7
:100A50000440EF00707D13050440EF00F07D930427
:100A600004402685EF00F07D6DFD1305044037241A
:100A70000140EF00907D130404402285EF00907D3B
:100A80006DFDB25022549254456182809307F00F5D
:100A9000630BF50C797122D41354550026D24AD039
:100AA0004ECE52CC06D61D889374F5003689328A14
:100AB000AE8935E085451145EF1020248547B39474
:100AC0009700C204C180231291006399F900931723
:100AD0000901C183A18391E38D473EC49167938748
:100AE00007D90A043E9400401379F90F4C0022857F
:100AF0004AC6EF00307985476397F9005286A6858C
:100B00002285EF104004B250225492540259F24907
:100B1000624A4561828085476315F4008545214519
:100B200061BF89476315F4008545414571B78D471D
:100B30006316F400854513050002BDBF9147631697
:100B4000F40085451305000485BF95476316F4003E
:100B50008545130500088DB79947E311F4F68545DF
:100B60001305001091BF82809357550013972700FB
:100B70009167938707D9BA9798439377F50005450E
:100B80003315F50099C108CB828048CB82809357FA
:100B9000350013F7C7019167938707D9BA97984330
:100BA0009377F500054554473315F500358D48C753
:100BB000828082808280935785001167130747DA0D
:100BC0008A07BA9798430D890A058357C7023A9551
:100BD000B385F502896793870771B3D5F502C2051E
:100BE000C1814CD9828019E5930680310146854543
:100BF000214569BD85476318F5009306803101469C
:100C000085452545FDB789476318F5009306803172
:100C1000014685452945F1BF8D476318F5009306C8
:100C20008031014685452D45E9B7C1476319F50077
:100C30009306803101468545130590085DBFC54781
:100C40006319F50093068031014685451305B00808
:100C50004DB7C9476319F5009306803101468545B4
:100C60001305D00879B7CD476319F5009306803195
:100C7000014685451305E008ADBF930700106318D2
:100C8000F500930680310146854501459DB79307E0
:100C900010106318F500930680310146854505451F
:100CA00089BF930720106318F50093068031014631
:100CB000854509453DBF930730106318F50093063D
:100CC0008031014685450D452DB793070011631806
:100CD000F50093068031014685453D4519BF9307D0
:100CE00010116319F50093068031014685451305FF
:100CF000300201B7930720116319F5009306803184
:100D0000014685451305A002EDB59307301163191F
:100D1000F50093068031014685451305B002D1BD2B
:100D2000930700206318F50093068031014685453E
:100D30001945C1B5930710206318F500930680315B
:100D4000014685451D4575B5930720206319F500BB
:100D500093068031014685451305000259BD93076E
:100D600030206319F500930680310146854513054F
:100D7000100241B5930700216319F50093068031F5
:100D80000146854513056004ADB59307102163192D
:100D9000F50093068031014685451305700491BD29
:100DA000930720216319F50093068031014685459C
:100DB000130580043DBD930730216319F5009306A8
:100DC0008031014685451305900425B5930700221F
:100DD0006319F500930680310146854513054002ED
:100DE00009BD930710226319F5009306803101466F
:100DF000854513055002F5BB930700306319F500D4
:100E0000930680310146854513056002DDB39307E3
:100E100010306319F50093068031014685451305AE
:100E20007002C1BB930720306319F500930680312F
:100E300001468545130580026DBB93073030631969
:100E4000F50093068031014685451305900255B3A0
:100E5000930700316319F5009306803101468545FB
:100E60001305C00679B3930710316319F500930693
:100E70008031014685451305D006A5BB9307203177
:100E80006319F50093068031014685451305E00698
:100E90008DB3930730316319F50093068031014615
:100EA00085451305F006B1B393070040E30BF5DC6D
:100EB00093071040E301F5DE93072040E307F5DEDA
:100EC00093073040E30DF5DE93070070E308F5EA81
:100ED00093071070E30FF5EA93072070E306F5EC33
:100EE00093073070E30DF5EC93070071E30AF5F01A
:100EF00093071071E301F5F293072071E308F5F20F
:100F0000930730716319F5009306803101468545DA
:100F10001305D004F9B993070580E38807D88567DE
:100F200013871780E30DE5D8138727806318E50042
:100F30009306803101468545114565B99387378011
:100F40006319F50093068031014685451305400479
:100F50004DB18567138707816319E50093068031DA
:100F6000014685451305900669B1138717816319FA
:100F7000E50093068031014685451305B00695B915
:100F800013872781E305E5EE13873781E307E5F053
:100F900013870790E30CE5E813871790E303E5EA6E
:100FA000138727906319E500930680310146854534
:100FB000130530043DB9138737906319E500930694
:100FC0008031014685451305B00425B1138707918B
:100FD0006319E50093068031014685451305100627
:100FE00009B9938717916319F5009306803101467B
:100FF000854513053006F5BE85671387279163196C
:10100000E500930680310146854513055006D5B6A7
:10101000138737916319E5009306803101468545B2
:1010200013057006F9B613870792E30EE5CA138716
:101030001792E301E5DA13872792E308E5DA93874D
:1010400037926319F50093068031014685451305F3
:10105000F00445B68280397106DE22DC26DA2A8465
:101060004AD84ED62EC632C43689B53EB24583A77D
:10107000C18022469359840033D7B7024E854183FD
:1010800093061700B386B602B3D7D702939407012D
:10109000C180B384C402096613060671FD179395D7
:1010A0000701C181B3D4C4023A86B52285450545FE
:1010B000EF00B044935744000547C204C1806394D5
:1010C000E7063705160085451305050CEF00502887
:1010D000C16711679387070613952900130747DA3D
:1010E0003EC83A9593773400231B9100231C0100DE
:1010F000231E01000041E9E70C082285EF00905112
:1011000085452285EF100000CA852285EF10E0009A
:1011100022858545EF00507DF2506254D2544259E9
:10112000B2592161828045476398E700370518006E
:1011300085451305053059BF130710026398E70072
:1011400037151A008545130505C049B71307200256
:101150006398E70037151A00854513050580BDB76C
:10116000130710036395E7008545056585B71307E9
:1011700010076399E700370701405C4F93E747008A
:101180005CCFB9B7130710086398E7003707014031
:101190005C4F93E70701EDB7130710096398E70069
:1011A000370701405C4F93E70704D9BF13072009B5
:1011B000E390E7F2370701405C4F93E70702C9B7B6
:1011C0000547639FE7000C082285EF00B04E22859B
:1011D0008545EF003073CA852285EF0030750DBF5D
:1011E00009470C082285639DE700EF0070592285AE
:1011F0008545EF003071CA852285EF00D07409BFA4
:10120000EF00B06422858545EF00D06FCA85228546
:10121000EF009074F5BD011122CC26CA4AC806CE53
:101220002A842E89B28401E9056585451305058068
:10123000EF00B02C39A08547631EF5028545EF000D
:10124000B02D9167938747DA0A043E9408404C001A
:1012500023142101231291002315010023130100FF
:1012600023060100EF00102FF2406244D2444249AD
:10127000056182808947E303F5FC8D476315F5001E
:10128000854511456DBF91476315F500854521459D
:101290007DB79D476315F5008545096551BFA14799
:1012A0006316F50085453705080059B7A547E31AC9
:1012B000F5F8854537051000A5BF91670A059387A6
:1012C00047DCAA9798438357070093F70708E5DFA1
:1012D000C205C1812312B700828091670A059387F6
:1012E00047DCAA9798438357070093F70702E5DF87
:1012F000035547001375F50F8280411106C60DE1B5
:1013000085476398F522E14601462545EFF00FF841
:101310009146014681452945B24041016FF00FF7E2
:101320008947631FF500E1460146854513056002C4
:10133000EFF0CFF591460146814513057002E9BFF4
:10134000C147631DF500E146014685450945EFF0BB
:10135000EFF39146014681450D457DBFC947631FA7
:10136000F500E1460146854513055006EFF00FF202
:101370009146014681451305600679BF9307000237
:10138000631FF500E146014685451305A002EFF015
:10139000EFEF9146014681451305B002B5BF9307B3
:1013A0002002631FF500E146014685451305A004B0
:1013B000EFF0CFED9146014681451305B004A9BF7A
:1013C000930740026310F502E14601468545130587
:1013D0008006EFF0AFEB93068004014681451305CC
:1013E00090061DBF93070004E30FF5FA930720044E
:1013F000631FF500E1460146854513050002EFF045
:10140000EFE89146014681451305100231B7930775
:101410000005631FF500E146014685451305C0043C
:10142000EFF0CFE691460146814513052006EDB564
:1014300093072005631FF500E14601468545130526
:101440008008EFF0AFE4914601468145130590080E
:10145000E1B5930700066310F502E14601468545B4
:1014600013050004EFF08FE29306800401468145E6
:101470001305100455B593072006631FF500E146D8
:10148000014685451305A008EFF04FE0914601465F
:1014900081451305B00849B593070007631FF500A0
:1014A000E1460146854513052004EFF02FDE914605
:1014B000014681451305300485B59307200763175E
:1014C000F500E146014685451945C5B79307400734
:1014D000631FF500E146014685451305C008EFF09E
:1014E000EFDA9146014681451305D00835B59307DB
:1014F0000008631FF500E1460146854513054004D9
:10150000EFF0CFD89146014681451305500429B527
:1015100093072008631FF500E14601468545130542
:10152000E008EFF0AFD69146014681451305F0087B
:10153000E5B3B24041018280797122D44ECE2A8433
:10154000AE890545854526D24AD006D6B28436896D
:10155000EF00A07A8947639DF4048D476315F90075
:1015600085451145F523631B041285451165EF0080
:10157000C078CA8526855133B7070C003EC49167F1
:10158000938747DC0A043E9400408A854EC022853A
:1015900002C223160100EF00F04322858545EF00CB
:1015A0001051B250225492540259F249456182803E
:1015B000C9476398F400CD47E317F9FA85452145FB
:1015C00055B793072002639BF40093073002E31C96
:1015D000F9F8370514008545410569B793074002BE
:1015E000639CF40093075002E31FF9F637051400DB
:1015F000854513050503BDB7930720046399F400DF
:1016000093073004E311F9F685450565A1BF9307FB
:101610002005639BF40093073005E316F9F43705C2
:101620002000854505053DBF93072006639CF40017
:1016300093073006E319F9F2371500808545130545
:1016400005800DB793072007639EF40093073007CA
:10165000E31BF9F0370701405C4FB7064000D58F18
:101660005CCF11B793074007639CF40093075007C2
:10167000E31BF9EE370701405C4FB7068000C5B7A2
:1016800093072008E391F4EE93073008E31DF9EC8B
:10169000370701405C4FB7060002D1B78547631793
:1016A000F400854537050200852DE1B589476316AD
:1016B000F400854537050400C5BF8D476316F40067
:1016C000854537050800CDB791476316F400854579
:1016D00037051000D1BF95476316F4008545130503
:1016E0000004D9B799476316F4008545130500082F
:1016F00065BF9D47E31FF4E68545130500106DB7F0
:101700008547631AF50093060031054685451305A4
:1017100020086FF0AFB789476319F50093060031D1
:101720000546854513053008EDB78280411106C690
:10173000EFF04FC8EFF00F90EFF04F980145EFE05A
:10174000DFFA0545EFE07FFA0545A9200945992014
:101750000D45892011453D2815452D2819451D2881
:101760000945EFF00FA90D45EFF0AFA81145EFF0D7
:101770004FA81545EFF0EFA71945EFF08FA70545E6
:1017800041370945B53FEFF0EF867128B24041017E
:101790006FF02FC2411122C406C685472A84631404
:1017A000F502930680340546814513050004EFF0E9
:1017B000EFAD99476315F4069306803405468145DD
:1017C0001305500425A089476319F500930680345A
:1017D0000546814513051004D9BF8D47631DF500EB
:1017E0009306803405468145130520042244B24007
:1017F00041016FF0AFA991476319F500930680345A
:101800000546814513053004D5B79547E313F5FA2E
:10181000930680340546814513054004C1BFB2409C
:1018200022444101828093068004054681451305C8
:10183000A0066FF0AFA56FF05FAA6FF01FA801A020
:1018400001A001A001A001A001A001A001A001A090
:1018500001A001A001A001A001A001A001A001A080
:1018600001A001A001A001A001A001A001A001A070
:1018700001A001A001A001A001A001A001A001A060
:1018800001A001A001A001A001A001A001A001A050
:1018900001A001A001A001A001A001A001A001A040
:1018A00001A001A001A001A001A001A001A001A030
:1018B00001A001A001A001A001A001A001A001A020
:1018C00001A001A001A001A001A001A001A001A010
:1018D00001A001A001A001A001A001A001A001A000
:1018E00001A001A001A001A001A001A001A001A0F0
:1018F00001A001A001A001A001A001A073901234D9
:1019000097F1FF1F938181FB176100201301816F05
:10191000172500001305056997E5FF1F9385856E60
:101920001386018263FAC5008322050023A05500B7
:1019300011059105E3EAC5FE138501829385C199DE
:101940006377B500232005001105E36DB5FEFD4268
:10195000739002BCFD4273904280B7820000938274
:10196000828873A0023097E2FFFF9382226D93E298
:10197000320073905230EF10600F97F2FFFF9382A6
:1019800042D573901234730020304111B7270140C3
:1019900006C693870740631CF500854513050020A4
:1019A000592E814513050020B240410169A6B73781
:1019B000014093870780631AF500854513050040B1
:1019C0009D2E814513050040C5B7B240410182807C
:1019D0005C413707F1E01307F7EF944D7D8F9C4191
:1019E000D58FD44DD58FD441A206D58FD98F5CC168
:1019F0001C4537F7F1FF1307D77FD4457D8F9C49EE
:101A0000D58F94458606D58FD98F1CC55C55370771
:101A100010FF7D177D8F83C74501FD1793F7F70FE3
:101A2000D207D98F5CD582801C4589C593E7170002
:101A30001CC58280F99BEDBF1C4593E787001CC540
:101A4000828008450D81058982801C4593E7470007
:101A50001CC582800845098105898280B70701403D
:101A60001387074083A70740584B698F09C77D8DAF
:101A70003335A000828001458280B707014023AA48
:101A8000A74082809C4513F7070113F8F70001C7B0
:101A9000D8413368E80083D5050013F7F50F39C343
:101AA00018418146854E3D4F930F8002930280047A
:101AB000214E3396DE00B3F8C500631116039398E8
:101AC000260033131F011343F3FF3377E300B318EA
:101AD000180133E7E800639FF70550C98506E39ACC
:101AE000C6FD18C11307F00F6375B70454412146B2
:101AF000854E3D4F930F800293028004414EB39870
:101B0000CE0033F715016392E80213172600011780
:101B10003313EF001343F3FFB376D3003317E8001A
:101B2000D98E639DF701232A15010506E319C6FD29
:101B300054C18280E39457FA10C94DB7E39757FE1A
:101B400023281501DDB719C20CC982804CC98280D7
:101B5000B707014063550504D44FB707300013178A
:101B600005013376F5004183631DF602370600F167
:101B70007D1637080140B3F7C60083264800758EEE
:101B80002322C80099C59356550192063317D700F2
:101B9000D98F37070140635E05025CCF8280D44352
:101BA0006DBF9317B50063D007029357050113F675
:101BB000F7008D47B397C70093C7F7FFF58FB706B8
:101BC000000FD58FC1B7935755019207B317F70090
:101BD000E5B75CC38280B7160240DC4251777D17BF
:101BE000F98F5D8DC8C28280371702405C439146F1
:101BF000B18B6385D700A1466388D706B7177A00F3
:101C0000938707201CC1371602405C42370700202B
:101C1000130707009183BD8BBA9783C607001C4149
:101C2000B3D7D7005CC15442A1829D8ABA9683C6BD
:101C30000600B3D6D70014C55442AD829D8A3697AC
:101C400003470700B3D7E7005CC558423983937652
:101C50003700370700201307870B36970347070025
:101C6000B3D7E7021CC982805C4354434167C983F0
:101C7000F98E37F7FF1F0327C770BD8B890713162F
:101C8000170163480600454601476392C702C947EA
:101C900039A809476389E7023D476388E70241475E
:101CA0006388E702454601476393C700C14785E65D
:101CB000B746024083A60680C18A8DC6B7167A0051
:101CC0009386062025A00147D9B70547B547C5B774
:101CD0000147BD47E9BFB7160240D4421396E6005C
:101CE000E35E06FCB7163D0093860690B387D702E5
:101CF0001CC111DB1C41858331B799C537170240E0
:101D00001C4F5D8D08CF8280B7170240984F134556
:101D1000F5FF798D88CF828099C5371702405C4FD7
:101D20005D8D48CF8280B7170240D84F1345F5FF2D
:101D3000798DC8CF828099C5371702405C475D8D89
:101D400048C78280B7170240D8471345F5FF798D01
:101D5000C8C782808357050037370140930607C004
:101D6000C207C1836300D504B7060040630CD502E7
:101D7000938606406308D502B71600401386068096
:101D80006302C502938606C0630ED50013070740A1
:101D9000630AE50037570140930607C06304D50086
:101DA0006317E50003D7250093F7F7F8D98F3717A6
:101DB0000040630DE500130707406309E50093F752
:101DC000F7CF03D76500C207C183D98F2310F50071
:101DD00083D745002316F50283D705002314F502A7
:101DE000B7370140138707C0630EE50093870740AC
:101DF000630AF500B7570140138707C06304E50085
:101E00006316F50083C785002318F5028547231A5A
:101E1000F50082808357050203D6050003D825000C
:101E2000C207C183F99BC207C1832310F502835700
:101E300005028356450003578501C207C183420747
:101E400041831377C7F8518F03D68500F59BC206EF
:101E500033660601D18F37360140130806C0C182B0
:101E6000630E050113060640630AC500375601409C
:101E7000130806C0630405016313C50203D6A50059
:101E8000DD9B03D8E500D18F03D64500ED9B93F68B
:101E9000F6CFD18F03D6C50033660601D18E23124B
:101EA000D500231CE50003D76500231AE5022310A3
:101EB000F50282808357050265771307F7CFC207C3
:101EC000C183BD9BC207C1832310F502835705025E
:101ED0008356450003D88500C20713960601835632
:101EE0008501C18393F7F7FD758F83D60500418285
:101EF000A206558F83D6250042074183B3E606012B
:101F00009206D58FB7360140C207138806C0C18339
:101F1000630E050193860640630AD500B75601405B
:101F2000138806C0630405016311D50483D6A50098
:101F300093F7F7F703D8C5009206D58F83D64500EF
:101F4000C207C183920693F7F7FBD58FFD76938680
:101F5000F63FF18E03D6E500C207C1833366060162
:101F60000A06D18E1396060141822312C500231C56
:101F7000E50003D76500231CE5022310F5028280EB
:101F80008357050203D88500C207C18393F7F7EF93
:101F9000C207C1832310F50283570502835645000B
:101FA0000357C501C20713960601420783D60500F1
:101FB00041831377C7F8558F83D62500C18393F7E4
:101FC000F7DFB3E60601A206D58FB7360140C20798
:101FD000138806C04182C183630E050193860640C3
:101FE000630AD500B7560140138806C06304050193
:101FF0006312D504FD769386F67FF58F83D6A50010
:1020000003D8C500A206D58F83D64500C207C18379
:10201000A20693F7F7BFD58FF576FD16F18E03D69E
:10202000E500C207C183336606011206D18E1396FE
:10203000060141822312C500231EE50003D7650077
:10204000231EE5022310F502828003570502FD7767
:10205000FD17F98F2310F50203580502835645003A
:102060008357C50165771396060183D605001307CC
:10207000F7CF7D8FF977A206FD17558FB3F70701CC
:1020800083D6250003D8850042074182B3E60601C6
:10209000B206D58FB7360140C207138806C0418308
:1020A000C183630E050193860640630AD500B756C7
:1020B0000140138806C063040501631CD500F17656
:1020C000FD16F18E03D6C5001A06D18E13960601B1
:1020D00041822312C500231EE50003D765002310AB
:1020E000E5042310F50282808357050091C593E72C
:1020F00017002310F5008280C207C183F99BC20735
:10210000C183C5BF8357450491C52167D98F231269
:10211000F5048280C607C583DDBF83578501C207EA
:10212000C183DD9BDD8D231CB500828003578501B3
:10213000FD779387F77FF98FA205CD8FC207C18303
:10214000231CF50082808357C501C207C183DD9B34
:10215000DD8D231EB50082800357C501FD7793876F
:10216000F77FF98FA205CD8FC207C183231EF5002B
:10217000828003570502F977FD17F98FB205CD8FDD
:10218000C207C1832310F50282802312B502828028
:10219000035505016D8D3335A000828093C5F5FF91
:1021A000C205C1812318B5008280835705010355FC
:1021B000C500ED8F4205418189C76D8D3335A00083
:1021C00082800145828093C5F5FFC205C181231835
:1021D000B500828083560501F577FD17F58F83D60C
:1021E0006500397122DC06DED58F03D7C5002318C0
:1021F000F5008356C500FD779387379FF58F83D60B
:1022000045002A842EC6D58F83D68500D58F83D6E8
:10221000A500D58F2316F50083574501C207C1835A
:1022200093F7F7CFD98F231AF5006808EFF0DF9BFB
:10223000B747014093870780B245631EF404A25755
:102240008356C4006547B387E702C206C18698413A
:1022500063D5060406070356C4004206B3D7E70257
:10226000130740064186B3D6E702B3F7E7029206AA
:10227000635706028E0793872703B3D7E70213F746
:102280007700B367D700C207C1832314F400F2506C
:10229000625421618280925765B70A076DBF920729
:1022A00093872703B3D7E702BD8BD58FE9BF81C9D9
:1022B0008357C5000967D98F2316F500828003571D
:1022C000C500F977FD17F98FC5BF93F5F51F2312E8
:1022D000B5008280035505006D8D3335A0008280E6
:1022E00013F7F50F85461583B397B6006313D7022E
:1022F0000357C500F98F0357050001454207418385
:1023000081CB0545A181B315B5006D8F3335E00054
:10231000828089466315D70003570501E1BF035743
:102320004501C9BFA1818547B397B70093C7F7FFA0
:10233000C207C1832310F5008280B7070050239A9B
:10234000A70203C767031377C70F238BE7028280B7
:10235000B7070050239CA70203C7A7031377C70F33
:10236000238DE7028280814713F7F70F6363A7008D
:10237000E9B703A741993E9783460700850793C6AF
:10238000F6FF2300D704CDB7814713F7F70F636338
:10239000A7007DBF03A7018C3E97834607008507F2
:1023A00093C6F6FF2300D704CDB7B707005003C785
:1023B00067001377F70F937627006388066601118D
:1023C00022CE26CC4ACA4EC852C656C403C777008E
:1023D00093060002137707036301D74C130600032B
:1023E0006301C7046314072203C777000546137708
:1023F000F703630AC7606304075889466318D72048
:1024000003C77700137707046302072003C7B703E6
:1024100013474700A38DE70288471375F50FAD37C3
:10242000F5A219472389E7021147A389E70283A48C
:10243000418C83C7740003C76400A207D98F239C13
:10244000F18A03C71400238DE18A03CA04001377BD
:102450000A066308070E03C7A18B1377070219CF7B
:1024600083C7A18B1307100293F7F70F638AE70066
:10247000130720026384E7006393D718014989A0FA
:102480009387418023AEF18A83D7818B1D472149F1
:102490006366F70003D9818B1379F90F4A86938518
:1024A00041802685ED2583D7818BB3872741C207DD
:1024B000C183239CF18A83A7C18BCA9723AEF18A7B
:1024C00083D7818B4209135909016374F900239C56
:1024D000218B9387418203D707009D46A14463E681
:1024E000E60083D4070093F4F40F03A9C18B26867A
:1024F000CA8513858194CA94592D23AE918A620AA4
:10250000135A8A41814763520A0203D7818BA1473C
:1025100063E6E70083D7818B93F7F70F03D7818BAF
:102520001D8F42074183239CE18AC2073707005071
:10253000C1832318F70291472309F702A309F70281
:10254000F1A083C7A18B2D4793F7F70F6369F70AB3
:1025500011678A07130747DEBA979C43828783C7B0
:10256000340003C724008D46A207D98F13D78700F4
:102570006305D70C63ECE6008547630BF7028947D8
:102580006304F70A1309F00F814715A89D476308F4
:10259000F71093072002630CF70E9947E314F7FE38
:1025A0009167938747EB23AEF18A0149A94701A8B8
:1025B0009167938787E523AEF18A0149C94703D71D
:1025C000818BC207C18363F4E700239CF18A83D720
:1025D000818B1D47A14A6366F70083DA818B93FAEA
:1025E000FA0F83A5C18B56862685552383A7C18BF9
:1025F000BE9A23AE518B9307F00FE312F9F0B707A1
:1026000000501D472389E702A389E702B70700505E
:1026100009472383E7007244E2445249C249324ADF
:10262000A24A0561730020309167938747E123AE8A
:10263000F18A01499307300459B793F7F70F85469C
:102640006387D70291CF8946638BD702E39CE7F279
:1026500091679387C7E923AEF18A0149D94785B7C6
:102660009387418123AEF18A0149914789BF9167E0
:102670009387C7E623AEF18A0149B94789B79167C5
:102680009387C7E723AEF18A0149B1470DBF916730
:10269000938787E823AEF18A0149D1470DB783C7F5
:1026A000B18093F7F70FE39F07EC37090020130978
:1026B0000901916513061004938565E1130529004E
:1026C000F92123AE218BB5B783C72400239CF18A5F
:1026D0003DB583C741832380F40003D7818B8547B1
:1026E000E3E6E7FE29BD03C72400238AE18201BD9A
:1026F0001377FA018947E314F7F083C74400638333
:10270000E704636EF7000547E39BE7EE37070050E9
:102710008347770393F7870FA30BF702CDB3130714
:102720001008638AE70213072008E39AE7EC3707EB
:1027300000508347A70393F7870F93E72700230DE4
:10274000F70275BB370700508347B70393F7870F2E
:10275000A30DF7026DB3370700508347670393F764
:10276000870F93E72700230BF70251BB03C7819420
:102770007D8B19EB9387819483D727000547E390DE
:10278000E7E82383F182A5BB8946E31AD7E693875E
:10279000819483D62700E39406E683C747006385C8
:1027A000E7046360F7020547E39BE7E4370700505F
:1027B0008347770393F7C70FA30BF70293E737001D
:1027C000A1BF13071008638CE70213072008E398E2
:1027D000E7E2370700508347A70393F7C70F230D9E
:1027E000F70293E73700A1BF370700508347B703CD
:1027F00093F7C70FA30DF70293E7370091BF370791
:1028000000508347670393F7C70F230BF70293E743
:10281000370091BF23800400C9B5238401949387B6
:10282000418283D607000547E37BD7CC2390E7009E
:10283000F9B11387819403574700239401949306B9
:1028400010086313D70237070050034767030D8B47
:102850008D466315D70005472384E1949387418211
:1028600083D607000947C9B785466317D7003707DE
:10287000005003477703E1BF930620086317D70092
:10288000370700500347A703D9B78946E318D7FC99
:10289000370700500347B7035DBF83C677001306B1
:1028A000100293F6F6036380C60A130620026389BA
:1028B000C60AE39DE6D403C7A18B95461377F70FAD
:1028C000630FD7049946631DD70683D7818B1D47B5
:1028D00021446366F70003D4818B1374F40F03A5BE
:1028E000418C83A5C18B22865D2483D7818B1317EE
:1028F00004014183998FC207C183239CF18A83A776
:10290000C18B3E9423AE818AB70700502398E7021B
:1029100003C72703134747002389E702C5B903C745
:10292000370083D6818B13770708558F1377F70FFE
:10293000A381E70009472389E702A3890702F9B1C8
:1029400023980702C5BF03C767031377C70F238BFD
:10295000E70203C7670313474700238BE7027DB1F4
:1029600003C7A70313474700238DE70203C7A70345
:102970001377C70F13672700238DE70241B983C779
:10298000A18B6393F60483A7418C83C6170003C70A
:102990000700558F83C62700558F83C63700558F94
:1029A00005CB83C5170003C7070037450000A20504
:1029B000D98D03C72700130505EC42074D8F93956A
:1029C0008601D98DEF007013B70700509C473DB9C1
:1029D00083C5670037450000130505EDEF00F011D2
:1029E00083A7418C37450000130505EE83C54700DA
:1029F000EF00B01083A7418C37450000130505EFA9
:102A000083C55700C1B703C7770013770704E30FE7
:102A100007BE03C7770313474700A38BE702884726
:102A20001375F50FEFF03F94D5B69376170085CA6E
:102A3000A3810700A3890702A38B0702A38D0702C6
:102A400009472389E702238BE702238DE70203C7A7
:102A50006700136717002383E70073002030937625
:102A60004700F5DA03C757001147F5B7B71702401B
:102A70009843B706FFF841111367170098C3D8436E
:102A800037060200758FD8C39843B706F7FEFD16C8
:102A9000758F98C39843B706FCFFFD16758F98C3D2
:102AA000D843B70681FFFD16758FD8C337079F003F
:102AB00098C702C402C69843C166558F98C3B7161B
:102AC0000240130700509C42F18F3EC6A247850783
:102AD0003EC4B24781E7A247E397E7FEB71702403B
:102AE0009C431397E7006350070A85473EC6324769
:102AF00085476318F708B72702409843B706C1FF18
:102B0000FD161367070198C39843719B98C39843B8
:102B10001367270098C3B7170240D843D8C3D843D8
:102B2000D8C3D84313670740D8C3D843758FD8C3D9
:102B300037F7FF1F0327C77093161701D84363C6E3
:102B40000604B7063D00558FD8C3371702401C4313
:102B5000B7060001D58F1CC3B717024098439316E0
:102B60006700E3DD06FED843B7160240719BD8C369
:102B7000D84313672700D8C32147DC42B18BE39EBB
:102B8000E7FE4101828002C69DB7C1666DBFB3C733
:102B9000A5008D8B3307C50081E78D4763EEC70025
:102BA000AA876370E50A83C6050085078505A38F9C
:102BB000D7FEE3EAE7FE828093763500AA8791CAC2
:102BC00083C6050085078505A38FD7FE93F63700DA
:102BD000FDB79376C7FF138606FE63F0C70683A38F
:102BE000050083A2450083AF850003AFC50083AE17
:102BF000050103AE450103A3850183A8C5019385A3
:102C0000450223A0770003A8C5FF23A2570023A4F1
:102C1000F70123A6E70123A8D70123AAC70123AC04
:102C2000670023AE17019387470223AE07FF75B7EE
:102C300090419107910523AEC7FEE3EBD7FEE3E495
:102C4000E7F682801C46FD171CC663D90700184EA4
:102C500063C5E700A9476393F500C5A51C422E850F
:102C60001387170018C22380B7008280011122CC7D
:102C700026CA4AC84EC652C406CE2A89AE893284B4
:102C8000B304D6007D5A63149400014509A8834516
:102C900004004E864A857D370504E31645FFF24061
:102CA0006244D2444249B249224A05618280357168
:102CB00022CD26CB4AC94EC706CF52C556C35AC1EC
:102CC000DEDEE2DCE6DAAA89AE843289368409C522
:102CD0001C4D99E3EF00D0289717000093878728B1
:102CE000639CF40C83A4490083D7C400A18BFDC767
:102CF0009C48EDC793070002A304F1029307000369
:102D000002D22305F10222C6930B5002971A00004B
:102D1000938A8A1F054C294B4A848347040099C330
:102D20006390770FB30C2441638D0C00E6864A86CE
:102D3000A6854E85253FFD576308F51E9256E696FB
:102D400036D2834704006381071EFD571309140020
:102D500002C802CE3ECA02CCA309010482D4834534
:102D6000090015465685EF00D04513041900C247E7
:102D700051E913F7070109C713070002A309E1048A
:102D800013F7870009C71307B002A309E1048346BC
:102D900009001307A002638FE606F2474A848146C2
:102DA00025460347040093051400130707FD6378C5
:102DB000E60AADCA3ECEBDA0971700009387871CD8
:102DC0006395F40083A4890005B7971700009387E3
:102DD0006717E39BF4F083A4C90039B7A6854E8535
:102DE000292D09D97D55FA406A44DA444A49BA493D
:102DF0002A4A9A4A0A4BF65B665CD65C0D61828071
:102E0000050421BF330555413315AC00C98F3EC8B9
:102E10002289B1B7324793064700184336C6634943
:102E200007023ACE034704009307E002631FF7044A
:102E3000034714009307A002631BF702B24709047B
:102E4000138747009C433AC663C107023ECA35A8B0
:102E50003307E04093E727003ACE3EC8E1B7B38797
:102E6000670385462E84BA972DBFFD57C5B7050465
:102E700002CA814681472546034704009305140092
:102E8000130707FD6378E606F1F2834504000D465B
:102E9000171500001305C507EF00B03211CD9717C5
:102EA00000009387E7061D8D93070004B397A700E2
:102EB000424505045D8D2AC883450400194617154F
:102EC000000013052505130914002304B102EF00C7
:102ED000502F3DC197D7FFFF9387C71295E7424711
:102EE000B2471377071009CF91073EC69257D29782
:102EF0003ED21DB5B387670385462E84BA97ADBF12
:102F00009D07E19BA107D5B778009706000093863F
:102F100026D626860C084E8597000000E7000000A4
:102F2000FD572A8AE314F5FC83D7C40093F70704FE
:102F3000E39A07EA125545BD78009706000093868C
:102F400026D326860C084E85012AD9BF797156CA28
:102F50009C49BA8A984522D426D24ECE52CC06D667
:102F60004AD05AC85EC6AA892E84B284368A63D3F0
:102F7000E700BA879CC00347340419C385079CC087
:102F80001C4093F7070281C79C4089079CC0032916
:102F9000040013796900631A0900130B9401FD5BA7
:102FA0005C449840998F634CF9041C408346340478
:102FB00093F70702B336D000A5EB13063404D2858D
:102FC0004E85829AFD576303F5041C4011469840D4
:102FD000998B544481446397C700B384E64063D31C
:102FE000040081441C4418486354F700998FBE9430
:102FF000014969047D5B63982405014509A885465C
:103000005A86D2854E85829A631E75017D55B250CF
:10301000225492540259F249624AD24A424BB24B6C
:10302000456182800509ADBF3307D4001306000354
:10303000A301C7040347540493871600A297890687
:10304000A381E7049DBF85462286D2854E85829A5C
:10305000E30E65FB050945B7797122D426D24AD023
:103060004ECE06D652CC56CA5AC8B68983C68501FA
:103070009307E0063289AA842E8413863504638080
:10308000F61E63E2D706930730066382F60A63ED05
:10309000D700638A061E930780056386F616930A97
:1030A00024042301D40469A8930740066386F6002C
:1030B00093079006E395F6FE1C40084393F6070835
:1030C00093054500C1C21C410CC363D80700130718
:1030D000D002B307F040A301E404971600009386E2
:1030E000E6E3294765A0930730076382F61A63EF8A
:1030F000D7009307F006638FF60493070007E39069
:10310000F6FA9C4193E707029CC109A89307500770
:103110006382F60493078007E393F6F8930780072A
:10312000A302F40497160000938686E0DDA01C43FA
:10313000938A2504938647009C4314C32381F50496
:103140008547ADA293F607041C410CC3BDDEC20740
:10315000C187A5BF0C401C4313F805081385470021
:103160006305080008C39C4339A093F5050408C310
:10317000FDD983D707001307F006638AE60C97167C
:1031800000009386A6D92947A30104044C400CC42F
:1031900063C5050008406D9908C099E3B28A91CDD6
:1031A000B28AB3F5E702FD1AB69583C50500238000
:1031B000BA00B3D5E70263F2E70AA147631EF7003E
:1031C0001C40858B91CB58401C4863C7E700930790
:1031D0000003A38FFAFEFD1A3306564110C84E872E
:1031E000CA867000A285268595337D5A6314450DE5
:1031F0007D55B250225492540259F249624AD24A41
:10320000424B45618280A382D504971600009386C5
:10321000E6D00C40084313F805081C411105630073
:10322000080208C313F7150001C793E505020CC097
:103230004147B9FB0C4093F5F5FD0CC0B1B713F84D
:10324000050408C3E30008FEC207C183E1BF971667
:1032500000009386A6CC214705BFAE8799B794415D
:103260001C43CC4913F80608138547006306080081
:1032700008C39C438CC301A808C393F606049C436F
:10328000F5DA2390B70023280400B28A89BF1C43D3
:10329000D04181459386470014C383AA0700568511
:1032A0000D2701C53305554148C05C401CC8A3012A
:1032B000040435B714485686CA8526858299E309E1
:1032C00045F31C40898B8DE7B2474844E353F5F240
:1032D0003E8505B785465686CA8526858299E309C7
:1032E00065F1050A5C443247998FE345FAFEE9BF70
:1032F000014A930A94017D5BF5B739713EDA2ED20B
:1033000032D436D63AD842DC46DE9387018122CCCD
:10331000804326CA06CEAA8409C41C4C99E32285A0
:1033200081210C4454102686228536C6EFF03F9842
:10333000F2406244D24421618280011122CC26CA2B
:103340004AC806CE4EC6AA842E89328401C51C4DB9
:1033500091E33921971700009387C7C06319F406DA
:10336000C0401C4C1CC48357C400A18BC9C31C485B
:10337000BDCF1C4808409379F90F1379F90F1D8DC3
:103380005C486346F500A2852685652C2DE51C4426
:103390000505FD171CC41C401387170018C02380A7
:1033A00037015C486389A7008357C400858B81CBB4
:1033B000A9476316F900A285268561240DEDF24028
:1033C00062444A85D2444249B249056182809717D6
:1033D0000000938727BB6314F400804459B7971704
:1033E0000000938727B6E31EF4F6C0449DBFA28574
:1033F000268521203DDD7D59D9B741119387018173
:1034000026C2844322C44AC006C62A892E8489C49F
:103410009C4C99E32685A92697170000938787B4CB
:10342000631CF402C0400317C40093170701C18353
:1034300093F68700B5EE93F607019DEEA54723208E
:10344000F900136707042316E4007D55B2402244B7
:10345000924402494101828097170000938787B206
:103460006314F4008044C1B797170000938787ADB9
:10347000E31BF4FAC04445BF918B8DC74C5889C9F2
:10348000930744046384F5004A85892B232A0402A8
:103490008357C4002322040093F7B7FD2316F400DA
:1034A0001C481CC08357C40093E787002316F40010
:1034B0001C4881EF8357C4001307002093F70728A7
:1034C0006385E700A2854A85B9298357C40013F7AD
:1034D000170005C75C4823240400B307F0401CCC48
:1034E0001C480145A5F78317C40013F7070839DF07
:1034F00093E707042316F40089BF898B014791E302
:10350000584818C4F1BF83D7C500011122CC26CA80
:1035100006CE4AC84EC613F78700AA842E8471EFE0
:10352000D841634DE000B841634AE0000145F240F4
:103530006244D2444249B2490561828058547DD7E1
:1035400003A904009396370123A0040063DD060657
:1035500070488357C400918B99C75C401D8E5C589E
:1035600099C33C401D8E5C540C5081462685829741
:10357000FD570357C400631DF5009440F54763E809
:10358000D706B70740208507B3D7D700858BA5C3DB
:103590001C48232204001CC09317370163D807007E
:1035A000FD576314F5009C4091E368C84C5823A074
:1035B0002401ADDD930744046384F5002685392991
:1035C000232A0402A5B70C5001468546268502979A
:1035D000FD572A86E31FF5F69C40A5DF75476385F6
:1035E000E70059476394E70423A0240181B71367D8
:1035F00007042316E4007D551DBF83A90501E38759
:1036000009F203A905008D8B23A035013309394147
:10361000014791E3D84918C4E35A20F11C540C50D7
:10362000CA864E86268582976349A0008357C400C8
:1036300093E707042316F4007DBFAA993309A94034
:10364000E1BF9C49B9CF011122CC06CE2A8411C515
:103650001C4D81E72EC62922B2459717000093879B
:103660006790639BF5004C408397C50095C7228502
:103670006244F240056141BD97170000938787902F
:103680006394F5000C44CDB7971700009387878BA0
:10369000E39CF5FC4C44C9BFF2406244014505611E
:1036A000828001458280411122C406C62A842316E5
:1036B000B5002317C500232005002322050023247D
:1036C00005002322050623280500232A0500232CB4
:1036D0000500214681451305C505EFC07FB2970758
:1036E0000000938787495CD0970700009387E74BDA
:1036F0001CD497070000938727505CD497070000DD
:103700009387E75200D01CD8B24022444101828006
:1037100097050000938525F3A9A2411126C213063F
:1037200080069384F5FFB384C4024AC02E8922C464
:1037300006C693854407A9262A8401CD23200500C7
:1037400023222501310508C4138684068145EFC074
:103750003FAB2285B240224492440249410182801B
:103760001C4DADE3411106C622C4970700009387A4
:1037700067FA1CD5938781819C4323240504232663
:103780000504232805046314F50085471CCD2A840D
:103790001D2848C02285052808C422852D2048C43C
:1037A000484001469145013708440546A545E53D99
:1037B00048440946C945C53D85471CCCB240224412
:1037C00041018280828041119387818126C2844396
:1037D0004AC006C69C4C22C42A8999E326854937EB
:1037E000938484048044DC40FD1763D607009C402A
:1037F000B9CF8440C5BF0317C40039E7C177850737
:10380000232204062320040023220400232404008E
:103810005CC423280400232A0400232C040021462E
:1038200081451305C405EFC0BF9D232A0402232C44
:10383000040223240404232604042285B2402244E3
:1038400092440249410182801304840671BF91456C
:103850004A85E13588C051FDB1472320F900014474
:10386000E9BF797122D44AD052CC56CA5AC85EC632
:1038700006D626D24ECE2A8AAE8A13048504014982
:10388000054BFD5B09ECB25022544A859254025913
:10389000F249624AD24A424BB24B456182800444AB
:1038A00083294400FD1963D409000040E1BF83D798
:1038B000C400637BFB008397E40063877701A685E0
:1038C0005285829A3369A90093848406E1BF1971F5
:1038D000A6DAAE848395E500A2DC86DE328463DC62
:1038E000050083D7C40023A0060093F707089DE3D3
:1038F0009307004015A0300836C67126B246E34251
:1039000005FE7247BD67F98F7977BA9793B71700AD
:103910009CC2F9BF930700041CC0F6506654D654ED
:1039200001450961828083D7C500011122CC06CEF2
:1039300026CA4AC8898B2E8489CF930774041CC079
:103940001CC885475CC8F2406244D24442490561C4
:10395000828074003000AA849D3FA2452A89268572
:10396000052201ED8317C40013F7072069FFF19BBF
:1039700093E727002316F400C9B797070000938741
:1039800067D99CD48357C40008C008C893E70708C8
:103990002316F400A2475CC8B24789CF8315E40020
:1039A0002685392601C98357C400F19B93E7170088
:1039B0002316F4008357C4003369F9002316240149
:1039C00059B793F5F50F2A966314C5000145828017
:1039D00083470500E38DB7FE0505FDB7CDC183A77D
:1039E000C5FF411122C406C626C21384C5FF63D396
:1039F00007003E94AA843926938781829C4399EBE1
:103A00002322040023A481822244B24026859244CA
:103A10004101D5AC637EF40014403307D4006396B3
:103A2000E7009843DC43369718C05CC0E1BFBA8713
:103A3000D84319C3E37DE4FE94433386D700631F64
:103A400086001040B29694C33386D700E31EC7FAAF
:103A500010435843B29694C3D8C37DB76375C4006E
:103A6000B1479CC055B71040B306C4006316D700D9
:103A700014435843B29614C058C0C0C371B7828073
:103A8000011126CA93843500F19806CE22CC4AC88B
:103A90004EC6A104B14763F1F404B14463E0B40439
:103AA0002A898D249387818298433A8431E09387D1
:103AB000C1829C4391E781454A85512823A6A18272
:103AC000A6854A856920FD5963173507B14723202C
:103AD000F9004A850D2C29A0E3D204FCB1471CC192
:103AE0000145F2406244D2444249B24905618280B4
:103AF0001C40858F63CE0702AD4663F6F6001CC0FE
:103B00003E9404C031A05C406312870223A4F1827A
:103B10004A85D52A1305B4009307440061993307F9
:103B2000F54061D33A94898F1CC065BF5CC3CDB7A3
:103B300022874040A5BF130435007198E30385FC3C
:103B4000B305A4404A852120E31D35FB41B741114F
:103B500022C42A842E8523AC019806C6112CFD5759
:103B60006317F500938781999C4391C31CC0B240B1
:103B7000224441018280411122C42E848395E500B4
:103B800006C65922634905007C48AA977CC8B24002
:103B90002244410182808357C4007D777D17F98FCD
:103BA0002316F400EDB783D7C500011122CC26CA35
:103BB0004AC84EC606CE93F70710AA842E843289CF
:103BC000B68991C78395E50089460146312283571E
:103BD000C4007D777D17F98F2316F4008315E40068
:103BE0006244F240CE864A86B24942492685D24492
:103BF00005613DA8411122C42E848395E50006C6C7
:103C0000E128FD570357C400631BF500FD77FD173E
:103C1000F98F2316F400B240224441018280856767
:103C2000D98F2316F40068C8FDB78395E50005A871
:103C3000411122C42A842E85B285368623AC019890
:103C400006C6EFC0BFC2FD576317F5009387819981
:103C50009C4391C31CC0B240224441018280411167
:103C600022C42A842E8523AC019806C6E120FD5784
:103C70006317F500938781999C4391C31CC0B240A0
:103C8000224441018280411122C42A842E85B285BA
:103C900023AC019806C66D20FD576317F500938786
:103CA00081999C4391C31CC0B2402244410182804F
:103CB000411122C42A842E8523AC019806C679209E
:103CC000FD576317F500938781999C4391C31CC0EE
:103CD000B240224441018280411122C42A842E85AF
:103CE000B285368623AC019806C6BD20FD57631702
:103CF000F500938781999C4391C31CC0B240224434
:103D00004101828082808280411122C42A842E85D2
:103D1000B285368623AC019806C6A920FD576317E5
:103D2000F500938781999C4391C31CC0B240224403
:103D3000410182809307800523ACF1987D558280F4
:103D40009307800523ACF1987D5582809307800509
:103D500023ACF198014582809307800523ACF1984C
:103D60007D5582809307800523ACF1987D55828034
:103D7000938701839C4391C73E9523A8A1823E85EA
:103D800082809387C1993E9523A8A1823E85828037
:103D900000080140000C01400010014000140140E7
:103DA00000180140002C01400000004000040040C9
:103DB00000080040000C004000340140004C01406D
:103DC00000500140003801400044004000480040DD
:103DD000004C00400050004000180040001C004013
:103DE0000020004032280000F0260000FE250000E0
:103DF0006C270000FE250000C82600005E2500009C
:103E0000FE250000D2260000E6260000142800004F
:103E10001A28000009024300020100A03209040030
:103E20000001020201000524001001052401000028
:103E3000042402020524060001070581034000FF57
:103E400009040100020A0000000705020240000008
:103E50000705820240000000120100020200000873
:103E6000861A225700010102030100000E037700A9
:103E7000630068002E0063006E0000000C03430026
:103E800048003300300037001403320030003100A6
:103E900037002D0032002D003200350016033000AF
:103EA000310032003300340035003600370038006E
:103EB000390000000A060002FF00FF400100000078
:103EC0000A426175642052617465203D20256400BA
:103ED0000A64617461426974203D20256400000019
:103EE0000A73746F70426974203D202564000000DD
:103EF0000A70617269747954797065203D20256477
:103F000000000000232D302B20000000686C4C00C6
:103F10006566674546470000303132333435363701
:103F200038394142434445460000000030313233C5
:103F300034353637383961626364656600000000E5
:103F40000000000000000000000000000000000071
:103F50000000000000000000000000000000000061
:103F60000000000000000000000000000000000051
:103F70000000000000000000000000000000000041
:103F80000000000000000000000000000000000031
:103F90000000000000000000000000000000000021
:103FA00000000000010203040102030406070809DF
:103FB00009070000000000000000000000000000F1
:103FC00000000000000000000000000000000000F1
:103FD00000000000000000000000000000000000E1
:103FE00000000000000000000000000000000000D1
:103FF0000000000000000000603F0000803F000063
:10400000403F000000000000000000000000000031
:1040100000000000000000000000000000000000A0
:104020000000000000000000000000000000000090
:104030000000000000000000000000000000000080
:104040000000000000000000000000000000000070
:1040500000000000000000000204060800C2010089
:1040600000000801004495085400002004030904DE
:084070005400002000000000D4
:00000001FF
