:100000006F10101413000000130000001300000014
:100010001300000013000000130000001300000094
:100020001300000013000000130000001300000084
:08003000130000007300100032
:100038000000000000000000A8020000AC02000060
:10004800000000008618000000000000000000000A
:10005800881800008A180000000000000000000056
:100068008C180000000000008E180000000000003E
:1000780090180000921800009418000096180000CC
:10008800981800009A1800001404000028040000C2
:100098003E040000540400006A040000A618000092
:1000A800A8180000AA180000AC180000AE1800003C
:1000B800B0180000B2180000B4180000B61800000C
:1000C800B8180000BA180000BC180000800400002E
:1000D800C018000074050000C4180000C61800000D
:1000E8009A050000B4050000DA050000CE180000EB
:1000F800D0180000D2180000D4180000D61800004C
:10010800D8180000AE020000D80200000203000068
:10011800F2040000E2180000E4180000E6180000ED
:1001280066060000EA180000EC180000EE1800004F
:10013800F0180000F218000000060000F618000091
:100148003E03000068030000260600004006000089
:100158000019000002190000041900000619000027
:10016800081900000A1900000C1900000E190000F7
:10017800101900001219000014190000F8230000DB
:10018800181900001A190000F8030000860300007F
:10019800B0030000DA030000241900008C060000F8
:1001A800281900002A1900002C190000B2060000C6
:1001B8003019000032190000341900003619000007
:1001C800381900003A1900003C1900003E190000D7
:1001D8000000000000000000000000000000000017
:1001E8000000000000000000000000000000000007
:0801F8000000000000000000FF
:100200003D432A876373C3029377F700BDEFADE5E3
:10021000937606FF3D8ABA960CC34CC30CC74CC7F5
:100220004107E36BD7FE11E28280B306C3408A0622
:100230009702000096966780A6002307B700A306E2
:10024000B7002306B700A305B7002305B700A30432
:10025000B7002304B700A303B7002303B700A3022A
:10026000B7002302B700A301B7002301B700A30022
:10027000B7002300B700828093F5F50F93968500B1
:10028000D58D93960501D58D61B79396270097027A
:10029000000096968682E78086FA9680C1171D8FA9
:1002A0003E96E374C3F8A5B77300203001A0411156
:1002B00022C6374401409305505213050480EF20B5
:1002C000000719C59305505213050480EF20600AFA
:1002D0003244410173002030411122C637440040AE
:1002E0009305505213050440EF20600419C593058F
:1002F000505213050440EF20C007324441017300FF
:100300002030411122C63754004093055052130546
:100310000480EF20C00105C1054713050480A38AAE
:10032000E182EF10707F238AA1829305505213055A
:100330000480EF2000043244410173002030411159
:1003400022C63754004093055052130504C0EF10E5
:10035000107E19C593055052130504C0EF206001AB
:10036000324441017300203093055052375500400C
:10037000EF10F07B19C59305505237550040EF1030
:10038000507F73002030411122C63724004093056E
:10039000505213050480EF10907919C593055052FF
:1003A00013050480EF10F07C3244410173002030CB
:1003B000411122C63724004093055052130504C052
:1003C000EF10F07619C593055052130504C0EF10D5
:1003D000507A324441017300203093055052372542
:1003E0000040EF10D07419C59305505237250040D6
:1003F000EF10307873002030B707055003C70701AE
:10040000118B19C703C707011377B70F2388E700BC
:10041000730020300545EF10A06885476314F50090
:10042000EF10E069730020300945EF1060678547E1
:100430006315F5000945EF10806873002030114501
:10044000EF10006685476315F5001145EF10206732
:10045000730020302145EF10A06485476315F50037
:100460002145EF10C065730020304145EF10406317
:1004700085476315F5004145EF1060647300203037
:1004800013050002EF10C06185476316F5001305E0
:100490000002EF10C06213050004EF106060854792
:1004A0006316F50013050004EF10606113050008E2
:1004B000EF10005F85476316F50013050008EF1085
:1004C000006013050010EF10A05D85476316F5006E
:1004D00013050010EF10A05E13050020EF10405C24
:1004E00085476316F50013050020EF10405D73008B
:1004F000203041111305004022C6EF10605A854795
:100500006316F50013050040EF10605B05641305EA
:100510000480EF10E05885476316F500130504804A
:10052000EF10E0590565EF10A05785476315F500FA
:100530000565EF10C0580965EF10805685476315B3
:10054000F5000965EF10A0571165EF10605585475C
:100550006315F5001165EF1080562165EF104054CA
:1005600085476315F5002165EF1060553244410160
:1005700073002030411122C63734014085451305F0
:1005800004C0EF10D04611C58545130504C0EF1017
:10059000D047324441017300203085453705004083
:1005A000EF10F04411C5854537050040EF10F045C8
:1005B00073002030411122C63704004085451305E1
:1005C0000440EF10D04211C5854513050440EF10DB
:1005D000D0433244410173002030411122C6371408
:1005E0000040854513050480EF10704011C5854516
:1005F00013050480EF107041324441017300203034
:10060000411122C6371400408545130504C0EF1080
:10061000103E11C58545130504C0EF10103F32444C
:10062000410173002030854537150040EF10303C04
:1006300011C5854537150040EF10303D730020305F
:10064000411122C637140040854513050440EF10C0
:10065000103A11C5854513050440EF10103B324494
:10066000410173002030411122C6373401408545D5
:1006700013050440EF10B03711C58545130504403C
:10068000EF10B0383244410173002030411122C6CE
:10069000375401408545130504C0EF10503511C58E
:1006A0008545130504C0EF105036324441017300F4
:1006B0002030854537550140EF10703311C5854511
:1006C00037550140EF10703473002030411106C6D9
:1006D00022C426C2EF10000A0545EF10A007094505
:1006E000EF104007F1659306100213060002938590
:1006F00005200945EF00D064930510060945A38A3B
:100700000182EF10C0170545EF10C00203C75183E7
:100710008547631EF7000945EF10C00129451524E0
:1007200083C541830945A38A0182EF10401509451D
:10073000EF104002C9BF411106C622C415E537C4F7
:100740000200A1460146930504F213053020EF0094
:100750001013A1460146930504F2130520202244FC
:10076000B24041016F00B01185476313F50237C4F1
:10077000020081460146930504F213051010EF00B4
:10078000101081460146930504F213050010C1BF05
:10079000B240224441018280797122D44AD04ECEA7
:1007A00052CC56CA06D626D28347150037340140AC
:1007B00081452306F100834705001309C100130A90
:1007C000F100A306F10083472500130504C01304BC
:1007D00004C02307F100EF10901F8965938AC5516B
:1007E00093894513A14483470900FD14CE85B3D7EF
:1007F0009740858B91E3D6850D45D5268545228585
:10080000EF10D01285452285EF10D01C65DD8145A3
:100810002285EF10B01185452285EF10701C8145AF
:100820002285EF10D01AE1F00509E31D2AFBB25032
:10083000225492540259F249624AD24A4561828056
:10084000B7C50200011181460146938505F20D45A9
:1008500006CE2316010023070100EF0050023735B2
:1008600001408945130505C0EF10F01468002D37CD
:1008700013054006592868000537F240056182805B
:10088000B7170240DC4337177A0013070720C983E4
:10089000BD8BB387E7023727F40013070740F165E4
:1008A0009306100213060002938505200945BA97A6
:1008B00023A0F1826F00D048011126CAB75400402E
:1008C00022CC4AC84EC606CEAE89328901449384F2
:1008D0000480634A2401F24062444A85D24442497A
:1008E000B24905618280930500042685EF107023CC
:1008F0007DD9B38789008385070026850504C20555
:10090000C181EF10D020F1B7828083A7C180371753
:100910007A0013070720B3D7E702814601473385E2
:10092000A702B7F700E023A0070094C7D8C7054780
:1009300098C3B7F600E09846DC4699E3E37DE5FE10
:10094000828083A7C1800967130707F4B3D7E70242
:10095000814601473385A702B7F700E023A00700CF
:1009600094C7D8C7054798C3B7F600E09846DC4659
:1009700099E3E37DE5FE828009E5814601468145F4
:10098000A1AA0547E30BE5FE0947E308E5FE0D478D
:10099000E305E5FE1147E302E5FE1547E30FE5FC3D
:1009A0001947E30CE5FC1D47E309E5FC2147631803
:1009B000E50081460146814513050002D1B7254770
:1009C0006318E500814601468145130510024DBFBD
:1009D00029476318E5008146014681451305000457
:1009E00045B72D476318E50081460146814513054B
:1009F000100479B731476318E50081460146814507
:100A000013052004B5BF35476318E500814601464C
:100A1000814513053004ADB739476318E5008146B9
:100A20000146814513054004A1BF3D476318E50019
:100A30008146014681451305500499B7828079713A
:100A400022D485452A841305002006D626D2EF102D
:100A5000002F2285153703A70182B7C701059387A9
:100A600007D0316563E3E700216537240140EF10CB
:100A7000C01A13050440EF009075B7070E003EC67C
:100A80008A85854713050440230AF10002C002C28B
:100A900002C402C8EF001078854513050440EF003A
:100AA000F07C13050440EF00707D9304044026851C
:100AB000EF00707D6DFD1305044037240140EF0009
:100AC000107D130404402285EF00107D6DFDB250AF
:100AD00022549254456182809307F00F630BF50C0A
:100AE000797122D41354550026D24AD04ECE52CC1E
:100AF00006D61D889374F5003689328AAE8935E0B2
:100B000085451145EF10A0238547B3949700C20493
:100B1000C180231291006399F90093170901C183E1
:100B2000A18391E38D473EC49167938787DE0A04D2
:100B30003E9400401379F90F4C0022854AC6EF001D
:100B4000B07885476397F9005286A6852285EF1015
:100B5000C003B250225492540259F249624A45618C
:100B6000828085476315F4008545214561BF89472B
:100B70006315F4008545414571B78D476316F40050
:100B8000854513050002BDBF91476316F4008545F6
:100B90001305000485BF95476316F40085451305CA
:100BA00000088DB79947E311F4F685451305001049
:100BB00091BF8280935755001397270091679387C1
:100BC00087DEBA9798439377F50005453315F5000E
:100BD00099C108CB828048CB8280828082809357E3
:100BE000850011671307C7DF8A07BA9798430D89F5
:100BF0000A058357C7023A95B385F502896793873B
:100C00000771B3D5F502C205C1814CD9828019E5BF
:100C1000930680310146854521457DBD8547631892
:100C2000F50093068031014685452545FDB7894786
:100C30006318F50093068031014685452945F1BFCB
:100C40008D476318F50093068031014685452D4593
:100C5000E9B7C1476319F500930680310146854520
:100C6000130590085DBFC5476319F50093068031F1
:100C7000014685451305B0084DB7C9476319F5000E
:100C800093068031014685451305D00879B7CD47D5
:100C90006319F50093068031014685451305E00888
:100CA000ADBF930700106318F5009306803101462D
:100CB000854501459DB7930710106318F50093060D
:100CC000803101468545054589BF9307201063188B
:100CD000F500930680310146854509453DBF9307E0
:100CE00030106318F50093068031014685450D45A7
:100CF0002DB7930700116318F50093068031014664
:100D000085453D4519BF930710116319F5009306FA
:100D10008031014685451305300201B79307201144
:100D20006319F50093068031014685451305A0023D
:100D3000EDB5930730116319F50093068031014634
:100D400085451305B002D1BD930700206318F50057
:100D500093068031014685451945C1B5930710209A
:100D60006318F50093068031014685451D4575B52C
:100D7000930720206319F5009306803101468545CD
:100D80001305000259BD930730206319F50093063F
:100D90008031014685451305100241B593070021B6
:100DA0006319F500930680310146854513056004FB
:100DB000ADB5930710216319F50093068031014604
:100DC00085451305700491BD930720216319F50033
:100DD0009306803101468545130580043DBD930788
:100DE00030216319F50093068031014685451305CE
:100DF000900425B5930700226319F500930680310E
:100E0000014685451305400209BD93071022631969
:100E1000F500930680310146854513055002F5BB68
:100E2000930700306319F50093068031014685452C
:100E300013056002DDB3930710306319F5009306C4
:100E400080310146854513057002C1BB93072030F0
:100E50006319F5009306803101468545130580022C
:100E60006DBB930730306319F5009306803101465E
:100E700085451305900255B3930700316319F500BA
:100E800093068031014685451305C00679B3930763
:100E900010316319F500930680310146854513052D
:100EA000D006A5BB930720316319F5009306803166
:100EB000014685451305E0068DB39307303163196C
:100EC000F50093068031014685451305F006B1B360
:100ED00093070040E30BF5DC93071040E301F5DED8
:100EE00093072040E307F5DE93073040E30DF5DE7E
:100EF00093070070E308F5EA93071070E30FF5EA33
:100F000093072070E306F5EC93073070E30DF5ECE2
:100F100093070071E30AF5F093071071E301F5F20E
:100F200093072071E308F5F2930730716319F50018
:100F300093068031014685451305D004F9B993071E
:100F40000580E38807D8856713871780E30DE5D808
:100F5000138727806318E500930680310146854595
:100F6000114565B9938737806319F5009306803181
:100F700001468545130540044DB1856713870781F8
:100F80006319E500930680310146854513059006F7
:100F900069B1138717816319E50093068031014613
:100FA00085451305B00695B913872781E305E5EE5E
:100FB00013873781E307E5F013870790E30CE5E833
:100FC00013871790E303E5EA138727906319E50079
:100FD0009306803101468545130530043DB91387DA
:100FE00037906319E5009306803101468545130566
:100FF000B00425B1138707916319E500930680318A
:10100000014685451305100609B9938717916319A1
:10101000F500930680310146854513053006F5BE7F
:101020008567138727916319E50093068031014690
:10103000854513055006D5B6138737916319E5002A
:10104000930680310146854513057006F9B613876E
:101050000792E30EE5CA13871792E301E5DA1387D7
:101060002792E308E5DA938737926319F500930630
:101070008031014685451305F00445B682803971FB
:1010800006DE22DC26DA2A844AD84ED62EC632C4A0
:101090003689B53EB24583A7C18022469359840064
:1010A00033D7B7024E85418393061700B386B60245
:1010B000B3D7D70293940701C180B384C4020966F1
:1010C00013060671FD1793950701C181B3D4C402BD
:1010D0003A86B52285450545EF0070469357440092
:1010E0000547C204C1806394E706370516008545AD
:1010F0001305050CEF00102AC167116793870706D7
:10110000139529001307C7DF3EC83A95937734003B
:10111000231B9100231C0100231E01000041E9E76D
:101120000C082285EF00505385452285EF10C00141
:10113000CA852285EF10A00222858545EF00107F29
:10114000F2506254D2544259B259216182804547CB
:101150006398E7003705180085451305053059BF2A
:10116000130710026398E70037151A008545130529
:1011700005C049B7130720026398E70037151A0026
:10118000854513050580BDB7130710036395E70078
:101190008545056585B7130710076399E70037078D
:1011A00001405C4F93E747005CCFB9B713071008C5
:1011B0006398E700370701405C4F93E70701EDB7FD
:1011C000130710096398E700370701405C4F93E766
:1011D0000704D9BF13072009E390E7F2370701405E
:1011E0005C4F93E70702C9B70547639FE7000C0808
:1011F0002285EF00705022858545EF00F074CA8586
:101200002285EF00F0760DBF09470C082285639D0B
:10121000E700EF00305B22858545EF00F072CA855C
:101220002285EF00907609BFEF0070662285854524
:10123000EF009071CA852285EF005076F5BD01114F
:1012400022CC26CA4AC806CE2A842E89B28401E955
:101250000565854513050580EF00702E39A085478B
:10126000631EF5028545EF00702F91679387C7DFF6
:101270000A043E9408404C002314210123129100DB
:10128000231501002313010023060100EF00D030D5
:10129000F2406244D2444249056182808947E303B7
:1012A000F5FC8D476315F500854511456DBF9147E8
:1012B0006315F500854521457DB79D476315F5000C
:1012C0008545096551BFA1476316F500854537057A
:1012D000080059B7A547E31AF5F88545370510000A
:1012E000A5BF91670A059387C7E1AA9798438357DB
:1012F000070093F70708E5DFC205C1812312B70095
:101300008280411106C60DE185476398F522E146CA
:1013100001462545EFF04FFC9146014681452945A0
:10132000B24041016FF04FFB8947631FF500E14672
:101330000146854513056002EFF00FFA914601461C
:10134000814513057002E9BFC147631DF500E14601
:10135000014685450945EFF02FF891460146814544
:101360000D457DBFC947631FF500E1460146854530
:1013700013055006EFF04FF69146014681451305DF
:10138000600679BF93070002631FF500E14601463E
:1013900085451305A002EFF02FF4914601468145E3
:1013A0001305B002B5BF93072002631FF500E146A5
:1013B000014685451305A004EFF00FF29146014662
:1013C00081451305B004A9BF930740026310F502DD
:1013D000E1460146854513058006EFF0EFEF9306E1
:1013E000800401468145130590061DBF9307000444
:1013F000E30FF5FA93072004631FF500E146014669
:10140000854513050002EFF02FED91460146814519
:101410001305100231B793070005631FF500E1467D
:10142000014685451305C004EFF00FEB91460146D8
:10143000814513052006EDB593072005631FF500D0
:10144000E1460146854513058008EFF0EFE8914637
:101450000146814513059008E1B593070006631026
:10146000F502E1460146854513050004EFF0CFE69D
:1014700093068004014681451305100455B5930772
:101480002006631FF500E146014685451305A008C7
:10149000EFF08FE49146014681451305B00849B548
:1014A00093070007631FF500E146014685451305D4
:1014B0002004EFF06FE291460146814513053004A8
:1014C00085B5930720076317F500E146014685457A
:1014D0001945C5B793074007631FF500E14601466C
:1014E00085451305C008EFF02FDF91460146814581
:1014F0001305D00835B593070008631FF500E146D2
:101500000146854513054004EFF00FDD9146014685
:1015100081451305500429B593072008631FF50082
:10152000E146014685451305E008EFF0EFDA914604
:10153000014681451305F008E5B3B24041018280C0
:10154000797122D44ECE2A84AE890545854526D2AE
:101550004AD006D6B2843689EF00607E8947639D03
:10156000F4048D476315F900854511452525631B56
:10157000041285451165EF00807CCA8526855133AC
:10158000B7070C003EC491679387C7E10A043E94F5
:1015900000408A854EC0228502C223160100EF005A
:1015A000B04722858545EF00D054B2502254925462
:1015B0000259F24945618280C9476398F400CD47DA
:1015C000E317F9FA8545214555B793072002639B38
:1015D000F40093073002E31CF9F837051400854541
:1015E000410569B793074002639CF40093075002DA
:1015F000E31FF9F637051400854513050503BDB74C
:10160000930720046399F40093073004E311F9F67B
:1016100085450565A1BF93072005639BF4009307EB
:101620003005E316F9F437052000854505053DBF73
:1016300093072006639CF40093073006E319F9F240
:10164000371500808545130505800DB793072007E2
:10165000639EF40093073007E31BF9F0370701405E
:101660005C4FB7064000D58F5CCF11B7930740079A
:10167000639CF40093075007E31BF9EE3707014022
:101680005C4FB7068000C5B793072008E391F4EEDE
:1016900093073008E31DF9EC370701405C4FB706AC
:1016A0000002D1B785476317F4008545370502006E
:1016B0007525E1B589476316F400854537050400B3
:1016C000C5BF8D476316F400854537050800CDB7C3
:1016D00091476316F400854537051000D1BF954743
:1016E0006316F400854513050004D9B799476316BE
:1016F000F40085451305000865BF9D47E31FF4E628
:101700008545130500106DB78547631AF5009306EC
:10171000003105468545130520086FF0EFBB89476A
:101720006319F50093060031054685451305300819
:10173000EDB7828085476317F500814513052008C2
:101740006FF04FC789476316F500814513053008D0
:10175000C5BF828085476317F500854513052008BE
:101760006FF04FC589476316F500854513053008AE
:10177000C5BF8280411106C6EFF04FC6EFF04F9013
:10178000EFF08F980145EFE01FFB0545EFE0BFFA52
:101790000545A920094599200D45892011453D2879
:1017A00015452D2819451D280945EFF04FA90D4570
:1017B000EFF0EFA81145EFF08FA81545EFF02FA837
:1017C0001945EFF0CFA7054581370945353FEFF0C3
:1017D0002F877128B24041016FF02FC0411122C400
:1017E00006C685472A846314F502930680340546AD
:1017F000814513050004EFF02FAE99476315F406F9
:1018000093068034054681451305500425A0894779
:101810006319F500930680340546814513051004CD
:10182000D9BF8D47631DF500930680340546814579
:10183000130520042244B24041016FF0EFA9914703
:101840006319F5009306803405468145130530047D
:10185000D5B79547E313F5FA9306803405468145DD
:1018600013054004C1BFB240224441018280930667
:101870008004054681451305A0066FF0EFA56FF0C3
:101880005FA601A001A001A001A001A001A001A0EC
:1018900001A001A001A001A001A001A001A001A040
:1018A00001A001A001A001A001A001A001A001A030
:1018B00001A001A001A001A001A001A001A001A020
:1018C00001A001A001A001A001A001A001A001A010
:1018D00001A001A001A001A001A001A001A001A000
:1018E00001A001A001A001A001A001A001A001A0F0
:1018F00001A001A001A001A001A001A001A001A0E0
:1019000001A001A001A001A001A001A001A001A0CF
:1019100001A001A001A001A001A001A001A001A0BF
:1019200001A001A001A001A001A001A001A001A0AF
:1019300001A001A001A001A001A001A001A001A09F
:101940007390123497F1FF1F938141F717610020C4
:101950001301416B172500001305456A97E5FF1F2A
:101960009385456A1386018263FAC50083220500C8
:1019700023A0550011059105E3EAC5FE13850182F8
:101980009385019A6377B500232005001105E36D67
:10199000B5FEFD42739002BCFD4273904280B78257
:1019A00000009382828873A0023097E2FFFF938247
:1019B000E26893E2320073905230EF10001097F219
:1019C000FFFF9382E2D073901234730020304111F4
:1019D000B727014006C693870740631CF50085457D
:1019E00013050020592E814513050020B240410106
:1019F00069A6B737014093870780631AF5008545CC
:101A0000130500409D2E814513050040C5B7B24027
:101A1000410182805C413707F1E01307F7EF944DF5
:101A20007D8F9C41D58FD44DD58FD441A206D58FC3
:101A3000D98F5CC11C4537F7F1FF1307D77FD44519
:101A40007D8F9C49D58F94458606D58FD98F1CC52F
:101A50005C55370710FF7D177D8F83C74501FD1744
:101A600093F7F70FD207D98F5CD582801C4589C5C3
:101A700093E717001CC58280F99BEDBF1C4593E7D7
:101A800087001CC5828008450D81058982801C4520
:101A900093E747001CC5828008450981058982803B
:101AA000B70701401387074083A70740584B698F4A
:101AB00009C77D8D3335A000828001458280B7073C
:101AC000014023AAA74082809C4513F7070113F821
:101AD000F70001C7D8413368E80083D5050013F744
:101AE000F50F39C318418146854E3D4F930F800253
:101AF00093028004214E3396DE00B3F8C5006311D3
:101B000016039398260033131F011343F3FF337713
:101B1000E300B318180133E7E800639FF70550C9E5
:101B20008506E39AC6FD18C11307F00F6375B70465
:101B300054412146854E3D4F930F8002930280040D
:101B4000414EB398CE0033F715016392E8021317A4
:101B5000260001173313EF001343F3FFB376D300CE
:101B60003317E800D98E639DF701232A1501050676
:101B7000E319C6FD54C18280E39457FA10C94DB7EA
:101B8000E39757FE23281501DDB719C20CC98280DF
:101B90004CC98280B707014063550504D44FB7078D
:101BA0003000131705013376F5004183631DF602FB
:101BB000370600F17D1637080140B3F7C6008326CB
:101BC0004800758E2322C80099C593565501920688
:101BD0003317D700D98F37070140635E05025CCF0A
:101BE0008280D4436DBF9317B50063D0070293572B
:101BF000050113F6F7008D47B397C70093C7F7FFAA
:101C0000F58FB706000FD58FC1B7935755019207CF
:101C1000B317F700E5B75CC38280B7160240DC4219
:101C200051777D17F98F5D8DC8C2828037170240CA
:101C30005C439146B18B6385D700A1466388D70684
:101C4000B7177A00938707201CC1371602405C4201
:101C500037070020130707009183BD8BBA9783C60F
:101C600007001C41B3D7D7005CC15442A1829D8AB2
:101C7000BA9683C60600B3D6D70014C55442AD82C7
:101C80009D8A369703470700B3D7E7005CC55842E3
:101C9000398393763700370700201307870B369771
:101CA00003470700B3D7E7021CC982805C43544353
:101CB0004167C983F98E37F7FF1F0327C770BD8BB4
:101CC00089071316170163480600454601476392CA
:101CD000C702C94739A809476389E7023D476388B6
:101CE000E70241476388E702454601476393C7001F
:101CF000C14785E6B746024083A60680C18A8DC6E5
:101D0000B7167A009386062025A00147D9B7054764
:101D1000B547C5B70147BD47E9BFB7160240D44232
:101D20001396E600E35E06FCB7163D009386069028
:101D3000B387D7021CC111DB1C41858331B799C51C
:101D4000371702401C4F5D8D08CF8280B7170240C5
:101D5000984F1345F5FF798D88CF828099C5371745
:101D600002405C4F5D8D48CF8280B7170240D84F4C
:101D70001345F5FF798DC8CF828099C5371702408A
:101D80005C475D8D48C78280B7170240D84713452E
:101D9000F5FF798DC8C7828083570500373701402A
:101DA000930607C0C207C1836300D504B70600408D
:101DB000630CD502938606406308D502B71600402F
:101DC000138606806302C502938606C0630ED500A3
:101DD00013070740630AE50037570140930607C021
:101DE0006304D5006317E50003D7250093F7F7F8E0
:101DF000D98F37170040630DE500130707406309CB
:101E0000E50093F7F7CF03D76500C207C183D98FE9
:101E10002310F50083D745002316F50283D705006C
:101E20002314F502B7370140138707C0630EE5009E
:101E300093870740630AF500B7570140138707C02F
:101E40006304E5006316F50083C785002318F502D7
:101E50008547231AF50082808357050203D60500C3
:101E600003D82500C207C183F99BC207C183231091
:101E7000F502835705028356450003578501C207C3
:101E8000C183420741831377C7F8518F03D685007A
:101E9000F59BC20633660601D18F37360140130821
:101EA00006C0C182630E050113060640630AC50021
:101EB00037560140130806C0630405016313C502C9
:101EC00003D6A500DD9B03D8E500D18F03D64500DE
:101ED000ED9B93F6F6CFD18F03D6C500336606018E
:101EE000D18E2312D500231CE50003D76500231AE9
:101EF000E5022310F50282808357050265771307F8
:101F0000F7CFC207C183BD9BC207C1832310F5026F
:101F1000835705028356450003D88500C2071396F0
:101F2000060183568501C18393F7F7FD758F83D62C
:101F300005004182A206558F83D6250042074183C2
:101F4000B3E606019206D58FB7360140C207138863
:101F500006C0C183630E050193860640630AD5005F
:101F6000B7560140138806C0630405016311D50408
:101F700083D6A50093F7F7F703D8C5009206D58F4F
:101F800083D64500C207C183920693F7F7FBD58F2E
:101F9000FD769386F63FF18E03D6E500C207C18336
:101FA000336606010A06D18E13960601418223127A
:101FB000C500231CE50003D76500231CE5022310A0
:101FC000F50282808357050203D88500C207C183CA
:101FD00093F7F7EFC207C1832310F5028357050279
:101FE000835645000357C501C207139606014207F1
:101FF00083D6050041831377C7F8558F83D6250014
:10200000C18393F7F7DFB3E60601A206D58FB73693
:102010000140C207138806C04182C183630E0501D7
:1020200093860640630AD500B7560140138806C060
:10203000630405016312D504FD769386F67FF58F60
:1020400083D6A50003D8C500A206D58F83D6450048
:10205000C207C183A20693F7F7BFD58FF576FD16A9
:10206000F18E03D6E500C207C1833366060112066E
:10207000D18E1396060141822312C500231EE5006E
:1020800003D76500231EE5022310F5028280035763
:102090000502FD77FD17F98F2310F502035805029D
:1020A000835645008357C50165771396060183D68D
:1020B00005001307F7CF7D8FF977A206FD17558F1F
:1020C000B3F7070183D6250003D885004207418274
:1020D000B3E60601B206D58FB7360140C2071388B2
:1020E00006C04183C183630E050193860640630ADF
:1020F000D500B7560140138806C063040501631C70
:10210000D500F176FD16F18E03D6C5001A06D18EE4
:102110001396060141822312C500231EE50003D752
:1021200065002310E5042310F50282808357050023
:1021300091C593E717002310F5008280C207C18381
:10214000F99BC207C183C5BF8357450491C5216769
:10215000D98F2312F5048280C607C583DDBF83575C
:102160008501C207C183DD9BDD8D231CB500828004
:1021700003578501FD779387F77FF98FA205CD8FF0
:10218000C207C183231CF50082808357C501C207A3
:10219000C183DD9BDD8D231EB50082800357C50101
:1021A000FD779387F77FF98FA205CD8FC207C18393
:1021B000231EF500828003570502F977FD17F98F7A
:1021C000B205CD8FC207C1832310F502828023128E
:1021D000B5028280035505016D8D3335A0008280E4
:1021E00093C5F5FFC205C1812318B50082808357CE
:1021F00005010355C500ED8F4205418189C76D8DED
:102200003335A00082800145828093C5F5FFC20569
:10221000C1812318B500828083560501F577FD172B
:10222000F58F83D66500397122DC06DED58F03D7A2
:10223000C5002318F5008356C500FD779387379FA7
:10224000F58F83D645002A842EC6D58F83D6850088
:10225000D58F83D6A500D58F2316F500835745016A
:10226000C207C18393F7F7CFD98F231AF500680807
:10227000EFF0DF9BB747014093870780B245631EAD
:10228000F404A2578356C4006547B387E702C20629
:10229000C186984163D5060406070356C40042066A
:1022A000B3D7E702130740064186B3D6E702B3F778
:1022B000E7029206635706028E0793872703B3D778
:1022C000E70213F77700B367D700C207C18323146F
:1022D000F400F250625421618280925765B70A0778
:1022E0006DBF920793872703B3D7E702BD8BD58FC6
:1022F000E9BF81C98357C5000967D98F2316F50047
:1023000082800357C500F977FD17F98FC5BF93F594
:10231000F51F2312B5008280035545001375F51F84
:102320008280035505006D8D3335A000828013F740
:10233000F50F85461583B397B6006313D70203578D
:10234000C500F98F0357050001454207418381CB42
:102350000545A181B315B5006D8F3335E00082804E
:1023600089466315D70003570501E1BF03574501AF
:10237000C9BFA1818547B397B70093C7F7FFC207CD
:10238000C1832310F5008280B7070050239AA7026B
:1023900003C767031377C70F238BE7028280B70752
:1023A0000050239CA70203C7A7031377C70F238DF1
:1023B000E7028280814713F7F70F6363A700E9B74D
:1023C00003A781993E9783460700850793C6F6FFCA
:1023D0002300D704CDB7814713F7F70F6363A70036
:1023E0007DBF03A7418C3E9783460700850793C6B0
:1023F000F6FF2300D704CDB7B707005003C7670027
:102400001377F70F9376270063880666011122CEB3
:1024100026CC4ACA4EC852C656C403C77700930694
:102420000002137707036301D74C1306000363010F
:10243000C7046314072203C7770005461377F70321
:10244000630AC7606304075889466318D72003C727
:102450007700137707046302072003C7B703134706
:102460004700A38DE70288471375F50FAD37F5A236
:1024700019472389E7021147A389E70283A4818CC6
:1024800083C7740003C76400A207D98F239EF18A13
:1024900003C71400238FE18A03CA040013770A06D6
:1024A0006308070E03C7E18B1377070219CF83C7B1
:1024B000E18B1307100293F7F70F638AE700130706
:1024C00020026384E7006393D718014989A09387AA
:1024D000418023A0F18C83D7C18B1D4721496366BE
:1024E000F70003D9C18B1379F90F4A869385418090
:1024F0002685ED2583D7C18BB3872741C207C183CA
:10250000239EF18A83A7018CCA9723A0F18C83D7DD
:10251000C18B4209135909016374F900239E218B71
:102520009387418203D707009D46A14463E6E600F6
:1025300083D4070093F4F40F03A9018C2686CA857F
:102540001385C194CA94592D23A0918C620A135A01
:102550008A41814763520A0203D7C18BA14763E6D0
:10256000E70083D7C18B93F7F70F03D7C18B1D8F7C
:1025700042074183239EE18AC20737070050C18387
:102580002318F70291472309F702A309F702F1A0E4
:1025900083C7E18B2D4793F7F70F6369F70A11673C
:1025A0008A071307C7E3BA979C43828783C734001F
:1025B00003C724008D46A207D98F13D78700630570
:1025C000D70C63ECE6008547630BF7028947630489
:1025D000F70A1309F00F814715A89D476308F71004
:1025E00093072002630CF70E9947E314F7FE9167F7
:1025F0009387C7F023A0F18C0149A94701A89167EF
:10260000938707EB23A0F18C0149C94703D7C18BFE
:10261000C207C18363F4E700239EF18A83D7C18B8D
:102620001D47A14A6366F70083DAC18B93FAFA0F5C
:1026300083A5018C56862685552383A7018CBE9AD7
:1026400023A0518D9307F00FE312F9F0B707005064
:102650001D472389E702A389E702B707005009470E
:102660002383E7007244E2445249C249324AA24AF3
:1026700005617300203091679387C7E623A0F18C32
:1026800001499307300459B793F7F70F85466387DD
:10269000D70291CF8946638BD702E39CE7F291671B
:1026A000938747EF23A0F18C0149D94785B79387DA
:1026B000418123A0F18C0149914789BF916793879C
:1026C00047EC23A0F18C0149B94789B791679387FB
:1026D00047ED23A0F18C0149B1470DBF9167938766
:1026E00007EE23A0F18C0149D1470DB783C7B18014
:1026F00093F7F70FE39F07EC37090020130909014F
:102700009165130610049385E5E613052900F92168
:1027100023A0218DB5B783C72400239EF18A3DB540
:1027200083C781832380F40003D7C18B8547E3E609
:10273000E7FE29BD03C72400238CE18201BD137786
:10274000FA018947E314F7F083C744006383E70481
:10275000636EF7000547E39BE7EE370700508347BA
:10276000770393F7870FA30BF702CDB31307100876
:10277000638AE70213072008E39AE7EC3707005063
:102780008347A70393F7870F93E72700230DF702EB
:1027900075BB370700508347B70393F7870FA30D27
:1027A000F7026DB3370700508347670393F7870F2E
:1027B00093E72700230BF70251BB03C7C1947D8B1E
:1027C00019EB9387C19483D727000547E390E7E887
:1027D0002383F182A5BB8946E31AD7E69387C19488
:1027E00083D62700E39406E683C747006385E704A2
:1027F0006360F7020547E39BE7E437070050834730
:10280000770393F7C70FA30BF70293E73700A1BF36
:1028100013071008638CE70213072008E398E7E228
:10282000370700508347A70393F7C70F230DF7021D
:1028300093E73700A1BF370700508347B70393F7EB
:10284000C70FA30DF70293E7370091BF370700507A
:102850008347670393F7C70F230BF70293E737000C
:1028600091BF23800400C9B52386019493874182D8
:1028700083D607000547E37BD7CC2390E700F9B167
:102880001387C194035747002396019493061008B9
:102890006313D70237070050034767030D8B8D463C
:1028A0006315D70005472386E1949387418283D639
:1028B00007000947C9B785466317D7003707005097
:1028C00003477703E1BF930620086317D700370754
:1028D00000500347A703D9B78946E318D7FC370749
:1028E00000500347B7035DBF83C67700130610028D
:1028F00093F6F6036380C60A130620026389C60AAC
:10290000E39DE6D403C7E18B95461377F70F630F7A
:10291000D7049946631DD70683D7C18B1D47214431
:102920006366F70003D4C18B1374F40F03A5818C85
:1029300083A5018C22865D2483D7C18B13170401E4
:102940004183998FC207C183239EF18A83A7018C9B
:102950003E9423A0818CB70700502398E70203C759
:102960002703134747002389E702C5B903C7370088
:1029700083D6C18B13770708558F1377F70FA38181
:10298000E70009472389E702A3890702F9B12398E1
:102990000702C5BF03C767031377C70F238BE7027F
:1029A00003C7670313474700238BE7027DB103C7C3
:1029B000A70313474700238DE70203C7A703137735
:1029C000C70F13672700238DE70241B983C7E18B47
:1029D0006393F60483A7818C83C6170003C707009F
:1029E000558F83C62700558F83C63700558F05CB7B
:1029F00083C5170003C7070037450000A205D98D1E
:102A000003C72700130585F142074D8F9395860173
:102A1000D98DEF00F013B70700509C473DB983C52F
:102A2000670037450000130585F2EF00701283A799
:102A3000818C37450000130585F383C54700EF00FF
:102A4000301183A7818C37450000130585F483C5B9
:102A50005700C1B703C7770013770704E30F07BE1A
:102A600003C7770313474700A38BE7028847137513
:102A7000F50FEFF03F94D5B69376170085CAA38182
:102A80000700A3890702A38B0702A38D070209474A
:102A90002389E702238BE702238DE70203C7670040
:102AA000136717002383E7007300203093764700F5
:102AB000F5DA03C757001147F5B7B7170240984337
:102AC000B706FFF841111367170098C3D8433706BC
:102AD0000200758FD8C39843B706F7FEFD16758FB1
:102AE00098C39843B706FCFFFD16758F98C3D8436B
:102AF000B70681FFFD16758FD8C337079F0098C7AB
:102B000002C402C69843C166558F98C3B7160240E7
:102B1000130700509C42F18F3EC6A24785073EC472
:102B2000B24781E7A247E397E7FEB71702409C430D
:102B30001397E7006350070A85473EC6324785472B
:102B40006318F708B72702409843B706C1FFFD1680
:102B50001367070198C39843719B98C39843136701
:102B6000270098C3B7170240D843D8C3D843D8C367
:102B7000D84313670740D8C3D843758FD8C337F7F6
:102B8000FF1F0327C77093161701D84363C60604B7
:102B9000B7063D00558FD8C3371702401C43B70610
:102BA0000001D58F1CC3B7170240984393166700E6
:102BB000E3DD06FED843B7160240719BD8C3D84365
:102BC00013672700D8C32147DC42B18BE39EE7FEA1
:102BD0004101828002C69DB7C1666DBFB3C7A50023
:102BE0008D8B3307C50081E78D4763EEC700AA8749
:102BF0006370E50A83C6050085078505A38FD7FEA8
:102C0000E3EAE7FE828093763500AA8791CA83C6FD
:102C1000050085078505A38FD7FE93F63700FDB71E
:102C20009376C7FF138606FE63F0C70683A30500ED
:102C300083A2450083AF850003AFC50083AE0501C5
:102C400003AE450103A3850183A8C5019385450211
:102C500023A0770003A8C5FF23A2570023A4F701F0
:102C600023A6E70123A8D70123AAC70123AC670045
:102C700023AE17019387470223AE07FF75B7904134
:102C80009107910523AEC7FEE3EBD7FEE3E4E7F639
:102C900082801C46FD171CC663D90700184E63C509
:102CA000E700A9476393F500E5A51C422E8513872D
:102CB000170018C22380B7008280011122CC26CAD7
:102CC0004AC84EC652C406CE2A89AE893284B3049D
:102CD000D6007D5A63149400014509A88345040079
:102CE0004E864A857D370504E31645FFF24062446F
:102CF000D2444249B249224A05618280357122CDCF
:102D000026CB4AC94EC706CF52C556C35AC1DEDECE
:102D1000E2DCE6DAAA89AE843289368409C51C4D24
:102D200099E3EF0050299717000093872729639CA8
:102D3000F40C83A4490083D7C400A18BFDC79C4831
:102D4000EDC793070002A304F1029307000302D228
:102D50002305F10222C6930B5002971A0000938AB2
:102D60002A20054C294B4A848347040099C3639069
:102D7000770FB30C2441638D0C00E6864A86A68546
:102D80004E85253FFD576308F51E9256E69636D2CE
:102D9000834704006381071EFD571309140002C80E
:102DA00002CE3ECA02CCA309010482D483450900A5
:102DB00015465685EF00504613041900C24751E9E5
:102DC00013F7070109C713070002A309E10413F76A
:102DD000870009C71307B002A309E104834609006D
:102DE0001307A002638FE606F2474A848146254610
:102DF0000347040093051400130707FD6378E60AF0
:102E0000ADCA3ECEBDA0971700009387271D6395DE
:102E1000F40083A4890005B797170000938707186B
:102E2000E39BF4F083A4C90039B7A6854E850D2530
:102E300009D97D55FA406A44DA444A49BA492A4ACE
:102E40009A4A0A4BF65B665CD65C0D61828005048B
:102E500021BF330555413315AC00C98F3EC82289C7
:102E6000B1B7324793064700184336C66349070295
:102E70003ACE034704009307E002631FF7040347B9
:102E800014009307A002631BF702B24709041387DB
:102E900047009C433AC663C107023ECA35A83307C0
:102EA000E04093E727003ACE3EC8E1B7B387670317
:102EB00085462E84BA972DBFFD57C5B7050402CAB3
:102EC00081468147254603470400930514001307F4
:102ED00007FD6378E606F1F2834504000D461715F9
:102EE000000013056508EF00303311CD971700007F
:102EF000938787071D8D93070004B397A70042456A
:102F000005045D8D2AC88345040019461715000085
:102F10001305C505130914002304B102EF00D02FD7
:102F20003DC197D7FFFF9387E70D95E74247B2472B
:102F30001377071009CF91073EC69257D2973ED21A
:102F40001DB5B387670385462E84BA97ADBF9D072D
:102F5000E19BA107D5B7780097060000938626D697
:102F600026860C084E8597000000E7000000FD57FC
:102F70002A8AE314F5FC83D7C40093F70704E39A85
:102F800007EA125545BD780097060000938626D3C0
:102F900026860C084E85012AD9BF797156CA9C49EC
:102FA000BA8A984522D426D24ECE52CC06D64AD0E2
:102FB0005AC85EC6AA892E84B284368A63D3E700D3
:102FC000BA879CC00347340419C385079CC01C40C2
:102FD00093F7070281C79C4089079CC0032904001E
:102FE00013796900631A0900130B9401FD5B5C44BB
:102FF0009840998F634CF9041C408346340493F73E
:103000000702B336D000A5EB13063404D2854E85F3
:10301000829AFD576303F5041C4011469840998B32
:10302000544481446397C700B384E64063D30400EB
:1030300081441C4418486354F700998FBE94014999
:1030400069047D5B63982405014509A885465A8675
:10305000D2854E85829A631E75017D55B2502254E9
:1030600092540259F249624AD24A424BB24B4561EC
:1030700082800509ADBF3307D40013060003A30106
:10308000C7040347540493871600A2978906A381B7
:10309000E7049DBF85462286D2854E85829AE30E3F
:1030A00065FB050945B7797122D426D24AD04ECEA8
:1030B00006D652CC56CA5AC8B68983C6850193072C
:1030C00090063289AA842E8413863504638DF60215
:1030D00063E2D706930780056388F61863EDD7008F
:1030E0006381062293073004638FF60A930A24044F
:1030F0002301D404D1A0930730066386F60A930710
:103100004006E395F6FE1C40084393F60708930536
:103110004500CDC61C410CC363D807001307D0027D
:10312000B307F040A301E40497160000938686E4F9
:10313000294775A8930700076384F61663E5D7024D
:103140009307E006638BF6189307F006E390F6FA10
:103150000C401C4313F80508138547006308080654
:1031600008C39C4395A893075007E383F6FE930793
:103170008007638BF61293073007E399F6F61C433A
:10318000D04181459386470014C383AA0700568522
:10319000EF00900801C53305554148C05C401CC88C
:1031A000A301040471A81C43930A240493864700D6
:1031B0009C4314C32301F4048547D5B793F6070451
:1031C0001C410CC3B1DAC207C187B9B793F5050436
:1031D00008C3C1D983D707001307F0066387E60E3B
:1031E00097160000938606D92947A30104044C4092
:1031F0000CC463C5050008406D9908C099E3B28A04
:1032000091CDB28AB3F5E702FD1AB69583C50500E4
:103210002380BA00B3D5E70263FFE70AA147631E24
:10322000F7001C40858B91CB58401C4863C7E700D2
:1032300093070003A38FFAFEFD1A3306564110C808
:103240004E87CA867000A2852685813B7D5A631E03
:10325000450B7D55B250225492540259F249624AAC
:10326000D24A424B45618280A382D5049716000062
:10327000938646D00C40084313F805081C411105FD
:10328000630D080208C313F7150001C793E5050293
:103290000CC04147B9FB0C4093F5F5FD0CC0B1B72C
:1032A0009C4193E707029CC193078007A302F404A3
:1032B00097160000938646CD75BF13F8050408C322
:1032C000E30308FCC207C1837DBF97160000938605
:1032D00066CA214719BFAE8735B794411C43CC4914
:1032E00013F80608138547006306080008C39C43CB
:1032F0008CC301A808C393F606049C43F5DA239017
:10330000B70023280400B28A25BF14485686CA8510
:1033100026858299E30F45F31C40898B8DE7B247E0
:103320004844E359F5F23E8535B785465686CA8549
:1033300026858299E30F65F1050A5C443247998F2F
:10334000E345FAFEE9BF014A930A94017D5BF5B7B4
:1033500039713EDA2ED232D436D63AD842DC46DE45
:103360009387018122CC804326CA06CEAA8409C451
:103370001C4C99E3228581210C4454102686228519
:1033800036C6EFF0BF97F2406244D244216182809A
:10339000011122CC26CA4AC806CE4EC6AA842E895E
:1033A000328401C51C4D91E33921971700009387A2
:1033B000E7C06319F406C0401C4C1CC48357C4000A
:1033C000A18BC9C31C48BDCF1C4808409379F90F95
:1033D0001379F90F1D8D5C486346F500A28526859B
:1033E000652C2DE51C440505FD171CC41C401387E6
:1033F000170018C0238037015C486389A7008357F2
:10340000C400858B81CBA9476316F900A285268568
:1034100061240DEDF24062444A85D2444249B249EA
:103420000561828097170000938747BB6314F400FF
:10343000804459B797170000938747B6E31EF4F608
:10344000C0449DBFA285268521203DDD7D59D9B789
:1034500041119387018126C2844322C44AC006C613
:103460002A892E8489C49C4C99E32685A92697171E
:1034700000009387A7B4631CF402C0400317C40084
:1034800093170701C18393F68700B5EE93F6070102
:103490009DEEA5472320F900136707042316E400D7
:1034A0007D55B240224492440249410182809717DF
:1034B00000009387A7B26314F4008044C1B7971744
:1034C00000009387A7ADE31BF4FAC04445BF918B7E
:1034D0008DC74C5889C9930744046384F5004A8515
:1034E000892B232A04028357C4002322040093F764
:1034F000B7FD2316F4001C481CC08357C40093E793
:1035000087002316F4001C4881EF8357C40013077B
:10351000002093F707286385E700A2854A85B9292B
:103520008357C40013F7170005C75C482324040021
:10353000B307F0401CCC1C480145A5F78317C40015
:1035400013F7070839DF93E707042316F40089BF50
:10355000898B014791E3584818C4F1BF83D7C50050
:10356000011122CC26CA06CE4AC84EC613F78700E0
:10357000AA842E8471EFD841634DE000B841634ABC
:10358000E0000145F2406244D2444249B24905613B
:10359000828058547DD703A904009396370123A055
:1035A000040063DD060670488357C400918B99C7F9
:1035B0005C401D8E5C5899C33C401D8E5C540C5081
:1035C000814626858297FD570357C400631DF50089
:1035D0009440F54763E8D706B70740208507B3D77F
:1035E000D700858BA5C31C48232204001CC0931759
:1035F000370163D80700FD576314F5009C4091E341
:1036000068C84C5823A02401ADDD930744046384AB
:10361000F50026853929232A0402A5B70C50014656
:10362000854626850297FD572A86E31FF5F69C40BE
:10363000A5DF75476385E70059476394E70423A036
:10364000240181B7136707042316E4007D551DBFCD
:1036500083A90501E38709F203A905008D8B23A047
:10366000350133093941014791E3D84918C4E35A78
:1036700020F11C540C50CA864E86268582976349D9
:10368000A0008357C40093E707042316F4007DBF0E
:10369000AA993309A940E1BF9C49B9CF011122CCB5
:1036A00006CE2A8411C51C4D81E72EC62922B245BB
:1036B0009717000093878790639BF5004C40839792
:1036C000C50095C722856244F240056141BD971748
:1036D00000009387A7906394F5000C44CDB797172B
:1036E00000009387A78BE39CF5FC4C44C9BFF240D4
:1036F000624401450561828001458280411122C4F6
:1037000006C62A842316B5002317C500232005000A
:103710002322050023240500232205062328050073
:10372000232A0500232C0500214681451305C505E4
:10373000EFC01FAD97070000938787495CD09707BC
:1037400000009387E74B1CD497070000938727500E
:103750005CD4970700009387E75200D01CD8B24092
:1037600022444101828097050000938525F3A9A298
:10377000411126C2130680069384F5FFB384C40268
:103780004AC02E8922C406C693854407A9262A84E6
:1037900001CD2320050023222501310508C413860D
:1037A00084068145EFC0DFA52285B24022449244C1
:1037B0000249410182801C4DADE3411106C622C47D
:1037C00097070000938767FA1CD5938781819C43F4
:1037D0002324050423260504232805046314F50087
:1037E00085471CCD2A841D2848C02285052808C489
:1037F00022852D2048C448400146914501370844A0
:103800000546A545E53D48440946C945C53D8547AA
:103810001CCCB240224441018280828041119387B6
:10382000818126C284434AC006C69C4C22C42A8990
:1038300099E326854937938484048044DC40FD174E
:1038400063D607009C40B9CF8440C5BF0317C400AE
:1038500039E7C177850723220406232004002322A9
:103860000400232404005CC423280400232A040049
:10387000232C0400214681451305C405EFC05F9841
:10388000232A0402232C04022324040423260404F0
:103890002285B240224492440249410182801304AD
:1038A000840671BF91454A85E13588C051FDB14715
:1038B0002320F9000144E9BF797122D44AD052CCC7
:1038C00056CA5AC85EC606D626D24ECE2A8AAE8AB6
:1038D000130485040149054BFD5B09ECB2502254E9
:1038E0004A8592540259F249624AD24A424BB24B3B
:1038F00045618280044483294400FD1963D4090092
:103900000040E1BF83D7C400637BFB008397E400E2
:1039100063877701A6855285829A3369A9009384CB
:103920008406E1BF1971A6DAAE848395E500A2DCB6
:1039300086DE328463DC050083D7C40023A0060042
:1039400093F707089DE39307004015A0300836C69B
:103950007126B246E34205FE7247BD67F98F79775B
:10396000BA9793B717009CC2F9BF930700041CC015
:10397000F6506654D65401450961828083D7C5004C
:10398000011122CC06CE26CA4AC8898B2E8489CF43
:10399000930774041CC01CC885475CC8F24062448D
:1039A000D24442490561828074003000AA849D3F60
:1039B000A2452A892685052201ED8317C40013F745
:1039C000072069FFF19B93E727002316F400C9B78E
:1039D00097070000938767D99CD48357C40008C019
:1039E00008C893E707082316F400A2475CC8B2474B
:1039F00089CF8315E4002685392601C98357C40081
:103A0000F19B93E717002316F4008357C400336932
:103A1000F9002316240159B793F5F50F2A9663147C
:103A2000C5000145828083470500E38DB7FE05058B
:103A3000FDB7CDC183A7C5FF411122C406C626C26A
:103A40001384C5FF63D307003E94AA843926938765
:103A500081829C4399EB2322040023A48182224487
:103A6000B240268592444101D5AC637EF4001440F7
:103A70003307D4006396E7009843DC43369718C0B9
:103A80005CC0E1BFBA87D84319C3E37DE4FE944329
:103A90003386D700631F86001040B29694C33386E6
:103AA000D700E31EC7FA10435843B29694C3D8C355
:103AB0007DB76375C400B1479CC055B71040B306CD
:103AC000C4006316D70014435843B29614C058C0BC
:103AD000C0C371B78280011126CA93843500F19862
:103AE00006CE22CC4AC84EC6A104B14763F1F40405
:103AF000B14463E0B4042A898D249387818298437A
:103B00003A8431E09387C1829C4391E781454A859D
:103B1000512823A6A182A6854A856920FD596317ED
:103B20003507B1472320F9004A850D2C29A0E3D29F
:103B300004FCB1471CC10145F2406244D2444249F1
:103B4000B249056182801C40858F63CE0702AD4675
:103B500063F6F6001CC03E9404C031A05C406312C2
:103B6000870223A4F1824A85D52A1305B40093075E
:103B7000440061993307F54061D33A94898F1CC0A2
:103B800065BF5CC3CDB722874040A5BF1304350095
:103B90007198E30385FCB305A4404A852120E31D09
:103BA00035FB41B7411122C42A842E8523AE0198EA
:103BB00006C6112CFD576317F5009387C1999C43E6
:103BC00091C31CC0B240224441018280411122C4F1
:103BD0002E848395E50006C65922634905007C487A
:103BE000AA977CC8B2402244410182808357C40016
:103BF0007D777D17F98F2316F400EDB783D7C500C5
:103C0000011122CC26CA4AC84EC606CE93F7071029
:103C1000AA842E843289B68991C78395E5008946A6
:103C2000014631228357C4007D777D17F98F231613
:103C3000F4008315E4006244F240CE864A86B2491D
:103C400042492685D24405613DA8411122C42E84F3
:103C50008395E50006C6E128FD570357C400631BA2
:103C6000F500FD77FD17F98F2316F400B2402244CA
:103C7000410182808567D98F2316F40068C8FDB79B
:103C80008395E50005A8411122C42A842E85B285BA
:103C9000368623AE019806C6EFC01FC2FD576317D4
:103CA000F5009387C1999C4391C31CC0B240224444
:103CB00041018280411122C42A842E8523AE0198BD
:103CC00006C6E120FD576317F5009387C1999C4311
:103CD00091C31CC0B240224441018280411122C4E0
:103CE0002A842E85B28523AE019806C66D20FD5725
:103CF0006317F5009387C1999C4391C31CC0B240E0
:103D0000224441018280411122C42A842E8523AE9F
:103D1000019806C67920FD576317F5009387C1996E
:103D20009C4391C31CC0B240224441018280411196
:103D300022C42A842E85B285368623AE019806C613
:103D4000BD20FD576317F5009387C1999C4391C32C
:103D50001CC0B24022444101828082808280411195
:103D600022C42A842E85B285368623AE019806C6E3
:103D7000A920FD576317F5009387C1999C4391C310
:103D80001CC0B2402244410182809307800523AECB
:103D9000F1987D5582809307800523AEF1987D557B
:103DA00082809307800523AEF198014582809307B6
:103DB000800523AEF1987D5582809307800523AE60
:103DC000F1987D558280938701839C4391C73E95EE
:103DD00023A8A1823E8582809387019A3E9523A8DD
:103DE000A1823E858280000000080140000C014055
:103DF000001001400014014000180140002C014057
:103E0000000000400004004000080040000C00409A
:103E100000340140004C0140005001400038014096
:103E20000044004000480040004C0040005000406A
:103E300000180040001C00400020004080280000C6
:103E40003E2700004C260000BA2700004C26000048
:103E500016270000AC2500004C260000202700009B
:103E6000342700006228000068280000090243008F
:103E7000020100A032090400000102020100052431
:103E8000001001052401000004240202052406009C
:103E900001070581034000FF09040100020A000038
:103EA00000070502024000000705820240000000F2
:103EB0001201000202000008861A225700010102C6
:103EC000030100000E037700630068002E0063000A
:103ED0006E0000000C034300480033003000370040
:103EE000140332003000310037002D0032002D0065
:103EF0003200350016033000310032003300340048
:103F00003500360037003800390000000A0600028C
:103F1000FF00FF40010000000A4261756420526109
:103F20007465203D202564000A64617461426974EF
:103F3000203D2025640000000A73746F704269748C
:103F4000203D2025640000000A7061726974795474
:103F5000797065203D20256400000000232D302B62
:103F600020000000686C4C0065666745464700000D
:103F7000303132333435363738394142434445469F
:103F80000000000030313233343536373839616261
:103F9000636465660000000000000000000000008F
:103FA0000000000000000000000000000000000011
:103FB0000000000000000000000000000000000001
:103FC00000000000000000000000000000000000F1
:103FD00000000000000000000000000000000000E1
:103FE00000000000000000000000000000000000D1
:083FF0000000000000000000C9
:103FF8000000000001020304010203040607080987
:104008000907000000000000000000000000000098
:104018000000000000000000000000000000000098
:104028000000000000000000000000000000000088
:104038000000000000000000000000000000000078
:104048000000000000000000B83F0000D83F00005A
:10405800983F000000000000000000000000000081
:104068000000000000000000000000000000000048
:104078000000000000000000000000000000000038
:104088000000000000000000000000000000000028
:104098000000000000000000000000000000000018
:1040A80000000000000000000204060800C2010031
:1040B8000000080100449508540000200403090486
:0840C80054000020000000007C
:00000001FF
