:100000006F10101513000000130000001300000013
:100010001300000013000000130000001300000094
:100020001300000013000000130000001300000084
:08003000130000007300100032
:100038000000000000000000A8020000AC02000060
:1000480000000000961800000000000000000000FA
:10005800981800009A180000000000000000000036
:100068009C180000000000009E180000000000001E
:10007800A0180000A2180000A4180000A61800008C
:10008800A8180000AA1800000204000016040000C6
:100098003A0400005004000066040000B61800008E
:1000A800B8180000BA180000BC180000BE180000FC
:1000B800C0180000C2180000C4180000C6180000CC
:1000C800C8180000CA180000CC1800007C04000002
:1000D800D018000070050000D4180000D6180000E1
:1000E80096050000B8050000DE050000DE180000D7
:1000F800E0180000E2180000E4180000E61800000C
:10010800E8180000AE020000D80200000203000058
:10011800EE040000F2180000F4180000F6180000C1
:100128006A060000FA180000FC180000FE1800001B
:10013800001900000219000004060000061900005A
:100148002C030000560300002A06000044060000A5
:1001580010190000121900001419000016190000E7
:10016800181900001A1900001C1900001E190000B7
:100178002019000022190000241900001C24000086
:10018800281900002A190000E60300007403000083
:100198009E030000C8030000341900009006000008
:1001A800381900003A1900003C190000B606000092
:1001B80040190000421900004419000046190000C7
:1001C800481900004A1900004C1900004E19000097
:1001D8000000000000000000000000000000000017
:1001E8000000000000000000000000000000000007
:0801F8000000000000000000FF
:100200003D432A876373C3029377F700BDEFADE5E3
:10021000937606FF3D8ABA960CC34CC30CC74CC7F5
:100220004107E36BD7FE11E28280B306C3408A0622
:100230009702000096966780A6002307B700A306E2
:10024000B7002306B700A305B7002305B700A30432
:10025000B7002304B700A303B7002303B700A3022A
:10026000B7002302B700A301B7002301B700A30022
:10027000B7002300B700828093F5F50F93968500B1
:10028000D58D93960501D58D61B79396270097027A
:10029000000096968682E78086FA9680C1171D8FA9
:1002A0003E96E374C3F8A5B77300203001A0411156
:1002B00022C6374401409305505213050480EF20B5
:1002C000400919C59305505213050480EF20A00C76
:1002D0003244410173002030411122C637440040AE
:1002E0009305505213050440EF20A00619C593054D
:1002F000505213050440EF20000A324441017300BC
:100300002030411122C63754004093055052130546
:100310000480EF20000419C5930550521305048092
:10032000EF2060073244410173002030411122C6A2
:100330003754004093055052130504C0EF2060016C
:1003400019C593055052130504C0EF20C004324470
:100350004101730020309305505237550040EF1093
:10036000507F19C59305505237550040EF20A00229
:1003700073002030411122C63724004093055052AB
:1003800013050480EF10F07C19C593055052130536
:100390000480EF20400032444101730020304111BD
:1003A00022C63724004093055052130504C0EF10B5
:1003B000507A19C593055052130504C0EF10B07D53
:1003C00032444101730020309305505237250040DC
:1003D000EF10307819C59305505237250040EF10C3
:1003E000907B73002030B707055003C70701118BBE
:1003F00019C703C707011377B70F2388E7007300F6
:1004000020300545EF10A05D85476314F500EF101F
:10041000E05E730020300945EF10605C8547631C87
:10042000F5000945EF10805D130520088145EF00B8
:10043000F00451453125730020301145EF10205A4A
:1004400085476315F5001145EF10405B73002030C0
:100450002145EF10C05885476315F5002145EF1081
:10046000E059730020304145EF1060578547631510
:10047000F5004145EF10805873002030130500024D
:10048000EF10E05585476316F50013050002EF10E5
:10049000E05613050004EF10805485476316F500FD
:1004A00013050004EF10805513050008EF102053CA
:1004B00085476316F50013050008EF102054130557
:1004C0000010EF10C05185476316F50013050010AA
:1004D000EF10C05213050020EF10605085476316DF
:1004E000F50013050020EF1060517300203041111A
:1004F0001305004022C6EF10804E85476316F500B5
:1005000013050040EF10804F056413050480EF10C1
:10051000004D85476316F50013050480EF10004E6B
:100520000565EF10C04B85476315F5000565EF10B5
:10053000E04C0965EF10A04A85476315F500096591
:10054000EF10C04B1165EF10804985476315F5002A
:100550001165EF10A04A2165EF10604885476315CB
:10056000F5002165EF1080493244410173002030CD
:10057000411122C6373401408545130504C0EF10F0
:10058000F04911C58545130504C0EF10F04A324407
:10059000410173002030854537050040EF101048B9
:1005A00011C9370500408545EF1010491305300883
:1005B000EF00206F73002030411122C63704004045
:1005C000854513050440EF10704511C58545130599
:1005D0000440EF1070463244410173002030411155
:1005E00022C637140040854513050480EF101043E0
:1005F00011C5854513050480EF10104432444101B4
:1006000073002030411122C6371400408545130580
:1006100004C0EF10B04011C58545130504C0EF10AC
:10062000B041324441017300203085453715004008
:10063000EF10D03E11C5854537150040EF10D03F73
:1006400073002030411122C6371400408545130540
:100650000440EF10B03C11C5854513050440EF1070
:10066000B03D3244410173002030411122C637347D
:100670000140854513050440EF10503A11C58545EA
:1006800013050440EF10503B324441017300203009
:10069000411122C6375401408545130504C0EF10AF
:1006A000F03711C58545130504C0EF10F03832440A
:1006B000410173002030854537550140EF10103659
:1006C00011C5854537550140EF10103773002030B4
:1006D000797126D252CC56CA5AC85EC662C466C266
:1006E0006AC006D622D44AD04ECEEF108016B74745
:1006F000000003AD8701B7040020B74C0000374C61
:100700000000B74B0000374B0000B74A0000374AE3
:1007100000008D451305E003B92E85476316F500EB
:100720008D451305E003952E95211384440FFD5745
:100730005CC02316F400E1772318F400FD57370757
:1007400000808D45230AF4001305E003930710F899
:1007500018C4230CF40023AAA40F6D2E05291385B9
:10076000CC01EF20B05303A5440FB749000037492F
:100770000000EF202049AE862A8613054C04EF20A6
:10078000F0514C4013858B05EF2050510C4413055C
:10079000CB06EF20B0508355C40013850A08EF2024
:1007A000F04F8315040113054A09EF20304F8345AC
:1007B00044011385890AEF20704E830584011305D7
:1007C000C90BEF20B04D8D451305E003312E3745A1
:1007D00000000D469305E0031305050DEF20104CB6
:1007E00003A5440FEF2000422A86AE8613054C0471
:1007F000EF20D04A4C4013858B05EF20304A0C4443
:100800001305CB06EF2090498355C40013850A08D1
:10081000EF20D0488315040113054A09EF20104842
:10082000834544011385890AEF20504783058401DD
:100830001305C90BEF20904637450000130505113D
:10084000EF207057F9B5411106C61DE1A1460146DA
:100850009305800413050010EF003011A1460146F6
:100860009305800413051010B24041016F00F00F92
:1008700085476311F50281460146930580041305FF
:100880002020EF00900E8146014693058004130559
:100890003020D9BFB24041018280797126D24AD03E
:1008A0004ECE52CC06D622D4834715008145640033
:1008B0002306F100834705009309F100A306F10028
:1008C00083472500370500402307F100EF10101380
:1008D0008965138AC55113894513214483C70400D0
:1008E0007D14CA85B3D78740858B91E3D2851305E4
:1008F0001020E12E854537050040EF10F0058545B5
:1009000037050040EF10F00F7DD9814537050040D5
:10091000EF109004854537050040EF10500F8145DA
:1009200037050040EF10900D55F88504E39799FACC
:10093000B250225492540259F249624A456182806F
:10094000B7C50200011181460146938505F21305E2
:10095000102006CE2316010023070100EF00F0004F
:10096000894537050040EF10D00768003D37130573
:100970004006592868001537F24005618280B71794
:100980000240DC4337177A0013070720C983BD8B69
:10099000B387E7023727F40013070740F165930692
:1009A000100213060002938505200945BA9723A477
:1009B000F1826F00B045011126CAB754004022CC25
:1009C0004AC84EC606CEAE8932890144938404805B
:1009D000634A2401F24062444A85D2444249B24902
:1009E00005618280930500042685EF10D0157DD91E
:1009F000B38789008385070026850504C205C18168
:100A0000EF10D013F1B7828083A7418137177A00A6
:100A100013070720B3D7E702814601473385A702B2
:100A2000B7F700E023A0070094C7D8C7054798C3CD
:100A3000B7F600E09846DC4699E3E37DE5FE828068
:100A400083A741810967130707F4B3D7E7028146FB
:100A500001473385A702B7F700E023A0070094C73A
:100A6000D8C7054798C3B7F600E09846DC4699E337
:100A7000E37DE5FE8280A1673E950A05AA95AA0559
:100A8000938705407D5794416397E6009105E39C69
:100A9000F5FE0145828005458280011106CE22CCFB
:100AA0002EC62A84EF00307613054003EF0030781D
:100AB000B24521652A940A042E941315A400370424
:100AC0000020EF00F07B1304840B08C01305000224
:100AD000EF00F075EF00D0740840F24062447115E9
:100AE0003335A00005618280A1673E950A052E95E9
:100AF000370700202A0581471307470F9306004058
:100B00003386A7000C423386E70091070CC2E399B5
:100B1000D7FE8280011122CC21642A940A042E94EB
:100B200026CA4AC806CE4EC652C456C2AA842E89C8
:100B30002A04913701C5CA852685853737090020E3
:100B4000EF00706C81441309490F914A93090040EA
:100B5000B38724018C4333059400EF00D07693874C
:100B6000418088C39C43639157039104E39234FF0F
:100B7000EF00106B0145F2406244D2444249B24951
:100B8000224A924A056182800545F5B73705002063
:100B9000130600409305F00F1305450F6FF04FE665
:100BA0009307F00F630BF50C797122D413545500A1
:100BB00026D24AD04ECE52CC06D61D889374F5006C
:100BC0003689328AAE8935E085451145EF10C01B64
:100BD0008547B3949700C204C180231291006399A2
:100BE000F90093170901C183A18391E38D473EC4A6
:100BF0009167938747110A043E9400401379F90FD7
:100C00004C0022854AC6EF00307285476397F90091
:100C10005286A6852285EF00507DB2502254925410
:100C20000259F249624A4561828085476315F400A2
:100C30008545214561BF89476315F40085454145D8
:100C400071B78D476316F400854513050002BDBFDB
:100C500091476316F40085451305000485BF954749
:100C60006316F4008545130500088DB79947E31115
:100C7000F4F685451305001091BF82809357550007
:100C800013972700916793874711BA9798439377F3
:100C9000F50005453315F50099C108CB828048CB96
:100CA00082809357350013F7C701916793874711E7
:100CB000BA9798439377F500054554473315F500E7
:100CC000358D48C782808280828093578500116766
:100CD000130787128A07BA9798430D890A05835725
:100CE000C7023A95B385F502896793870771B3D533
:100CF000F502C205C1814CD9828019E59306803185
:100D000001468545214569BD85476318F500930671
:100D10008031014685452545FDB789476318F500B3
:100D200093068031014685452945F1BF8D476318FB
:100D3000F50093068031014685452D45E9B7C14749
:100D40006319F50093068031014685451305900827
:100D50005DBFC5476319F50093068031014685459F
:100D60001305B0084DB7C9476319F50093068031E4
:100D7000014685451305D00879B7CD476319F500BD
:100D800093068031014685451305E008ADBF930702
:100D900000106318F5009306803101468545014532
:100DA0009DB7930710106318F50093068031014634
:100DB0008545054589BF930720106318F500930604
:100DC00080310146854509453DBF930730106318C2
:100DD000F50093068031014685450D452DB79307F3
:100DE00000116318F50093068031014685453D45A5
:100DF00019BF930710116319F5009306803101465E
:100E000085451305300201B7930720116319F500DA
:100E100093068031014685451305A002EDB5930781
:100E200030116319F500930680310146854513059D
:100E3000B002D1BD930700206318F50093068031FE
:100E4000014685451945C1B5930710206318F50083
:100E500093068031014685451D4575B593072020D1
:100E60006319F5009306803101468545130500029C
:100E700059BD930730206319F50093068031014670
:100E800085451305100241B5930700216319F5004C
:100E9000930680310146854513056004ADB593077F
:100EA00010216319F500930680310146854513052D
:100EB000700491BD930720216319F50093068031DA
:100EC00001468545130580043DBD93073021631914
:100ED000F50093068031014685451305900425B53C
:100EE000930700226319F50093068031014685457A
:100EF0001305400209BD930710226319F5009306FC
:100F000080310146854513055002F5BB930700303B
:100F10006319F5009306803101468545130560028B
:100F2000DDB3930710306319F50093068031014655
:100F3000854513057002C1BB930720306319F50086
:100F40009306803101468545130580026DBB9307EA
:100F500030306319F500930680310146854513054D
:100F6000900255B3930700316319F5009306803161
:100F7000014685451305C00679B3930710316319FF
:100F8000F50093068031014685451305D006A5BBC3
:100F9000930720316319F50093068031014685459A
:100FA0001305E0068DB3930730316319F5009306FE
:100FB0008031014685451305F006B1B39307004023
:100FC000E30BF5DC93071040E301F5DE93072040C7
:100FD000E307F5DE93073040E30DF5DE930700707D
:100FE000E308F5EA93071070E30FF5EA9307207022
:100FF000E306F5EC93073070E30DF5EC9307007111
:10100000E30AF5F093071071E301F5F293072071FD
:10101000E308F5F2930730716319F5009306803108
:10102000014685451305D004F9B993070580E38887
:1010300007D8856713871780E30DE5D813872780C6
:101040006318E5009306803101468545114565B971
:10105000938737806319F5009306803101468545F3
:10106000130540044DB18567138707816319E500B7
:1010700093068031014685451305900669B11387B3
:1010800017816319E50093068031014685451305F4
:10109000B00695B913872781E305E5EE13873781FD
:1010A000E307E5F013870790E30CE5E81387179053
:1010B000E303E5EA138727906319E500930680317F
:1010C00001468545130530043DB9138737906319F0
:1010D000E50093068031014685451305B00425B12E
:1010E000138707916319E500930680310146854512
:1010F0001305100609B9938717916319F500930634
:1011000080310146854513053006F5BE8567138796
:1011100027916319E5009306803101468545130543
:101120005006D5B6138737916319E50093068031D1
:101130000146854513057006F9B613870792E30E3D
:10114000E5CA13871792E301E5DA13872792E308CC
:10115000E5DA938737926319F500930680310146EB
:1011600085451305F00445B68280397106DE22DC20
:1011700026DA2A844AD84ED62EC632C43689B53EDF
:10118000B24583A7418122469359840033D7B702E1
:101190004E85418393061700B386B602B3D7D702B4
:1011A00093940701C180B384C402096613060671D3
:1011B000FD1793950701C181B3D4C4023A86B522C5
:1011C00085450545EF00503C935744000547C20450
:1011D000C1806394E7063705160085451305050CA5
:1011E000EF005021C1671167938707061395290007
:1011F000130787123EC83A9593773400231B91005A
:10120000231C0100231E01000041E9E70C08228590
:10121000EF00504785452285EF00D075CA852285AD
:10122000EF00B07622858545EF001073F2506254CE
:10123000D2544259B2592161828045476398E700F0
:101240003705180085451305053059BF13071002EF
:101250006398E70037151A008545130505C049B79F
:10126000130720026398E70037151A008545130518
:101270000580BDB7130710036395E7008545056535
:1012800085B7130710076399E700370701405C4FE4
:1012900093E747005CCFB9B7130710086398E700DE
:1012A000370701405C4F93E70701EDB713071009BB
:1012B0006398E700370701405C4F93E70704D9BF05
:1012C00013072009E390E7F2370701405C4F93E7EB
:1012D0000702C9B70547639FE7000C082285EF00A6
:1012E000704422858545EF00F068CA852285EF00AD
:1012F000F06A0DBF09470C082285639DE700EF00E7
:10130000304F22858545EF00F066CA852285EF00C3
:10131000906A09BFEF00705A22858545EF009065FD
:10132000CA852285EF00506AF5BD011122CC26CA7C
:101330004AC806CE2A842E89B28401E9056585450E
:1013400013050580EF00502439A08547631EF50280
:101350008545EF0050259167938787120A043E94D4
:1013600008404C0023142101231291002315010091
:101370002313010023060100EF00D024F240624451
:10138000D2444249056182808947E303F5FC8D47D9
:101390006315F500854511456DBF91476315F5004F
:1013A000854521457DB79D476315F5008545096550
:1013B00051BFA1476316F50085453705080059B7A9
:1013C000A547E31AF5F8854537051000A5BF41117B
:1013D00006C60DE185476398F522E146014625459D
:1013E000EFF00FFC9146014681452945B24041018D
:1013F0006FF00FFB8947631FF500E1460146854505
:1014000013056002EFF0CFF99146014681451305BF
:101410007002E9BFC147631DF500E14601468545FD
:101420000945EFF0EFF79146014681450D457DBF37
:10143000C947631FF500E14601468545130550067F
:10144000EFF00FF69146014681451305600679BF1E
:1014500093070002631FF500E14601468545130529
:10146000A002EFF0EFF39146014681451305B0026B
:10147000B5BF93072002631FF500E146014685458D
:101480001305A004EFF0CFF1914601468145130505
:10149000B004A9BF930740026310F502E14601467C
:1014A000854513058006EFF0AFEF930680040146F3
:1014B0008145130590061DBF93070004E30FF5FA5D
:1014C00093072004631FF500E14601468545130597
:1014D0000002EFF0EFEC9146014681451305100242
:1014E00031B793070005631FF500E14601468545C6
:1014F0001305C004EFF0CFEA91460146814513057C
:101500002006EDB593072005631FF500E14601466F
:10151000854513058008EFF0AFE891460146814507
:1015200013059008E1B5930700066310F502E14644
:101530000146854513050004EFF08FE6930680040D
:10154000014681451305100455B593072006631F16
:10155000F500E146014685451305A008EFF04FE48C
:101560009146014681451305B00849B59307000728
:10157000631FF500E1460146854513052004EFF0A1
:101580002FE29146014681451305300485B5930746
:1015900020076317F500E146014685451945C5B7A3
:1015A00093074007631FF500E14601468545130593
:1015B000C008EFF0EFDE9146014681451305D008E3
:1015C00035B593070008631FF500E14601468545E0
:1015D00013054004EFF0CFDC914601468145130529
:1015E000500429B593072008631FF500E146014622
:1015F00085451305E008EFF0AFDA914601468145D5
:101600001305F008E5B3B24041018280797122D41C
:101610004ECE2A84AE890545854526D24AD006D6C7
:10162000B2843689EF0040768947639CF4048D4785
:101630006315F90085451145752B631A041285451C
:1016400011659927CA8526855933B7070C003EC412
:101650009167938787140A043E9400408A854EC0A0
:10166000228502C223160100EF00F03D2285854548
:10167000EF00104BB250225492540259F249456186
:101680008280C9476398F400CD47E318F9FA85458D
:1016900021455DB793072002639BF4009307300256
:1016A000E31DF9F8370514008545410571B7930727
:1016B0004002639CF40093075002E310F9F83705E9
:1016C000140085451305050385BF9307200463991E
:1016D000F40093073004E312F9F685450565A9BFC8
:1016E00093072005639BF40093073005E317F9F493
:1016F000370520008545050581B793072006639CC3
:10170000F40093073006E31AF9F237150080854597
:101710001305058015B793072007639EF400930710
:101720003007E31CF9F0370701405C4FB706400073
:10173000D58F5CCF19B793074007639CF4009307DC
:101740005007E31CF9EE370701405C4FB7068000F5
:10175000C5B793072008E392F4EE93073008E31E21
:10176000F9EC370701405C4FB7060002D1B7854757
:101770006317F4008545370502003525E1B5894733
:101780006316F400854537050400C5BF8D47631611
:10179000F400854537050800CDB791476316F4007E
:1017A000854537051000D1BF95476316F400854580
:1017B00013050004D9B799476316F400854513054E
:1017C000000865BF9D47E31FF4E68545130500103B
:1017D0006DB78547631AF5009306003105468545C8
:1017E000130520086FF0CFBB89476319F5009306F6
:1017F00000310546854513053008EDB782808947DD
:10180000631AF50093068034054681451305C0022E
:101810006FF00FB98D476319F500930680340546C4
:10182000814513058006EDB791476319F5009306CE
:101830008034054681451305E002D9BF95476319F9
:10184000F500930680340546814513059006C9B717
:101850008280411106C6EFF02FC7EFF04F92EFF0F4
:101860008F9A0145EFE03FFE0545EFE0DFFD0945BA
:1018700079370D45693711455937154549370545BC
:10188000893F0945B937EFF0AF8BB24041016FF0A6
:101890008FC301A001A001A001A001A001A001A08F
:1018A00001A001A001A001A001A001A001A001A030
:1018B00001A001A001A001A001A001A001A001A020
:1018C00001A001A001A001A001A001A001A001A010
:1018D00001A001A001A001A001A001A001A001A000
:1018E00001A001A001A001A001A001A001A001A0F0
:1018F00001A001A001A001A001A001A001A001A0E0
:1019000001A001A001A001A001A001A001A001A0CF
:1019100001A001A001A001A001A001A001A001A0BF
:1019200001A001A001A001A001A001A001A001A0AF
:1019300001A001A001A001A001A001A001A001A09F
:1019400001A001A001A001A001A001A001A001A08F
:101950007390123497F1FF1F938141F617610020B5
:101960001301416A17350000130505AC97E5FF1F09
:10197000938545691386818263FAC5008322050039
:1019800023A0550011059105E3EAC5FE1385818268
:10199000938541DA6377B500232005001105E36DD7
:1019A000B5FEFD42739002BCFD4273904280B78247
:1019B00000009382828873A0023097E2FFFF938237
:1019C000E26793E2320073905230EF10801197F289
:1019D000FFFF938222D07390123473002030B70738
:1019E00001401387074083A70740584B698F09C7F9
:1019F0007D8D3335A000828001458280B70701408C
:101A000023AAA7408280B7076745372702409387FC
:101A100037125CC3B797EFCD9387B79A5CC38280C8
:101A2000372702401C4B93E707081CCB8280B7275F
:101A30000240C8C78280B7270240D8470545058BBA
:101A400011EBD8470945118B11E7C8474189133578
:101A500015000D058280411122C426C206C62A84C3
:101A60008544D13F6318950019E0154529A0E13759
:101A70007D14CDBF7DD8B240224492444101828082
:101A8000411126C2AA8437050B0006C622C4E137DD
:101A900091476315F502372402401C4837050B00B7
:101AA00093E727001CC844C81C4893E707041CC8D8
:101AB0005D371C4809677517F98F1CC8B24022446E
:101AC00092444101828079714AD02A89156526D2D3
:101AD0004ECE06D622D4AE8402C69149AD3F631ED7
:101AE0003503372402401C48156593E717001CC8CE
:101AF00093970401C1832310F900B13F631A3501A4
:101B000009094AC6B247C180156523909700A137DD
:101B10001C4809677917F98F1CC8B2502254925497
:101B20000259F249456182809C4513F7070113F879
:101B3000F70001C7D8413368E80083D5050013F7E3
:101B4000F50F39C318418146854E3D4F930F8002F2
:101B500093028004214E3396DE00B3F8C500631172
:101B600016039398260033131F011343F3FF3377B3
:101B7000E300B318180133E7E800639FF70550C985
:101B80008506E39AC6FD18C11307F00F6375B70405
:101B900054412146854E3D4F930F800293028004AD
:101BA000414EB398CE0033F715016392E802131744
:101BB000260001173313EF001343F3FFB376D3006E
:101BC0003317E800D98E639DF701232A1501050616
:101BD000E319C6FD54C18280E39457FA10C94DB78A
:101BE000E39757FE23281501DDB719C20CC982807F
:101BF0004CC98280B707014063550504D44FB7072D
:101C00003000131705013376F5004183631DF6029A
:101C1000370600F17D1637080140B3F7C60083266A
:101C20004800758E2322C80099C593565501920627
:101C30003317D700D98F37070140635E05025CCFA9
:101C40008280D4436DBF9317B50063D007029357CA
:101C5000050113F6F7008D47B397C70093C7F7FF49
:101C6000F58FB706000FD58FC1B79357550192076F
:101C7000B317F700E5B75CC38280371702405C43B7
:101C80009146B18B6385D700A1466386D706B71707
:101C90007A00938707201CC1371602405C42370741
:101CA0000020130707009183BD8BBA9783C60700F6
:101CB0001C41B3D7D7005CC15442A1829D8ABA9619
:101CC00083C60600B3D6D70014C55442AD829D8AA0
:101CD000369703470700B3D7E7005CC558423983FE
:101CE0009376370013878180369703470700B3D771
:101CF000E7021CC982805C4354434167C983F98E63
:101D000037F7FF1F0327C770BD8B8907131617010D
:101D100063480600454601476392C702C94739A890
:101D200009476389E7023D476388E70241476388C3
:101D3000E702454601476393C700C14785E6B746BA
:101D4000024083A60680C18A8DC6B7167A009386A4
:101D5000062025A00147D9B70547B547C5B70147B4
:101D6000BD47E9BFB7160240D4421396E600E35ED2
:101D700006FCB7163D0093860690B387D7021CC1B8
:101D800001DF1C41858301BF99C5371702401C4FF5
:101D90005D8D08CF8280B7170240984F1345F5FF3D
:101DA000798D88CF828099C5371702405C4F5D8D51
:101DB00048CF8280B7170240D84F1345F5FF798D81
:101DC000C8CF82808357050037370140930607C08C
:101DD000C207C1836300D504B7060040630CD50277
:101DE000938606406308D502B71600401386068026
:101DF0006302C502938606C0630ED5001307074031
:101E0000630AE50037570140930607C06304D50015
:101E10006317E50003D7250093F7F7F8D98F371735
:101E20000040630DE500130707406309E50093F7E1
:101E3000F7CF03D76500C207C183D98F2310F50000
:101E400083D745002316F50283D705002314F50236
:101E5000B7370140138707C0630EE500938707403B
:101E6000630AF500B7570140138707C06304E50014
:101E70006316F50083C785002318F5028547231AEA
:101E8000F50082808357050203D6050003D825009C
:101E9000C207C183F99BC207C1832310F502835790
:101EA00005028356450003578501C207C1834207D7
:101EB00041831377C7F8518F03D68500F59BC2067F
:101EC00033660601D18F37360140130806C0C18240
:101ED000630E050113060640630AC500375601402C
:101EE000130806C0630405016313C50203D6A500E9
:101EF000DD9B03D8E500D18F03D64500ED9B93F61B
:101F0000F6CFD18F03D6C50033660601D18E2312DA
:101F1000D500231CE50003D76500231AE502231032
:101F2000F50282808357050265771307F7CFC20752
:101F3000C183BD9BC207C1832310F50283570502ED
:101F40008356450003D88500C207139606018356C1
:101F50008501C18393F7F7FD758F83D60500418214
:101F6000A206558F83D6250042074183B3E60601BA
:101F70009206D58FB7360140C207138806C0C183C9
:101F8000630E050193860640630AD500B7560140EB
:101F9000138806C0630405016311D50483D6A50028
:101FA00093F7F7F703D8C5009206D58F83D645007F
:101FB000C207C183920693F7F7FBD58FFD76938610
:101FC000F63FF18E03D6E500C207C18333660601F2
:101FD0000A06D18E1396060141822312C500231CE6
:101FE000E50003D76500231CE5022310F50282807B
:101FF0008357050203D88500C207C18393F7F7EF23
:10200000C207C1832310F50283570502835645009A
:102010000357C501C20713960601420783D6050080
:1020200041831377C7F8558F83D62500C18393F773
:10203000F7DFB3E60601A206D58FB7360140C20727
:10204000138806C04182C183630E05019386064052
:10205000630AD500B7560140138806C06304050122
:102060006312D504FD769386F67FF58F83D6A5009F
:1020700003D8C500A206D58F83D64500C207C18309
:10208000A20693F7F7BFD58FF576FD16F18E03D62E
:10209000E500C207C183336606011206D18E13968E
:1020A000060141822312C500231EE50003D7650007
:1020B000231EE5022310F502828003570502FD77F7
:1020C000FD17F98F2310F5020358050283564500CA
:1020D0008357C50165771396060183D6050013075C
:1020E000F7CF7D8FF977A206FD17558FB3F707015C
:1020F00083D6250003D8850042074182B3E6060156
:10210000B206D58FB7360140C207138806C0418397
:10211000C183630E050193860640630AD500B75656
:102120000140138806C063040501631CD500F176E5
:10213000FD16F18E03D6C5001A06D18E1396060140
:1021400041822312C500231EE50003D7650023103A
:10215000E5042310F50282808357050091C593E7BB
:1021600017002310F5008280C207C183F99BC207C4
:10217000C183C5BF8357450491C52167D98F2312F9
:10218000F5048280C607C583DDBF83578501C2077A
:10219000C183DD9BDD8D231CB50082800357850143
:1021A000FD779387F77FF98FA205CD8FC207C18393
:1021B000231CF50082808357C501C207C183DD9BC4
:1021C000DD8D231EB50082800357C501FD779387FF
:1021D000F77FF98FA205CD8FC207C183231EF500BB
:1021E0008280835705029205C207C18393F7F7FDEA
:1021F000CD8FC207C1832310F50282802312B5025E
:102200008280035505016D8D3335A000828093C512
:10221000F5FFC205C1812318B500828083570501EF
:102220000355C500ED8F4205418189C76D8D33355A
:10223000A00082800145828093C5F5FFC205C1815F
:102240002318B500828083560501F577FD17F58FB9
:1022500083D66500397122DC06DED58F03D7C50031
:102260002318F5008356C500FD779387379FF58FB8
:1022700083D645002A842EC6D58F83D68500D58F78
:1022800083D6A500D58F2316F50083574501C207D5
:10229000C18393F7F7CFD98F231AF5006808EFF0C1
:1022A000DF9DB747014093870780B245631EF40462
:1022B000A2578356C4006547B387E702C206C186AA
:1022C000984163D5060406070356C4004206B3D7F7
:1022D000E702130740064186B3D6E702B3F7E702E9
:1022E0009206635706028E0793872703B3D7E70248
:1022F00013F77700B367D700C207C1832314F40034
:10230000F250625421618280925765B70A076DBF0F
:10231000920793872703B3D7E702BD8BD58FE9BF19
:1023200081C98357C5000967D98F2316F5008280BC
:102330000357C500F977FD17F98FC5BF93F5F51F52
:102340002312B5008280035505006D8D3335A00042
:10235000828013F7F50F85461583B397B600631394
:10236000D7020357C500F98F0357050001454207FF
:10237000418381CB0545A181B315B5006D8F333500
:10238000E000828089466315D70003570501E1BF4D
:1023900003574501C9BFA1818547B397B70093C7CC
:1023A000F7FFC207C1832310F5008280B7070050F2
:1023B000239AA70203C767031377C70F238BE7028C
:1023C0008280B7070050239CA70203C7A703137797
:1023D000C70F238DE7028280814713F7F70F6363EE
:1023E000A700E9B703A7C1D93E9783460700850731
:1023F00093C6F6FF2300D704CDB7814713F7F70F35
:102400006363A7007DBF03A781CC3E978346070087
:10241000850793C6F6FF2300D704CDB7B707005052
:1024200003C767001377F70F93762700638A066662
:10243000011122CE26CC4ACA4EC852C656C403C782
:10244000770093060002137707036303D74C130644
:1024500000036301C7046316072203C7770005461C
:102460001377F703630CC760630607588946631A3E
:10247000D72003C77700137707046304072003C737
:10248000B70313474700A38DE70288471375F50F7D
:10249000AD37C5AA19472389E7021147A389E70287
:1024A00083A4C1CC83C7740003C76400A207D98F7B
:1024B0002390F1CC03C714002381E1CC03CA0400AC
:1024C00013770A06630A070E03C721CC13770702A6
:1024D00019CF83C721CC1307100293F7F70F638A34
:1024E000E700130720026384E7006395D7180149CA
:1024F00091A09387C18023A2F1CC83D701CC1D4743
:1025000021496366F70003D901CC1379F90F4A8694
:102510009385C1802685EF00100183D701CCB38756
:102520002741C207C1832390F1CC83A741CCCA972E
:1025300023A2F1CC83D701CC42091359090163745A
:10254000F900239021CD9387C18203D707009D46D0
:10255000A14463E6E60083D4070093F4F40F03A9D3
:1025600041CC2686CA85138501D5CA94EF00A07B8D
:1025700023A291CC620A135A8A41814763520A020C
:1025800003D701CCA14763E6E70083D701CC93F7DB
:10259000F70F03D701CC1D8F420741832390E1CC75
:1025A000C20737070050C1832318F7029147230958
:1025B000F702A309F702F1A083C721CC2D4793F7B7
:1025C000F70F6369F70A11678A0713078716BA9727
:1025D0009C43828783C7340003C724008D46A2072B
:1025E000D98F13D787006305D70C63ECE6008547C6
:1025F000630BF70289476304F70A1309F00F814759
:1026000015A89D476308F71093072002630CF70E87
:102610009947E314F7FE91679387872323A2F1CCB0
:102620000149A94701A891679387C71D23A2F1CC4F
:102630000149C94703D701CCC207C18363F4E7004E
:102640002390F1CC83D701CC1D47A14A6366F700E4
:1026500083DA01CC93FAFA0F83A541CC56862685FE
:10266000D92583A741CCBE9A23A251CD9307F00F61
:10267000E312F9F0B70700501D472389E702A38949
:10268000E702B707005009472383E7007244E2449A
:102690005249C249324AA24A05617300203091670B
:1026A0009387871923A2F1CC01499307300459B7C6
:1026B00093F7F70F85466387D70291CF8946638BDF
:1026C000D702E39CE7F291679387072223A2F1CC1C
:1026D0000149D94785B79387C18123A2F1CC01492C
:1026E000914789BF91679387071F23A2F1CC0149C6
:1026F000B94789B791679387072023A2F1CC014995
:10270000B1470DBF91679387C72023A2F1CC014940
:10271000D1470DB783C7318193F7F70FE39F07ECDC
:1027200037090020130909019165130610049385E8
:10273000A51913052900C52B23A221CDB5B783C741
:1027400024002390F1CC3DB583C7C1C32380F4009E
:1027500003D701CC8547E3E6E7FE29BD03C7240084
:10276000238EE1C201BD1377FA018947E314F7F024
:1027700083C744006383E704636EF7000547E39B68
:10278000E7EE370700508347770393F7870FA30BD4
:10279000F702CDB313071008638AE7021307200876
:1027A000E39AE7EC370700508347A70393F7870FB7
:1027B00093E72700230DF70275BB370700508347C7
:1027C000B70393F7870FA30DF7026DB337070050D8
:1027D0008347670393F7870F93E72700230BF702DD
:1027E00051BB03C701D57D8B19EB938701D583D7E7
:1027F00027000547E390E7E82387F182A5BB8946D8
:10280000E31AD7E6938701D583D62700E39406E63B
:1028100083C747006385E7046360F7020547E39BCE
:10282000E7E4370700508347770393F7C70FA30BFD
:10283000F70293E73700A1BF13071008638CE70284
:1028400013072008E398E7E2370700508347A70300
:1028500093F7C70F230DF70293E73700A1BF3707A0
:1028600000508347B70393F7C70FA30DF70293E711
:10287000370091BF370700508347670393F7C70FAF
:10288000230BF70293E7370091BF23800400C9B5FB
:10289000238801D49387C18283D607000547E37B51
:1028A000D7CC2390E700F9B1138701D50357470030
:1028B000239801D4930610086313D70237070050FA
:1028C000034767030D8B8D466315D70005472388A3
:1028D000E1D49387C18283D607000947C9B78546EB
:1028E0006317D7003707005003477703E1BF93060C
:1028F00020086317D700370700500347A703D9B74D
:102900008946E318D7FC370700500347B7035DBF7C
:1029100083C677001306100293F6F6036380C60A97
:10292000130620026389C60AE39DE6D403C721CCBF
:1029300095461377F70F630FD7049946631DD706A3
:1029400083D701CC1D4721446366F70003D401CC33
:102950001374F40F03A5C1CC83A541CC2286E126D4
:1029600083D701CC131704014183998FC207C18318
:102970002390F1CC83A741CC3E9423A281CCB7070E
:1029800000502398E70203C7270313474700238912
:10299000E702C5B903C7370083D601CC1377070810
:1029A000558F1377F70FA381E70009472389E702C3
:1029B000A3890702F9B123980702C5BF03C76703BC
:1029C0001377C70F238BE70203C76703134747003B
:1029D000238BE7027DB103C7A70313474700238D6D
:1029E000E70203C7A7031377C70F13672700238DD9
:1029F000E70241B983C721CC6393F60483A7C1CC16
:102A000083C6170003C70700558F83C62700558F5D
:102A100083C63700558F05CB83C5170003C7070052
:102A200037450000A205D98D03C7270013054524AB
:102A300042074D8F93958601D98DEF003026B70759
:102A400000509C473DB983C567003745000013051A
:102A50004525EF00B02483A7C1CC374500001305FE
:102A6000452683C54700EF00702383A7C1CC3745B7
:102A700000001305452783C55700C1B703C777007A
:102A800013770704E30F07BE03C777031347470015
:102A9000A38BE70288471375F50FEFF0FF93D5B6C8
:102AA0009376170085CAA3810700A3890702A38B29
:102AB0000702A38D070209472389E702238BE70258
:102AC000238DE70203C76700136717002383E7001E
:102AD0007300203093764700F5DA03C7570011479B
:102AE000F5B7B71702409843B706FFF841111367CF
:102AF000170098C3D84337060200758FD8C3984390
:102B0000B706F7FEFD16758F98C39843B706FCFF0E
:102B1000FD16758F98C3D843B70681FFFD16758FD4
:102B2000D8C337079F0098C702C402C69843C1663E
:102B3000558F98C3B7160240130700509C42F18F7F
:102B40003EC6A24785073EC4B24781E7A247E39746
:102B5000E7FEB71702409C431397E7006350070A4C
:102B600085473EC6324785476318F708B7270240B6
:102B70009843B706C1FFFD161367070198C3984332
:102B8000719B98C398431367270098C3B7170240F7
:102B9000D843D8C3D843D8C3D84313670740D8C352
:102BA000D843758FD8C337F7FF1F0327C770931615
:102BB0001701D84363C60604B7063D00558FD8C336
:102BC000371702401C43B7060001D58F1CC3B71747
:102BD0000240984393166700E3DD06FED843B7161C
:102BE0000240719BD8C3D84313672700D8C321473D
:102BF000DC42B18BE39EE7FE4101828002C69DB7B5
:102C0000C1666DBF135775011377F70F4111930715
:102C1000170022C426C21314950006C693F7E70FC7
:102C200025809354F50185C793573400130707385F
:102C30007604B2075207B1831395F401D98FC98F77
:102C4000B240228522449244BE854101828005EB38
:102C500039C42285B128A94763C6A7042D47098F27
:102C6000930755013357E4003314F4009317C7005A
:102C700013079038098FB1831377F77F5DBF01CCBD
:102C800013573400B7070800D98FB2077604B18311
:102C90001307F07F79BF1307F07F814759BF0147C2
:102CA000814741BF130755FF3317E40001447DBF3F
:102CB000C167637EF5029307F00F1307000263EC10
:102CC000A700971700009387675CAA9703C50700C2
:102CD0003305A74082802181971700009387075B07
:102CE000AA9703C5070061473305A7408280B7074D
:102CF0000001636EF5006181971700009387075903
:102D0000AA9703C5070021473305A7408280418168
:102D10009717000093878757AA9703C50700414775
:102D20003305A7408280B3C7A5008D8B3307C5004C
:102D300081E78D4763EEC700AA876370E50A83C603
:102D4000050085078505A38FD7FEE3EAE7FE8280AD
:102D500093763500AA8791CA83C605008507850545
:102D6000A38FD7FE93F63700FDB79376C7FF138680
:102D700006FE63F0C70683A3050083A2450083AF68
:102D8000850003AFC50083AE050103AE450103A373
:102D9000850183A8C5019385450223A0770003A878
:102DA000C5FF23A2570023A4F70123A6E70123A808
:102DB000D70123AAC70123AC670023AE170193876D
:102DC000470223AE07FF75B790419107910523AEE7
:102DD000C7FEE3EBD7FEE3E4E7F682801C46FD176F
:102DE0001CC663DA0700184E63C5E700A947639461
:102DF000F5006F00E07C1C422E851387170018C277
:102E00002380B7008280011122CC26CA4AC84EC650
:102E100052C406CE2A89AE893284B304D6007D5AC4
:102E200063149400014509A8834504004E864A8531
:102E300075370504E31645FFF2406244D244424927
:102E4000B249224A05618280357122CD26CB4AC91A
:102E50004EC706CF52C556C35AC1DEDEE2DCE6DA03
:102E6000AA89AE843289368409C51C4D99E3EF00E6
:102E700090379717000093872757639CF40C83A41F
:102E8000490083D7C400A18BFDC79C48EDC79307B9
:102E90000002A304F1029307000302D22305F1020A
:102EA00022C6930B5002971A0000938A2A4E054CB3
:102EB000294B4A848347040099C36390770FB30C6E
:102EC0002441638D0C00E6864A86A6854E85253F03
:102ED000FD576308F51E9256E69636D283470400E6
:102EE0006381071EFD571309140002C802CE3ECAB3
:102EF00002CCA309010482D48345090015465685F6
:102F0000EF00905413041900C24751E913F7070169
:102F100009C713070002A309E10413F7870009C7D3
:102F20001307B002A309E104834609001307A002B6
:102F3000638FE606F2474A8481462546034704002C
:102F400093051400130707FD6378E60AADCA3ECE69
:102F5000BDA0971700009387274B6395F40083A4C7
:102F6000890005B79717000093870746E39BF4F0A5
:102F700083A4C90039B7A6854E85192709D97D557F
:102F8000FA406A44DA444A49BA492A4A9A4A0A4BF8
:102F9000F65B665CD65C0D618280050421BF33055B
:102FA00055413315AC00C98F3EC82289B1B73247AD
:102FB00093064700184336C6634907023ACE0347D3
:102FC00004009307E002631FF7040347140093070C
:102FD000A002631BF702B2470904138747009C4312
:102FE0003AC663C107023ECA35A83307E04093E7FB
:102FF00027003ACE3EC8E1B7B387670385462E84E3
:10300000BA972DBFFD57C5B7050402CA814681474F
:1030100025460347040093051400130707FD637852
:10302000E606F1F2834504000D461715000013056E
:103030006536EF00704111CD9717000093878735F3
:103040001D8D93070004B397A700424505045D8DCD
:103050002AC8834504001946171500001305C53317
:10306000130914002304B102EF00103E3DC197D7AD
:10307000FFFF938727F995E74247B2471377071079
:1030800009CF91073EC69257D2973ED21DB5B3875E
:10309000670385462E84BA97ADBF9D07E19BA107C4
:1030A000D5B7780097060000938626D626860C08AA
:1030B0004E8597000000E7000000FD572A8AE314C0
:1030C000F5FC83D7C40093F70704E39A07EA125587
:1030D00045BD780097060000938626D326860C0807
:1030E0004E85012AD9BF797156CA9C49BA8A98453A
:1030F00022D426D24ECE52CC06D64AD05AC85EC66C
:10310000AA892E84B284368A63D3E700BA879CC02A
:103110000347340419C385079CC01C4093F707027A
:1031200081C79C4089079CC003290400137969006A
:10313000631A0900130B9401FD5B5C449840998F5E
:10314000634CF9041C408346340493F70702B336FA
:10315000D000A5EB13063404D2854E85829AFD5724
:103160006303F5041C4011469840998B54448144F4
:103170006397C700B384E64063D3040081441C44D2
:1031800018486354F700998FBE94014969047D5B28
:1031900063982405014509A885465A86D2854E853F
:1031A000829A631E75017D55B25022549254025981
:1031B000F249624AD24A424BB24B456182800509CC
:1031C000ADBF3307D40013060003A301C7040347B0
:1031D000540493871600A2978906A381E7049DBF34
:1031E00085462286D2854E85829AE30E65FB0509C7
:1031F00045B7797122D426D24AD04ECE06D652CCCB
:1032000056CA5AC8B68983C6850193079006328983
:10321000AA842E8413863504638DF60263E2D706F2
:10322000930780056388F61863EDD7006381062253
:1032300093073004638FF60A930A24042301D4040D
:10324000D1A0930730066386F60A93074006E395FC
:10325000F6FE1C40084393F6070893054500CDC6CB
:103260001C410CC363D807001307D002B307F0401A
:10327000A301E4049716000093868612294775A8D7
:10328000930700076384F61663E5D7029307E00609
:10329000638BF6189307F006E390F6FA0C401C4394
:1032A00013F80508138547006308080608C39C4304
:1032B00095A893075007E383F6FE93078007638B77
:1032C000F61293073007E399F6F61C43D041814587
:1032D0009386470014C383AA07005685EF00D016D3
:1032E00001C53305554148C05C401CC8A301040416
:1032F00071A81C43930A2404938647009C4314C37B
:103300002301F4048547D5B793F607041C410CC389
:10331000B1DAC207C187B9B793F5050408C3C1D9AB
:1033200083D707001307F0066387E60E97160000A1
:10333000938606072947A30104044C400CC463C5C7
:10334000050008406D9908C099E3B28A91CDB28A10
:10335000B3F5E702FD1AB69583C505002380BA00D0
:10336000B3D5E70263FFE70AA147631EF7001C40DD
:10337000858B91CB58401C4863C7E7009307000337
:10338000A38FFAFEFD1A3306564110C84E87CA862F
:103390007000A2852685813B7D5A631E450B7D55B5
:1033A000B250225492540259F249624AD24A424BD4
:1033B00045618280A382D50497160000938646FE5D
:1033C0000C40084313F805081C411105630D080261
:1033D00008C313F7150001C793E505020CC0414768
:1033E000B9FB0C4093F5F5FD0CC0B1B79C4193E7D8
:1033F00007029CC193078007A302F40497160000FC
:10340000938646FB75BF13F8050408C3E30308FC65
:10341000C207C1837DBF97160000938666F82147D7
:1034200019BFAE8735B794411C43CC4913F8060841
:10343000138547006306080008C39C438CC301A89A
:1034400008C393F606049C43F5DA2390B7002328BB
:103450000400B28A25BF14485686CA8526858299FB
:10346000E30F45F31C40898B8DE7B2474844E3598D
:10347000F5F23E8535B785465686CA8526858299FA
:10348000E30F65F1050A5C443247998FE345FAFE84
:10349000E9BF014A930A94017D5BF5B739713EDAC1
:1034A0002ED232D436D63AD842DC46DE938781819A
:1034B00022CC804326CA06CEAA8409C41C4C99E3B8
:1034C000228515230C4454102686228536C6EFF03B
:1034D000BF97F2406244D24421618280011126CA22
:1034E0004AC806CE22CC4EC652C4AA842E8901C533
:1034F0001C4D91E3CD299C4C804499E32685E52120
:1035000097170000938747EE631CF402C04083576F
:10351000C400A18BB1C71C48A1C7FD59294A1C444E
:1035200083450900FD17B1E91CC463DE0706228646
:10353000A94526857120FD576308F502294535A068
:1035400097170000938747EC6314F4008044C1B7D9
:1035500097170000938747E7E31BF4FAC04445BF81
:10356000A2852685312A55D97D55F2406244D24440
:103570004249B249224A056182801CC4050963D7C9
:103580000700184C63CBE700638945011C40138793
:10359000170018C02380B70059B7228626850D2052
:1035A000E31F35F7D1B71C401387170018C0294710
:1035B0002380E70061B793878181AA85884339BF5B
:1035C000011122CC26CA4AC806CE4EC6AA842E892C
:1035D000328401C51C4D91E3392197170000938770
:1035E000A7E06319F406C0401C4C1CC48357C400F8
:1035F000A18BC9C31C48BDCF1C4808409379F90F63
:103600001379F90F1D8D5C486346F500A285268568
:10361000652C2DE51C440505FD171CC41C401387B3
:10362000170018C0238037015C486389A7008357BF
:10363000C400858B81CBA9476316F900A285268536
:1036400061240DEDF24062444A85D2444249B249B8
:103650000561828097170000938707DB6314F400ED
:10366000804459B797170000938707D6E31EF4F6F6
:10367000C0449DBFA285268521203DDD7D59D9B757
:1036800041119387818126C2844322C44AC006C661
:103690002A892E8489C49C4C99E32685A9269717EC
:1036A0000000938767D4631CF402C0400317C40072
:1036B00093170701C18393F68700B5EE93F60701D0
:1036C0009DEEA5472320F900136707042316E400A5
:1036D0007D55B240224492440249410182809717AD
:1036E0000000938767D26314F4008044C1B7971732
:1036F0000000938767CDE31BF4FAC04445BF918B6C
:103700008DC74C5889C9930744046384F5004A85E2
:10371000892B232A04028357C4002322040093F731
:10372000B7FD2316F4001C481CC08357C40093E760
:1037300087002316F4001C4881EF8357C400130749
:10374000002093F707286385E700A2854A85B929F9
:103750008357C40013F7170005C75C4823240400EF
:10376000B307F0401CCC1C480145A5F78317C400E3
:1037700013F7070839DF93E707042316F40089BF1E
:10378000898B014791E3584818C4F1BF83D7C5001E
:10379000011122CC26CA06CE4AC84EC613F78700AE
:1037A000AA842E8471EFD841634DE000B841634A8A
:1037B000E0000145F2406244D2444249B249056109
:1037C000828058547DD703A904009396370123A023
:1037D000040063DD060670488357C400918B99C7C7
:1037E0005C401D8E5C5899C33C401D8E5C540C504F
:1037F000814626858297FD570357C400631DF50057
:103800009440F54763E8D706B70740208507B3D74C
:10381000D700858BA5C31C48232204001CC0931726
:10382000370163D80700FD576314F5009C4091E30E
:1038300068C84C5823A02401ADDD93074404638479
:10384000F50026853929232A0402A5B70C50014624
:10385000854626850297FD572A86E31FF5F69C408C
:10386000A5DF75476385E70059476394E70423A004
:10387000240181B7136707042316E4007D551DBF9B
:1038800083A90501E38709F203A905008D8B23A015
:10389000350133093941014791E3D84918C4E35A46
:1038A00020F11C540C50CA864E86268582976349A7
:1038B000A0008357C40093E707042316F4007DBFDC
:1038C000AA993309A940E1BF9C49B9CF011122CC83
:1038D00006CE2A8411C51C4D81E72EC62922B24589
:1038E00097170000938747B0639BF5004C40839780
:1038F000C50095C722856244F240056141BD971716
:103900000000938767B06394F5000C44CDB7971718
:103910000000938767ABE39CF5FC4C44C9BFF240C1
:10392000624401450561828001458280411122C4C3
:1039300006C62A842316B5002317C50023200500D8
:103940002322050023240500232205062328050041
:10395000232A0500232C0500214681451305C505B2
:10396000EFC01F8A97070000938787495CD09707AD
:1039700000009387E74B1CD49707000093872750DC
:103980005CD4970700009387E75200D01CD8B24060
:1039900022444101828097050000938525F3A9A266
:1039A000411126C2130680069384F5FFB384C40236
:1039B0004AC02E8922C406C693854407A9262A84B4
:1039C00001CD2320050023222501310508C41386DB
:1039D00084068145EFC0DF822285B24022449244B2
:1039E0000249410182801C4DADE3411106C622C44B
:1039F00097070000938767FA1CD5938701829C4341
:103A00002324050423260504232805046314F50054
:103A100085471CCD2A841D2848C02285052808C456
:103A200022852D2048C4484001469145013708446D
:103A30000546A545E53D48440946C945C53D854778
:103A40001CCCB24022444101828082804111938784
:103A5000018226C284434AC006C69C4C22C42A89DD
:103A600099E326854937938484048044DC40FD171C
:103A700063D607009C40B9CF8440C5BF0317C4007C
:103A800039E7C17785072322040623200400232277
:103A90000400232404005CC423280400232A040017
:103AA000232C0400214681451305C405EFC04FF5C2
:103AB000232A0402232C04022324040423260404BE
:103AC0002285B2402244924402494101828013047B
:103AD000840671BF91454A85E13588C051FDB147E3
:103AE0002320F9000144E9BF797122D44AD052CC95
:103AF00056CA5AC85EC606D626D24ECE2A8AAE8A84
:103B0000130485040149054BFD5B09ECB2502254B6
:103B10004A8592540259F249624AD24A424BB24B08
:103B200045618280044483294400FD1963D409005F
:103B30000040E1BF83D7C400637BFB008397E400B0
:103B400063877701A6855285829A3369A900938499
:103B50008406E1BF1971A6DAAE848395E500A2DC84
:103B600086DE328463DC050083D7C40023A0060010
:103B700093F707089DE39307004015A0300836C669
:103B80007126B246E34205FE7247BD67F98F797729
:103B9000BA9793B717009CC2F9BF930700041CC0E3
:103BA000F6506654D65401450961828083D7C5001A
:103BB000011122CC06CE26CA4AC8898B2E8489CF11
:103BC000930774041CC01CC885475CC8F24062445B
:103BD000D24442490561828074003000AA849D3F2E
:103BE000A2452A892685052201ED8317C40013F713
:103BF000072069FFF19B93E727002316F400C9B75C
:103C000097070000938767D99CD48357C40008C0E6
:103C100008C893E707082316F400A2475CC8B24718
:103C200089CF8315E4002685392601C98357C4004E
:103C3000F19B93E717002316F4008357C400336900
:103C4000F9002316240159B793F5F50F2A9663144A
:103C5000C5000145828083470500E38DB7FE050559
:103C6000FDB7CDC183A7C5FF411122C406C626C238
:103C70001384C5FF63D307003E94AA843926938733
:103C800001839C4399EB2322040023A881822244D0
:103C9000B240268592444101D5AC637EF4001440C5
:103CA0003307D4006396E7009843DC43369718C087
:103CB0005CC0E1BFBA87D84319C3E37DE4FE9443F7
:103CC0003386D700631F86001040B29694C33386B4
:103CD000D700E31EC7FA10435843B29694C3D8C323
:103CE0007DB76375C400B1479CC055B71040B3069B
:103CF000C4006316D70014435843B29614C058C08A
:103D0000C0C371B78280011126CA93843500F1982F
:103D100006CE22CC4AC84EC6A104B14763F1F404D2
:103D2000B14463E0B4042A898D24938701839843C6
:103D30003A8431E0938741839C4391E781454A85EA
:103D4000512823AAA182A6854A856920FD596317B7
:103D50003507B1472320F9004A850D2C29A0E3D26D
:103D600004FCB1471CC10145F2406244D2444249BF
:103D7000B249056182801C40858F63CE0702AD4643
:103D800063F6F6001CC03E9404C031A05C40631290
:103D9000870223A8F1824A85D52A1305B400930728
:103DA000440061993307F54061D33A94898F1CC070
:103DB00065BF5CC3CDB722874040A5BF1304350063
:103DC0007198E30385FCB305A4404A852120E31DD7
:103DD00035FB41B7411122C42A842E8523A001DA84
:103DE00006C6112CFD576317F500938701DA9C4333
:103DF00091C31CC0B240224441018280411122C4BF
:103E00002E848395E50006C65922634905007C4847
:103E1000AA977CC8B2402244410182808357C400E3
:103E20007D777D17F98F2316F400EDB783D7C50092
:103E3000011122CC26CA4AC84EC606CE93F70710F7
:103E4000AA842E843289B68991C78395E500894674
:103E5000014631228357C4007D777D17F98F2316E1
:103E6000F4008315E4006244F240CE864A86B249EB
:103E700042492685D24405613DA8411122C42E84C1
:103E80008395E50006C6E128FD570357C400631B70
:103E9000F500FD77FD17F98F2316F400B240224498
:103EA000410182808567D98F2316F40068C8FDB769
:103EB0008395E50005A8411122C42A842E85B28588
:103EC000368623A001DA06C6EFC0FFAEFD576317A2
:103ED000F500938701DA9C4391C31CC0B240224491
:103EE00041018280411122C42A842E8523A001DA57
:103EF00006C6E120FD576317F500938701DA9C435E
:103F000091C31CC0B240224441018280411122C4AD
:103F10002A842E85B28523A001DA06C66D20FD57BE
:103F20006317F500938701DA9C4391C31CC0B2402C
:103F3000224441018280411122C42A842E8523A07B
:103F400001DA06C67920FD576317F500938701DA79
:103F50009C4391C31CC0B240224441018280411164
:103F600022C42A842E85B285368623A001DA06C6AD
:103F7000BD20FD576317F500938701DA9C4391C379
:103F80001CC0B24022444101828082808280411163
:103F900022C42A842E85B285368623A001DA06C67D
:103FA000A920FD576317F500938701DA9C4391C35D
:103FB0001CC0B2402244410182809307800523A0A7
:103FC000F1DA7D5582809307800523A0F1DA7D55D3
:103FD00082809307800523A0F1DA01458280930750
:103FE000800523A0F1DA7D5582809307800523A008
:103FF000F1DA7D558280938781839C4391C73E95FA
:1040000023ACA1823E858280938741DA3E9523AC22
:10401000A1823E8582800000DA0F49400D0A2046C9
:104020006C61736820646174612062756666657294
:104030002064656661756C742064617461206973C5
:10404000203A00000D0A20666C6F61745F7479700D
:1040500065203A20256600000D0A2075696E7433CC
:10406000325F747970653A20257500000D0A206969
:104070006E7433325F74797065203A2025640000D5
:104080000D0A2075696E7431365F747970653A2057
:10409000257500000D0A20696E7431365F747970E1
:1040A00065203A20256400000D0A2075696E743879
:1040B0005F74797065203A20257500000D0A20692B
:1040C0006E74385F7479706520203A202564000092
:1040D0000D0A20464C4153485F53454354494F4EC7
:1040E0005F494E4445583A2025642C20464C4153A4
:1040F000485F504147455F494E4445583A20256442
:104100002C206E65772064617461206973203A0009
:104110000D00000000080140000C014000100140AB
:104120000014014000180140002C01400000004034
:104130000004004000080040000C00400034014032
:10414000004C014000500140003801400044004054
:1041500000480040004C0040005000400018004063
:10416000001C004000200040A82800006627000036
:1041700074260000E2270000742600003E2700009D
:10418000D425000074260000482700005C270000AA
:104190008A2800009028000009024300020100A0C4
:1041A000320904000001020201000524001001058B
:1041B00024010000042402020524060001070581F1
:1041C000034000FF09040100020A00000007050285
:1041D00002400000070582024000000012010002B8
:1041E00002000008861A22570001010203010000A4
:1041F0000E037700630068002E0063006E0000006D
:104200000C03430048003300300037001403320031
:104210003000310037002D0032002D003200350013
:104220001603300031003200330034003500360010
:1042300037003800390000000A060002FF00FF4086
:10424000010000000A426175642052617465203DDE
:10425000202564000A64617461426974203D202550
:10426000640000000A73746F70426974203D202559
:10427000640000000A706172697479547970652075
:104280003D20256400000000000102020303030337
:1042900004040404040404040505050505050505D6
:1042A00005050505050505050606060606060606B6
:1042B000060606060606060606060606060606069E
:1042C0000606060606060606070707070707070786
:1042D000070707070707070707070707070707076E
:1042E000070707070707070707070707070707075E
:1042F000070707070707070707070707070707074E
:104300000707070707070707080808080808080835
:10431000080808080808080808080808080808081D
:10432000080808080808080808080808080808080D
:1043300008080808080808080808080808080808FD
:1043400008080808080808080808080808080808ED
:1043500008080808080808080808080808080808DD
:1043600008080808080808080808080808080808CD
:1043700008080808080808080808080808080808BD
:104380000808080808080808232D302B2000000022
:10439000686C4C0065666745464700003031323333
:1043A0003435363738394142434445460000000031
:1043B000303132333435363738396162636465669B
:1043C00000000000000000000000000000000000ED
:1043D00000000000000000000000000000000000DD
:1043E00000000000000000000000000000000000CD
:1043F00000000000000000000000000000000000BD
:1044000000000000000000000000000000000000AC
:10441000000000000000000000000000000000009C
:044420000000000098
:104424000000000001020304010203040607080956
:104434000907000000000000000000000000000068
:104444000000000000000000000000000000000068
:104454000000000000000000000000000000000058
:104464000000000000000000000000000000000048
:104474000000000000000000E443000004440000C9
:10448400C443000000000000000000000000000021
:104494000000000000000000000000000000000018
:1044A4000000000000000000000000000000000008
:1044B40000000000000000000000000000000000F8
:1044C40000000000000000000000000000000000E8
:1044D40000000000000000000400000004000000D0
:1044E4000204060800C20100000008010044950807
:1044F40054000020040309045400002000000000BC
:00000001FF
