:100000006F20E04613000000130000001300000002
:100010001300000013000000130000001300000094
:100020001300000013000000130000001300000084
:08003000130000007300100032
:100038000000000000000000A8020000AC02000060
:1000480000000000B42300000000000000000000D1
:10005800B6230000B82300000000000000000000E4
:10006800BA23000000000000BC23000000000000CC
:10007800BE230000C0230000C2230000C4230000E8
:10008800C6230000C8230000020400001604000074
:100098003C0400005204000082040000D423000045
:1000A800D6230000D8230000DA230000DC23000058
:1000B800DE230000E0230000E2230000E423000028
:1000C800E6230000E8230000EA230000AC04000057
:1000D800EE230000DE050000F2230000F4230000F8
:1000E800040600001E06000044060000FC23000071
:1000F800FE23000000240000022400000424000065
:1001080006240000AE020000D8020000020300002E
:100118003005000010240000122400001424000000
:10012800D0060000182400001A2400001C24000037
:100138001E240000202400006A0600002424000079
:100148002C0300005603000090060000AA060000D9
:100158002E24000030240000322400003424000043
:1001680036240000382400003A2400003C24000013
:100178003E240000402400004224000026300000F5
:100188004624000048240000E60300007403000031
:100198009E030000C803000052240000F606000079
:1001A80056240000582400005A2400001C070000B0
:1001B8005E24000060240000622400006424000023
:1001C80066240000682400006A2400006C240000F3
:1001D8000000000000000000000000000000000017
:1001E8000000000000000000000000000000000007
:0801F8000000000000000000FF
:100200003D432A876373C3029377F700BDEFADE5E3
:10021000937606FF3D8ABA960CC34CC30CC74CC7F5
:100220004107E36BD7FE11E28280B306C3408A0622
:100230009702000096966780A6002307B700A306E2
:10024000B7002306B700A305B7002305B700A30432
:10025000B7002304B700A303B7002303B700A3022A
:10026000B7002302B700A301B7002301B700A30022
:10027000B7002300B700828093F5F50F93968500B1
:10028000D58D93960501D58D61B79396270097027A
:10029000000096968682E78086FA9680C1171D8FA9
:1002A0003E96E374C3F8A5B77300203001A0411156
:1002B00022C6374401409305505213050480EF20B5
:1002C000F04919C59305505213050480EF20504D95
:1002D0003244410173002030411122C637440040AE
:1002E0009305505213050440EF20504719C593055C
:1002F000505213050440EF20B04A324441017300CC
:100300002030411122C63754004093055052130546
:100310000480EF20B04419C59305505213050480A2
:10032000EF2010483244410173002030411122C6B1
:100330003754004093055052130504C0EF2010427B
:1003400019C593055052130504C0EF20704532447F
:100350004101730020309305505237550040EF2083
:10036000F03F19C59305505237550040EF205043D8
:1003700073002030411122C63724004093055052AB
:1003800013050480EF20903D19C5930550521305C5
:100390000480EF20F04032444101730020304111CD
:1003A00022C63724004093055052130504C0EF20A5
:1003B000F03A19C593055052130504C0EF20503E82
:1003C00032444101730020309305505237250040DC
:1003D000EF20D03819C59305505237250040EF2043
:1003E000303C73002030B707055003C70701118B5D
:1003F00019C703C707011377B70F2388E7007300F6
:1004000020300545EF20402385476314F500EF2099
:100410008024730020300945EF2000228547631DAA
:10042000F5000945EF202023130520088145EF0042
:10043000B0695145EF005039730020301145EF206D
:10044000A01F85476315F5001145EF20C0207300FC
:1004500020302145EF20401E85476312F5022145DB
:10046000EF20601F0D45EF10106837560000014562
:100470001306C6A2814509250545EF10D049730032
:1004800020304145EF20401B8547631FF500414563
:10049000EF20601C0945EF10106537560000130669
:1004A00046A381450145C92B730020301305000286
:1004B000EF2080188547631FF50013050002EF2029
:1004C0008019EF10306C375600001306C6A3814523
:1004D00001455D2313050004EF20001685476316D0
:1004E000F50013050004EF20001713050008EF20A6
:1004F000A01485476316F50013050008EF20A0152A
:1005000013050010EF20401385476316F50013050F
:100510000010EF20401413050020EF20E011854764
:100520006316F50013050020EF20E0127300203061
:1005300041111305004022C6EF2000108547631CBF
:10054000F50213050040EF2000111305A006EF008F
:10055000105A65DD37560000130646A2D145014505
:10056000212B9387818490438D46D1450506130541
:10057000800290C39923056413050480EF20C00B0B
:1005800085476316F50013050480EF20C00C056550
:10059000EF20800A85476315F5000565EF20A00B65
:1005A0000965EF20600985476315F5000965EF20AF
:1005B000800A1165EF20400885476315F500116535
:1005C000EF2060092165EF20200785476315F500BE
:1005D0002165EF2040083244410173002030411171
:1005E00022C6373401408545130504C0EF20B0030F
:1005F00011C58545130504C0EF20B0043244410104
:1006000073002030854537050040EF20D00111C52B
:10061000854537050040EF20D0027300203041119E
:1006200022C637040040854513050440EF20A07F13
:1006300011C5854513050440EF20B0003244410147
:1006400073002030411122C6371400408545130540
:100650000480EF20407D11C5854513050480EF20FF
:10066000407E3244410173002030411122C63714CC
:1006700000408545130504C0EF20E07A11C585458B
:10068000130504C0EF20E07B3244410173002030A9
:10069000854537150040EF20007911C58545371590
:1006A0000040EF20007A73002030411122C6371439
:1006B0000040854513050440EF20E07611C58545CF
:1006C00013050440EF20E0773244410173002030ED
:1006D000411122C637340140854513050440EF20FF
:1006E000807411C5854513050440EF2080753244A0
:1006F000410173002030411122C637540140854525
:10070000130504C0EF20207211C58545130504C0F0
:10071000EF20207332444101730020308545375566
:100720000140EF20407011C5854537550140EF204D
:10073000407173002030011106CE22CC26CA4AC86F
:100740004EC652C456C25AC0EF10B01E0545EF1037
:10075000D019E126EF10104341469305300421459E
:10076000EF00F01F4146930540044145EF00301F64
:1007700041469305500413050002EF00501E9304F8
:10078000F00F054989490D4A37540000B75A000057
:10079000375B0000EF109029E30E95FE631A2501E8
:1007A000EF10703413064BA481450145F124DDB7E9
:1007B000631835010145EF1010331386CAA4EDB755
:1007C000E31A45FD1145EF101032130644A5E9BFA9
:1007D000411106C622C415E537C40200A1460146F0
:1007E000930504F213053020EF10A000A146014646
:1007F000930504F2130520202244B24041016F000A
:10080000507F85476313F50237C4020081460146D5
:10081000930504F213051010EF00B07D81460146E8
:10082000930504F213050010C1BFB24022444101F8
:1008300082804111956722C403A4870526C24AC05D
:1008400006C6C14404C844C813090008232A240169
:10085000AA850545EF10A0392328240104C844C8FF
:10086000B2402244924402494101828083A74180E0
:10087000011122CC26CA4AC84EC606CEAA89AE8429
:1008800032893684A1EF1305A002653793854903A9
:10089000C205C1810545EF10403793054903C205E4
:1008A000C1810545EF1060361305B00259379385B5
:1008B0008402C205C1810545EF10203593058402ED
:1008C000C2050545C181EF1040346244F240D24474
:1008D0004249B2491305C0020561A1BF0547639FA4
:1008E000E7001305A002B13793855903C205C18102
:1008F0000545EF1080319305590355B793098502DB
:1009000013098602C2094209094793D909011359FB
:1009100009011305A0026398E702213FCE85054532
:10092000EF10A02ECA850545EF10202E1305B0024A
:10093000093793855403C205C1810545EF10E02CAA
:1009400093055403B5BFF535CE850545EF10E02B73
:10095000CA850545EF10602B1305B002D93D93857C
:100960004403C205C1810545EF10202A93054403C5
:1009700081BF03C6A18083C6B180411122C4330464
:10098000D602FD167D16C2064206C182418281450D
:10099000014526C206C6B7040020C93D11E4B24095
:1009A000224492444101828083D5840B05457D1405
:1009B000EF10A025E5B723A2A18085461387A1806B
:1009C0009387B18063EAA600930670F82300D700EE
:1009D00041572380E7008280C1562300D7001307C8
:1009E00070F8C5BF79714ECE9567930975001206F0
:1009F0009387C7A5C20922D44AD056CA5AC85EC630
:100A000062C466C206D626D252CCAA8AAE8B330402
:100A1000F600014993D90901370C0020414BB386F8
:100A20002B01C206C1824E86B68556858135034AA2
:100A300004E0A14493771A008DCF83D58180FD1403
:100A4000054593F4F40FEF10401C135A1A00FDF003
:100A500005090504E31569FDB25022549254025968
:100A6000F249624AD24A424BB24B224C924C456107
:100A7000828083558C0BE1B7011122CC26CA4AC86B
:100A80004EC606CE2A89AE89B2840144B38784005B
:100A90000386070001EAF2406244D2444249B24967
:100AA00005618280131534004A9542050504CE8500
:100AB00041814204053F4180D1BF797122D426D2C1
:100AC0004AD0AA842E893284930500021386160028
:100AD000480836C606D602CA02CC02CEEFF04FF264
:100AE000B246A54763F8D702A2854808C12C500832
:100AF000CA8526855137B250225492540259456115
:100B00008280B387E702FD1693F6F60FFDFA336491
:100B1000F402D9BF85472947D5BF03A841834111B6
:100B20001307F00F81479306F00F13062002930579
:100B30000002054506C622C426C24AC0EF00307B2B
:100B4000C1460146854513057006EF00206AC1467F
:100B50000146854513057002EF004069C146014614
:100B6000854513054006EF0060688545C14605468A
:100B700013050006EF0080671384418008401309C5
:100B80000008153D956783A407051305800C23AA6B
:100B900024011D291305400623A82401352113052E
:100BA000600341391305400605211C40814589CF6A
:100BB00005479305000C6389E70009479305000783
:100BC0006384E7009305000A0545EF104002130512
:100BD000A003853195450545EF1060011305200BF5
:100BE0008939B1450545EF108000B1450545EF1045
:100BF000000081450545EF00907F930530030545D2
:100C0000EF00F07E930530030545EF00507E13059D
:100C1000700B0531930550030545EF00507D13051A
:100C2000B00B0139930570030545EF00507C1305A7
:100C3000000C01319305C0020545EF00507B130500
:100C4000200CC53E85450545EF00707A1305300C34
:100C5000CD36C9450545EF0090791305400CD13ECE
:100C6000930500020545EF0090781305600CD1361E
:100C7000BD450545EF00B0771305000D5D3E9305BA
:100C8000400A0545EF00B0769305100A0545EF00D0
:100C900010761305000E713E9305000D0545EF001B
:100CA000107591450545EF009074B5450545EF0079
:100CB0001074C5450545EF009073CD450545EF001F
:100CC00010739305B0020545EF0070729305F003B1
:100CD0000545EF00D071930540050545EF003071E3
:100CE0009305C0040545EF009070E1450545EF0010
:100CF0001070B5450545EF00906FAD450545EF0017
:100D0000106FFD450545EF00906E930530020545D7
:100D1000EF00F06D1305100E293E9305000D0545FB
:100D2000EF00F06C91450545EF00706CB14505454D
:100D3000EF00F06BC5450545EF00706BCD450545EF
:100D4000EF00F06A9305C0020545EF00506A930575
:100D5000F0030545EF00B069930540040545EF0039
:100D60001069930510050545EF0070689305F002C2
:100D70000545EF00D067FD450545EF005067FD458F
:100D80000545EF00D066930500020545EF0030668B
:100D9000930530020545EF00906513051002513CA4
:100DA0004545413C13058007052413059002513445
:100DB0002244B24092440249410165BE63DB050012
:100DC0009307D0022300F500050541118147A9468C
:100DD0003DA0E5FD930700032300F500828018087D
:100DE00013881700BA9733E7D502B3C5D502135657
:100DF000F741318F118F2388E7FE9377F80FE5F1E4
:100E00008A86B6976394F6004101828003C7F7FF94
:100E10000505FD1713070703A30FE5FEE5B7797175
:100E200022D44AD04ECE52CC56CA06D626D28347BA
:100E300015003734014081452306F1008347050042
:100E40001309C100130AF100A306F100834725002E
:100E5000130504C0130404C02307F100EF10B07A97
:100E60008965938AC55193894513A1448347090035
:100E7000FD14CE85B3D79740858B91E3D6850D457C
:100E8000C92985452285EF10F06D85452285EF1033
:100E9000F07765DD81452285EF10D06C8545228590
:100EA000EF10907781452285EF10F075E1F005098C
:100EB000E31D2AFBB250225492540259F249624A6D
:100EC000D24A45618280B7C50200011181460146C0
:100ED000938505F20D4506CE231601002307010078
:100EE000EF003011373501408945130505C0EF107B
:100EF000107068002D371305400659286800053723
:100F0000F24005618280B7170240DC4337177A0050
:100F100013070720C983BD8BB387E7023727F40087
:100F200013070740F165930610021306000293852C
:100F300005200945BA9723A6F1846F00507E011160
:100F400026CAB754004022CC4AC84EC606CEAE8947
:100F50003289014493840480634A2401F24062444C
:100F60004A85D2444249B249056182809305000412
:100F70002685EF10F07D7DD9B38789008385070032
:100F800026850504C205C181EF10F07BF1B7828090
:100F900083A7418337177A0013070720B3D7E702E7
:100FA000814601473385A702B7F700E023A0070079
:100FB00094C7D8C7054798C3B7F600E09846DC4603
:100FC00099E3E37DE5FE828083A7418309671307E8
:100FD00007F4B3D7E702814601473385A702B7F785
:100FE00000E023A0070094C7D8C7054798C3B7F609
:100FF00000E09846DC4699E3E37DE5FE828009E562
:10100000814601468145DDA20547E30BE5FE094720
:10101000E308E5FE0D47E305E5FE1147E302E5FEC3
:101020001547E30FE5FC1947E30CE5FC1D47E30911
:10103000E5FC21476318E50081460146814513051B
:101040000002D1B725476318E50081460146814576
:10105000130510024DBF29476318E500814601467C
:1010600081451305000445B72D476318E500814607
:10107000014681451305100479B731476318E5002F
:1010800081460146814513052004B5BF35476318E5
:10109000E50081460146814513053004ADB7394767
:1010A0006318E50081460146814513054004A1BF50
:1010B0003D476318E500814601468145130550040C
:1010C00099B78280797122D485452A84130500203E
:1010D00006D626D2EF10B0022285153703A7C184A9
:1010E000B7C70105938707D0316563E3E700216542
:1010F00037240140EF10A06E13050440EF100040AC
:10110000B7070E003EC68A85854713050440230AAB
:10111000F10002C002C202C402C8EF10804285453D
:1011200013050440EF10604713050440EF10E0473B
:10113000930404402685EF10E0476DFD130504403D
:1011400037240140EF108047130404402285EF103C
:1011500080476DFDB2502254925445618280011146
:1011600022CC05452E84854506CE26CA4AC802C033
:10117000328902C202C402C6EF106078930680046E
:101180000546814522859D209374F4011355540032
:10119000A6851375F50FEF10C0618547339797004B
:1011A0000A853AC002C24AC43EC6EF1040425945C1
:1011B0009DC49377E4015D459DC38947614563F014
:1011C00097027188654501CC9147694563F997009D
:1011D000A5471305700263F4970013058003992A4D
:1011E000F2406244D2444249056182809307F00F85
:1011F000630BF50C797122D41354550026D24AD0D2
:101200004ECE52CC06D61D889374F5003689328AAC
:10121000AE8935E085451145EF10606E8547B39482
:101220009700C204C180231291006399F9009317BB
:101230000901C183A18391E38D473EC495679387DC
:10124000C7040A043E9400401379F90F4C0022852C
:101250004AC6EF10E04085476397F9005286A6859D
:101260002285EF10004CB250225492540259F24998
:10127000624A4561828085476315F40085452145B2
:1012800061BF89476315F4008545414571B78D47B6
:101290006316F400854513050002BDBF9147631630
:1012A000F40085451305000485BF95476316F400D7
:1012B0008545130500088DB79947E311F4F6854578
:1012C0001305001091BF8280935755001397270094
:1012D00095679387C704BA9798439377F5000545B8
:1012E0003315F50099C108CB828048CB8280135713
:1012F00035009376C70115671307C70436971C435B
:10130000984785473395A700798D3335A0008280B3
:101310009357350013F7C70195679387C704BA97AA
:1013200098439377F500054554473315F500358DFF
:1013300048C78280935755000547938707043315A4
:10134000A7008A0737E700E0BA9788C382808280C7
:1013500082809357850015671307C7068A07BA97D7
:1013600098430D890A058357C7023A95B385F5025C
:10137000896793870771B3D5F502C205C1814CD93E
:10138000828019E593068031014685452145B9BD26
:1013900085476318F500930680310146854525454C
:1013A000FDB789476318F5009306803101468545EE
:1013B0002945F1BF8D476318F5009306803101463A
:1013C00085452D45E9B7C1476319F500930680317E
:1013D00001468545130590085DBFC5476319F500B3
:1013E00093068031014685451305B0084DB7C947BE
:1013F0006319F50093068031014685451305D00831
:1014000079B7CD476319F5009306803101468545CC
:101410001305E008ADBF930700106318F5009306AD
:1014200080310146854501459DB79307101063182B
:10143000F5009306803101468545054589BF930730
:1014400020106318F5009306803101468545094553
:101450003DBF930730106318F500930680310146B5
:1014600085450D452DB7930700116318F5009306C8
:101470008031014685453D4519BF93071011631919
:10148000F50093068031014685451305300201B70A
:10149000930720116319F5009306803101468545B5
:1014A0001305A002EDB5930730116319F5009306FB
:1014B0008031014685451305B002D1BD9307002058
:1014C0006318F50093068031014685451945C1B57D
:1014D000930710206318F500930680310146854577
:1014E0001D4575B5930720206319F50093068031DB
:1014F000014685451305000259BD93073020631945
:10150000F50093068031014685451305100241B56B
:10151000930700216319F500930680310146854544
:1015200013056004ADB5930710216319F500930608
:101530008031014685451305700491BD9307202134
:101540006319F50093068031014685451305800433
:101550003DBD930730216319F500930680310146A4
:1015600085451305900425B5930700226319F500FE
:1015700093068031014685451305400209BD930756
:1015800010226319F5009306803101468545130545
:101590005002F5BB930700306319F50093068031C4
:1015A0000146854513056002DDB3930710306319CA
:1015B000F500930680310146854513057002C1BBD5
:1015C000930720306319F500930680310146854565
:1015D000130580026DBB930730306319F500930645
:1015E0008031014685451305900255B393070031BC
:1015F0006319F50093068031014685451305C00641
:1016000079B3930710316319F500930680310146D1
:1016100085451305D006A5BB930720316319F50056
:1016200093068031014685451305E0068DB3930787
:1016300030316319F5009306803101468545130565
:10164000F006B1B393070040E30BF5DC93071040BD
:10165000E301F5DE93072040E307F5DE9307304012
:10166000E30DF5DE93070070E308F5EA93071070C9
:10167000E30FF5EA93072070E306F5EC930730706B
:10168000E30DF5EC93070071E30AF5F09307107191
:10169000E301F5F293072071E308F5F29307307147
:1016A0006319F50093068031014685451305D00482
:1016B000F9B993070580E38807D8856713871780F2
:1016C000E30DE5D8138727806318E5009306803182
:1016D00001468545114565B9938737806319F50043
:1016E0009306803101468545130540044DB1856759
:1016F000138707816319E50093068031014685450C
:101700001305900669B1138717816319E5009306E5
:101710008031014685451305B00695B913872781A9
:10172000E305E5EE13873781E307E5F013870790BC
:10173000E30CE5E813871790E303E5EA13872790A6
:101740006319E50093068031014685451305300491
:101750003DB9138737906319E50093068031014640
:1017600085451305B00425B1138707916319E5007A
:1017700093068031014685451305100609B9938704
:1017800017916319F50093068031014685451305CD
:101790003006F5BE8567138727916319E500930628
:1017A00080310146854513055006D5B6138737911C
:1017B0006319E500930680310146854513057006DF
:1017C000F9B613870792E30EE5CA13871792E30170
:1017D000E5DA13872792E308E5DA938737926319EE
:1017E000F50093068031014685451305F00445B6A2
:1017F0008280397106DE22DC26DA2A844AD84ED667
:101800002EC632C43689EFF0DFB7B24583A74183D5
:1018100022469359840033D7B7024E8541839306FD
:101820001700B386B602B3D7D70293940701C180DD
:10183000B384C402096613060671FD179395070168
:10184000C181B3D4C4023A86D52E85450545EF1033
:10185000000B935744000547C204C1806394E70618
:101860003705160085451305050CEF00306CC16780
:10187000156793870706139529001307C7063EC807
:101880003A9593773400231B9100231C0100231EFB
:1018900001000041E9E70C082285EF10601F854533
:1018A0002285EF10E04DCA852285EF10C04E2285BB
:1018B0008545EF10204BF2506254D2544259B25930
:1018C0002161828045476398E70037051800854508
:1018D0001305053059BF130710026398E700371549
:1018E0001A008545130505C049B713072002639800
:1018F000E70037151A00854513050580BDB71307A6
:1019000010036395E7008545056585B71307100744
:101910006399E700370701405C4F93E747005CCFCE
:10192000B9B7130710086398E700370701405C4F09
:1019300093E70701EDB7130710096398E70037072E
:1019400001405C4F93E70704D9BF13072009E390D8
:10195000E7F2370701405C4F93E70702C9B7054735
:10196000639FE7000C082285EF10801C22858545C7
:10197000EF100041CA852285EF1000430DBF0947D3
:101980000C082285639DE700EF10402722858545DE
:10199000EF10003FCA852285EF10A04209BFEF106B
:1019A000803222858545EF10A03DCA852285EF1043
:1019B0006042F5BD411122C426C24AC006C6AE84AB
:1019C0003284368921E993068031054685451545DF
:1019D000EFF0DF8189476393F40893068031054671
:1019E00085451D45EFF09F808547631DF40A9306EA
:1019F0008031054681451945EFF04FFF2244B24042
:101A000092444A85024993060031014685454101C9
:101A10006FF0CFFDC1476319F5009306803105468D
:101A20008545130530026DB7930700026319F50071
:101A300093068031054685451305D00251BF9307B3
:101A40000003E30CF5FC93070004E315F5F8930697
:101A50008031054685451305A0049DBFC94763999C
:101A6000F4009306803105468545130550029DBF5D
:101A7000930720026399F40093068031054685455B
:101A80001305F00285B793072003E38CF4FC93075A
:101A90002004E39BF4F49306803105468545130545
:101AA000C00489B7C5476319F40093068031054621
:101AB00081451305400289B7930710026319F400AA
:101AC00093068031054681451305E00235B793073B
:101AD00010046319F400930680310546814513050F
:101AE000B00419BF93071003E31AF4F07DBF3971F6
:101AF00022DC26DA4AD84ED652D456D25AD006DE46
:101B00002A842E89328AB68A3A8BBE84C28949E5F4
:101B1000056585450505EF00905EDA865686D28517
:101B20004A85493DB70704013EC623180100854791
:101B30006388F408C9C009476389E4088D4663894E
:101B4000D40893070020231BF1009D47231EF100BA
:101B50009567938707060A043E9400408E096C003F
:101B60002285231C3101231D0100EF00F05EC147D7
:101B70006315F90685450545EF00503B22858545EF
:101B8000EF003063F2506254D2544259B259225A93
:101B9000925A025B2161828085476318F500854572
:101BA00011650505EF0090578DBF8947E317F5F6DE
:101BB00085452165FDB723190100231A010051B79E
:101BC00023190100231A9100ADBF23199100F5B725
:101BD0002319E100231AF100ADB793070004E31FB6
:101BE000F9F83715200085451305051071B795677D
:101BF0000A0593870706AA9798432316B7008357C9
:101C0000870093F70708E5FF828095670A059387A9
:101C10000706AA979C4313D785002396E70003D7AE
:101C200087001377070865FF93F5F50F2396B70034
:101C300003D787001377070865FF8280011122CC44
:101C400026CA4AC806CE2A842E89B28401E90565CF
:101C5000854513050580EF00904A39A08547631E2E
:101C6000F5028545EF00904B95679387C7060A04F8
:101C70003E9408404C0023142101231291002315A7
:101C800001002313010023060100EF007054F2400D
:101C90006244D2444249056182808947E303F5FCEE
:101CA0008D476315F500854511456DBF9147631557
:101CB000F500854521457DB79D476315F5008545B0
:101CC000096551BFA1476316F50085453705080032
:101CD00059B7A547E31AF5F8854537051000A5BFA4
:101CE000411106C60DE185476398F522E14601469C
:101CF0002545EFF0AFCF9146014681452945B240D9
:101D000041016FF0AFCE8947631FF500E146014600
:101D1000854513056002EFF06FCD91460146814580
:101D200013057002E9BFC147631DF500E146014696
:101D300085450945EFF08FCB9146014681450D451C
:101D40007DBFC947631FF500E14601468545130580
:101D50005006EFF0AFC99146014681451305600674
:101D600079BF93070002631FF500E14601468545F0
:101D70001305A002EFF08FC7914601468145130578
:101D8000B002B5BF93072002631FF500E14601468C
:101D900085451305A004EFF06FC5914601468145C6
:101DA0001305B004A9BF930740026310F502E14692
:101DB0000146854513058006EFF04FC39306800466
:101DC00001468145130590061DBF93070004E30FEC
:101DD000F5FA93072004631FF500E14601468545A7
:101DE00013050002EFF08FC09146014681451305AF
:101DF000100231B793070005631FF500E146014665
:101E000085451305C004EFF06FBE9146014681453C
:101E100013052006EDB593072005631FF500E14685
:101E20000146854513058008EFF04FBC91460146F9
:101E3000814513059008E1B5930700066310F5028C
:101E4000E1460146854513050004EFF02FBA9306DD
:101E50008004014681451305100455B593072006FB
:101E6000631FF500E146014685451305A008EFF024
:101E7000EFB79146014681451305B00849B5930770
:101E80000007631FF500E146014685451305200460
:101E9000EFF0CFB59146014681451305300485B575
:101EA000930720076317F500E1460146854519456C
:101EB000C5B793074007631FF500E1460146854516
:101EC0001305C008EFF08FB2914601468145130516
:101ED000D00835B593070008631FF500E1460146B9
:101EE000854513054004EFF06FB0914601468145EA
:101EF0001305500429B593072008631FF500E14638
:101F0000014685451305E008EFF04FAE91460146C6
:101F100081451305F008E5B3B24041018280797133
:101F200022D44ECE2A84AE890545854526D24AD094
:101F300006D6B2843689EF00901C8947639EF4046C
:101F40008D476316F90085451145EF00207E631B20
:101F5000041285451165EF00901ACA85268549331C
:101F6000B7070C003EC495679387C7080A043E94E0
:101F700000408A854EC0228502C223160100EF0070
:101F8000306D22858545EF00507AB250225492542C
:101F90000259F24945618280C9476398F400CD47F0
:101FA000E317F9FA854521454DB793072002639B56
:101FB000F40093073002E31CF9F837051400854557
:101FC000410561B793074002639CF40093075002F8
:101FD000E31FF9F637051400854513050503B5B76A
:101FE000930720046399F40093073004E311F9F692
:101FF0008545056599BF93072005639BF40093070A
:102000003005E316F9F4370520008545050535BF91
:1020100093072006639CF40093073006E319F9F256
:102020003715008085451305058005B79307200700
:10203000639EF40093073007E31BF9F03707014074
:102040005C4FB7064000D58F5CCF11B793074007B0
:10205000639CF40093075007E31BF9EE3707014038
:102060005C4FB7068000C5B793072008E391F4EEF4
:1020700093073008E31DF9EC370701405C4FB706C2
:102080000002D1B785476318F40085453705020083
:10209000EF00D008D9B589476316F40085453705A8
:1020A0000400FDB78D476316F40085453705080029
:1020B000C5B791476316F400854537051000C9BFC1
:1020C00095476316F400854513050004D1B7994779
:1020D0006316F4008545130500085DBF9D47E31EA8
:1020E000F4E685451305001065B78547631AF500CA
:1020F0009306003105468545130520086FF00F8FC4
:1021000089476319F5009306003105468545130597
:102110003008EDB7828085476316F5001305200867
:102120006FF00F9F89476315F50013053008CDBF89
:102130008280411106C6EFF0AFA1EFE0DFDCEFE0F7
:102140001FE50145EFE0CFE80545EFE06FE8054505
:10215000A920094599200D45892011453D2815459F
:102160002D2819451D280945EFE0DFF50D45EFE065
:102170007FF51145EFE01FF51545EFE0BFF4194578
:10218000EFE05FF40545953709458537EFE0BFD3AC
:10219000012CB24041016FF08F9B411122C406C651
:1021A00085472A846314F5029306803405468145E9
:1021B00013050004EFF08F8399476315F406930627
:1021C0008034054681451305500425A089476319CD
:1021D000F500930680340546814513051004D9BFE8
:1021E0008D47631DF5009306803405468145130530
:1021F00020042244B24041016FE05FFF9147631920
:10220000F500930680340546814513053004D5B7A3
:102210009547E313F5FA9306803405468145130587
:102220004004C1BFB24022444101828041111305E4
:10223000000406C622C4EFF08F8B11ED0544130590
:102240000004EFF0CF8AE31C85FE8547B2402244AC
:102250003E854101828013051004EFF04F8911E99A
:10226000054413051004EFF08F88E31C85FE8947B1
:10227000F1BF13052004EFF08F8711E90544130522
:102280002004EFF0CF86E31C85FE8D47C1B7130510
:102290003004EFF0CF8511E9054413053004EFF069
:1022A0000F85E31C85FE914755B713054004EFF0F9
:1022B0000F8411E9054413054004EFF04F83E31C3C
:1022C00085FE954761B713055004EFF04F829307E1
:1022D000F00F2DFD054413055004EFF04F81E31C72
:1022E00085FE9947A5B7411106C622C401ED1385A5
:1022F000C181EFE0DFB21385C1812244B2404101C8
:102300006FE0FFB185476319F50013854182EFE067
:102310001FB113854182D5B789476319F50013852D
:102320000182EFE0DFAF13850182C1BF91476319DE
:10233000F5001385C180EFE09FAE1385C18075BFA6
:102340008D476319F50013854181EFE05FAD13857B
:10235000418165B795476319F50013850181EFE069
:102360001FAC1385018151BF99476319F50013858F
:102370008181EFE0DFAA1385818141B7B240224419
:1023800041018280411122C41385018506C6EFE018
:102390001FA9138501852244B24041016FE03FA887
:1023A00093068004054681451305A0066FE01FE4EF
:1023B00001A001A001A001A001A001A001A001A015
:1023C00001A001A001A001A001A001A001A001A005
:1023D00001A001A001A001A001A001A001A001A0F5
:1023E00001A001A001A001A001A001A001A001A0E5
:1023F00001A001A001A001A001A001A001A001A0D5
:1024000001A001A001A001A001A001A001A001A0C4
:1024100001A001A001A001A001A001A001A001A0B4
:1024200001A001A001A001A001A001A001A001A0A4
:1024300001A001A001A001A001A001A001A001A094
:1024400001A001A001A001A001A001A001A001A084
:1024500001A001A001A001A001A001A001A001A074
:1024600001A001A001A001A001A001A001A0739002
:10247000123497E1FF1F938161441761002013011B
:1024800061B817350000130565DE97E5FF1F9385DA
:1024900065B71386818463FAC5008322050023A0F3
:1024A000550011059105E3EAC5FE138581849385E6
:1024B000C19C6377B500232005001105E36DB5FECF
:1024C000FD42739002BCFD4273904280B7820000CF
:1024D0009382828873A0023097E2FFFF938202B654
:1024E00093E2320073905230EF10002097E2FFFF2A
:1024F0009382A22473901234730020304111B727C5
:10250000014006C693870740631CF5008545130507
:1025100000202521814513050020B240410131A949
:10252000B737014093870780631AF5008545130587
:1025300000402121814513050040C5B7B24041014B
:1025400082805C413707F1E01307F7EF944D7D8FF0
:102550009C41D58FD44DD58FD441A206D58FD98F2C
:102560005CC11C4537F7F1FF1307D77FD4457D8F3A
:102570009C49D58F94458606D58FD98F1CC55C554F
:10258000370710FF7D177D8F83C74501FD1793F730
:10259000F70FD207D98F5CD582801C4589C593E798
:1025A00017001CC58280F99BEDBF1C4593E787008F
:1025B0001CC5828008450D81058982801C4593E7F2
:1025C00047001CC5828008450981058982805841E1
:1025D000032805004C4537060140930706403E9707
:1025E0009346F8FFB1C583250640F58D2320B640FC
:1025F000D043F18ED4C31443B3E6060114C318418B
:1026000090479346F7FF758E90C7D047F18ED4C799
:10261000144541466399C6009447D98E94C7D44760
:10262000558FD8C78280B6979443558F98C38280C0
:102630001C43F58F1CC38280B707014013870740F6
:1026400083A70740584B698F09C77D8D3335A0009C
:10265000828001458280B707014023AAA74082807B
:102660009C4513F7070113F8F70001C7D8413368F9
:10267000E80083D5050013F7F50F39C318418146EB
:10268000854E3D4F930F800293028004214E339676
:10269000DE00B3F8C50063111603939826003313C8
:1026A0001F011343F3FF3377E300B318180133E737
:1026B000E800639FF70550C98506E39AC6FD18C177
:1026C0001307F00F6375B70454412146854E3D4F03
:1026D000930F800293028004414EB398CE0033F7EB
:1026E00015016392E8021317260001173313EF0058
:1026F0001343F3FFB376D3003317E800D98E639DFD
:10270000F701232A15010506E319C6FD54C182808D
:10271000E39457FA10C94DB7E39757FE23281501E4
:10272000DDB719C20CC982804CC98280B70701404D
:1027300063550504D44FB7073000131705013376EE
:10274000F5004183631DF602370600F17D16370858
:102750000140B3F7C60083264800758E2322C800C7
:1027600099C59356550192063317D700D98F37076D
:102770000140635E05025CCF8280D4436DBF931736
:10278000B50063D007029357050113F6F7008D4794
:10279000B397C70093C7F7FFF58FB706000FD58F24
:1027A000C1B7935755019207B317F700E5B75CC35C
:1027B000828013F7C50F93F73500B7050140BA952E
:1027C00094458A073D473317F7001347F7FF758F86
:1027D00098C598453315F500598D88C58280B71680
:1027E0000240DC4251777D17F98F5D8DC8C282802F
:1027F000371702405C439146B18B6385D700A146F1
:102800006386D706B7177A00938707201CC137164F
:1028100002405C4237070020130707009183BD8BFD
:10282000BA9783C607001C41B3D7D7005CC1544296
:10283000A1829D8ABA9683C60600B3D6D70014C576
:102840005442AD829D8A369703470700B3D7E7000D
:102850005CC5584239839376370013878182369757
:1028600003470700B3D7E7021CC982805C43544387
:102870004167C983F98E37F7FF1F0327C770BD8BE8
:1028800089071316170163480600454601476392FE
:10289000C702C94739A809476389E7023D476388EA
:1028A000E70241476388E702454601476393C70053
:1028B000C14785E6B746024083A60680C18A8DC619
:1028C000B7167A009386062025A00147D9B7054799
:1028D000B547C5B70147BD47E9BFB7160240D44267
:1028E0001396E600E35E06FCB7163D00938606905D
:1028F000B387D7021CC101DF1C41858301BF99C585
:10290000371702401C4F5D8D08CF8280B7170240F9
:10291000984F1345F5FF798D88CF828099C5371779
:1029200002405C4F5D8D48CF8280B7170240D84F80
:102930001345F5FF798DC8CF828099C537170240BE
:102940005C475D8D48C78280B7170240D847134562
:10295000F5FF798DC8C78280035705008D6793877F
:10296000070483D625007D8F83D70500D58F83D6B6
:102970004500D58F83D66500D58F83D68500D58F4A
:1029800083D6A500D58F83D6C500D58F83D6E50025
:10299000D58FD98F2310F5000357C501FD77938795
:1029A000F77FF98F231EF50083D705012318F50063
:1029B00082808357050091C593E707042310F50033
:1029C0008280C207C18393F7F7FBC207C183FDB7BB
:1029D0008357050037370140930607C0C207C183FC
:1029E0006300D504B7060040630CD5029386064009
:1029F0006308D502B7160040138606806302C5023D
:102A0000938606C0630ED50013070740630AE500EE
:102A100037570140930607C06304D5006317E500EC
:102A200003D7250093F7F7F8D98F37170040630DC8
:102A3000E500130707406309E50093F7F7CF03D7D5
:102A40006500C207C183D98F2310F50083D74500E5
:102A50002316F50283D705002314F502B73701408A
:102A6000138707C0630EE50093870740630AF500EC
:102A7000B7570140138707C06304E5006316F500EC
:102A800083C785002318F5028547231AF500828045
:102A90008357050203D6050003D82500C207C1836A
:102AA000F99BC207C1832310F502835705028356A1
:102AB000450003578501C207C1834207418313774D
:102AC000C7F8518F03D68500F59BC2063366060111
:102AD000D18F37360140130806C0C182630E05014D
:102AE00013060640630AC50037560140130806C0A6
:102AF000630405016313C50203D6A500DD9B03D85B
:102B0000E500D18F03D64500ED9B93F6F6CFD18F2C
:102B100003D6C50033660601D18E2312D500231CCF
:102B2000E50003D76500231AE5022310F502828031
:102B30008357050265771307F7CFC207C183BD9B93
:102B4000C207C1832310F50283570502835645004F
:102B500003D88500C2071396060183568501C183F9
:102B600093F7F7FD758F83D605004182A206558F36
:102B700083D6250042074183B3E606019206D58F2E
:102B8000B7360140C207138806C0C183630E050132
:102B900093860640630AD500B7560140138806C0E5
:102BA000630405016311D50483D6A50093F7F7F7F5
:102BB00003D8C5009206D58F83D64500C207C183CE
:102BC000920693F7F7FBD58FFD769386F63FF18E4D
:102BD00003D6E500C207C183336606010A06D18E1B
:102BE0001396060141822312C500231CE50003D77A
:102BF0006500231CE5022310F5028280835705023D
:102C000003D88500C207C18393F7F7EFC207C183DA
:102C10002310F50283570502835645000357C5016B
:102C2000C20713960601420783D605004183137736
:102C3000C7F8558F83D62500C18393F7F7DFB3E636
:102C40000601A206D58FB7360140C207138806C019
:102C50004182C183630E050193860640630AD50055
:102C6000B7560140138806C0630405016312D504FA
:102C7000FD769386F67FF58F83D6A50003D8C50031
:102C8000A206D58F83D64500C207C183A20693F75B
:102C9000F7BFD58FF576FD16F18E03D6E500C20796
:102CA000C183336606011206D18E13960601418256
:102CB0002312C500231EE50003D76500231EE5028D
:102CC0002310F502828003570502FD77FD17F98F67
:102CD0002310F50203580502835645008357C501AA
:102CE00065771396060183D605001307F7CF7D8F0E
:102CF000F977A206FD17558FB3F7070183D6250094
:102D000003D8850042074182B3E60601B206D58F9B
:102D1000B7360140C207138806C04183C183630EE2
:102D2000050193860640630AD500B7560140138813
:102D300006C063040501631CD500F176FD16F18E13
:102D400003D6C5001A06D18E1396060141822312BE
:102D5000C500231EE50003D765002310E5042310FA
:102D6000F50282808357050091C593E71700231071
:102D7000F5008280C207C183F99BC207C183C5BF2A
:102D80008357450491C52167D98F2312F5048280AA
:102D9000C607C583DDBF83578501C207C183DD9B9D
:102DA000DD8D231CB500828003578501FD77938755
:102DB000F77FF98FA205CD8FC207C183231CF500D1
:102DC00082808357C501C207C183DD9BDD8D231E31
:102DD000B50082800357C501FD779387F77FF98F90
:102DE000A205CD8FC207C183231EF5008280035741
:102DF0000502F977FD17F98FB205CD8FC207C183A0
:102E00002310F50282802312B5028280035505014A
:102E10006D8D3335A000828093C5F5FFC205C18159
:102E20002318B5008280835705010355C500ED8F37
:102E30004205418189C76D8D3335A00082800145EF
:102E4000828093C5F5FFC205C1812318B500828039
:102E500083560501F577FD17F58F83D66500397127
:102E600022DC06DED58F03D7C5002318F500835674
:102E7000C500FD779387379FF58F83D645002A8459
:102E80002EC6D58F83D68500D58F83D6A500D58F46
:102E90002316F50083574501C207C18393F7F7CF87
:102EA000D98F231AF5006808EFF09F94B7470140C7
:102EB00093870780B245631EF404A2578356C4006B
:102EC0006547B387E702C206C186984163D5060409
:102ED00006070356C4004206B3D7E70213074006AD
:102EE0004186B3D6E702B3F7E702920663570602BC
:102EF0008E0793872703B3D7E70213F77700B367EB
:102F0000D700C207C1832314F400F2506254216138
:102F10008280925765B70A076DBF92079387270390
:102F2000B3D7E702BD8BD58FE9BF81C98357C500F1
:102F30000967D98F2316F50082800357C500F977FA
:102F4000FD17F98FC5BF93F5F51F2312B5008280D9
:102F5000035505006D8D3335A000828013F7F50F02
:102F600085461583B397B6006313D7020357C50090
:102F7000F98F0357050001454207418381CB054581
:102F8000A181B315B5006D8F3335E000828089468D
:102F90006315D70003570501E1BF03574501C9BFBA
:102FA000A1818547B397B70093C7F7FFC207C183D5
:102FB0002310F5008280B7070050239AA70203C7A9
:102FC00067031377C70F238BE7028280B707005090
:102FD000239CA70203C7A7031377C70F238DE7021C
:102FE0008280814713F7F70F6363A700E9B703A750
:102FF000419C3E9783460700850793C6F6FF230052
:10300000D704CDB7814713F7F70F6363A7007DBFE0
:1030100003A7018F3E9783460700850793C6F6FFF7
:103020002300D704CDB7B707005003C76700137755
:10303000F70F9376270063880666011122CE26CC0F
:103040004ACA4EC852C656C403C777009306000248
:10305000137707036301D74C130600036301C7040A
:103060006314072203C7770005461377F703630A43
:10307000C7606304075889466318D72003C77700E1
:10308000137707046302072003C7B70313474700FA
:10309000A38DE70288471375F50FAD37F5A21947E1
:1030A0002389E7021147A389E70283A4418F83C7DD
:1030B000740003C76400A207D98F2394F18E03C75D
:1030C00014002385E18E03CA040013770A066308FF
:1030D000070E03C7A18E1377070219CF83C7A18EEE
:1030E0001307100293F7F70F638AE7001307200214
:1030F0006384E7006393D718014989A09387C1824D
:1031000023A6F18E83D7818E1D4721496366F70080
:1031100003D9818E1379F90F4A869385C18226855A
:10312000ED2583D7818EB3872741C207C1832394BE
:10313000F18E83A7C18ECA9723A6F18E83D7818E85
:103140004209135909016374F9002394218F93876D
:10315000418503D707009D46A14463E6E60083D47A
:10316000070093F4F40F03A9C18E2686CA85138540
:103170008197CA94592D23A6918E620A135A8A41C7
:10318000814763520A0203D7818EA14763E6E700B5
:1031900083D7818E93F7F70F03D7818E1D8F420758
:1031A00041832394E18EC20737070050C18323185F
:1031B000F70291472309F702A309F702F1A083C799
:1031C000A18E2D4793F7F70F6369F70A15678A07F2
:1031D0001307C70ABA979C43828783C7340003C783
:1031E00024008D46A207D98F13D787006305D70C1B
:1031F00063ECE6008547630BF70289476304F70A2F
:103200001309F00F814715A89D476308F71093072E
:103210002002630CF70E9947E314F7FE9567938736
:10322000C71723A6F18E0149A94701A8956793877F
:10323000071223A6F18E0149C94703D7818EC20721
:10324000C18363F4E7002394F18E83D7818E1D47F9
:10325000A14A6366F70083DA818E93FAFA0F83A599
:10326000C18E56862685552383A7C18EBE9A23A676
:10327000518F9307F00FE312F9F0B70700501D4785
:103280002389E702A389E702B70700500947238390
:10329000E7007244E2445249C249324AA24A0561F7
:1032A0007300203095679387C70D23A6F18E0149DF
:1032B0009307300459B793F7F70F85466387D70212
:1032C00091CF8946638BD702E39CE7F2956793879A
:1032D000471623A6F18E0149D94785B79387C18345
:1032E00023A6F18E0149914789BF956793874713BC
:1032F00023A6F18E0149B94789B79567938747148B
:1033000023A6F18E0149B1470DBF95679387071535
:1033100023A6F18E0149D1470DB783C7318393F7B7
:10332000F70FE39F07EC37090020130909019565A2
:10333000130610049385E50D13052900F92123A632
:10334000218FB5B783C724002394F18E3DB583C781
:1033500041862380F40003D7818E8547E3E6E7FEAC
:1033600029BD03C724002382E18601BD1377FA013A
:103370008947E314F7F083C744006383E704636E6F
:10338000F7000547E39BE7EE3707005083477703D5
:1033900093F7870FA30BF702CDB313071008638AC7
:1033A000E70213072008E39AE7EC3707005083474A
:1033B000A70393F7870F93E72700230DF70275BB49
:1033C000370700508347B70393F7870FA30DF70222
:1033D0006DB3370700508347670393F7870F93E771
:1033E0002700230BF70251BB03C781977D8B19EB95
:1033F0009387819783D727000547E390E7E8238BDE
:10340000F184A5BB8946E31AD7E69387819783D6D3
:103410002700E39406E683C747006385E7046360FB
:10342000F7020547E39BE7E437070050834777033C
:1034300093F7C70FA30BF70293E73700A1BF13075A
:103440001008638CE70213072008E398E7E23707C8
:1034500000508347A70393F7C70F230DF70293E7A5
:103460003700A1BF370700508347B70393F7C70F53
:10347000A30DF70293E7370091BF3707005083474A
:10348000670393F7C70F230BF70293E7370091BF4A
:1034900023800400C9B5238C01969387418583D688
:1034A00007000547E37BD7CC2390E700F9B11387EA
:1034B000819703574700239C0196930610086313D6
:1034C000D70237070050034767030D8B8D466315FE
:1034D000D7000547238CE1969387418583D6070063
:1034E0000947C9B785466317D70037070050034718
:1034F0007703E1BF930620086317D7003707005012
:103500000347A703D9B78946E318D7FC370700500C
:103510000347B7035DBF83C677001306100293F617
:10352000F6036380C60A130620026389C60AE39D78
:10353000E6D403C7A18E95461377F70F630FD70420
:103540009946631DD70683D7818E1D472144636644
:10355000F70003D4818E1374F40F03A5418F83A564
:10356000C18E22865D2483D7818E13170401418387
:10357000998FC207C1832394F18E83A7C18E3E9495
:1035800023A6818EB70700502398E70203C72703BD
:10359000134747002389E702C5B903C7370083D61D
:1035A000818E13770708558F1377F70FA381E700F4
:1035B00009472389E702A3890702F9B12398070283
:1035C000C5BF03C767031377C70F238BE70203C782
:1035D000670313474700238BE7027DB103C7A703A7
:1035E00013474700238DE70203C7A7031377C70FCD
:1035F00013672700238DE70241B983C7A18E639328
:10360000F60483A7418F83C6170003C70700558FB1
:1036100083C62700558F83C63700558F05CB83C5DA
:10362000170003C7070037550000A205D98D03C74F
:1036300027001305851842074D8F93958601D98D74
:10364000EF001014B70700509C473DB983C56700D1
:103650003755000013058519EF00901283A7418F9D
:10366000375500001305851A83C54700EF00501138
:1036700083A7418F375500001305851B83C557006D
:10368000C1B703C7770013770704E30F07BE03C76B
:10369000770313474700A38BE70288471375F50F9D
:1036A000EFF03F94D5B69376170085CAA381070043
:1036B000A3890702A38B0702A38D07020947238969
:1036C000E702238BE702238DE70203C76700136736
:1036D00017002383E7007300203093764700F5DA64
:1036E00003C757001147F5B7B71702409843B7060D
:1036F000FFF841111367170098C3D843370602003B
:10370000758FD8C39843B706F7FEFD16758F98C31B
:103710009843B706FCFFFD16758F98C3D843B706CC
:1037200081FFFD16758FD8C337079F0098C702C465
:1037300002C69843C166558F98C3B7160240130757
:1037400000509C42F18F3EC6A24785073EC4B24757
:1037500081E7A247E397E7FEB71702409C43139720
:10376000E7006350070A85473EC63247854763181E
:10377000F708B72702409843B706C1FFFD16136745
:10378000070198C39843719B98C398431367270018
:1037900098C3B7170240D843D8C3D843D8C3D84337
:1037A00013670740D8C3D843758FD8C337F7FF1FB7
:1037B0000327C77093161701D84363C60604B706DC
:1037C0003D00558FD8C3371702401C43B706000190
:1037D000D58F1CC3B7170240984393166700E3DDEB
:1037E00006FED843B7160240719BD8C3D84313676F
:1037F0002700D8C32147DC42B18BE39EE7FE41019D
:10380000828002C69DB7C1666DBFB3C7A5008D8B10
:103810003307C50081E78D4763EEC700AA87637051
:10382000E50A83C6050085078505A38FD7FEE3EA71
:10383000E7FE828093763500AA8791CA83C6050089
:1038400085078505A38FD7FE93F63700FDB79376DE
:10385000C7FF138606FE63F0C70683A3050083A295
:10386000450083AF850003AFC50083AE050103AEFD
:10387000450103A3850183A8C5019385450223A0C3
:10388000770003A8C5FF23A2570023A4F70123A6AE
:10389000E70123A8D70123AAC70123AC670023AE01
:1038A00017019387470223AE07FF75B79041910731
:1038B000910523AEC7FEE3EBD7FEE3E4E7F6828093
:1038C0001C46FD171CC663D90700184E63C5E700E8
:1038D000A9476393F500EDA51C422E8513871700B9
:1038E00018C22380B7008280011122CC26CA4AC8A0
:1038F0004EC652C406CE2A89AE893284B304D6009D
:103900007D5A63149400014509A8834504004E863E
:103910004A857D370504E31645FFF2406244D244F0
:103920004249B249224A05618280357122CD26CBB7
:103930004AC94EC706CF52C556C35AC1DEDEE2DCC5
:10394000E6DAAA89AE843289368409C51C4D99E32A
:10395000EF009029972700009387478D639CF40C14
:1039600083A4490083D7C400A18BFDC79C48EDC741
:1039700093070002A304F1029307000302D2230578
:10398000F10222C6930B5002972A0000938A4A84C0
:10399000054C294B4A848347040099C36390770FF1
:1039A000B30C2441638D0C00E6864A86A6854E85BD
:1039B000253FFD576308F51E9256E69636D283479B
:1039C00004006381071EFD571309140002C802CECC
:1039D0003ECA02CCA309010482D4834509001546DE
:1039E0005685EF00504713041900C24751E913F7F9
:1039F000070109C713070002A309E10413F78700B1
:103A000009C71307B002A309E1048346090013079D
:103A1000A002638FE606F2474A84814625460347A3
:103A2000040093051400130707FD6378E60AADCA86
:103A30003ECEBDA097270000938747816395F40091
:103A400083A4890005B7971700009387277CE39B21
:103A5000F4F083A4C90039B7A6854E85152509D988
:103A60007D55FA406A44DA444A49BA492A4A9A4A90
:103A70000A4BF65B665CD65C0D618280050421BF53
:103A8000330555413315AC00C98F3EC82289B1B703
:103A9000324793064700184336C6634907023ACEB9
:103AA000034704009307E002631FF7040347140071
:103AB0009307A002631BF702B2470904138747006C
:103AC0009C433AC663C107023ECA35A83307E040AB
:103AD00093E727003ACE3EC8E1B7B3876703854630
:103AE0002E84BA972DBFFD57C5B7050402CA81467B
:103AF000814725460347040093051400130707FD7B
:103B00006378E606F1F2834504000D4617150000C0
:103B10001305856CEF00303411CD971700009387A3
:103B2000A76B1D8D93070004B397A70042450504BA
:103B30005D8D2AC88345040019461715000013053A
:103B4000E569130914002304B102EF00D0303DC130
:103B500097C7FFFF9387074B95E74247B247137715
:103B6000071009CF91073EC69257D2973ED21DB596
:103B7000B387670385462E84BA97ADBF9D07E19B47
:103B8000A107D5B7780097060000938626D626862B
:103B90000C084E8597000000E7000000FD572A8AB8
:103BA000E314F5FC83D7C40093F70704E39A07EA0C
:103BB000125545BD780097060000938626D32686C9
:103BC0000C084E85012AD9BF797156CA9C49BA8A18
:103BD000984522D426D24ECE52CC06D64AD05AC8C8
:103BE0005EC6AA892E84B284368A63D3E700BA8778
:103BF0009CC00347340419C385079CC01C4093F73D
:103C0000070281C79C4089079CC0032904001379DF
:103C10006900631A0900130B9401FD5B5C44984032
:103C2000998F634CF9041C408346340493F70702D0
:103C3000B336D000A5EB13063404D2854E85829AA4
:103C4000FD576303F5041C4011469840998B54447A
:103C500081446397C700B384E64063D30400814482
:103C60001C4418486354F700998FBE9401496904B5
:103C70007D5B63982405014509A885465A86D2854F
:103C80004E85829A631E75017D55B250225492541E
:103C90000259F249624AD24A424BB24B4561828094
:103CA0000509ADBF3307D40013060003A301C70401
:103CB0000347540493871600A2978906A381E7045B
:103CC0009DBF85462286D2854E85829AE30E65FB8E
:103CD000050945B7797122D426D24AD04ECE06D6F0
:103CE00052CC56CA5AC8B68983C685019307900636
:103CF0003289AA842E8413863504638DF60263E22A
:103D0000D706930780056389F61863EDD7006382B1
:103D1000062293073004638FF60A930A24042301D2
:103D2000D404D1A0930730066386F60A93074006B1
:103D3000E395F6FE1C40084393F6070893054500FB
:103D4000CDC61C410CC363D807001307D002B307CC
:103D5000F040A301E404971600009386A648294783
:103D600075A8930700076385F61663E5D7029307E6
:103D7000E006638CF6189307F006E390F6FA0C4021
:103D80001C4313F80508138547006308080608C399
:103D90009C4395A893075007E383F6FE930780079B
:103DA000638CF61293073007E399F6F61C43D04173
:103DB00081459386470014C383AA07005685EF0008
:103DC000900901C53305554148C05C401CC8A3019A
:103DD000040471A81C43930A2404938647009C435F
:103DE00014C32301F4048547D5B793F607041C4197
:103DF0000CC3B1DAC207C187B9B793F5050408C38C
:103E0000C1D983D707001307F0066388E60E97161B
:103E100000009386263D2947A30104044C400CC4AE
:103E200063C5050008406D9908C099E3B28A91CD39
:103E3000B28AB3F5E702FD1AB69583C50500238063
:103E4000BA00B3D5E70263F0E70CA147631EF700A1
:103E50001C40858B91CB58401C4863C7E7009307F3
:103E60000003A38FFAFEFD1A3306564110C84E8791
:103E7000CA867000A2852685EFF01FD57D5A631E85
:103E8000450B7D55B250225492540259F249624A70
:103E9000D24A424B45618280A382D5049716000026
:103EA000938646340C40084313F805081C4111055D
:103EB000630D080208C313F7150001C793E5050257
:103EC0000CC04147B1FB0C4093F5F5FD0CC0A9B700
:103ED0009C4193E707029CC193078007A302F40467
:103EE000971600009386463175BF13F8050408C382
:103EF000E30308FCC207C1837DBF971600009386C9
:103F0000662E214711BFAE872DB794411C43CC4983
:103F100013F80608138547006306080008C39C438E
:103F20008CC301A808C393F606049C43F5DA2390DA
:103F3000B70023280400B28A1DBF14485686CA85DC
:103F400026858299E30F45F31C40898B8DE7B247A4
:103F50004844E359F5F23E8535B785465686CA850D
:103F600026858299E30F65F1050A5C443247998FF3
:103F7000E345FAFEE9BF014A930A94017D5BF5B778
:103F800039713EDA2ED232D436D63AD842DC46DE09
:103F90009387818322CC804326CA06CEAA8409C493
:103FA0001C4C99E3228589210C44541026862285D5
:103FB00036C6EFF09F97F2406244D244216182807E
:103FC000011122CC26CA4AC806CE4EC6AA842E8922
:103FD000328401C51C4D91E3012997170000938796
:103FE000E7246319F406C0401C4C1CC48357C4006A
:103FF000A18BC9C31C48BDCF1C4808409379F90F59
:104000001379F90F1D8D5C486346F500A28526855E
:10401000652C2DE51C440505FD171CC41C401387A9
:10402000170018C0238037015C486389A7008357B5
:10403000C400858B81CBA9476316F900A28526852C
:1040400061240DEDF24062444A85D2444249B249AE
:1040500005618280971700009387471F6314F4005F
:10406000804459B7971700009387471AE31EF4F668
:10407000C0449DBFA285268521203DDD7D59D9B74D
:1040800041119387818326C2844322C44AC006C655
:104090002A892E8489C49C4C99E32685B1269717DA
:1040A00000009387A718631CF402C0400317C400E4
:1040B00093170701C18393F68700B5EE93F60701C6
:1040C0009DEEA5472320F900136707042316E4009B
:1040D0007D55B240224492440249410182809717A3
:1040E00000009387A7166314F4008044C1B79717A4
:1040F00000009387A711E31BF4FAC04445BF918BDE
:104100008DC74C5889C9930744046384F5004A85D8
:104110008523232A04028357C4002322040093F733
:10412000B7FD2316F4001C481CC08357C40093E756
:1041300087002316F4001C4881EF8357C40013073F
:10414000002093F707286385E700A2854A85AD2103
:104150008357C40013F7170005C75C4823240400E5
:10416000B307F0401CCC1C480145A5F78317C400D9
:1041700013F7070839DF93E707042316F40089BF14
:10418000898B014791E3584818C4F1BF83D7C50014
:10419000011122CC26CA06CE4AC84EC613F78700A4
:1041A000AA842E8471EFD841634DE000B841634A80
:1041B000E0000145F2406244D2444249B2490561FF
:1041C000828058547DD703A904009396370123A019
:1041D000040063DD060670488357C400918B99C7BD
:1041E0005C401D8E5C5899C33C401D8E5C540C5045
:1041F000814626858297FD570357C400631DF5004D
:104200009440F54763E8D706B70740208507B3D742
:10421000D700858BA5C31C48232204001CC093171C
:10422000370163D80700FD576314F5009C4091E304
:1042300068C84C5823A02401ADDD9307440463846F
:10424000F50026853521232A0402A5B70C50014626
:10425000854626850297FD572A86E31FF5F69C4082
:10426000A5DF75476385E70059476394E70423A0FA
:10427000240181B7136707042316E4007D551DBF91
:1042800083A90501E38709F203A905008D8B23A00B
:10429000350133093941014791E3D84918C4E35A3C
:1042A00020F11C540C50CA864E862685829763499D
:1042B000A0008357C40093E707042316F4007DBFD2
:1042C000AA993309A940E1BF9C49A5C3011122CC99
:1042D00006CE2A8411C51C4D81E72EC63122B24577
:1042E00097170000938787F4639CF5004C408397F1
:1042F000C5009DC722856244F24005616FF01FE949
:1043000097170000938787F46394F5000C44C5B7B2
:1043100097170000938787EFE39BF5FC4C44C1BFE0
:10432000F24062440145056182800145828041116D
:1043300022C406C62A842316B5002317C5002320ED
:104340000500232205002324050023220506232837
:104350000500232A0500232C05002146814513056D
:10436000C505EFB0FFE9970700009387474A5CD087
:10437000970700009387A74C1CD4970700009387EA
:10438000E7505CD4970700009387A75300D01CD850
:10439000B24022444101828097050000938505F3D5
:1043A00091AA411126C2130680069384F5FFB384B7
:1043B000C4024AC02E8922C406C693854407992E9A
:1043C0002A8401CD2320050023222501310508C4BC
:1043D000138684068145EFB0BFE22285B2402244B5
:1043E00092440249410182801C4DA5E7411106C655
:1043F00022C497070000938767FA1CD5938701842E
:104400009C43232405042326050423280504631460
:10441000F50085471CCD2A84352848C022851D28F3
:1044200008C42285052848C4484001469145EFF05C
:104430001FF008440546A545EFF07FEF48440946C4
:10444000C945EFF0DFEE85471CCCB2402244410164
:104450008280828041119387018426C284434AC0AE
:1044600006C69C4C22C42A8981E72685EFF0DFF737
:10447000938484048044DC40FD1763D607009C408D
:10448000B9CF8440C5BF0317C40039E7C17785079A
:1044900023220406232004002322040023240400F2
:1044A0005CC423280400232A0400232C0400214692
:1044B00081451305C405EFB0BFD4232A0402232C81
:1044C000040223240404232604042285B240224447
:1044D00092440249410182801304840671BF9145D0
:1044E0004A85EFF01FEC88C049FDB1472320F90051
:1044F0000144E1BF797122D44AD052CC56CA5AC87D
:104500005EC606D626D24ECE2A8AAE8A130485040B
:104510000149054BFD5B09ECB25022544A85925487
:104520000259F249624AD24A424BB24B45618280FB
:10453000044483294400FD1963D409000040E1BF0D
:1045400083D7C400637BFB008397E4006387770114
:10455000A6855285829A3369A90093848406E1BFB7
:104560001971A6DAAE848395E500A2DC86DE32847A
:1045700063DC050083D7C40023A0060093F7070877
:104580009DE39307004015A0300836C67926B24651
:10459000E34205FE7247BD67F98F7977BA9793B703
:1045A00017009CC2F9BF930700041CC0F650665464
:1045B000D65401450961828083D7C500011122CC00
:1045C00006CE26CA4AC8898B2E8489CF93077404E5
:1045D0001CC01CC885475CC8F2406244D2444249B2
:1045E0000561828074003000AA84EFF07FF7A24555
:1045F0002A892685052201ED8317C40013F70720B9
:1046000061FFF19B93E727002316F400C1B79707DA
:1046100000009387A7D89CD48357C40008C008C85B
:1046200093E707082316F400A2475CC8B24789CF76
:104630008315E4002685392601C98357C400F19B00
:1046400093E717002316F4008357C4003369F90079
:104650002316240151B793F5F50F2A966314C5006C
:104660000145828083470500E38DB7FE0505FDB750
:10467000CDC183A7C5FF411122C406C626C213843B
:10468000C5FF63D307003E94AA84392693878185AA
:104690009C4399EB2322040023AC81842244B24042
:1046A000268592444101D5AC637EF4001440330763
:1046B000D4006396E7009843DC43369718C05CC08B
:1046C000E1BFBA87D84319C3E37DE4FE9443338640
:1046D000D700631F86001040B29694C33386D7007C
:1046E000E31EC7FA10435843B29694C3D8C37DB7AC
:1046F0006375C400B1479CC055B71040B306C400F1
:104700006316D70014435843B29614C058C0C0C3B0
:1047100071B78280011126CA93843500F19806CEC4
:1047200022CC4AC84EC6A104B14763F1F404B14497
:1047300063E0B4042A898D249387818598433A8461
:1047400031E09387C1859C4391E781454A85512893
:1047500023AEA184A6854A856920FD5963173507D4
:10476000B1472320F9004A850D2C29A0E3D204FC8F
:10477000B1471CC10145F2406244D2444249B249AA
:10478000056182801C40858F63CE0702AD4663F6CB
:10479000F6001CC03E9404C031A05C406312870246
:1047A00023ACF1844A85D52A1305B400930744004D
:1047B00061993307F54061D33A94898F1CC065BF76
:1047C0005CC3CDB722874040A5BF13043500719864
:1047D000E30385FCB305A4404A852120E31D35FB96
:1047E00041B7411122C42A842E8523A4019C06C608
:1047F000112CFD576317F5009387819C9C4391C34F
:104800001CC0B240224441018280411122C42E8446
:104810008395E50006C65922634905007C48AA979E
:104820007CC8B2402244410182808357C4007D7716
:104830007D17F98F2316F400EDB783D7C50001115A
:1048400022CC26CA4AC84EC606CE93F70710AA84C1
:104850002E843289B68991C78395E5008946014641
:1048600031228357C4007D777D17F98F2316F4001A
:104870008315E4006244F240CE864A86B24942493A
:104880002685D24405613DA8411122C42E8483951A
:10489000E50006C6E128FD570357C400631BF50079
:1048A000FD77FD17F98F2316F400B2402244410131
:1048B00082808567D98F2316F40068C8FDB7839579
:1048C000E50005A8411122C42A842E85B2853686CA
:1048D00023A4019C06C6EFC08FE6FD576317F500C1
:1048E0009387819C9C4391C31CC0B24022444101E8
:1048F0008280411122C42A842E8523A4019C06C6ED
:10490000E120FD576317F5009387819C9C4391C379
:104910001CC0B240224441018280411122C42A8439
:104920002E85B28523A4019C06C66D20FD57631712
:10493000F5009387819C9C4391C31CC0B2402244E4
:1049400041018280411122C42A842E8523A4019C26
:1049500006C67920FD576317F5009387819C9C4319
:1049600091C31CC0B240224441018280411122C443
:104970002A842E85B285368623A4019C06C6BD20D6
:10498000FD576317F5009387819C9C4391C31CC01E
:10499000B24022444101828082808280411122C43F
:1049A0002A842E85B285368623A4019C06C6A920BA
:1049B000FD576317F5009387819C9C4391C31CC0EE
:1049C000B2402244410182809307800523A4F19CD8
:1049D0007D5582809307800523A4F19C7D558280BC
:1049E0009307800523A4F19C0145828093078005ED
:1049F00023A4F19C7D5582809307800523A4F19C1C
:104A00007D558280938701869C4391C73E9523A064
:104A1000A1863E8582809387C19C3E9523A0A18676
:104A20003E85828072656564203A00006B6579344A
:104A3000000000006B657935000000006B65793679
:104A4000000000006B657931000000006B65793271
:104A5000000000006B6579330000000000000000DA
:104A6000000000000000000000000000000000083E
:104A70000808080808080000080800000048242466
:104A800012000000000000000000000000000048CC
:104A900048487E2424247E24242400000000103C66
:104AA0005252121C30505052523C10100000002242
:104AB0002515150D2A585454522200000000000CF0
:104AC0001212120A76252919916E000000060404BC
:104AD0000200000000000000000000000040201064
:104AE00010080808080808101020400000020408F8
:104AF0000810101010101008080402000000000038
:104B000008086B1C1C6B0808000000000000000077
:104B100000101010FE101010000000000000000037
:104B20000000000000000000060404020000000075
:104B3000000000007E0000000000000000000000F7
:104B400000000000000000000606000000004020F9
:104B500020201010080808040402020000000018B9
:104B60002442424242424242241800000000001007
:104B70001C10101010101010107C00000000003CE1
:104B80004242424020100804427E00000000003CE7
:104B90004242402018204042423C000000000020D9
:104BA000303028242422FE2020F800000000007E5F
:104BB0000202021E22404042221C00000000001897
:104BC0002402023A46424242443800000000007E7D
:104BD0004220201010080808080800000000003CCF
:104BE0004242422418244242423C00000000001C81
:104BF00022424242625C4040241800000000000053
:104C00000000181800000000181800000000000044
:104C10000000000800000000000808080000004034
:104C200020100804020408102040000000000000CA
:104C300000007E00007E0000000000000000000276
:104C40000408102040201008040200000000003C6E
:104C50004242462010101000181800000000001CEE
:104C6000225A55555555553A423C0000000000085F
:104C700008181414243C224242E700000000001FE0
:104C80002222221E22424242221F00000000007CFB
:104C90004242010101010142221C00000000001FEC
:104CA0002242424242424242221F00000000003F94
:104CB0004212121E12120242423F00000000003F48
:104CC0004212121E12120202020700000000003CF3
:104CD0002222010101712122221C0000000000E7B4
:104CE000424242427E42424242E700000000003E11
:104CF0000808080808080808083E00000000007CB2
:104D000010101010101010101010110F000000776C
:104D100022120A0E0A121222227700000000000757
:104D20000202020202020202427F0000000000773B
:104D300036363636362A2A2A2A6B0000000000E36F
:104D400046464A4A52525262624700000000001C26
:104D50002241414141414141221C00000000003FED
:104D6000424242423E020202020700000000001CD2
:104D7000224141414141414D321C60000000003F51
:104D80004242423E1212222242C700000000007C32
:104D90004242020418204042423E00000000007FD0
:104DA0004908080808080808081C0000000000E777
:104DB0004242424242424242423C0000000000E77E
:104DC0004242222424141418080800000000006B3A
:104DD0002A2A2A2A2A36141414140000000000E794
:104DE000422424181818242442E700000000007709
:104DF0002222141408080808081C00000000007E85
:104E00002120101008040442423F000000780808E6
:104E100008080808080808080808780000000204C4
:104E2000040408080810102020204040001E101024
:104E3000101010101010101010101E000018240078
:104E40000000000000000000000000000000000062
:104E50000000000000000000000000FF0006080045
:104E60000000000000000000000000000000000042
:104E70000000001C22302C22326C000000000000D8
:104E80000302021A26424242261A000000000000D5
:104E90000000003844020202443800000000000014
:104EA0006040407C4242424262DC00000000000060
:104EB0000000003C42427E02423C00000000000034
:104EC0003048083E08080808083E000000000000BE
:104ED0000000007C22221C023C42423C00000000F8
:104EE0000302023A4642424242E700000000000C40
:104EF0000C00000E08080808083E00000000003002
:104F000030000038202020202020221E0000000039
:104F100003020272120A0E1222770000000000083B
:104F20000E08080808080808083E000000000000F5
:104F30000000007F9292929292B700000000000061
:104F40000000003B4642424242E7000000000000F1
:104F50000000003C42424242423C0000000000008F
:104F60000000001B26424242261A020700000000F1
:104F70000000005864424242645840E000000000D3
:104F8000000000774C040404041F0000000000002F
:104F90000000007C42023C40423E00000000000055
:104FA0000008083E0808080848300000000000001B
:104FB000000000634242424262DC00000000000048
:104FC00000000077222214140808000000000000EE
:104FD000000000DB91525A2A242400000000000047
:104FE0000000006E2418181824760000000000004D
:104FF000000000E7422424181808080600000000FA
:105000000000007E22100808447E000000C020201E
:1050100020202020102020202020C0001010101060
:1050200010101010101010101010101000030404B5
:10503000040404040804040404040300045A2000C3
:105040000000000000000000000000000008014017
:10505000000C014000100140001401400018014004
:105060000030014000380040003C0040002C01406E
:10507000000000400004004000080040000C004018
:1050800000340140004C0140005001400038014014
:105090000044004000480040004C004000500040E8
:1050A00000180040001C004000200040AE3400000A
:1050B0006C3300007A320000E83300007A320000DE
:1050C00044330000DA3100007A3200004E33000031
:1050D000623300009034000096340000090243005F
:1050E000020100A0320904000001020201000524AF
:1050F000001001052401000004240202052406001A
:1051000001070581034000FF09040100020A0000B5
:10511000000705020240000007058202400000006F
:105120001201000202000008861A22570001010243
:10513000030100000E037700630068002E00630087
:105140006E0000000C0343004800330030003700BD
:10515000140332003000310037002D0032002D00E2
:1051600032003500160330003100320033003400C5
:105170003500360037003800390000000A0600020A
:10518000FF00FF40010000000A4261756420526187
:105190007465203D202564000A646174614269746D
:1051A000203D2025640000000A73746F704269740A
:1051B000203D2025640000000A70617269747954F2
:1051C000797065203D20256400000000232D302BE0
:1051D00020000000686C4C0065666745464700008B
:1051E000303132333435363738394142434445461D
:1051F00000000000303132333435363738396162DF
:10520000636465660000000000000000000000000C
:10521000000000000000000000000000000000008E
:10522000000000000000000000000000000000007E
:10523000000000000000000000000000000000006E
:10524000000000000000000000000000000000005E
:10525000000000000000000000000000000000004E
:08526000000000000000000046
:105268000000000001020304010203040607080904
:105278000907000000000000000000000000000016
:105288000000000000000000000000000000000016
:105298000000000000000000000000000000000006
:1052A80000000000000000000000000000000000F6
:1052B80000000000000000002852000048520000D2
:1052C800085200000000000000000000000000007C
:1052D80000000000000000000000000000000000C6
:1052E80000000000000000000000000000000000B6
:1052F80000000000000000000000000000000000A6
:105308000000000000000000000000000000000095
:105318000000000000000000FFFF00000200000085
:1053280000F8F0870000FF0000FFFF0000FF00000A
:10533800FF00FF00FF000000FFFFFF00FFFF00006D
:105348000204060800C20100000008010044950894
:105358005400002004030904540000200000000049
:00000001FF
