:100000006F20F050130000001300000013000000E8
:100010001300000013000000130000001300000094
:100020001300000013000000130000001300000084
:08003000130000007300100032
:100038000000000000000000500700005407000006
:1000480000000000542C0000000000000000000028
:10005800562C0000582C0000000000000000000092
:100068005A2C0000000000005C2C0000000000007A
:100078005E2C0000602C0000622C0000642C000044
:10008800662C0000682C0000B2080000C6080000BA
:10009800EC0800000209000018090000742C000098
:1000A800762C0000782C00007A2C00007C2C0000B4
:1000B8007E2C0000802C0000822C0000842C000084
:1000C800862C0000882C00008A2C00002E090000D5
:1000D8008E2C0000220A0000922C0000942C0000B4
:1000E800480A0000620A0000880A00009C2C0000F0
:1000F8009E2C0000A02C0000A22C0000A42C0000C4
:10010800A62C00005607000080070000AA07000080
:10011800A0090000B02C0000B22C0000B42C000094
:10012800140B0000B82C0000BA2C0000BC2C0000F6
:10013800BE2C0000C02C0000AE0A0000C42C000039
:10014800D4070000FE070000D40A0000EE0A0000F1
:10015800CE2C0000D02C0000D22C0000D42C0000A3
:10016800D62C0000D82C0000DA2C0000DC2C000073
:10017800DE2C0000E02C0000E22C000048390000D2
:10018800E62C0000E82C000092080000200800007F
:100198004A08000074080000F22C00003A0B000026
:1001A800F62C0000F82C0000FA2C0000600B000070
:1001B800FE2C0000002D0000022D0000042D000080
:1001C800062D0000082D00000A2D00000C2D00004F
:1001D8000000000000000000000000000000000017
:1001E8000000000000000000000000000000000007
:0801F8000000000000000000FF
:100200003D432A876373C3029377F700BDEFADE5E3
:10021000937606FF3D8ABA960CC34CC30CC74CC7F5
:100220004107E36BD7FE11E28280B306C3408A0622
:100230009702000096966780A6002307B700A306E2
:10024000B7002306B700A305B7002305B700A30432
:10025000B7002304B700A303B7002303B700A3022A
:10026000B7002302B700A301B7002301B700A30022
:10027000B7002300B700828093F5F50F93968500B1
:10028000D58D93960501D58D61B79396270097027A
:10029000000096968682E78086FA9680C1171D8FA9
:1002A0003E96E374C3F8A5B7411106C6A12EB2402D
:1002B0002388A1824101828083A781859DEF83C825
:1002C00001833706002041119307000F13078007B1
:1002D000130870089306C00B1306C6178145014525
:1002E00006C6EF00904B9387118303C707000507ED
:1002F0002380E700B24041018280828083C741832E
:1003000093B7170023ACF184828083C7018399C31C
:1003100033B5A700828083C70183DDC3797122D4FE
:1003200026D23704002099641304C41793840482EE
:100330004AD04ECE52CC5AC85EC606D656CA2A8974
:10034000A2948149014A130BE005930BC00B814A2B
:10035000B307540103C50700850A453F2A9AE3996C
:100360006AFF930AE005B307540103C50700850A35
:10037000693FAA99E3997AFF1304C40BE39984FCBB
:1003800083C7218399CFB7750000CE8652869385A7
:10039000C50D1385C185EF5090541385C185EF00BD
:1003A0003009B250225423204901232239019254AA
:1003B0000259F249624AD24A424BB24B45618280AD
:1003C000828083C701839DC30111280006CE02C429
:1003D00002C69137B2472245F2401D8D9307400671
:1003E0003345F502056162056185828001458280A1
:1003F0004D712326111423248114232291142320C8
:100400002115232E3113232C4113232A6113232872
:10041000711323268113232491132322A113232054
:10042000B1138147130700101410BE9623800600F5
:100430008507E39BE7FE996793870782AA97930551
:10044000C00B0147B306E50083C60600101205077E
:10045000B29603C606F005062380C6F0E314B7FE85
:100460001305C50BE39FA7FC0147130600101410EA
:10047000BA9683C6060093170701C187A1CA9306DF
:10048000F00F1307F00F6388D7009306E00F1307F0
:10049000E00F6392D7048320C114032481148324C2
:1004A0004114032901148329C113032A8113032B47
:1004B0004113832B0113032CC112832C8112032DB2
:1004C0004112832D01123A85716182800507E31084
:1004D000C7FA930700103E8A3E87014C9306F00F3F
:1004E00013160701418663DFC60E3E878149130656
:1004F000F00F93160701C186635DD60EB776000034
:1005000083AD860E03ADC60E0147814C0149130E23
:10051000E00FE342FEF83ECC1C10B386470103C453
:1005200006003ACE229933048A024A85EF50C02B46
:100530002A8B6285AE8BEF50202B2AC433052C41C9
:100540002EC6A29CEF5040232AC866852ECAEF50C3
:10055000A0295A86DE86EF30707C2A843385994143
:10056000AE84EF5060214246D246EF30307B2A867F
:10057000AE862285A685EF40902C2246B2462A847C
:10058000AE845A85DE85EF3070792A8BAE8B224699
:10059000B2464245D245EF3070782A86AE865A85FB
:1005A000DE85EF40405E2286A686EF40C05D228653
:1005B000A686EF40405D2A86AE86AA842E846E858C
:1005C000EA85EF40E050E2477247130EE00F6356B2
:1005D000050013F7F70FA68D228D8507C207C18787
:1005E000050A05BF10103A96034606000507329C1F
:1005F000C5BD1410BA9683C60600B386E602050789
:10060000B699C5BD370500201305C517D5B34111EF
:1006100006C622C4EF10405CEF100009EF10401135
:10062000EF0030233775000081451305050F5D236A
:1006300037750000814513050510692B1305007DF2
:10064000EF10A012377500008145130505115923DD
:100650000145EF00E065054537740000EF00406597
:10066000A94513050412BD231305800CEF10E00FFC
:1006700037750000814513058512A92B0545EF202C
:1006800060480945EF2000480D45EF20A04711457F
:10069000EF2040471545EF20E0461945EF20804602
:1006A0000945EF10401C0D45EF10E01B1145EF1000
:1006B000801B1545EF10201B1945EF10C01AA145EE
:1006C00013050412012B1305800CEF10000A377577
:1006D0000000814513054513F5290545EF20C03F6E
:1006E0000945EF20603FA14513050412E5211305DC
:1006F000800CEF1080073775000081451305051445
:10070000D129EF007076A14513050412E1211305EC
:10071000800CEF1080053775000081451305C51466
:100720005529EF00D051AD4513050412652113057D
:10073000800CEF108003377500001305C515814547
:1007400051292244B2401305803E41016F10E0015F
:100750007300203001A0411122C6374401409305A7
:10076000505213050480EF30001119C59305505203
:1007700013050480EF3060143244410173002030CF
:10078000411122C6374400409305505213050440DE
:10079000EF30600E19C59305505213050440EF3039
:1007A000C0113244410173002030411122C6375438
:1007B00000409305505213050480EF30C00B19C55B
:1007C0009305505213050480EF30200F324441014D
:1007D00073002030411122C6375400409305505217
:1007E000130504C0EF30200919C5930550521305B5
:1007F00004C0EF30800C3244410173002030930577
:10080000505237550040EF30000709C9EF00103B48
:100810009305505237550040EF30200A73002030C6
:10082000411122C63724004093055052130504801D
:10083000EF30600419C59305505213050480EF3062
:10084000C0073244410173002030411122C63724D1
:10085000004093055052130504C0EF30C00119C584
:1008600093055052130504C0EF3020053244410176
:10087000730020309305505237250040EF20B07FA1
:1008800019C59305505237250040EF30000373001F
:100890002030B707055003C70701118B09CB03C7E9
:1008A00007011377B70F2388E700EF003037730095
:1008B00020300545EF20E05B85476314F500EF200D
:1008C000205D730020300945EF20A05A8547631D45
:1008D000F5000945EF20C05B130520088145EF10A6
:1008E00000275145EF007068730020301145EF205C
:1008F000405885476315F5001145EF206059730096
:1009000020302145EF20E05685476315F50021454D
:10091000EF200058730020304145EF208055854777
:100920006315F5004145EF20A056730020301305F4
:100930000002EF20005485476316F50013050002FE
:10094000EF20005513050004EF20A05285476316E1
:10095000F50013050004EF20A05313050008EF2055
:10096000405185476316F50013050008EF204052FB
:1009700013050010EF20E04F85476316F5001305BF
:100980000010EF20E05013050020EF20804E854737
:100990006316F50013050020EF20804F7300203010
:1009A00041111305004022C6EF20A04C8547631675
:1009B000F50013050040EF20A04D056413050480E9
:1009C000EF20204B85476316F50013050480EF20C8
:1009D000204C0565EF20E04985476315F500056566
:1009E000EF20004B0965EF20C04885476315F500EF
:1009F0000965EF20E0491165EF20A04785476315A1
:100A0000F5001165EF20C0482165EF20804685473D
:100A10006315F5002165EF20A047324441017300C2
:100A20002030411122C6373401408545130504C0EA
:100A3000EF20B04D11C58545130504C0EF20B04E21
:100A40003244410173002030854537050040EF20D6
:100A5000D04B11C5854537050040EF20D04C7300C1
:100A60002030411122C6370400408545130504405B
:100A7000EF20B04911C5854513050440EF20B04A69
:100A80003244410173002030411122C63714004026
:100A9000854513050480EF20504711C58545130592
:100AA0000480EF205048324441017300203041114E
:100AB00022C6371400408545130504C0EF20F044DA
:100AC00011C58545130504C0EF20F04532444101AE
:100AD00073002030854537150040EF20104311C5C5
:100AE000854537150040EF20104473002030411138
:100AF00022C637140040854513050440EF20F0401E
:100B000011C5854513050440EF20F04132444101F1
:100B100073002030411122C637340140854513054A
:100B20000440EF20903E11C5854513050440EF2099
:100B3000903F3244410173002030411122C63754A6
:100B400001408545130504C0EF20303C11C58545A3
:100B5000130504C0EF20303D3244410173002030C2
:100B6000854537550140EF20503A11C58545375529
:100B70000140EF20503B73002030411106C622C4D3
:100B800079340145C12001457528ED20FD28B707BE
:100B9000002083C7171089CFB775000001469385E1
:100BA00045171385C185EF5080531385C18571208A
:100BB000EF10707EEFF08FF4B707002083C70710A7
:100BC00099C3EFF06FEFEFF02FEEEFF08FFF2313ED
:100BD00000000290411122C403C7318306C6994721
:100BE0002A86138431832E8563F5E7008547230029
:100BF000F4008345040011EDC947B385F502A92E21
:100C000083470400B24085072300F40022444101D9
:100C1000828085476393F5008945FD15C947B385F3
:100C2000F5022244B2400E054101C205C1812DA644
:100C30002A8681451305C00605A62A869305600706
:100C4000014519AE930700192316F5009307000517
:100C50002317F5009307C0032318F50085679387D2
:100C600007FA231305002314050023150500231993
:100C7000F5008280B7F700E023A007008146014716
:100C800094C7D8C7054798C38280B7F700E0884764
:100C9000CC4703A681818967938787323356F60252
:100CA0004111814606C6EF30E04DB24041018280DD
:100CB000411106C622C415E537C40200A14601460B
:100CC000930504F213053020EF10003DA1460146C4
:100CD000930504F2130520202244B24041016F1015
:100CE000A03B85476313F50237C4020081460146E5
:100CF000930504F213051010EF10003A81460146E7
:100D0000930504F213050010C1BFB2402244410113
:100D100082804111A16722C403A4078026C24AC071
:100D200006C6C14404C844C813090008232A240184
:100D3000AA850545EF1000762328240104C844C87D
:100D4000B2402244924402494101828083A74180FB
:100D5000011122CC26CA4AC84EC606CEAA89AE8444
:100D600032893684A1EF1305A002653793854903C4
:100D7000C205C1810545EF10A07393054903C20563
:100D8000C1810545EF10C0721305B0025937938534
:100D90008402C205C1810545EF108071930584026C
:100DA000C2050545C181EF10A0706244F240D244F3
:100DB0004249B2491305C0020561A1BF0547639FBF
:100DC000E7001305A002B13793855903C205C1811D
:100DD0000545EF10E06D9305590355B7930985025A
:100DE00013098602C2094209094793D90901135917
:100DF00009011305A0026398E702213FCE8505454E
:100E0000EF10006BCA850545EF10806A1305B0022C
:100E1000093793855403C205C1810545EF10406928
:100E200093055403B5BFF535CE850545EF104068F1
:100E3000CA850545EF10C0671305B002D93D9385FB
:100E40004403C205C1810545EF1080669305440344
:100E500081BF03C6A18083C6B180411122C433047F
:100E6000D602FD167D16C2064206C1824182814528
:100E7000014526C206C6B7040020C93D11E4B240B0
:100E8000224492444101828083D5241005457D147B
:100E9000EF100062E5B723A2A18085461387A180E9
:100EA0009387B18063EAA600930670F82300D70009
:100EB00041572380E7008280C1562300D7001307E3
:100EC00070F8C5BF79714ECE9D6793097500120603
:100ED00093874720C20922D44AD056CA5AC85EC650
:100EE00062C466C206D626D252CCAA8AAE8B33041E
:100EF000F600014993D90901370C0020414BB38614
:100F00002B01C206C1824E86B68556858135034ABD
:100F100004E0A14493771A008DCF83D58180FD141E
:100F2000054593F4F40FEF10A058135A1A00FDF082
:100F300005090504E31569FDB25022549254025983
:100F4000F249624AD24A424BB24B224C924C456122
:100F5000828083552C10E1B7011122CC26CA4AC8E1
:100F60004EC606CE2A89AE89B2840144B387840076
:100F70000386070001EAF2406244D2444249B24982
:100F800005618280131534004A9542050504CE851B
:100F900041814204053F4180D1BF397162CC6AC8AA
:100FA000368C328D9306F8FF1386F7FFAE962A969D
:100FB000C206420656D2C1824182C16A26DA4AD8A6
:100FC0004ED652D466CA6EC606DE22DC5AD05ECE3B
:100FD000BA8D3E8A4289C68C81498D3B8144FD1A77
:100FE00063E12403F2506254D2544259B259225A56
:100FF000925A025BF24B624CD24C424DB24D21618F
:10100000828033D42903814B014B330484036A94D7
:1010100063654B018504EE99E1B7B3D74B03A29703
:1010200083C7070063920C02C207C18393D53700C0
:1010300089831397B5009607D98FDD8D0545EF108D
:101040002047050BE29BE9B7D685E3E9FCFE814525
:10105000F5B703A8818141111307F00F814793066B
:10106000F00F1306200293050002054506C622C4B0
:1010700026C24AC0EF100032C1460146854513051D
:101080007006EF00101FC14601468545130570022A
:10109000EF00301EC1460146854513054006EF00AE
:1010A000501D8545C146054613050006EF00701C1E
:1010B00013844180084013090008F13B9D6783A415
:1010C000877F1305800C23AA2401EF00006A130513
:1010D000400623A82401EF00406913056003153979
:1010E00013054006EF0060681C40814589CF054725
:1010F0009305000C6389E7000947930500076384A3
:10110000E7009305000A0545EF10C0381305A0035A
:10111000093195450545EF10E0371305200BD53E05
:10112000B1450545EF100037B1450545EF10803654
:1011300081450545EF100036930530030545EF1056
:101140006035930530030545EF10C0341305700B6F
:10115000C936930550030545EF10C0331305B00B96
:101160004D3E930570030545EF10C0321305000C8A
:101170004D369305C0020545EF10C0311305200C14
:10118000493E85450545EF10E0301305300C5136DA
:10119000C9450545EF1000301305400CEFF07FB74F
:1011A000930500020545EF10E02E1305600CEFF0EB
:1011B0005FB6BD450545EF10E02D1305000DEFF0BE
:1011C0005FB59305400A0545EF10C02C9305100A42
:1011D0000545EF10202C1305000EEFF09FB393058B
:1011E000000D0545EF10002B91450545EF10802AB5
:1011F000B5450545EF10002AC5450545EF10802986
:10120000CD450545EF1000299305B0020545EF10C7
:1012100060289305F0030545EF10C02793054005AE
:101220000545EF1020279305C0040545EF108026E3
:10123000E1450545EF100026B5450545EF10802531
:10124000AD450545EF100025FD450545EF1080240F
:10125000930530020545EF10E0231305100EEFF063
:101260005FAB9305000D0545EF10C0229145054584
:10127000EF104022B1450545EF10C021C545054599
:10128000EF104021CD450545EF10C0209305C00269
:101290000545EF1020209305F0030545EF10801F52
:1012A000930540040545EF10E01E93051005054524
:1012B000EF10401E9305F0020545EF10A01DFD45FF
:1012C0000545EF10201DFD450545EF10A01C9305B9
:1012D00000020545EF10001C930530020545EF1094
:1012E000601B13051002EFF0DFA24545EFF07FA26F
:1012F000130580079D2913059002EFF09FA122445A
:10130000B2409244024941016FF0BFB4797126D2D4
:101310004ECE52CCB70400207D7A22D456CA5AC889
:1013200006D64AD0938404000144130A5A1A7D5BFE
:101330009389818383D7040011466C00139787003B
:10134000A183D98F1145231641012317F1001309F9
:101350000008EF1040259387C18383C707001387D8
:10136000C18393F7F70FA1C36313090031C483C787
:1013700019002300070003C72900A2070504D98F1D
:1013800042042391F4004180A5479104E314F4FA48
:101390000145B250225492540259F249624AD24A4B
:1013A000424B456182807D19420913590941E30F7F
:1013B00069FB05455D2E45B70545E1BF411122C4D6
:1013C00083C7B18326C293858183BE95114506C626
:1013D000EF10802D938481839387B18311C503C758
:1013E000070005072380E70083C607000547639FC2
:1013F000E60083C604001307500A6384E6002380D6
:101400000700B24022449244410182800D46E39A93
:10141000C6FE23800700238EE182E5B7B767002070
:1014200003A7C799B7070550854698C7238AD18275
:1014300003C70700136717002380E70082808965D0
:10144000397193061005130600059385055811455B
:1014500006DE22DC26DA4AD84ED652D4EF10004BF4
:10146000014685451145EF10E016EF00C0769387E1
:10147000C18323800700593D05C1B77600001D6672
:101480009386C618130686179305B01237750000A9
:1014900013050519EF4000431384C183B7040020EE
:1014A000230004009384440223000400138984026F
:1014B000930950FA83D7040011466C08A30EF1007B
:1014C00083D724001145230E310113978700A18390
:1014D000D98F231FF100EF10000D094591047124ED
:1014E000E39A24FD930410088347040093F7F70F51
:1014F00089E7FD14C204C18085EC23000400930435
:10150000000813898183130AF00FFD5983471900DE
:1015100003472900F98F6390470395E4B7760000ED
:101520001D669386C6181306861793052013B9BF48
:101530000545252C55BFFD14C204C184E38034FF4A
:1015400005452524E1B723000400C93319C9B7763E
:1015500000001D669386C618130686179305901320
:1015600035B79D2D91473EC495473EC299473EC031
:101570009308900213088002930760021307B004D7
:101580009306900413068004A9452545952E37053A
:10159000002019661307C517B76700201305C51784
:1015A000854613060682814523AEE7982129F2502D
:1015B0006254D2544259B259225A01452161828063
:1015C000797122D44AD04ECE52CC56CA06D626D2F3
:1015D000834715003734014081452306F1008347D6
:1015E00005001309C100130AF100A306F1008347A7
:1015F0002500130504C0130404C02307F100EF20E5
:10160000C00E8965938AC55193894513A1448347C8
:101610000900FD14CE85B3D79740858B91E3D6851D
:101620000D45D92B85452285EF2000028545228571
:10163000EF20000C65DD81452285EF20E000854527
:101640002285EF20A00B81452285EF20000AE1F0E2
:101650000509E31D2AFBB250225492540259F24963
:10166000624AD24A45618280B7C5020001118146B3
:101670000146938505F20D4506CE2316010023078A
:101680000100EF007021373501408945130505C081
:10169000EF20200468002D37130540065928680004
:1016A0000537F24005618280B7170240DC433717E7
:1016B0007A0013070720C983BD8BB387E70237275A
:1016C000F40013070740F1659306100213060002A9
:1016D000938505200945BA9723A0F1846F10002354
:1016E000011126CAB754004022CC4AC84EC606CEC5
:1016F000AE893289014493840480634A2401F24014
:1017000062444A85D2444249B249056182809305C8
:1017100000042685EF2060157DD9B3878900838575
:10172000070026850504C205C181EF206013F1B7CB
:10173000828083A7818137177A0013070720B3D7E8
:10174000E702814601473385A702B7F700E023A0EF
:10175000070094C7D8C7054798C3B7F600E0984676
:10176000DC4699E3E37DE5FE828083A781810967FA
:10177000130707F4B3D7E702814601473385A70271
:10178000B7F700E023A0070094C7D8C7054798C360
:10179000B7F600E09846DC4699E3E37DE5FE8280FB
:1017A00009E5814601468145E9A40547E30BE5FECD
:1017B0000947E308E5FE0D47E305E5FE1147E302AF
:1017C000E5FE1547E30FE5FC1947E30CE5FC1D4773
:1017D000E309E5FC21476318E500814601468145A0
:1017E00013050002D1B725476318E500814601467D
:1017F0008145130510024DBF29476318E500814656
:10180000014681451305000445B72D476318E500DF
:101810008146014681451305100479B731476318A5
:10182000E50081460146814513052004B5BF3547D3
:101830006318E50081460146814513053004ADB7C4
:1018400039476318E5008146014681451305400488
:10185000A1BF3D476318E500814601468145130558
:10186000500499B78280797122D485452A84130562
:10187000002006D626D2EF10D0162285153703A7F2
:101880000184B7C70105938707D0316563E3E7009B
:10189000216537240140EF10F00013050440EF10DC
:1018A0002050B7070E003EC68A85854713050440C1
:1018B000230AF10002C002C202C402C8EF10A05203
:1018C000854513050440EF10805713050440EF10C1
:1018D0000058930404402685EF1000586DFD130551
:1018E000044037240140EF10A05713040440228520
:1018F000EF10A0576DFDB250225492544561828082
:1019000079714ECE52CC56CA328AAE8AB689014619
:1019100093068004814506D622D426D24AD046C0FA
:1019200042C23EC43AC6834401030349410303440F
:101930008103812256859306800401468145152A3C
:101940005285930680040146814525224E859306E3
:10195000800401468145312A3247930680040146BE
:101960003A8581453922A2479306800401463E8587
:101970008145012212489306800401464285814533
:10198000CD28824893068004014646858145D520AE
:101990004A859306800401468145E1282685930601
:1019A000800401468145F12022852254B250925490
:1019B0000259F249624AD24A93068004014681459F
:1019C000456145A8011122CC26CA2E84AA848545EA
:1019D000096506CE32C636C4EF10C07EB707055083
:1019E00003C70700130560058D451377F70C2380A7
:1019F000E70003C70700136727042380E70003C736
:101A000017001377970FA380E700A2463246239270
:101A1000D7002393C70084C7C0C703C71700137735
:101A2000F703A380E70003C717001377F70FA3801E
:101A3000E70003C7170013670701A380E70003C788
:101A40002700136747002381E70003C717001367C8
:101A50001700A380E70003C7070013671700238060
:101A6000E700A5226244F240D244130560050561F7
:101A70001DA29307F00F630BF50C797122D4135458
:101A8000550026D24AD04ECE52CC06D61D8893742D
:101A9000F5003689328AAE8935E085451145EF106B
:101AA00040748547B3949700C204C180231291000B
:101AB0006399F90093170901C183A18391E38D47CD
:101AC0003EC49D679387477F0A043E940040137984
:101AD000F90F4C0022854AC6EF10203C85476397DA
:101AE000F9005286A6852285EF104047B250225455
:101AF00092540259F249624A4561828085476315D2
:101B0000F4008545214561BF89476315F40085458B
:101B1000414571B78D476316F400854513050002F2
:101B2000BDBF91476316F40085451305000485BFCA
:101B300095476316F4008545130500088DB799474E
:101B4000E311F4F685451305001091BF8280935789
:101B50005500139727009D679387477FBA9798434F
:101B60009377F50005453315F50099C108CB8280C0
:101B700048CB8280135735009376C7011D67130742
:101B8000477F36971C43984785473395A700798D43
:101B90003335A0008280935755000547938707048B
:101BA0003315A7008A0737E700E0BA9788C3828019
:101BB000935755000547938707063315A7008A07F3
:101BC00037E700E0BA9788C38280B7E700E03E9528
:101BD0002300B54082808280828001112304A1000D
:101BE000280006CEA304B1002305C10036C6EF10BD
:101BF000E03FF2400561828093578500216713071B
:101C000047818A07BA9798430D890A058357C70207
:101C10003A95B385F502896793870771B3D5F502C5
:101C2000C205C1814CD9828019E5930680310146F5
:101C3000854521453DBD85476318F50093068031F4
:101C4000014685452545FDB789476318F50093068C
:101C50008031014685452945F1BF8D476318F50060
:101C600093068031014685452D45E9B7C147631983
:101C7000F5009306803101468545130590085DBF48
:101C8000C5476319F5009306803101468545130564
:101C9000B0084DB7C9476319F50093068031014676
:101CA00085451305D00879B7CD476319F50093062C
:101CB0008031014685451305E008ADBF930700104C
:101CC0006318F500930680310146854501459DB7AF
:101CD000930710106318F50093068031014685457F
:101CE000054589BF930720106318F50093068031DE
:101CF0000146854509453DBF930730106318F5003F
:101D000093068031014685450D452DB79307001197
:101D10006318F50093068031014685453D4519BF9E
:101D2000930710116319F50093068031014685452C
:101D30001305300201B7930720116319F5009306CC
:101D40008031014685451305A002EDB5930730119A
:101D50006319F50093068031014685451305B002ED
:101D6000D1BD930700206318F5009306803101462A
:101D700085451945C1B5930710206318F5009306F2
:101D80008031014685451D4575B5930720206319AF
:101D9000F50093068031014685451305000259BDC3
:101DA000930730206319F50093068031014685457D
:101DB0001305100241B5930700216319F50093063E
:101DC00080310146854513056004ADB593071021A8
:101DD0006319F500930680310146854513057004AB
:101DE00091BD930720216319F500930680310146C8
:101DF0008545130580043DBD930730216319F50027
:101E000093068031014685451305900425B5930757
:101E100000226319F50093068031014685451305BC
:101E2000400209BD930710226319F5009306803123
:101E30000146854513055002F5BB93070030631931
:101E4000F500930680310146854513056002DDB338
:101E5000930710306319F5009306803101468545DC
:101E600013057002C1BB930720306319F500930678
:101E7000803101468545130580026DBB93073030E4
:101E80006319F500930680310146854513059002DC
:101E900055B3930700316319F5009306803101466D
:101EA00085451305C00679B3930710316319F50012
:101EB00093068031014685451305D006A5BB9307DF
:101EC00020316319F50093068031014685451305DD
:101ED000E0068DB3930730316319F5009306803126
:101EE000014685451305F006B1B393070040E30BA7
:101EF000F5DC93071040E301F5DE93072040E3078C
:101F0000F5DE93073040E30DF5DE93070070E3083C
:101F1000F5EA93071070E30FF5EA93072070E306E4
:101F2000F5EC93073070E30DF5EC93070071E30ACD
:101F3000F5F093071071E301F5F293072071E308C0
:101F4000F5F2930730716319F5009306803101466D
:101F500085451305D004F9B993070580E38807D8B0
:101F6000856713871780E30DE5D8138727806318EB
:101F7000E5009306803101468545114565B9938793
:101F800037806319F50093068031014685451305B6
:101F900040044DB18567138707816319E5009306F7
:101FA0008031014685451305900669B11387178175
:101FB0006319E50093068031014685451305B00697
:101FC00095B913872781E305E5EE13873781E3078A
:101FD000E5F013870790E30CE5E813871790E30318
:101FE000E5EA138727906319E500930680310146DF
:101FF0008545130530043DB9138737906319E50013
:1020000093068031014685451305B00425B1138739
:1020100007916319E5009306803101468545130554
:10202000100609B9938717916319F500930680315B
:102030000146854513053006F5BE85671387279150
:102040006319E50093068031014685451305500666
:10205000D5B6138737916319E500930680310146A1
:10206000854513057006F9B613870792E30EE5CA96
:1020700013871792E301E5DA13872792E308E5DA7D
:10208000938737926319F5009306803101468545A1
:102090001305F00445B68280397106DE22DC26DAAB
:1020A0002A844AD84ED62EC632C43689EFF0DFB71E
:1020B000B24583A7818122469359840033D7B70262
:1020C0004E85418393061700B386B602B3D7D70275
:1020D00093940701C180B384C40209661306067194
:1020E000FD1793950701C181B3D4C4023A86D52E5A
:1020F00085450545EF10E00E935744000547C2049F
:10210000C1806394E7063705160085451305050C65
:10211000EF007065C1672167938707061395290053
:10212000130747813EC83A9593773400231B9100EB
:10213000231C0100231E01000041E9E70C08228551
:10214000EF10402385452285EF10C051CA852285B6
:10215000EF10A05222858545EF10004FF2506254D7
:10216000D2544259B2592161828045476398E700B1
:102170003705180085451305053059BF13071002B0
:102180006398E70037151A008545130505C049B760
:10219000130720026398E70037151A0085451305D9
:1021A0000580BDB7130710036395E70085450565F6
:1021B00085B7130710076399E700370701405C4FA5
:1021C00093E747005CCFB9B7130710086398E7009F
:1021D000370701405C4F93E70701EDB7130710097C
:1021E0006398E700370701405C4F93E70704D9BFC6
:1021F00013072009E390E7F2370701405C4F93E7AC
:102200000702C9B70547639FE7000C082285EF1056
:10221000602022858545EF10E044CA852285EF10B5
:10222000E0460DBF09470C082285639DE700EF10CB
:10223000202B22858545EF10E042CA852285EF10CC
:10224000804609BFEF10603622858545EF1080413A
:10225000CA852285EF104046F5BD411122C426C231
:102260004AC006C6AE843284368921E9930680319D
:10227000054685451545EFF0CFFF89476393F40880
:1022800093068031054685451D45EFF08FFE854755
:10229000631DF40A93068031054681451945EFF028
:1022A0004FFD2244B24092444A85024993060031D0
:1022B0000146854541016FF0CFFBC1476319F50029
:1022C0009306803105468545130530026DB79307A7
:1022D00000026319F5009306803105468545130514
:1022E000D00251BF93070003E30CF5FC93070004F1
:1022F000E315F5F893068031054685451305A004DE
:102300009DBFC9476399F400930680310546854512
:10231000130550029DBF930720026399F4009306B2
:102320008031054685451305F00285B793072003E4
:10233000E38CF4FC93072004E39BF4F493068031D0
:10234000054685451305C00489B7C5476319F400E0
:1023500093068031054681451305400289B79307EE
:1023600010026319F4009306803105468145130578
:10237000E00235B7930710046319F4009306803127
:10238000054681451305B00419BF93071003E31AEE
:10239000F4F07DBF397122DC26DA4AD84ED652D409
:1023A00056D25AD006DE2A842E89328AB68A3A8BD1
:1023B000BE84C28949E5056585450505EF00706263
:1023C000DA865686D2854A85493DB70704013EC65E
:1023D0002318010085476388F408C9C00947638949
:1023E000E4088D466389D40893070020231BF1007D
:1023F0009D47231EF100A167938787800A043E94BE
:1024000000408E096C002285231C3101231D010030
:10241000EF00D062C1476315F90685450545EF0019
:10242000903422858545EF001067F2506254D254F3
:102430004259B259225A925A025B216182808547E1
:102440006318F500854511650505EF00705B8DBFCC
:102450008947E317F5F685452165FDB72319010086
:10246000231A010051B723190100231A9100ADBFAF
:1024700023199100F5B72319E100231AF100ADB734
:1024800093070004E31FF9F837152000854513056D
:10249000051071B7A1670A0593878780AA979843AB
:1024A0002316B7008357870093F70708E5FF82805C
:1024B000A1670A0593878780AA979C4313D7850055
:1024C0002396E70003D787001377070865FF93F586
:1024D000F50F2396B70003D787001377070865FF2A
:1024E0008280011122CC26CA4AC806CE2A842E89AF
:1024F000B28401E90565854513050580EF00704E3E
:1025000039A08547631EF5028545EF00704FA1672E
:10251000938747810A043E9408404C00231421010C
:10252000231291002315010023130100230601004B
:10253000EF005058F2406244D24442490561828023
:102540008947E303F5FC8D476315F5008545114583
:102550006DBF91476315F500854521457DB79D47C2
:102560006315F5008545096551BFA1476316F50060
:1025700085453705080059B7A547E31AF5F885459D
:1025800037051000A5BFA1670A0593874783AA975F
:1025900098438357070093F70708E5DFC205C18119
:1025A0002312B7008280411122C426C24AC006C647
:1025B0002A892E84B384C50063189400B240224453
:1025C000924402494101828005048345F4FF4A8513
:1025D0005D3FDDB7411122C426C206C64AC02A8427
:1025E000AE841DEEA16713172500938747832E86BF
:1025F000BA97930550528843EF10202393870182A6
:102600003E9403450400B7E700E0AA972380074003
:102610008DC42244B2409244024941016FF0AFD7C9
:1026200085476313F602A167131725009387478335
:102630002E86BA97930570727DBF2244B2409244B1
:10264000024941016FF0CFD689476319F604A167AB
:102650001317250093874783BA9703A907000546F8
:10266000930550524A85EF10401C13045403A6866C
:10267000228501468145EFF04FD64A8505469305F0
:102680007072EF10801A22852244B2400249A68659
:1026900092440546814541016FF02FD4B240224457
:1026A0009244024941018280A1670A0593874783CA
:1026B000AA9798438357070093F7070299C7835750
:1026C000470005452380F500828001458280411145
:1026D00006C60DE185476398F522E146014625458A
:1026E000EFF02FB99146014681452945B24041019D
:1026F0006FF02FB88947631FF500E1460146854515
:1027000013056002EFF0EFB69146014681451305CF
:102710007002E9BFC147631DF500E14601468545EA
:102720000945EFF00FB59146014681450D457DBF46
:10273000C947631FF500E14601468545130550066C
:10274000EFF02FB39146014681451305600679BF2E
:1027500093070002631FF500E14601468545130516
:10276000A002EFF00FB19146014681451305B0027A
:10277000B5BF93072002631FF500E146014685457A
:102780001305A004EFF0EFAE914601468145130515
:10279000B004A9BF930740026310F502E146014669
:1027A000854513058006EFF0CFAC93068004014603
:1027B0008145130590061DBF93070004E30FF5FA4A
:1027C00093072004631FF500E14601468545130584
:1027D0000002EFF00FAA9146014681451305100251
:1027E00031B793070005631FF500E14601468545B3
:1027F0001305C004EFF0EFA791460146814513058C
:102800002006EDB593072005631FF500E14601465C
:10281000854513058008EFF0CFA591460146814517
:1028200013059008E1B5930700066310F502E14631
:102830000146854513050004EFF0AFA3930680041D
:10284000014681451305100455B593072006631F03
:10285000F500E146014685451305A008EFF06FA19C
:102860009146014681451305B00849B59307000715
:10287000631FF500E1460146854513052004EFF08E
:102880004F9F9146014681451305300485B5930756
:1028900020076317F500E146014685451945C5B790
:1028A00093074007631FF500E14601468545130580
:1028B000C008EFF00F9C9146014681451305D008F2
:1028C00035B593070008631FF500E14601468545CD
:1028D00013054004EFF0EF99914601468145130539
:1028E000500429B593072008631FF500E14601460F
:1028F00085451305E008EFF0CF97914601468145E5
:102900001305F008E5B3B24041018280797122D409
:102910004ECE2A84AE890545854526D24AD006D6B4
:10292000B2843689EF00F00B8947639EF4048D472B
:102930006315F900854511453D25631C0412854545
:102940001165EF00100ACA852685EFF05FD8B7073A
:102950000C003EC4A167938747830A043E9400405D
:102960008A854EC0228502C223160100EF00905CCA
:1029700022858545EF00B069B25022549254025925
:10298000F24945618280C9476398F400CD47E31658
:10299000F9FA854521454DB793072002639BF40062
:1029A00093073002E31BF9F837051400854541050C
:1029B00061B793074002639CF40093075002E31E43
:1029C000F9F637051400854513050503B5B79307D8
:1029D00020046399F40093073004E310F9F6854569
:1029E000056599BF93072005639BF40093073005A5
:1029F000E315F9F4370520008545050535BF930734
:102A00002006639CF40093073006E318F9F23715AB
:102A1000008085451305058005B793072007639E51
:102A2000F40093073007E31AF9F0370701405C4FD1
:102A3000B7064000D58F5CCF09B793074007639C6A
:102A4000F40093075007E31AF9EE370701405C4F93
:102A5000B7068000C5B793072008E390F4EE93070C
:102A60003008E31CF9EC370701405C4FB706000261
:102A7000D1B785476318F400854537050200EF009C
:102A80002078D1B589476316F400854537050400E1
:102A9000FDB78D476316F400854537050800C5B7B7
:102AA00091476316F400854537051000C9BF954767
:102AB0006316F400854513050004D1B799476316E2
:102AC000F4008545130500085DBF9D47E31DF4E64E
:102AD00085451305001065B78547631AF500930611
:102AE000003105468545130520086FE09FF88947AA
:102AF0006319F50093060031054685451305300836
:102B0000EDB78280411122C406C685472A8463142A
:102B1000F502930680340546814513050004EFE075
:102B20005FF599476315F4069306803405468145A1
:102B30001305500425A089476319F50093068034D6
:102B40000546814513051004D9BF8D47631DF50067
:102B50009306803405468145130520042244B24083
:102B600041016FE01FF191476319F500930680342E
:102B70000546814513053004D5B79547E313F5FAAB
:102B8000930680340546814513054004C1BFB24019
:102B900022444101828041111305000406C622C46B
:102BA000EFE05FFD11ED054413050004EFE09FFC2D
:102BB000E31C85FE8547B24022443E854101828068
:102BC00013051004EFE01FFB11E905441305100481
:102BD000EFE05FFAE31C85FE8947F1BF130520048F
:102BE000EFE05FF911E9054413052004EFE09FF8D9
:102BF000E31C85FE8D47C1B713053004EFE09FF756
:102C000011E9054413053004EFE0DFF6E31C85FE0F
:102C1000914755B713054004EFE0DFF511E905448E
:102C200013054004EFE01FF5E31C85FE954761B7EF
:102C300013055004EFE01FF49307F00F2DFD05443A
:102C400013055004EFE01FF3E31C85FE9947A5B779
:102C500001A001A001A001A001A001A001A001A06C
:102C600001A001A001A001A001A001A001A001A05C
:102C700001A001A001A001A001A001A001A001A04C
:102C800001A001A001A001A001A001A001A001A03C
:102C900001A001A001A001A001A001A001A001A02C
:102CA00001A001A001A001A001A001A001A001A01C
:102CB00001A001A001A001A001A001A001A001A00C
:102CC00001A001A001A001A001A001A001A001A0FC
:102CD00001A001A001A001A001A001A001A001A0EC
:102CE00001A001A001A001A001A001A001A001A0DC
:102CF00001A001A001A001A001A001A001A001A0CC
:102D000001A001A001A001A001A001A001A0739059
:102D1000123497E1FF1F9381E1BE17510020130188
:102D2000612E175500001305E5EA97D5FF1F93851F
:102D3000652D1386018363FAC5008322050023A055
:102D4000550011059105E3EAC5FE1385018397350A
:102D500000209385A5DB6377B500232005001105CE
:102D6000E36DB5FEFD42739002BCFD42739042805C
:102D7000B78200009382828873A0023097D2FFFF4F
:102D80009382C22B93E2320073905230EF10602D89
:102D900097E2FFFF9382A2DE73901234730020301B
:102DA0004111B727014006C693870740631CF50011
:102DB000854513050020A521814513050020B2405B
:102DC0004101B1A9B737014093870780631AF50025
:102DD000854513050040A121814513050040C5B775
:102DE000B240410182805C413707F1E01307F7EF01
:102DF000944D7D8F9C41D58FD44DD58FD441A20663
:102E0000D58FD98F5CC11C4537F7F1FF1307D77FEA
:102E1000D4457D8F9C49D58F94458606D58FD98F13
:102E20001CC55C55370710FF7D177D8F83C7450193
:102E3000FD1793F7F70FD207D98F5CD582801C4519
:102E400089C593E717001CC58280F99BEDBF1C451F
:102E500093E787001CC5828008450D810589828023
:102E60001C4593E747001CC58280084509810589F8
:102E70008280B70701401387074083A70740584B5C
:102E8000698F09C77D8D3335A0008280014582801E
:102E9000B707014023AAA74082809C4513F707018A
:102EA00013F8F70001C7D8413368E80083D505005F
:102EB00013F7F50F39C318418146854E3D4F930FE7
:102EC000800293028004214E3396DE00B3F8C500E1
:102ED000631116039398260033131F011343F3FF66
:102EE0003377E300B318180133E7E800639FF70571
:102EF00050C98506E39AC6FD18C11307F00F637524
:102F0000B70454412146854E3D4F930F80029302F2
:102F10008004414EB398CE0033F715016392E80266
:102F20001317260001173313EF001343F3FFB37693
:102F3000D3003317E800D98E639DF701232A1501CA
:102F40000506E319C6FD54C18280E39457FA10C9FF
:102F50004DB7E39757FE23281501DDB719C20CC9F9
:102F600082804CC98280B707014063550504D44F65
:102F7000B7073000131705013376F5004183631D51
:102F8000F602370600F17D1637080140B3F7C60098
:102F900083264800758E2322C80099C59356550193
:102FA00092063317D700D98F37070140635E0502B9
:102FB0005CCF8280D4436DBF9317B50063D0070206
:102FC0009357050113F6F7008D47B397C70093C7D2
:102FD000F7FFF58FB706000FD58FC1B7935755018F
:102FE0009207B317F700E5B75CC3828093874184EB
:102FF00094430347050089E683472500920731A8DB
:10300000944305466391C604834725000346150093
:1030100092076314D60093E707F8B7E600E093F74A
:10302000F70FBA962380F64085469357570033979B
:10303000E6005441ADC6938707048A07B7E600E06F
:10304000B69798C382808C4389466393D5028346A2
:103050001500834725006365D6008A06B69779BFB9
:103060009386E6038A06B69793F7F70F920765B73C
:1030700090438D46631ED600834615008347250086
:103080006364D6008606D9BF9386C6078606E1BF6D
:1030900094439147E39AF6F88347150085B79387E1
:1030A000070661BFB7160240DC4251777D17F98FE2
:1030B0005D8DC8C28280371702405C439146B18B58
:1030C0006385D700A1466386D706B7177A00938732
:1030D00007201CC1371602405C4237070020130747
:1030E000C7049183BD8BBA9783C607001C41B3D731
:1030F000D7005CC15442A1829D8ABA9683C606005D
:10310000B3D6D70014C55442AD829D8A3697034783
:103110000700B3D7E7005CC5584239839376370080
:103120001387C180369703470700B3D7E7021CC94E
:1031300082805C4354434167C983F98E37F7FF1F90
:103140000327C770BD8B8907131617016348060054
:10315000454601476392C702C94739A809476389B1
:10316000E7023D476388E70241476388E702454637
:1031700001476393C700C14785E6B746024083A66F
:103180000680C18A8DC6B7167A009386062025A0D0
:103190000147D9B70547B547C5B70147BD47E9BF9F
:1031A000B7160240D4421396E600E35E06FCB7165B
:1031B0003D0093860690B387D7021CC101DF1C41F6
:1031C000858301BF99C5371702405C4B5D8D48CBA5
:1031D0008280B7170240D84B1345F5FF798DC8CBD5
:1031E000828099C5371702401C4F5D8D08CF8280C1
:1031F000B7170240984F1345F5FF798D88CF82802D
:1032000099C5371702405C4F5D8D48CF8280B71754
:103210000240D84F1345F5FF798DC8CF828099C5FC
:10322000371702405C475D8D48C78280B717024060
:10323000D8471345F5FF798DC8C78280035705002D
:103240008D679387070483D625007D8F83D705007C
:10325000D58F83D64500D58F83D66500D58F83D68D
:103260008500D58F83D6A500D58F83D6C500D58F91
:1032700083D6E500D58FD98F2310F5000357C501FC
:10328000FD779387F77FF98F231EF50083D705011C
:103290002318F50082808357050091C593E7070442
:1032A0002310F5008280C207C18393F7F7FBC207A2
:1032B000C183FDB78357050037370140930607C028
:1032C000C207C1836300D504B7060040630CD50272
:1032D000938606406308D502B71600401386068021
:1032E0006302C502938606C0630ED500130707402C
:1032F000630AE50037570140930607C06304D50011
:103300006317E50003D7250093F7F7F8D98F371730
:103310000040630DE500130707406309E50093F7DC
:10332000F7CF03D76500C207C183D98F2310F500FB
:1033300083D745002316F50283D705002314F50231
:10334000B7370140138707C0630EE5009387074036
:10335000630AF500B7570140138707C06304E5000F
:103360006316F50083C785002318F5028547231AE5
:10337000F50082808357050203D6050003D8250097
:10338000C207C183F99BC207C1832310F50283578B
:1033900005028356450003578501C207C1834207D2
:1033A00041831377C7F8518F03D68500F59BC2067A
:1033B00033660601D18F37360140130806C0C1823B
:1033C000630E050113060640630AC5003756014027
:1033D000130806C0630405016313C50203D6A500E4
:1033E000DD9B03D8E500D18F03D64500ED9B93F616
:1033F000F6CFD18F03D6C50033660601D18E2312D6
:10340000D500231CE50003D76500231AE50223102D
:10341000F50282808357050265771307F7CFC2074D
:10342000C183BD9BC207C1832310F50283570502E8
:103430008356450003D88500C207139606018356BC
:103440008501C18393F7F7FD758F83D6050041820F
:10345000A206558F83D6250042074183B3E60601B5
:103460009206D58FB7360140C207138806C0C183C4
:10347000630E050193860640630AD500B7560140E6
:10348000138806C0630405016311D50483D6A50023
:1034900093F7F7F703D8C5009206D58F83D645007A
:1034A000C207C183920693F7F7FBD58FFD7693860B
:1034B000F63FF18E03D6E500C207C18333660601ED
:1034C0000A06D18E1396060141822312C500231CE1
:1034D000E50003D76500231CE5022310F502828076
:1034E0008357050203D88500C207C18393F7F7EF1E
:1034F000C207C1832310F502835705028356450096
:103500000357C501C20713960601420783D605007B
:1035100041831377C7F8558F83D62500C18393F76E
:10352000F7DFB3E60601A206D58FB7360140C20722
:10353000138806C04182C183630E0501938606404D
:10354000630AD500B7560140138806C0630405011D
:103550006312D504FD769386F67FF58F83D6A5009A
:1035600003D8C500A206D58F83D64500C207C18304
:10357000A20693F7F7BFD58FF576FD16F18E03D629
:10358000E500C207C183336606011206D18E139689
:10359000060141822312C500231EE50003D7650002
:1035A000231EE5022310F502828003570502FD77F2
:1035B000FD17F98F2310F5020358050283564500C5
:1035C0008357C50165771396060183D60500130757
:1035D000F7CF7D8FF977A206FD17558FB3F7070157
:1035E00083D6250003D8850042074182B3E6060151
:1035F000B206D58FB7360140C207138806C0418393
:10360000C183630E050193860640630AD500B75651
:103610000140138806C063040501631CD500F176E0
:10362000FD16F18E03D6C5001A06D18E139606013B
:1036300041822312C500231EE50003D76500231035
:10364000E5042310F50282808357050091C593E7B6
:1036500017002310F5008280C207C183F99BC207BF
:10366000C183C5BF8357450491C52167D98F2312F4
:10367000F5048280C607C583DDBF83578501C20775
:10368000C183DD9BDD8D231CB5008280035785013E
:10369000FD779387F77FF98FA205CD8FC207C1838E
:1036A000231CF50082808357C501C207C183DD9BBF
:1036B000DD8D231EB50082800357C501FD779387FA
:1036C000F77FF98FA205CD8FC207C183231EF500B6
:1036D000828003570502F977FD17F98FB205CD8F68
:1036E000C207C1832310F50282802312B5028280B3
:1036F000035505016D8D3335A000828093C5F5FF1C
:10370000C205C1812318B500828083570501035586
:10371000C500ED8F4205418189C76D8D3335A0000D
:1037200082800145828093C5F5FFC205C1812318BF
:10373000B500828083560501F577FD17F58F83D696
:103740006500397122DC06DED58F03D7C50023184A
:10375000F5008356C500FD779387379FF58F83D695
:1037600045002A842EC6D58F83D68500D58F83D673
:10377000A500D58F2316F50083574501C207C183E5
:1037800093F7F7CFD98F231AF5006808EFF0BF92AF
:10379000B747014093870780B245631EF404A257E0
:1037A0008356C4006547B387E702C206C1869841C5
:1037B00063D5060406070356C4004206B3D7E702E2
:1037C000130740064186B3D6E702B3F7E702920635
:1037D000635706028E0793872703B3D7E70213F7D1
:1037E0007700B367D700C207C1832314F400F250F7
:1037F000625421618280925765B70A076DBF9207B4
:1038000093872703B3D7E702BD8BD58FE9BF81C963
:103810008357C5000967D98F2316F50082800357A7
:10382000C500F977FD17F98FC5BF13F7F50F854769
:103830001583B395B7006319F7009307C500984344
:1038400001CED98D8CC38280894693074501E31848
:10385000D7FE93070501E5B793C5F5FFF98DDDB7F1
:1038600093F5F51F2312B5008280035505006D8D79
:103870003335A000828013F7F50F85461583B39783
:10388000B6006313D7020357C500F98F035705002D
:1038900001454207418381CB0545A181B315B500A0
:1038A0006D8F3335E000828089466315D70003575A
:1038B0000501E1BF03574501C9BFA1818547B39702
:1038C000B70093C7F7FFC207C1832310F5008280BA
:1038D000B7070050239AA70203C767031377C70FE0
:1038E000238BE7028280B7070050239CA70203C7FF
:1038F000A7031377C70F238DE702828081473766BE
:10390000002013F7F70F6363A700D9B7032706B0AA
:103910003E9783460700850793C6F6FF2300D7042A
:10392000CDB781473766002013F7F70F6363A70011
:103930005DBF0327C6A23E9783460700850793C64F
:10394000F6FF2300D704CDB7B707005003C76700C1
:103950001377F70F937627006384066C011122CE4C
:1039600026CC4ACA4EC852C656C403C7770093062F
:10397000000213770703630ED74E1306000363029A
:10398000C7046316072403C7770005461377F703B8
:103990006306C766630C075C8946631AD72203C7B0
:1039A0007700137707046304072203C7B70313479D
:1039B0004700A38DE70288471375F50FEFF07FF6F8
:1039C00039A419472389E7021147A389E702B7679A
:1039D000002083A407A33764002083C7740003C7B3
:1039E0006400A207D98F2312F4A203C71400B7679B
:1039F00000202383E7A203CA040013770A066300AA
:103A0000071003C767A21377070219CF83C767A2FE
:103A10001307100293F7F70F638AE70013072002DA
:103A20006384E700639ED7180149A1A093870181B1
:103A3000B769002023A4F9A2835744A21D47214956
:103A40006366F700035944A21379F90F4A869385F8
:103A500001812685EF10106D835744A2B38727415B
:103A6000C207C1832312F4A283A789A2CA9723A401
:103A7000F9A2835744A24209135909016374F9005A
:103A8000231224A39387818403D707009D46A14472
:103A900063E6E60083D4070093F4F40FB7690020CF
:103AA00003A989A2376500202686CA85130545AB80
:103AB000CA94EF10306723A499A2620A135A8A416C
:103AC000814763520A02035744A2A14763E6E70015
:103AD000835744A293F7F70F035744A21D8F420761
:103AE00041832312E4A2C20737070050C183231881
:103AF000F70291472309F702A309F702C9A883C770
:103B000067A22D4793F7F70F636CF70A21678A07BF
:103B100013074785BA979C43828783C7340003C73E
:103B200024008D46A207D98F13D78700B7690020DC
:103B30006306D70C63ECE6008547630BF702894701
:103B40006305F70A1309F00F814715A89D4763091C
:103B5000F71093072002630DF70E9947E314F7FE61
:103B6000A1679387479223A4F9A20149A94701A815
:103B7000A1679387878C23A4F9A20149C9470357FA
:103B800044A2C207C18363F4E7002312F4A283575F
:103B900044A21D47A14A6366F700835A44A293FAE0
:103BA000FA0F83A589A256862685EF10B05783A702
:103BB00089A2BE9A23A459A39307F00FE31FF9EE3D
:103BC000B70700501D472389E702A389E702B7071B
:103BD000005009472383E7007244E2445249C24936
:103BE000324AA24A056173002030A1679387478853
:103BF00023A4F9A201499307300451B793F7F70FB3
:103C000085466387D70291CF8946638BD702E39BB2
:103C1000E7F2A1679387C79023A4F9A20149D94786
:103C2000B9BF9387818223A4F9A20149914781BF3B
:103C3000A1679387C78D23A4F9A20149B94781B72A
:103C4000A1679387C78E23A4F9A20149B14705BF95
:103C5000A1679387878F23A4F9A20149D14705B7AC
:103C600083C7718193F7F70FE39E07EC37090020B4
:103C70001309C905A165130610049385658813050A
:103C80002900EF10304A23A429A3ADB783C724002D
:103C90002312F4A21DB5B767002083C7079A2380BB
:103CA000F400035744A28547E3E4E7FE39B503C7B0
:103CB0002400B76700202380E79A01B51377FA0143
:103CC0008947E31FF7EE83C744006383E704636E0D
:103CD000F7000547E396E7EE370700508347770381
:103CE00093F7870FA30BF702C9BB13071008638A6A
:103CF000E70213072008E395E7EC370700508347F6
:103D0000A70393F7870F93E72700230DF70275B3F7
:103D1000370700508347B70393F7870FA30DF702C8
:103D200069BB370700508347670393F7870F93E713
:103D30002700230BF70251B3B767002003C747AB37
:103D40007D8B19EB938747AB83D727000547E39912
:103D5000E7E62385F18495B38946E313D7E6938795
:103D600047AB83D62700E39D06E483C747006385FE
:103D7000E7046360F7020547E394E7E43707005080
:103D80008347770393F7C70FA30BF70293E7370037
:103D900091BF13071008638CE70213072008E39113
:103DA000E7E2370700508347A70393F7C70F230DB8
:103DB000F70293E7370091BF370700508347B703F7
:103DC00093F7C70FA30DF70293E7370081BF3707BB
:103DD00000508347670393F7C70F230BF70293E75E
:103DE000370081BF238004006DBDB7670020238AA0
:103DF00007AA9387818483D607000547E37FD7CA44
:103E00002390E7005DB9B7670020138747AB0357DE
:103E10004700239A07AA930610086313D7023707AF
:103E20000050034767030D8B8D466315D700054788
:103E3000238AE7AA9387818483D6070009477DBF39
:103E400085466317D7003707005003477703E1BF64
:103E5000930620086317D700370700500347A703CE
:103E6000D9B78946E318D7FC370700500347B70393
:103E70005DBF83C677001306100293F6F603638BCB
:103E8000C60A130620026384C60CE392E6D43767A1
:103E90000020034767A295461377F70F6306D706FE
:103EA00099466316D708B764002083D744A21D47FC
:103EB00021446366F70003D444A21374F40F3769F6
:103EC0000020B767002003A507A3832589A22286C7
:103ED000EF10502583D744A2131704014183998F13
:103EE000C207C1832392F4A2832789A23E9423248C
:103EF00089A2B70700502398E70203C72703134797
:103F000047002389E702E1B103C73700B766002005
:103F100083D646A213770708558F1377F70FA3812F
:103F2000E70009472389E702A38907024DB12398D7
:103F30000702C5BF03C767031377C70F238BE702C9
:103F400003C7670313474700238BE70249B103C741
:103F5000A70313474700238DE70203C7A70313777F
:103F6000C70F13672700238DE70295B1B7670020BD
:103F700083C767A26395F60437640020832704A3F0
:103F800083C6170003C70700558F83C62700558FC8
:103F900083C63700558F05CB83C5170003C70700BD
:103FA00037850000A205D98D03C7270013050593A7
:103FB00042074D8F93958601D98DEF20400EB707AC
:103FC00000509C4729B183C5670037850000130561
:103FD0000594EF20C00C832704A337850000130548
:103FE000059583C54700EF20800B832704A3378501
:103FF00000001305059683C55700C1B703C77700B6
:1040000013770704E30507BC03C77703134747008B
:10401000A38BE70288471375F50FEFF03F8E45BE7F
:104020009376170085CAA3810700A3890702A38B93
:104030000702A38D070209472389E702238BE702C2
:10404000238DE70203C76700136717002383E70088
:104050007300203093764700F5DA03C75700114705
:10406000F5B7B71702409843B706FFF84111136739
:10407000170098C3D84337060200758FD8C39843FA
:10408000B706F7FEFD16758F98C39843B706FCFF79
:10409000FD16758F98C3D843B70681FFFD16758F3F
:1040A000D8C337079F0098C702C402C69843C166A9
:1040B000558F98C3B7160240130700509C42F18FEA
:1040C0003EC6A24785073EC4B24781E7A247E397B1
:1040D000E7FEB71702409C431397E7006350070AB7
:1040E00085473EC6324785476318F708B727024021
:1040F0009843B706C1FFFD161367070198C398439D
:10410000719B98C398431367270098C3B717024061
:10411000D843D8C3D843D8C3D84313670740D8C3BC
:10412000D843758FD8C337F7FF1F0327C77093167F
:104130001701D84363C60604B7063D00558FD8C3A0
:10414000371702401C43B7060001D58F1CC3B717B1
:104150000240984393166700E3DD06FED843B71686
:104160000240719BD8C3D84313672700D8C32147A7
:10417000DC42B18BE39EE7FE4101828002C69DB71F
:10418000C1666DBFB687B2882A832E88639D0614E8
:1041900063F9C50A4167636EE61AB70700016363F6
:1041A000F63493568601E147174700001307C7848A
:1041B000369703470700BA97130700021D8F19CBE4
:1041C0003398E500B357F500B318E60033E807016C
:1041D0003313E50013D608013355C802939608013E
:1041E000C182935703013377C802B385A602420701
:1041F0003368F700637AB80046989307F5FF636465
:1042000018016367B8303E853308B8403357C80299
:104210004203135303013378C802B386E60242080F
:1042200033686800637BD80046989307F7FF63659F
:10423000180179176363D8003E874205598D81457F
:10424000828001E60547B358C702416763EAE80E7A
:10425000B707000163ECF82893D68801E1471737C8
:10426000000013076779369783460700BE969307C9
:104270000002958FE5EB939E08013387154113DF0C
:10428000080193DE0E018545935703013355E7037B
:104290003377E703B306D5034207D98F63FAD70014
:1042A000C6971307F5FF63E4170163E6D7263A853F
:1042B000958F33D7E703420313530301B3F7E703A3
:1042C000B30ED703C207B3E7670063FBD701C697F6
:1042D0009306F7FF63E51701791763E3D701368784
:1042E0004205598D828063E2D504C16763E2F6041A
:1042F000B707000163E4F61E13D7860161489737BC
:1043000000009387676FBA9703C70700130E000278
:104310004297330EEE40631A0E0C63EDB61C333534
:10432000C500134515008145828081450145828085
:104330009307F00F63F3D71C13D786002148C1B74A
:104340001307F00FC686E37C17F193D68800A147C8
:1043500039B71307F00FB286E378C7E493568600A7
:10436000A14799B5B398F80033D6D50013DF0801FB
:10437000335EE6033397F500B356D500558F939E11
:10438000080193DE0E013313F50093550701B37650
:10439000E603B387CE03C206CD8E63FBF600C69656
:1043A0001306FEFF63E4161763F2F616791EC6962F
:1043B0009D8E33D6E60393170701C183B3F6E60358
:1043C0003385CE02139706015D8F637BA700469766
:1043D0009307F6FF636817136376A712791646975B
:1043E00093150E01098FD18D45B5B357E600B396ED
:1043F000C601DD8E33D3E50013DF0601B357E303B7
:10440000939E060193DE0E013398C5013357E500F4
:1044100033680701935808013316C6013373E30369
:10442000B385FE024203B368130163FBB800B6987C
:104430001387F7FF63EAD80C63F8B80CF917B6983E
:10444000B388B84033D7E803420813580801B3F8DB
:10445000E8033383EE02C208B3E5080163FB65009D
:10446000B6951308F7FF63EDD50863FB6508791768
:10447000B695C207416FD98F1307FFFFB3F6E70068
:1044800093D80701718F4182B38EE602B3856540F0
:10449000B386C60213D80E013387E802BA96C296D5
:1044A0003386C80263F3E6007A9693D806014696EF
:1044B00063E2C5026385C5003E8581458280416710
:1044C0007D17F98EC206B3FEEE003315C501F696D0
:1044D000E374D5FE1385F7FF8145828013D706016B
:1044E000414831BD93560601C1477DB993D60801B5
:1044F000C147B5B38145054582803687014801B57E
:10450000428785BF3E86E9BDBA871DBF328E4DB555
:1045100079154698D5B97915C69759BB397193D78E
:10452000450122DC4AD856D22A891394C50006DEFA
:1045300026DA4ED652D45AD05ECE13F5F77F3180AC
:1045400093DAF501630B05109307F07F630BF51405
:10455000135AD9010E0433648A00370A8000336A83
:104560004401131B3900930415C00144814B13D837
:1045700046011399C6001378F87FB2881359C90011
:1045800093D9F601630E08089307F07F6300F804DF
:104590001357D6010E0933692701130818C0B7074E
:1045A00080003367F90093183600B38404418145D5
:1045B000BD4733C83A0163E4871A973700009387F1
:1045C000A73B0A043E9410403E9602863367C9001A
:1045D0009384148063120710136424008148894572
:1045E000C1BF1306F07F81470147B207F250625402
:1045F0005206B1837E08D18FB3E70701D2544259E6
:10460000B259225A925A025BF24B3A85BE85216119
:10461000828001481306F07FB70708000147F1B711
:104620003367C9004DC7630809304A8532C4EF10AB
:1046300000222246130755FFF547930685FF998F01
:104640003319D900B357F60033E72701B318D60062
:1046500026959304353F8145A1BF336A2401630346
:104660000A0636C632C46306042A2285EF10201ECD
:104670002246B246AA84130755FF754A138B84FF5E
:10468000330AEA4033146401335A4901336A8A0019
:10469000331B69011305D0C0B30495400144814B1D
:1046A000F9B5336A240163180A002144014B9304CD
:1046B000F07F894B6DBD228A4A8B31449304F07F91
:1046C0008D4B75B51144014B8144854B4DB5136439
:1046D000140081488545E9BD136434004A878D453F
:1046E000C1BD630A052E8547898F9306800363DD6C
:1046F000F632014681470147CDBDCE868947638D9D
:10470000F53A8D47E387F5F085473688E383F5FE74
:104710001385F43FE357A0FC93F7780063960728CE
:1047200093D638009317770063D80700B70700FFC8
:10473000FD177D8F138504409307E07FE3C3A7EA4D
:104740001316D70193179700B1833367D6001376FA
:10475000F57F61BDD6865287DA88DE8545B763610D
:104760004723630DEA20DA86FD145284014B931728
:10477000870013D388013363F300935E0301B357BB
:10478000D403131F0301135F0F0193D50601139E7A
:1047900088003374D4033307FF024204C18D63FBE6
:1047A000E5009A951386F7FF63EE652663FCE52620
:1047B000F9179A95998D33D7D503C206C182B3F5FF
:1047C000D5033306EF02C205D58D63FBC5009A956C
:1047D0009306F7FF63E6652463F4C52479179A9579
:1047E000C20741645D8F9307F4FF3375F700935858
:1047F0000701935F0E01B377FE00B302F502B386A3
:10480000C540B383F80293D502013386AF021E96EA
:104810002E963385F803637376002295C168FD18E0
:1048200093550601337616014206B3F81201AA9594
:10483000469663E6B6126382B6123306CB408D8E7F
:10484000333BCB00338B66411385F43F630C631716
:10485000B358DB0393550601337BDB03B3061F0319
:10486000420B33EB6501637BDB001A9B9385F8FFFA
:10487000636D6B20637BDB20F9181A9B330BDB40E5
:10488000B356DB0342064182337BDB03330FDF0287
:10489000420B33666601637BE6011A969385F6FF49
:1048A0006367661E6375E61FF9161A96C208B3E8B9
:1048B000D8009395080193D20801C181B38EF50207
:1048C0003306E641B385BF0293D60E01B387F202E9
:1048D000BE95AE96B38F5F0263F4F600C167BE9FCC
:1048E000C165FD1593D70601ED8EC206B3FEBE006D
:1048F000BE9FF696637FF6091A969387F8FF636961
:10490000661A6368F619630FF61BBE8893E81800F1
:1049100011B54A85EF00B07313075501F1459304B3
:1049200005022246B246E3DAE5D4130485FF331AC2
:104930008900014B85B3328532C4EF0050711307F3
:104940005501F146AA87224613050502E3D6E6CEB5
:10495000E1173317F6008148E5B9E370CBEE729B9F
:104960003335CB011A95AA961305F7FF6378D30266
:1049700063E6B6106382D5102A87C1B5E3651BDFF5
:1049800093551B009316FA0113541A00CD8E7E0B1B
:10499000F9BBE31DF6F7E38F06D6B9BFE31ED3FCE0
:1049A000E378CBFD2A8751BD93F7F8009146E38960
:1049B000D7D693B7C8FF9386480093C717008D8258
:1049C0003E978DB381468547E34CA0FEFD58E31C1E
:1049D00005D0930410C085471385E441B316A700A2
:1049E00033D6F8003395A800D18E3335A000C98E98
:1049F00013F676003357F70001CE93F7F600114611
:104A00006388C70093874600B3B6D7003697BE8643
:104A10009317870063D80704054681470147F1B61D
:104A200036877DBBB28779B3FD46E3D7F6FA0556E4
:104A3000098E930600023356C7006388D700938718
:104A4000E443B317F700B3E8F800B3361001D18E92
:104A500013F67600814701CE93F7F6001146014721
:104A6000E392C7FA931797001316D701B18313D7B0
:104A70003600518F014695BEE370CBF0729B333503
:104A8000CB011A957917AA964DBBAE88C5BBAE86E9
:104A900031BD93171E0033BEC70172931A96F918E1
:104AA0003E8EE315F6E7E307DEC693E818009DB1F6
:104AB000BE88E30AF6FF99BD36881306F07F81476A
:104AC000014725B6E367DEFCBE88E310DEFE99B140
:104AD00013D74501B7071000FD1713D84601137708
:104AE000F77F9308F07F33FEB700AA8EF58FFD8124
:104AF000328F1378F87FFD82630E1703630D180160
:104B000029E3B368AE00631F08005D8E01EE014328
:104B1000638C080421A8B3E8C7000943639608041E
:104B20006DD305A0638408046385D50205438DCD4C
:104B30007D531DA8B368AE00094363970802630A5A
:104B4000E802631408005D8E75D2E391D5FEE34F51
:104B5000E8FC63490701E3EBC7FD630FFE00014377
:104B60006374FE00F1D505431A858280EDFE7D5306
:104B7000E5BF5D8E79DACDBFE36ADFFB0143E3F584
:104B8000EEFFF5F175B739714AD813D945014ED604
:104B900052D456D29399C50006DE22DC26DA5AD0CA
:104BA0005ECE1379F97F2A8A93D9C90093DAF50189
:104BB000630D090E9307F07F6306F9181354D501AE
:104BC0008E09B36934013704800033E489009314FB
:104BD0003500130919C08149814B13D74601139A37
:104BE000C6001377F77FB285135ACA0013DBF601AC
:104BF000630B07109307F07F6303F7049357D60105
:104C00000E0A33EA4701130717C0B7078000B367DE
:104C1000FA00931536003A99814833C76A01BD46B8
:104C20003A851308190063E8361717360000130693
:104C3000A6D88A09B29983A60900B2968286B3677C
:104C4000CA001309F97F6399071293E92900814586
:104C50008948E1B701479307F07F37040800814492
:104C60003204D20731807E075D8C598CA285F250C8
:104C7000625426854259D254B259225A925A025B42
:104C8000F24B216182805A853E84AE84C68B89476F
:104C9000638DFB0E8D47E38FFBFA85472A87639E62
:104CA000FB3881470144814465BF33E4A90061C0FA
:104CB00036C632C4638C092A4E85EF00503922462D
:104CC000B246AA87130755FF7544938487FF198C52
:104CD000B399990033548A0033643401B3149A00B1
:104CE00013D746011309D0C0139AC6001377F77F74
:104CF0003309F9408149814BB285135ACA0013DB4D
:104D0000F601E31907EEB367CA00B1C7630F0A22C1
:104D1000528532C4EF00B03322462A87930655FFEE
:104D2000F547930587FF958F331ABA00B357F600FE
:104D3000B3E74701B315B6003309E9401309D9C0F9
:104D40008148E1BD33E4A90001ECA1498144130984
:104D5000F07F894B59B593E919008145854875BDA8
:104D60004E84AA84B1491309F07F8D4BBDB591499A
:104D700081440149854B95B593E93900D2878D4827
:104D800069BD89475685E397FBF02A879307F07F33
:104D900001448144F1B5C16E1386FEFF93D6040130
:104DA00013DE0501F18CF18D338695023383B60253
:104DB0009358060133059E021A95AA98B382C6033A
:104DC00063F36800F692C16F1383FFFF33F567004A
:104DD00093D30701B3F76800C207337366003E93AD
:104DE0003306950293D80801B387A602135F060124
:104DF000B3849302BE94FA94B38E760263F3F40004
:104E0000FE9E416A9307FAFF935F0401B376F400B4
:104E1000B3F9F4007D8EC1803384D502C209338F8B
:104E2000D401B299CE98B307DE02935E0401B38534
:104E3000BF02AE97BE9E330EFE0363F3BE00529ECA
:104E4000C1679385F7FF33F6BE006D8C420622964C
:104E500093DE0E01B305D502769E3385AF0213D4DF
:104E60000501B386D302AA96A296B38FF30363F328
:104E7000A600BE9F41657D15B3F7A600C2076D8DE4
:104E8000AA97B3855800B3B93501FA97B295338420
:104E9000370133B6C500B30EC4013385CE003334B9
:104EA0003401B3B7E701C18F33BECE0113D406017D
:104EB0003336C5003E943366CE0093949500329409
:104EC0007E94B3E46400260493567501B3349000D5
:104ED000DD8193179500CD8C558CDD8C9317740074
:104EE00063DB070093D7140085889316F401DD8CEB
:104EF000D58C058042899307F93F6359F00893F6F2
:104F0000740081CE93F6F40011466388C600938640
:104F10004400B3B496002694B6849316740063D804
:104F20000600B70700FFFD177D8C93070940930625
:104F3000E07F63CFF60E93D634009314D401260499
:104F4000D58C318093F7F77F21BB328532C4EF00D7
:104F5000101093065501F147130705022246E3D1CD
:104F6000D7DC6115B317A6008145F9B3EF00300E09
:104F700013075501F145930705022246B246E3D5D2
:104F8000E5D461153314AA00814499BB85469D8EF2
:104F9000B1E71309E941B3972401B3D4D40033191D
:104FA0002401B337F000B3649900DD8C93F77400EB
:104FB000B356D40081CF93F7F40011466388C7003D
:104FC00093874400B3B49700A696BE849397860057
:104FD00063D8070485470144814459B1130680030F
:104FE000E341D6CC7D46E356D6FA0556B307F640E4
:104FF000930500023356F4006387B6001309E943B2
:10500000B3172401DD8CB3349000D18C93F6740077
:10501000014499CA93F7F40011468146E392C7FA16
:10502000139496003180F6068D80D58C81470DB99A
:105030009307F07F0144814425B142896DBD370754
:1050400010007D1701113373B70093D84601758F97
:10505000935ED60122CC26CA0E0393D44501935702
:10506000D5010E0706CE4AC84EC693F8F87F130E38
:10507000F07F33E7EE0093F4F47F13D4F50133E3CC
:105080006700131F3500FD82931E3600638FC8171B
:1050900093C61600B38514416304D4126350B0184C
:1050A000638A081AB70780005D8F638FC457930720
:1050B000800363C2B734FD4763C3B7489307000258
:1050C0008D8FB3D9BE003318F700B39EFE0033684E
:1050D00038013357B700B339D0013368380133038F
:1050E000E340B3090F41B3373F013306F340931751
:1050F000860063D20724370980007D1933792601A1
:10510000630E092C4A85A127130785FF9307000228
:10511000998FB3D7F9003316E900D18FB399E9001D
:105120006344972A058F13061700FD4663C4C63AE9
:1051300013070002118FB3D6C9003398E9003397E3
:10514000E700558F33380001B369070133D6C70034
:10515000814493F7790081CF93F6F90091476388F2
:10516000F6009386490033B836014296B689931704
:10517000860063D6071C138714009307F07F058809
:105180006306F720B70780FFFD17F18F1398D7014B
:1051900093D93900A60733683801B1831377F77FB5
:1051A0009396C7005207B1827E04D98EC18EF24019
:1051B0006244D2444249B2494285B6850561828043
:1051C0006356B00A638A0812B70780005D8F638652
:1051D000C42D9307800363C7B718FD4763D1B73C5D
:1051E000138805FE93070002B3590701638AF5008F
:1051F00093070004B385B7403317B700B3EEEE0052
:105200003338D0013368380195A2B367D70193854D
:10521000148099E393C61600630AD404D1E19387FE
:10522000140093F7E77F6398071EB367E3013368C1
:10523000D701639204166381073C63150842131873
:1052400035009316D3011358380033E806019357FD
:10525000330019A2B367D7016384071A9387F5FF58
:10526000638A073A638BC523BE8591B56398051C95
:105270009386140093F7E67FC1EFB367E301639F62
:105280000434638C0744B367D701639307460E0564
:105290001318D3010D813368A800935733006DA80C
:1052A000B385984063960420B367E301638C0730AD
:1052B0009387F5FF638807401305F07F6382A5207D
:1052C000BE859307800363C1B72AFD4763C7B73C18
:1052D000930700028D8F3318F3003356BF00B317C6
:1052E000FF003368C800B339F0003353B3003368AC
:1052F000380133076740ADACB367D701638207104D
:105300009387F5FF638E071E638FC52DBE85D1B5CC
:105310009307F07F638BF606FA9E33B6EE01B30770
:10532000E300B2971398F70193DE1E00B369D8012A
:1053300013D61700B68493F77900E39F07E093171D
:10534000D60113D839003368F800A6859357360084
:105350001307F07F6380E506B207B18313F7F57F8B
:1053600005883DBD3367D7013338E000B309E80154
:10537000B3B7E9013386670093178600E3DD07FAC8
:1053800085049307F07F639BF41805881307F07F6B
:105390008147014831B5639007106300083C13183A
:1053A00036009317D701135838003368F800368455
:1053B00093573700B367F800E9DB01441307F07F28
:1053C000B70708000148E9BB370680FF7D167D8ED0
:1053D00093F77900998CE39107D895B74E85852985
:1053E00013078501FD47E3D3E7D2130685FFB39783
:1053F000C900814935B33368D70133380001D5B1CD
:10540000131835009317D301135838003368F80088
:105410009357330035BFB309DF413309E3403336D7
:105420003F013309C9409317890063CA072033E855
:105430002901E31708CC8147014439BFB38598405F
:1054400063810414B70680009307F07F3363D300B1
:105450006381F8209307800363CCB722FD4763C9BB
:10546000B72C930700028D8F3318F300B356BF009B
:10547000B317FF003368D800B339F0003353B300DB
:10548000336838011A97B309D801B3B7D901338605
:10549000E700C684D5B5E31208F213183500931758
:1054A000D301135838003368F8009357330019B705
:1054B000370580009307F07F3363A300E393F8E0A0
:1054C0000E061318D7010D823368C80093573700B2
:1054D0003684CDB505179306000233D7E700630A7B
:1054E000D600930600043386C6403396C700B3E95E
:1054F000C90033383001B369E8000146814425BD55
:10550000B309DF01B307E30033BFE9013386E701E5
:10551000931786008544E3D007E28944B70780FFEC
:10552000FD17F18F13D7190013F81900336807011D
:105530009399F701B3E9090113D6170019B9138834
:1055400005FE93070002B3590701638AF50093072C
:105550000004B385B7403317B700B3EEEE0033381D
:10556000D00133683801B5BE3363E30133386000DE
:10557000B3890E41B3B73E013306F740C684368483
:10558000BDB6B367E301638707189387F5FF638CA4
:10559000071C9306F07F638ED50ABE8565BD930711
:1055A00000028D8FB3D9BE003318F700B39EFE0002
:1055B000336838013357B700B339D0013368380145
:1055C0003A936DB3131836009317D7011358380068
:1055D00033E807013684935737009DBBBDCB336753
:1055E000D701E31C07DC0E051318D3010D813368C6
:1055F000A800935733007DBBE30F08E21318360071
:105600009317D701135838003368F800368493573E
:10561000370099B3B309DF41B307E340333F3F019C
:105620003386E7418544E1B4131835009316D3015E
:105630001358380033E8060193573300A5BBB389EC
:10564000EE413306674033B93E01330926413684C3
:1056500045BC0E061318D7010D823368C800935756
:10566000370089BBB309DF41B307E34033363F015D
:105670003386C7409317860063D7070AB389EE4184
:10568000B3076740B3BE3E013386D7413684D1B4F9
:105690003363E30133386000FDB3138805FE9307DD
:1056A0000002B3590301638AF50093070004B38530
:1056B000B7403313B300336F6F003338E001336802
:1056C00038017DB5B389EE41B3076740B3BE3E01F3
:1056D0003386D7413684854419BC13183600931796
:1056E000D701135838003368F80093573700ADB12D
:1056F000B309DF01B307E30033BFE9013386E701F4
:1057000093178600E3D907C2B70780FFFD177D8E88
:10571000854415B10E061318D7010D823368C800F1
:105720009357370035B133E8C900E30608D021B1FB
:10573000138805FE93070002B3590301638AF5003D
:1057400093070004B385B7403313B300336F6F0082
:105750003338E001336838013DB301441307F07F6B
:10576000B707080035BCB309DF01B307E300B3BED8
:10577000D9013386D70169BB411106C622C426C2AE
:1057800005CD9357F541B3C4A7009D8C2A84268587
:105790007D289306E041898EA9477D8093F6F67FA8
:1057A00063CDA7022D47098FB3D7E4005505B20793
:1057B000B394A400B18329A0014481468147814468
:1057C000B207D206B1837E04D58FC18FB240224486
:1057D0002685BE859244410182805515B397A40069
:1057E000B207B1838144E9BF15CD411122C406C679
:1057F0002A84B1289306E041898EA94793F6F67F63
:1058000063DCA7025515B317A400B207B1830147A3
:10581000B2402244B207D206B183D58F3A85BE8505
:105820004101828081478146B207D206B183014798
:10583000D58F3A85BE8582802D47098FB357E40006
:10584000B207130755013317E400B183D1B7C1671D
:10585000637EF5029307F00F1307000263ECA700C5
:105860009727000093874719AA9703C507003305B8
:10587000A74082802181972700009387E717AA9786
:1058800003C5070061473305A7408280B7070001C1
:10589000636EF5006181972700009387E715AA974B
:1058A00003C5070021473305A74082804181972720
:1058B000000093876714AA9703C507004147330583
:1058C000A74082809387C1819C434111328806C6DC
:1058D000AA882E87C8473686972700009387C72156
:1058E00063170800972700009387C7213E88C68664
:1058F00097250000938545211920EF00701F39710D
:1059000032D436D63EDA3AD842DC46DE9387C181BD
:105910002E86AA858843341006CE36C62D22F24044
:1059200021618280B3C7A5008D8B3307C50081E755
:105930008D4763EEC700AA876370E50A83C605003A
:1059400085078505A38FD7FEE3EAE7FE828093767D
:105950003500AA8791CA83C6050085078505A38FF0
:10596000D7FE93F63700FDB79376C7FF138606FE82
:1059700063F0C70683A3050083A2450083AF8500BB
:1059800003AFC50083AE050103AE450103A3850146
:1059900083A8C5019385450223A0770003A8C5FF0E
:1059A00023A2570023A4F70123A6E70123A8D701C8
:1059B00023AAC70123AC670023AE170193874702D0
:1059C00023AE07FF75B790419107910523AEC7FE3F
:1059D000E3EBD7FEE3E4E7F682801C46FD171CC626
:1059E00063D90700184E63C5E700A9476393F50024
:1059F00015AF1C422E851387170018C22380B700ED
:105A00008280011122CC26CA4AC84EC652C406CE94
:105A10002A89AE893284B304D6007D5A6314940077
:105A2000014511A8834504004E864A85EFF0FFFA30
:105A30000504E31545FFF2406244D2444249B249AD
:105A4000224A05618280357122CD26CB4AC94EC7D4
:105A500006CF52C556C35AC1DEDEE2DCE6DAAA89B9
:105A6000AE843289368409C51C4D99E3EF00102FAE
:105A70009727000093870712639DF40C83A44900C5
:105A800083D7C400A18BE5CB9C48F5C793070002E0
:105A9000A304F1029307000302D22305F10222C6F8
:105AA000930B5002972A0000938A0A09054C294B50
:105AB0004A848347040099C36391770FB30C244150
:105AC000638E0C00E6864A86A6854E85EFF07FF34E
:105AD000FD576308F51E9256E69636D283470400BA
