:100000006F108006130000001300000013000000B2
:100010001300000013000000130000001300000094
:100020001300000013000000130000001300000084
:08003000130000007300100032
:100038000000000000000000A8020000AC02000060
:1000480000000000AE0F00000000000000000000EB
:10005800B00F0000B20F0000000000000000000018
:10006800B40F000000000000B60F00000000000000
:10007800B80F0000BA0F0000BC0F0000BE0F000050
:10008800C00F0000C20F00000204000016040000A8
:100098003A0400005004000066040000CE0F00007F
:1000A800D00F0000D20F0000D40F0000D60F0000C0
:1000B800D80F0000DA0F0000DC0F0000DE0F000090
:1000C800E00F0000E20F0000E40F00007C040000D5
:1000D800E80F000070050000EC0F0000EE0F0000B4
:1000E80096050000B6050000DC050000F60F0000CC
:1000F800F80F0000FA0F0000FC0F0000FE0F0000D0
:1001080000100000AE020000D80200000203000048
:10011800EE0400000A1000000C1000000E10000091
:1001280068060000121000001410000016100000ED
:10013800181000001A100000020600001E1000002F
:100148002C030000560300002806000042060000A9
:10015800281000002A1000002C1000002E100000AB
:10016800301000003210000034100000361000007B
:10017800381000003A1000003C100000DA160000A9
:100188004010000042100000E60300007403000065
:100198009E030000C80300004C1000008E060000FB
:1001A800501000005210000054100000B406000067
:1001B800581000005A1000005C1000005E1000008B
:1001C800601000006210000064100000661000005B
:1001D8000000000000000000000000000000000017
:1001E8000000000000000000000000000000000007
:0801F8000000000000000000FF
:100200003D432A876373C3029377F700BDEFADE5E3
:10021000937606FF3D8ABA960CC34CC30CC74CC7F5
:100220004107E36BD7FE11E28280B306C3408A0622
:100230009702000096966780A6002307B700A306E2
:10024000B7002306B700A305B7002305B700A30432
:10025000B7002304B700A303B7002303B700A3022A
:10026000B7002302B700A301B7002301B700A30022
:10027000B7002300B700828093F5F50F93968500B1
:10028000D58D93960501D58D61B79396270097027A
:10029000000096968682E78086FA9680C1171D8FA9
:1002A0003E96E374C3F8A5B77300203001A0411156
:1002B00022C6374401409305505213050480EF10C5
:1002C000203519C59305505213050480EF1080386E
:1002D0003244410173002030411122C637440040AE
:1002E0009305505213050440EF10803219C5930551
:1002F000505213050440EF10E035324441017300C1
:100300002030411122C63754004093055052130546
:100310000480EF10E02F19C5930550521305048097
:10032000EF1040333244410173002030411122C6A6
:100330003754004093055052130504C0EF10402D70
:1003400019C593055052130504C0EF10A030324474
:100350004101730020309305505237550040EF1093
:10036000202B19C59305505237550040EF10802EB1
:1003700073002030411122C63724004093055052AB
:1003800013050480EF10C02819C5930550521305BA
:100390000480EF10202C32444101730020304111C1
:1003A00022C63724004093055052130504C0EF10B5
:1003B000202619C593055052130504C0EF1080295B
:1003C00032444101730020309305505237250040DC
:1003D000EF10002419C59305505237250040EF1047
:1003E000602773002030B707055003C70701118B42
:1003F00019C703C707011377B70F2388E7007300F6
:1004000020300545EF00304F85476314F500EF00BD
:100410007050730020300945EF00F04D8547631C94
:10042000F5000945EF00104F130520088145EF0046
:10043000A06751453921730020301145EF00B04BC2
:1004400085476315F5001145EF00D04C730020304F
:100450002145EF00504A85476315F5002145EF001F
:10046000704B730020304145EF00F048854763151D
:10047000F5004145EF00104A7300203013050002DB
:10048000EF00704785476316F50013050002EF0083
:10049000704813050004EF00104685476316F50009
:1004A00013050004EF00104713050008EF00B044E7
:1004B00085476316F50013050008EF00B0451305E6
:1004C0000010EF00504385476316F5001305001038
:1004D000EF00504413050020EF00F04185476316FC
:1004E000F50013050020EF00F042730020304111A9
:1004F0001305004022C6EF00104085476316F50043
:1005000013050040EF001041056413050480EF005F
:10051000903E85476316F50013050480EF00903F79
:100520000565EF00503D85476315F5000565EF0053
:10053000703E0965EF00303C85476315F50009659D
:10054000EF00503D1165EF00103B85476315F50046
:100550001165EF00303C2165EF00F03985476315E8
:10056000F5002165EF00103B32444101730020305B
:10057000411122C6373401408545130504C0EF0000
:10058000F07511C58545130504C0EF00F0763244BF
:10059000410173002030854537050040EF0010749D
:1005A00009C9370500408545EF001075130530086F
:1005B000392B73002030411122C637040040854595
:1005C00013050440EF00907111C5854513050440E3
:1005D000EF0090723244410173002030411122C675
:1005E00037140040854513050480EF00306F11C5B6
:1005F000854513050480EF003070324441017300DB
:100600002030411122C6371400408545130504C02F
:10061000EF00D06C11C58545130504C0EF00D06D07
:100620003244410173002030854537150040EF000A
:10063000F06A11C5854537150040EF00F06B730077
:100640002030411122C6371400408545130504406F
:10065000EF00D06811C5854513050440EF00D0694F
:100660003244410173002030411122C63734014029
:10067000854513050440EF00706611C585451305D7
:100680000440EF0070673244410173002030411193
:1006900022C6375401408545130504C0EF0010649D
:1006A00011C58545130504C0EF00106532444101B2
:1006B00073002030854537550140EF00306211C589
:1006C000854537550140EF00306373002030F165F8
:1006D000397193061002130600029385052009451F
:1006E00006DE22DC26DA4AD84ED652D456D25AD06A
:1006F0005ECE312D0545EF00C07D0545EF00F001D0
:100700000945EF0090010D45EF0030011145EF0064
:10071000D000373500001305051BEF2040030545C9
:10072000EF00C07D1307400223A2E1849387418438
:1007300023A0F184854737040020238CF18285496A
:10074000B73B00001304041037390000370B00805A
:10075000B73A0000373A000083C7818363903701BE
:100760008D451305E003092A631635018D451305F0
:10077000E0032D228D451305E003692A0D469305FC
:10078000E00313858B1CEF10F06A0C441305C9209D
:10079000EF10506AB70500801305C92023246401B7
:1007A000EF1050698D451305E003592A31240C449C
:1007B0001305C920EF1010688D451305E003992A31
:1007C0000C441305C920EF10F0668947C14670003C
:1007D0008D451305E0033EC6092AB24513850A225A
:1007E000EF1050651305CA22EF10D064238C0182EC
:1007F000A5B7011126CAB754004022CC4AC84EC63C
:1008000006CEAE893289014493840480634A240170
:10081000F24062444A85D2444249B249056182802D
:10082000930500042685EF00F05D7DD9B38789002C
:100830008385070026850504C205C181EF00F05BB2
:10084000F1B783A741810967130707F4B3D7E7021C
:10085000814601473385A702B7F700E023A00700D0
:1008600094C7D8C7054798C3B7F600E09846DC465A
:1008700099E3E37DE5FE8280A1673E950A05AA958E
:10088000AA05938705407D5794416397E60091053B
:10089000E39CF5FE0145828005458280011106CE6C
:1008A00022CC2EC62A84EF00900713054003EF00E8
:1008B0009009B24521652A940A042E941315A400C8
:1008C00037040020EF00500D1304840B08C01305FB
:1008D0000002EF005007EF0030060840F24062448B
:1008E00071153335A00005618280A1673E950A0528
:1008F0002E952A0581471397070141836363D7002B
:10090000828013972700B305E5008C413297850755
:100910000CC3D5B7A1673E950A052E953707002071
:100920002A05814713070710930600403386A70066
:100930000C423386E70091070CC2E399D7FE828010
:10094000011122CC21642A940A042E9426CA4AC892
:1009500006CE4EC652C456C2AA842E892A04293F06
:1009600001C5CA8526851D3F37090020EF00207B81
:10097000814413090910914A93090040B387240167
:100980008C4333059400EF0090059387418088C322
:100990009C43639157039104E39234FFEF00C079C5
:1009A0000145F2406244D2444249B249224A924A45
:1009B000056182800545F5B7370500201306004024
:1009C0009305F00F130505106FF09F839307F00F49
:1009D000630BF50C797122D41354550026D24AD0FA
:1009E0004ECE52CC06D61D889374F5003689328AD5
:1009F000AE8935E085451145EF00902A8547B394CF
:100A00009700C204C180231291006399F9009317E3
:100A10000901C183A18391E38D473EC48D6793870C
:100A200047230A043E9400401379F90F4C002285B5
:100A30004AC6EF00F00085476397F9005286A68505
:100A40002285EF00100CB250225492540259F24900
:100A5000624A4561828085476315F40085452145DA
:100A600061BF89476315F4008545414571B78D47DE
:100A70006316F400854513050002BDBF9147631658
:100A8000F40085451305000485BF95476316F400FF
:100A90008545130500088DB79947E311F4F68545A0
:100AA0001305001091BF82809357550013972700BC
:100AB0008D6793874723BA9798439377F500054549
:100AC0003315F50099C108CB828048CB82809357BB
:100AD000350013F7C7018D6793874723BA9798436B
:100AE0009377F500054554473315F500358D48C714
:100AF0008280411106C619ED85476397F520E146CE
:100B000001462545E1359146014681452945B240DA
:100B100041016DBD8947631EF500E14601468545EB
:100B20001305600265359146014681451305700243
:100B3000F9BFC147631CF500E146014685450945FB
:100B400071359146014681450D45D1B7C947631EB0
:100B5000F500E1460146854513055006853D914661
:100B600001468145130560065DB793070002631EC9
:100B7000F500E146014685451305A002813D9146F9
:100B8000014681451305B00259B793072002631E41
:100B9000F500E146014685451305A004053D914653
:100BA000014681451305B0049DB793074002631FBA
:100BB000F500E1460146854513058006013D930693
:100BC0008004014681451305900691B79307000400
:100BD000E301F5FC93072004631EF500E14601469E
:100BE000854513050002DD33914601468145130515
:100BF000100231BF93070005631EF500E146014670
:100C000085451305C004D933914601468145130536
:100C10002006F5BD93072005631EF500E146014659
:100C20008545130580085D339146014681451305CE
:100C30009008F1BD93070006631FF500E1460146E9
:100C40008545130500045933930680040146814508
:100C5000130510046DBD93072006631EF500E146E1
:100C6000014685451305A008953391460146814507
:100C70001305B00869BD93070007631EF500E14640
:100C8000014685451305200491339146014681456F
:100C900013053004ADBD930720076317F500E14647
:100CA000014685451945CDB793074007631EF500FA
:100CB000E146014685451305C008093B91460146BA
:100CC00081451305D008A1B593070008631EF50000
:100CD000E1460146854513054004CD39914601465C
:100CE00081451305500425B593072008631EF500C0
:100CF000E146014685451305E008C939914601469C
:100D000081451305F00821B5B24041018280797117
:100D100022D44ECE2A84AE890545854526D24AD0B6
:100D200006D6B2843689AD2F8947639CF4048D477B
:100D30006315F90085451145D12B631A04128545C9
:100D40001165B92FCA8526856D33B7070C003EC4DF
:100D50008D67938787240A043E9400408A854EC09D
:100D6000228502C223160100EF00E0792285854525
:100D7000EF00F006B250225492540259F2494561F4
:100D80008280C9476398F400CD47E318F9FA854596
:100D900021455DB793072002639BF400930730025F
:100DA000E31DF9F8370514008545410571B7930730
:100DB0004002639CF40093075002E310F9F83705F2
:100DC000140085451305050385BF93072004639927
:100DD000F40093073004E312F9F685450565A9BFD1
:100DE00093072005639BF40093073005E317F9F49C
:100DF000370520008545050581B793072006639CCC
:100E0000F40093073006E31AF9F2371500808545A0
:100E10001305058015B793072007639EF400930719
:100E20003007E31CF9F0370701405C4FB70640007C
:100E3000D58F5CCF19B793074007639CF4009307E5
:100E40005007E31CF9EE370701405C4FB7068000FE
:100E5000C5B793072008E392F4EE93073008E31E2A
:100E6000F9EC370701405C4FB7060002D1B7854760
:100E70006317F4008545370502009125E1B58947E0
:100E80006316F400854537050400C5BF8D4763161A
:100E9000F400854537050800CDB791476316F40087
:100EA000854537051000D1BF95476316F400854589
:100EB00013050004D9B799476316F4008545130557
:100EC000000865BF9D47E31FF4E685451305001044
:100ED0006DB785476319F5009306003105468545D2
:100EE00013052008E5B489476319F500930600311E
:100EF0000546854513053008F5B78280854763169A
:100F0000F50081451305200845B689476316F500AD
:100F1000814513053008CDBF8280411122C406C629
:100F200085472A846313F50293068034054681457C
:100F300013050004613C99476315F4069306803459
:100F4000054681451305500425A089476319F5001E
:100F5000930680340546814513051004E1BF8D4793
:100F6000631DF50093068034054681451305200472
:100F70002244B24041016FF07FA591476319F5000B
:100F8000930680340546814513053004D5B795474F
:100F9000E313F5FA930680340546814513054004B2
:100FA000C1BFB24022444101828001A001A001A042
:100FB00001A001A001A001A001A001A001A001A029
:100FC00001A001A001A001A001A001A001A001A019
:100FD00001A001A001A001A001A001A001A001A009
:100FE00001A001A001A001A001A001A001A001A0F9
:100FF00001A001A001A001A001A001A001A001A0E9
:1010000001A001A001A001A001A001A001A001A0D8
:1010100001A001A001A001A001A001A001A001A0C8
:1010200001A001A001A001A001A001A001A001A0B8
:1010300001A001A001A001A001A001A001A001A0A8
:1010400001A001A001A001A001A001A001A001A098
:1010500001A001A001A001A001A001A001A001A088
:1010600001A001A001A001A07390123497010020FB
:101070009381C184177100201301C1F81725000066
:101080001305853A97F5FF1F9385C5F7138681826F
:1010900063FAC5008322050023A0550011059105C0
:1010A000E3EAC5FE13858182938501DB6377B50092
:1010B000232005001105E36DB5FEFD42739002BCCF
:1010C000FD4273904280B78200009382828873A0B1
:1010D000023097F2FFFF938262F693E23200739040
:1010E0005230EF00B04B97F2FFFF9382825E739015
:1010F000123473002030B70701401387074083A7DD
:101100000740584B698F09C77D8D3335A000828019
:1011100001458280B707014023AAA7408280B70714
:10112000674537270240938737125CC3B797EFCDE7
:101130009387B79A5CC38280372702401C4B93E7A2
:1011400007081CCB8280B7270240C8C78280B72718
:101150000240D8470545058B11EBD8470945118B4F
:1011600011E7C8474189133515000D0582804111EB
:1011700022C426C206C62A848544D13F631895003E
:1011800019E0154529A0E1377D14CDBF7DD8B240C7
:101190002244924441018280411126C2AA8437052B
:1011A0000B0006C622C4E13791476315F5023724C8
:1011B00002401C4837050B0093E727001CC844C8B1
:1011C0001C4893E707041CC85D371C48096775175E
:1011D000F98F1CC8B2402244924441018280797147
:1011E0004AD02A89156526D24ECE06D622D4AE84A0
:1011F00002C69149AD3F631E3503372402401C48A7
:10120000156593E717001CC893970401C183231049
:10121000F900B13F631A350109094AC6B247C180D6
:10122000156523909700A1371C4809677917F98F36
:101230001CC8B250225492540259F249456182802E
:101240009C4513F7070113F8F70001C7D84133682D
:10125000E80083D5050013F7F50F39C3184181461F
:10126000854E3D4F930F800293028004214E3396AA
:10127000DE00B3F8C50063111603939826003313FC
:101280001F011343F3FF3377E300B318180133E76B
:10129000E800639FF70550C98506E39AC6FD18C1AB
:1012A0001307F00F6375B70454412146854E3D4F37
:1012B000930F800293028004414EB398CE0033F71F
:1012C00015016392E8021317260001173313EF008C
:1012D0001343F3FFB376D3003317E800D98E639D31
:1012E000F701232A15010506E319C6FD54C18280C2
:1012F000E39457FA10C94DB7E39757FE2328150119
:10130000DDB719C20CC982804CC98280B707014081
:1013100063550504D44FB707300013170501337622
:10132000F5004183631DF602370600F17D1637088C
:101330000140B3F7C60083264800758E2322C800FB
:1013400099C59356550192063317D700D98F3707A1
:101350000140635E05025CCF8280D4436DBF93176A
:10136000B50063D007029357050113F6F7008D47C8
:10137000B397C70093C7F7FFF58FB706000FD58F58
:10138000C1B7935755019207B317F700E5B75CC390
:101390008280371702405C439146B18B6385D7004A
:1013A000A1466386D706B7177A00938707201CC12A
:1013B000371602405C42370700201307070091836D
:1013C000BD8BBA9783C607001C41B3D7D7005CC159
:1013D0005442A1829D8ABA9683C60600B3D6D7002E
:1013E00014C55442AD829D8A369703470700B3D790
:1013F000E7005CC5584239839376370013878180B4
:10140000369703470700B3D7E7021CC982805C43C5
:1014100054434167C983F98E37F7FF1F0327C7700D
:10142000BD8B89071316170163480600454601471F
:101430006392C702C94739A809476389E7023D4754
:101440006388E70241476388E702454601476393A3
:10145000C700C14785E6B746024083A60680C18A19
:101460008DC6B7167A009386062025A00147D9B706
:101470000547B547C5B70147BD47E9BFB7160240A5
:10148000D4421396E600E35E06FCB7163D00938651
:101490000690B387D7021CC101DF1C41858301BFC1
:1014A00099C5371702401C4F5D8D08CF8280B71752
:1014B0000240984F1345F5FF798D88CF828099C5FA
:1014C000371702405C4F5D8D48CF8280B7170240CE
:1014D000D84F1345F5FF798DC8CF8280835705011A
:1014E0000355C500ED8F4205418189C76D8D3335A8
:1014F000A00082800145828093C5F5FFC205C181AD
:101500002318B500828083560501F577FD17F58F06
:1015100083D66500397122DC06DED58F03D7C5007E
:101520002318F5008356C500FD779387379FF58F05
:1015300083D645002A842EC6D58F83D68500D58FC5
:1015400083D6A500D58F2316F50083574501C20722
:10155000C18393F7F7CFD98F231AF5006808153D9B
:10156000B747014093870780B245631EF404A25732
:101570008356C4006547B387E702C206C186984117
:1015800063D5060406070356C4004206B3D7E70234
:10159000130740064186B3D6E702B3F7E702920687
:1015A000635706028E0793872703B3D7E70213F723
:1015B0007700B367D700C207C1832314F400F25049
:1015C000625421618280925765B70A076DBF920706
:1015D00093872703B3D7E702BD8BD58FE9BF81C9B6
:1015E0008357C5000967D98F2316F50082800357FA
:1015F000C500F977FD17F98FC5BF93F5F51F2312C5
:10160000B5008280035505006D8D3335A0008280C2
:1016100013F7F50F85461583B397B6006313D7020A
:101620000357C500F98F0357050001454207418361
:1016300081CB0545A181B315B5006D8F3335E00031
:10164000828089466315D70003570501E1BF035720
:101650004501C9BFA1818547B397B70093C7F7FF7D
:10166000C207C1832310F5008280B7070050239A78
:10167000A70203C767031377C70F238BE702828094
:10168000B7070050239CA70203C7A7031377C70F10
:10169000238DE7028280814713F7F70F6363A7006A
:1016A000E9B703A781DA3E9783460700850793C60B
:1016B000F6FF2300D704CDB7814713F7F70F636315
:1016C000A7007DBF03A741CD3E978346070085074E
:1016D00093C6F6FF2300D704CDB7B707005003C762
:1016E00067001377F70F937627006388066601116A
:1016F00022CE26CC4ACA4EC852C656C403C777006B
:1017000093060002137707036301D74C1306000307
:101710006301C7046314072203C7770005461377E4
:10172000F703630AC7606304075889466318D72024
:1017300003C77700137707046302072003C7B703C3
:1017400013474700A38DE70288471375F50FAD37A0
:10175000F5A219472389E7021147A389E70283A469
:1017600081CD83C7740003C76400A207D98F239675
:10177000F1CC03C714002387E1CC03CA040013771C
:101780000A066308070E03C7E1CC1377070219CFD7
:1017900083C7E1CC1307100293F7F70F638AE700C2
:1017A000130720026384E7006393D718014989A0D7
:1017B0009387C18023A8F1CC83D7C1CC1D47214991
:1017C0006366F70003D9C1CC1379F90F4A86938574
:1017D000C1802685ED2583D7C1CCB3872741C207B9
:1017E000C1832396F1CC83A701CDCA9723A8F1CC5E
:1017F00083D7C1CC4209135909016374F9002396B8
:1018000021CD9387818203D707009D46A14463E6DB
:10181000E60083D4070093F4F40F03A901CD2686D4
:10182000CA851385C1D5CA94592D23A891CC620AC3
:10183000135A8A41814763520A0203D7C1CCA14798
:1018400063E6E70083D7C1CC93F7F70F03D7C1CC8A
:101850001D8F420741832396E1CCC2073707005012
:10186000C1832318F70291472309F702A309F7025E
:10187000F1A083C7E1CC2D4793F7F70F6369F70A0F
:101880000D678A0713078726BA979C43828783C709
:10189000340003C724008D46A207D98F13D78700D1
:1018A0006305D70C63ECE6008547630BF7028947B5
:1018B0006304F70A1309F00F814715A89D476308D1
:1018C000F71093072002630CF70E9947E314F7FE15
:1018D0008D679387873323A8F1CC0149A94701A8D5
:1018E0008D679387C72D23A8F1CC0149C94703D73A
:1018F000C1CCC207C18363F4E7002396F1CC83D740
:10190000C1CC1D47A14A6366F70083DAC1CC93FAC4
:10191000FA0F83A501CD56862685552383A701CDD1
:10192000BE9A23A851CD9307F00FE312F9F0B70741
:1019300000501D472389E702A389E702B70700503B
:1019400009472383E7007244E2445249C249324ABC
:10195000A24A0561730020308D679387872923A8E9
:10196000F1CC01499307300459B793F7F70F854637
:101970006387D70291CF8946638BD702E39CE7F256
:101980008D679387073223A8F1CC0149D94785B7E2
:101990009387C18123A8F1CC0149914789BF8D6705
:1019A0009387072F23A8F1CC0149B94789B78D67E1
:1019B0009387073023A8F1CC0149B1470DBF8D674C
:1019C0009387C73023A8F1CC0149D1470DB783C70E
:1019D000318193F7F70FE39F07EC370900201309D4
:1019E00009018D65130610049385A52913052900A7
:1019F000F92123A821CDB5B783C724002396F1CCC4
:101A00003DB583C781C42380F40003D7C1CC85478B
:101A1000E3E6E7FE29BD03C724002384E1C401BD3A
:101A20001377FA018947E314F7F083C7440063830F
:101A3000E704636EF7000547E39BE7EE37070050C6
:101A40008347770393F7870FA30BF702CDB31307F1
:101A50001008638AE70213072008E39AE7EC3707C8
:101A600000508347A70393F7870F93E72700230DC1
:101A7000F70275BB370700508347B70393F7870F0B
:101A8000A30DF7026DB3370700508347670393F741
:101A9000870F93E72700230BF70251BB03C7C1D57C
:101AA0007D8B19EB9387C1D583D727000547E3903A
:101AB000E7E82385F182A5BB8946E31AD7E6938739
:101AC000C1D583D62700E39406E683C74700638524
:101AD000E7046360F7020547E39BE7E4370700503C
:101AE0008347770393F7C70FA30BF70293E73700FA
:101AF000A1BF13071008638CE70213072008E398BF
:101B0000E7E2370700508347A70393F7C70F230D7A
:101B1000F70293E73700A1BF370700508347B703A9
:101B200093F7C70FA30DF70293E7370091BF37076D
:101B300000508347670393F7C70F230BF70293E720
:101B4000370091BF23800400C9B5238E01D4938749
:101B5000818283D607000547E37BD7CC2390E7003B
:101B6000F9B11387C1D503574700239E01D49306CB
:101B700010086313D70237070050034767030D8B24
:101B80008D466315D7000547238EE1D49387818264
:101B900083D607000947C9B785466317D7003707BB
:101BA000005003477703E1BF930620086317D7006F
:101BB000370700500347A703D9B78946E318D7FC76
:101BC000370700500347B7035DBF83C6770013068E
:101BD000100293F6F6036380C60A13062002638997
:101BE000C60AE39DE6D403C7E1CC95461377F70F09
:101BF000630FD7049946631DD70683D7C1CC1D4711
:101C000021446366F70003D4C1CC1374F40F03A519
:101C100081CD83A501CD22865D2483D7C1CC131746
:101C200004014183998FC207C1832396F1CC83A716
:101C300001CD3E9423A881CCB70700502398E7023A
:101C400003C72703134747002389E702C5B903C722
:101C5000370083D6C1CC13770708558F1377F70F5A
:101C6000A381E70009472389E702A3890702F9B1A5
:101C700023980702C5BF03C767031377C70F238BDA
:101C8000E70203C7670313474700238BE7027DB1D1
:101C900003C7A70313474700238DE70203C7A70322
:101CA0001377C70F13672700238DE70241B983C756
:101CB000E1CC6393F60483A781CD83C6170003C7E5
:101CC0000700558F83C62700558F83C63700558F71
:101CD00005CB83C5170003C7070037350000A205F1
:101CE000D98D03C727001305453442074D8F9395BF
:101CF0008601D98DEF001014B70700509C473DB9FD
:101D000083C567003735000013054535EF00901295
:101D100083A781CD373500001305453683C54700BD
:101D2000EF00501183A781CD3735000013054537EB
:101D300083C55700C1B703C7770013770704E30FC4
:101D400007BE03C7770313474700A38BE702884703
:101D50001375F50FEFF03F94D5B69376170085CA4B
:101D6000A3810700A3890702A38B0702A38D0702A3
:101D700009472389E702238BE702238DE70203C784
:101D80006700136717002383E70073002030937602
:101D90004700F5DA03C757001147F5B7B7170240F8
:101DA0009843B706FFF841111367170098C3D8434B
:101DB00037060200758FD8C39843B706F7FEFD16A5
:101DC000758F98C39843B706FCFFFD16758F98C3AF
:101DD000D843B70681FFFD16758FD8C337079F001C
:101DE00098C702C402C69843C166558F98C3B716F8
:101DF0000240130700509C42F18F3EC6A247850760
:101E00003EC4B24781E7A247E397E7FEB717024017
:101E10009C431397E7006350070A85473EC6324745
:101E200085476318F708B72702409843B706C1FFF4
:101E3000FD161367070198C39843719B98C3984395
:101E40001367270098C3B7170240D843D8C3D843B5
:101E5000D8C3D84313670740D8C3D843758FD8C3B6
:101E600037F7FF1F0327C77093161701D84363C6C0
:101E70000604B7063D00558FD8C3371702401C43F0
:101E8000B7060001D58F1CC3B717024098439316BD
:101E90006700E3DD06FED843B7160240719BD8C346
:101EA000D84313672700D8C32147DC42B18BE39E98
:101EB000E7FE4101828002C69DB7C1666DBFB3C710
:101EC000A5008D8B3307C50081E78D4763EEC70002
:101ED000AA876370E50A83C6050085078505A38F79
:101EE000D7FEE3EAE7FE828093763500AA8791CA9F
:101EF00083C6050085078505A38FD7FE93F63700B7
:101F0000FDB79376C7FF138606FE63F0C70683A36B
:101F1000050083A2450083AF850003AFC50083AEF3
:101F2000050103AE450103A3850183A8C50193857F
:101F3000450223A0770003A8C5FF23A2570023A4CE
:101F4000F70123A6E70123A8D70123AAC70123ACE1
:101F5000670023AE17019387470223AE07FF75B7CB
:101F600090419107910523AEC7FEE3EBD7FEE3E472
:101F7000E7F682801C46FD171CC663DA0700184E80
:101F800063C5E700A9476394F5006F00E07C1C423D
:101F90002E851387170018C22380B7008280011195
:101FA00022CC26CA4AC84EC652C406CE2A89AE8959
:101FB0003284B304D6007D5A63149400014509A805
:101FC000834504004E864A8575370504E31645FFB0
:101FD000F2406244D2444249B249224A05618280B9
:101FE000357122CD26CB4AC94EC706CF52C556C33E
:101FF0005AC1DEDEE2DCE6DAAA89AE8432893684B2
:1020000009C51C4D99E3EF0090379717000093879F
:10201000A73D639CF40C83A4490083D7C400A18B23
:10202000FDC79C48EDC793070002A304F102930784
:10203000000302D22305F10222C6930B5002971A25
:102040000000938AAA34054C294B4A848347040034
:1020500099C36390770FB30C2441638D0C00E6861F
:102060004A86A6854E85253FFD576308F51E925684
:10207000E69636D2834704006381071EFD57130995
:10208000140002C802CE3ECA02CCA309010482D4C5
:102090008345090015465685EF0090541304190036
:1020A000C24751E913F7070109C713070002A30943
:1020B000E10413F7870009C71307B002A309E1047D
:1020C000834609001307A002638FE606F2474A849D
:1020D000814625460347040093051400130707FDB6
:1020E0006378E60AADCA3ECEBDA09717000093877D
:1020F000A7316395F40083A4890005B79717000002
:102100009387872CE39BF4F083A4C90039B7A68595
:102110004E85192709D97D55FA406A44DA444A495F
:10212000BA492A4A9A4A0A4BF65B665CD65C0D614C
:102130008280050421BF330555413315AC00C98F9A
:102140003EC82289B1B7324793064700184336C6C6
:10215000634907023ACE034704009307E002631F76
:10216000F704034714009307A002631BF702B2476A
:102170000904138747009C433AC663C107023ECA5D
:1021800035A83307E04093E727003ACE3EC8E1B7D1
:10219000B387670385462E84BA972DBFFD57C5B711
:1021A000050402CA8146814725460347040093057A
:1021B0001400130707FD6378E606F1F28345040077
:1021C0000D46171500001305E51CEF00704111CDF9
:1021D000971700009387071C1D8D93070004B39782
:1021E000A700424505045D8D2AC8834504001946B1
:1021F000171500001305451A130914002304B10232
:10220000EF00103E3DC197E7FFFF9387A7DF95E7FB
:102210004247B2471377071009CF91073EC692573E
:10222000D2973ED21DB5B387670385462E84BA97F1
:10223000ADBF9D07E19BA107D5B7780097060000C9
:10224000938626D626860C084E8597000000E70068
:102250000000FD572A8AE314F5FC83D7C40093F7E6
:102260000704E39A07EA125545BD78009706000077
:10227000938626D326860C084E85012AD9BF79710C
:1022800056CA9C49BA8A984522D426D24ECE52CC00
:1022900006D64AD05AC85EC6AA892E84B284368A27
:1022A00063D3E700BA879CC00347340419C385078A
:1022B0009CC01C4093F7070281C79C4089079CC0C3
:1022C0000329040013796900631A0900130B9401B0
:1022D000FD5B5C449840998F634CF9041C40834635
:1022E000340493F70702B336D000A5EB1306340489
:1022F000D2854E85829AFD576303F5041C40114632
:102300009840998B544481446397C700B384E64056
:1023100063D3040081441C4418486354F700998F28
:10232000BE94014969047D5B63982405014509A8B1
:1023300085465A86D2854E85829A631E75017D55E3
:10234000B250225492540259F249624AD24A424B44
:10235000B24B456182800509ADBF3307D400130637
:102360000003A301C7040347540493871600A297F0
:102370008906A381E7049DBF85462286D2854E85C6
:10238000829AE30E65FB050945B7797122D426D2FE
:102390004AD04ECE06D652CC56CA5AC8B68983C643
:1023A0008501930790063289AA842E84138635040A
:1023B000638DF60263E2D706930780056388F618FB
:1023C00063EDD7006381062293073004638FF60A1A
:1023D000930A24042301D404D1A093073006638612
:1023E000F60A93074006E395F6FE1C40084393F671
:1023F000070893054500CDC61C410CC363D80700F0
:102400001307D002B307F040A301E40497160000BD
:10241000938606F9294775A8930700076384F61683
:1024200063E5D7029307E006638BF6189307F0067F
:10243000E390F6FA0C401C4313F805081385470097
:102440006308080608C39C4395A893075007E383D5
:10245000F6FE93078007638BF61293073007E39924
:10246000F6F61C43D04181459386470014C383AAE6
:1024700007005685EF00D01601C53305554148C009
:102480005C401CC8A301040471A81C43930A2404E3
:10249000938647009C4314C32301F4048547D5B7B2
:1024A00093F607041C410CC3B1DAC207C187B9B760
:1024B00093F5050408C3C1D983D707001307F006B5
:1024C0006387E60E97160000938686ED2947A301E1
:1024D00004044C400CC463C5050008406D9908C055
:1024E00099E3B28A91CDB28AB3F5E702FD1AB695A7
:1024F00083C505002380BA00B3D5E70263FFE70A6E
:10250000A147631EF7001C40858B91CB58401C48A7
:1025100063C7E70093070003A38FFAFEFD1A330693
:10252000564110C84E87CA867000A2852685813B19
:102530007D5A631E450B7D55B25022549254025968
:10254000F249624AD24A424B45618280A382D50455
:10255000971600009386C6E40C40084313F805085C
:102560001C411105630D080208C313F7150001C7CC
:1025700093E505020CC04147B9FB0C4093F5F5FD0E
:102580000CC0B1B79C4193E707029CC19307800739
:10259000A302F404971600009386C6E175BF13F8F2
:1025A000050408C3E30308FCC207C1837DBF971677
:1025B00000009386E6DE214719BFAE8735B7944108
:1025C0001C43CC4913F8060813854700630608002E
:1025D00008C39C438CC301A808C393F606049C431C
:1025E000F5DA2390B70023280400B28A25BF1448E7
:1025F0005686CA8526858299E30F45F31C40898B50
:102600008DE7B2474844E359F5F23E8535B7854634
:102610005686CA8526858299E30F65F1050A5C44D2
:102620003247998FE345FAFEE9BF014A930A9401C4
:102630007D5BF5B739713EDA2ED232D436D63AD830
:1026400042DC46DE9387818122CC804326CA06CEB7
:10265000AA8409C41C4C99E3228515230C44541008
:102660002686228536C6EFF0BF97F2406244D244F8
:1026700021618280011126CA4AC806CE22CC4EC6EC
:1026800052C4AA842E8901C51C4D91E3CD299C4CCE
:10269000804499E32685E521971700009387C7D4E6
:1026A000631CF402C0408357C400A18BB1C71C480F
:1026B000A1C7FD59294A1C4483450900FD17B1E90A
:1026C0001CC463DE07062286A94526857120FD57B6
:1026D0006308F502294535A0971700009387C7D2F4
:1026E0006314F4008044C1B7971700009387C7CDE7
:1026F000E31BF4FAC04445BFA2852685312A55D98B
:102700007D55F2406244D2444249B249224A0561B1
:1027100082801CC4050963D70700184C63CBE7000F
:10272000638945011C401387170018C02380B70038
:1027300059B7228626850D20E31F35F7D1B71C40F7
:102740001387170018C029472380E70061B79387D4
:102750008181AA85884339BF011122CC26CA4AC883
:1027600006CE4EC6AA842E89328401C51C4D91E343
:10277000392197170000938727C76319F406C040D3
:102780001C4C1CC48357C400A18BC9C31C48BDCFBB
:102790001C4808409379F90F1379F90F1D8D5C4897
:1027A0006346F500A2852685652C2DE51C440505AC
:1027B000FD171CC41C401387170018C02380370165
:1027C0005C486389A7008357C400858B81CBA947E8
:1027D0006316F900A285268561240DEDF24062445E
:1027E0004A85D2444249B249056182809717000068
:1027F000938787C16314F400804459B7971700008A
:10280000938787BCE31EF4F6C0449DBFA28526854E
:1028100021203DDD7D59D9B741119387818126C2A1
:10282000844322C44AC006C62A892E8489C49C4C8B
:1028300099E32685A926971700009387E7BA631CBA
:10284000F402C0400317C40093170701C18393F635
:102850008700B5EE93F607019DEEA5472320F9000A
:10286000136707042316E4007D55B24022449244C6
:10287000024941018280971700009387E7B86314EB
:10288000F4008044C1B7971700009387E7B3E31BB8
:10289000F4FAC04445BF918B8DC74C5889C9930742
:1028A00044046384F5004A85892B232A0402835754
:1028B000C4002322040093F7B7FD2316F4001C483C
:1028C0001CC08357C40093E787002316F4001C48FC
:1028D00081EF8357C4001307002093F7072863850F
:1028E000E700A2854A85B9298357C40013F717006A
:1028F00005C75C4823240400B307F0401CCC1C48E7
:102900000145A5F78317C40013F7070839DF93E7DC
:1029100007042316F40089BF898B014791E35848C7
:1029200018C4F1BF83D7C500011122CC26CA06CE38
:102930004AC84EC613F78700AA842E8471EFD84187
:10294000634DE000B841634AE0000145F240624453
:10295000D2444249B2490561828058547DD703A9C7
:1029600004009396370123A0040063DD0606704837
:102970008357C400918B99C75C401D8E5C5899C3E6
:102980003C401D8E5C540C50814626858297FD5735
:102990000357C400631DF5009440F54763E8D7066C
:1029A000B70740208507B3D7D700858BA5C31C4840
:1029B000232204001CC09317370163D80700FD577A
:1029C0006314F5009C4091E368C84C5823A024018F
:1029D000ADDD930744046384F50026853929232A55
:1029E0000402A5B70C500146854626850297FD577F
:1029F0002A86E31FF5F69C40A5DF75476385E7004F
:102A000059476394E70423A0240181B7136707049F
:102A10002316E4007D551DBF83A90501E38709F254
:102A200003A905008D8B23A03501330939410147E6
:102A300091E3D84918C4E35A20F11C540C50CA86BB
:102A40004E86268582976349A0008357C40093E78A
:102A500007042316F4007DBFAA993309A940E1BFFA
:102A60009C49B9CF011122CC06CE2A8411C51C4D38
:102A700081E72EC62922B245971700009387C79693
:102A8000639BF5004C408397C50095C7228562443F
:102A9000F240056141BD971700009387E796639464
:102AA000F5000C44CDB7971700009387E791E39C9E
:102AB000F5FC4C44C9BFF240624401450561828087
:102AC00001458280411122C406C62A842316B5001E
:102AD0002317C50023200500232205002324050019
:102AE0002322050623280500232A0500232C0500A0
:102AF000214681451305C505EFD08FF097070000EB
:102B0000938787495CD0970700009387E74B1CD4D5
:102B100097070000938727505CD49707000093879E
:102B2000E75200D01CD8B240224441018280970570
:102B30000000938525F3A9A2411126C21306800641
:102B40009384F5FFB384C4024AC02E8922C406C60A
:102B500093854407A9262A8401CD2320050023223A
:102B60002501310508C4138684068145EFD04FE95D
:102B70002285B240224492440249410182801C4D88
:102B8000ADE3411106C622C497070000938767FA98
:102B90001CD5938701829C43232405042326050426
:102BA000232805046314F50085471CCD2A841D28BD
:102BB00048C02285052808C422852D2048C44840E5
:102BC00001469145013708440546A545E53D484481
:102BD0000946C945C53D85471CCCB2402244410148
:102BE0008280828041119387018226C284434AC039
:102BF00006C69C4C22C42A8999E3268549379384CA
:102C000084048044DC40FD1763D607009C40B9CFA4
:102C10008440C5BF0317C40039E7C1778507232265
:102C200004062320040023220400232404005CC49F
:102C300023280400232A0400232C04002146814574
:102C40001305C405EFD0CFDB232A0402232C040292
:102C500023240404232604042285B24022449244FF
:102C60000249410182801304840671BF91454A855F
:102C7000E13588C051FDB1472320F9000144E9BF87
:102C8000797122D44AD052CC56CA5AC85EC606D6EA
:102C900026D24ECE2A8AAE8A130485040149054BFA
:102CA000FD5B09ECB25022544A8592540259F24914
:102CB000624AD24A424BB24B456182800444832926
:102CC0004400FD1963D409000040E1BF83D7C4006C
:102CD000637BFB008397E40063877701A6855285B9
:102CE000829A3369A90093848406E1BF1971A6DA38
:102CF000AE848395E500A2DC86DE328463DC0500C9
:102D000083D7C40023A0060093F707089DE3930729
:102D1000004015A0300836C67126B246E34205FED3
:102D20007247BD67F98F7977BA9793B717009CC23E
:102D3000F9BF930700041CC0F6506654D6540145F1
:102D40000961828083D7C500011122CC06CE26CA34
:102D50004AC8898B2E8489CF930774041CC01CC871
:102D600085475CC8F2406244D24442490561828092
:102D700074003000AA849D3FA2452A892685052239
:102D800001ED8317C40013F7072069FFF19B93E758
:102D900027002316F400C9B797070000938767D967
:102DA0009CD48357C40008C008C893E707082316BB
:102DB000F400A2475CC8B24789CF8315E40026859A
:102DC000392601C98357C400F19B93E717002316E6
:102DD000F4008357C4003369F9002316240159B75E
:102DE00093F5F50F2A966314C50001458280834749
:102DF0000500E38DB7FE0505FDB7CDC183A7C5FF6F
:102E0000411122C406C626C21384C5FF63D307003E
:102E10003E94AA8439269387C1829C4399EB23224E
:102E2000040023A681822244B240268592444101B7
:102E3000D5AC637EF40014403307D4006396E700FA
:102E40009843DC43369718C05CC0E1BFBA87D843CB
:102E500019C3E37DE4FE94433386D700631F8600E5
:102E60001040B29694C33386D700E31EC7FA1043CE
:102E70005843B29694C3D8C37DB76375C400B147B5
:102E80009CC055B71040B306C4006316D700144366
:102E90005843B29614C058C0C0C371B782800111A4
:102EA00026CA93843500F19806CE22CC4AC84EC675
:102EB000A104B14763F1F404B14463E0B4042A8986
:102EC0008D249387C18298433A8431E093870183AC
:102ED0009C4391E781454A85512823A8A182A68574
:102EE0004A856920FD5963173507B1472320F9004A
:102EF0004A850D2C29A0E3D204FCB1471CC1014531
:102F0000F2406244D2444249B249056182801C4089
:102F1000858F63CE0702AD4663F6F6001CC03E9473
:102F200004C031A05C406312870223A6F1824A8567
:102F3000D52A1305B4009307440061993307F5407F
:102F400061D33A94898F1CC065BF5CC3CDB722871B
:102F50004040A5BF130435007198E30385FCB30519
:102F6000A4404A852120E31D35FB41B7411122C40D
:102F70002A842E8523A601DA06C6112CFD57631775
:102F8000F5009387C1DA9C4391C31CC0B240224430
:102F900041018280411122C42E848395E50006C63A
:102FA0005922634905007C48AA977CC8B240224454
:102FB000410182808357C4007D777D17F98F2316E6
:102FC000F400EDB783D7C500011122CC26CA4AC848
:102FD0004EC606CE93F70710AA842E843289B6898E
:102FE00091C78395E5008946014631228357C40085
:102FF0007D777D17F98F2316F4008315E400624472
:10300000F240CE864A86B24942492685D2440561BD
:103010003DA8411122C42E848395E50006C6E1280F
:10302000FD570357C400631BF500FD77FD17F98FAB
:103030002316F400B2402244410182808567D98F73
:103040002316F40068C8FDB78395E50005A8411173
:1030500022C42A842E85B285368623A601DA06C6C6
:10306000EFD02FF9FD576317F5009387C1DA9C4322
:1030700091C31CC0B240224441018280411122C44C
:103080002A842E8523A601DA06C6E120FD576317A0
:10309000F5009387C1DA9C4391C31CC0B24022441F
:1030A00041018280411122C42A842E85B28523A643
:1030B00001DA06C66D20FD576317F5009387C1DA64
:1030C0009C4391C31CC0B240224441018280411103
:1030D00022C42A842E8523A601DA06C67920FD574C
:1030E0006317F5009387C1DA9C4391C31CC0B240BB
:1030F000224441018280411122C42A842E85B28556
:10310000368623A601DA06C6BD20FD576317F500F3
:103110009387C1DA9C4391C31CC0B2402244410151
:10312000828082808280411122C42A842E85B285C9
:10313000368623A601DA06C6A920FD576317F500D7
:103140009387C1DA9C4391C31CC0B2402244410121
:1031500082809307800523A6F1DA7D55828093074C
:10316000800523A6F1DA7D5582809307800523A68A
:10317000F1DA014582809307800523A6F1DA7D55B7
:1031800082809307800523A6F1DA7D55828093879C
:1031900041839C4391C73E9523AAA1823E858280AC
:1031A000938701DB3E9523AAA1823E8582800000A1
:1031B00054686973206973207072696E7466206543
:1031C00078616D706C650D000D0A20464C415348C6
:1031D0005F53454354494F4E5F494E4445583A204A
:1031E00025642C20464C4153485F504147455F4978
:1031F0004E4445583A2025642C206F726967696EE9
:103200002064617461206973203A00000D0A20690E
:103210006E7433325F74797065203A202564000043
:103220000D0A61D6B5CEAA25700000000D0A202D2A
:103230002D00000000080140000C0140001001407A
:1032400000140140001801400038014000440040D3
:1032500000480040004C0040005000400018004072
:10326000001C004000200040621B0000201A0000EB
:103270002E1900009C1A00002E190000F8190000F9
:103280008E1800002E190000021A0000161A000005
:10329000441B00004A1B000009024300020100A079
:1032A000320904000001020201000524001001059A
:1032B0002401000004240202052406000107058100
:1032C000034000FF09040100020A00000007050294
:1032D00002400000070582024000000012010002C7
:1032E00002000008861A22570001010203010000B3
:1032F0000E037700630068002E0063006E0000007C
:103300000C03430048003300300037001403320040
:103310003000310037002D0032002D003200350022
:10332000160330003100320033003400350036001F
:1033300037003800390000000A060002FF00FF4095
:10334000010000000A426175642052617465203DED
:10335000202564000A64617461426974203D20255F
:10336000640000000A73746F70426974203D202568
:10337000640000000A706172697479547970652084
:103380003D20256400000000232D302B200000008C
:10339000686C4C0065666745464700003031323343
:1033A0003435363738394142434445460000000041
:1033B00030313233343536373839616263646566AB
:1033C00000000000000000000000000000000000FD
:1033D00000000000000000000000000000000000ED
:1033E00000000000000000000000000000000000DD
:1033F00000000000000000000000000000000000CD
:1034000000000000000000000000000000000000BC
:1034100000000000000000000000000000000000AC
:0434200000000000A8
:103424000000000001020304010203040607080966
:103434000907000000000000000000000000000078
:103444000000000000000000000000000000000078
:103454000000000000000000000000000000000068
:103464000000000000000000000000000000000058
:103474000000000000000000E433000004340000F9
:10348400C433000000000000000000000000000041
:103494000000000000000000000000000000000028
:1034A4000000000000000000000000000000000018
:1034B4000000000000000000000000000000000008
:1034C40000000000000000000000000000000000F8
:1034D40000000000000000000400000004000000E0
:1034E4000204060800C20100000008010044950817
:1034F40054000020040309045400002000000000CC
:00000001FF
