:100000006F10302F130000001300000013000000D9
:100010001300000013000000130000001300000094
:100020001300000013000000130000001300000084
:08003000130000007300100032
:100038000000000000000000A8020000AC02000060
:1000480000000000381A0000000000000000000056
:100058003A1A00003C1A00000000000000000000EE
:100068003E1A000000000000401A000000000000D6
:10007800421A0000441A0000461A0000481A0000FC
:100088004A1A00004C1A000002040000160400007E
:100098003C0400005204000068040000581A0000E4
:1000A8005A1A00005C1A00005E1A0000601A00006C
:1000B800621A0000641A0000661A0000681A00003C
:1000C8006A1A00006C1A00006E1A00007E04000014
:1000D800721A0000D8050000761A0000781A00008D
:1000E800FE0500002206000048060000801A0000F5
:1000F800821A0000841A0000861A0000881A00007C
:100108008A1A0000AE020000D802000002030000B4
:1001180056050000941A0000961A0000981A00006C
:10012800D40600009C1A00009E1A0000A01A0000C5
:10013800A21A0000A41A00006E060000A81A000007
:100148002C0300005603000094060000AE060000D1
:10015800B21A0000B41A0000B61A0000B81A00005B
:10016800BA1A0000BC1A0000BE1A0000C01A00002B
:10017800C21A0000C41A0000C61A0000A625000012
:10018800CA1A0000CC1A0000E6030000740300003D
:100198009E030000C8030000D61A0000FA060000FB
:1001A800DA1A0000DC1A0000DE1A0000200700003E
:1001B800E21A0000E41A0000E61A0000E81A00003B
:1001C800EA1A0000EC1A0000EE1A0000F01A00000B
:1001D8000000000000000000000000000000000017
:1001E8000000000000000000000000000000000007
:0801F8000000000000000000FF
:100200003D432A876373C3029377F700BDEFADE5E3
:10021000937606FF3D8ABA960CC34CC30CC74CC7F5
:100220004107E36BD7FE11E28280B306C3408A0622
:100230009702000096966780A6002307B700A306E2
:10024000B7002306B700A305B7002305B700A30432
:10025000B7002304B700A303B7002303B700A3022A
:10026000B7002302B700A301B7002301B700A30022
:10027000B7002300B700828093F5F50F93968500B1
:10028000D58D93960501D58D61B79396270097027A
:10029000000096968682E78086FA9680C1171D8FA9
:1002A0003E96E374C3F8A5B77300203001A0411156
:1002B00022C6374401409305505213050480EF20B5
:1002C000E02119C59305505213050480EF20402505
:1002D0003244410173002030411122C637440040AE
:1002E0009305505213050440EF20401F19C5930594
:1002F000505213050440EF20A02232444101730004
:100300002030411122C63754004093055052130546
:100310000480EF20A01C19C59305505213050480DA
:10032000EF2000203244410173002030411122C6E9
:100330003754004093055052130504C0EF20001AB3
:1003400019C593055052130504C0EF20601D3244B7
:100350004101730020309305505237550040EF2083
:10036000E01719C59305505237550040EF20401B48
:1003700073002030411122C63724004093055052AB
:1003800013050480EF20801519C5930550521305FD
:100390000480EF20E0183244410173002030411105
:1003A00022C63724004093055052130504C0EF20A5
:1003B000E01219C593055052130504C0EF204016F2
:1003C00032444101730020309305505237250040DC
:1003D000EF20C01019C59305505237250040EF207B
:1003E000201473002030B707055003C70701118B95
:1003F00019C703C707011377B70F2388E7007300F6
:1004000020300545EF10F00485476314F500EF1028
:100410003006730020300945EF10B0038547631D97
:10042000F5000945EF10D004130520088145EF00C1
:10043000900F5145EF000068730020301145EF1018
:10044000500185476315F5001145EF1070027300E8
:1004500020302145EF10E07F85476315F5002145E9
:10046000EF101001730020304145EF10807E85476A
:100470006315F5004145EF10A07F73002030411156
:100480001305000222C626C44AC2EF10807C8547AD
:100490006316F50013050002EF10807D13050004BC
:1004A000EF10207B85476316F50013050004EF105D
:1004B000207C13050008EF10C07985476316F5000E
:1004C00013050008EF10C07A13050010EF106078D4
:1004D00085476316F50013050010EF1060791305CA
:1004E0000020EF1000778547AA846313F504EF100E
:1004F00040761DC9814513054002EF00D0021384E8
:1005000001828347040081453705004085EBEF10E9
:100510003067854537050040EF10705C230094007C
:1005200023AC018223A0018413050020EF10407446
:100530003244A2441249410173002030EF10305A76
:100540003705004023000400EF10F06323A0A184CE
:10055000238E9182D1BF41111305004022C6EF10B6
:10056000406F85476316F50013050040EF1040709B
:10057000056413050480EF10C06D85476316F50010
:1005800013050480EF10C06E0565EF10806C854781
:100590006315F5000565EF10A06D0965EF10606B40
:1005A00085476315F5000965EF10806C1165EF1044
:1005B000406A85476315F5001165EF10606B216592
:1005C000EF10206985476315F5002165EF10406A3B
:1005D0003244410173002030411122C637340140BA
:1005E0008545130504C0EF10105C11C58545130542
:1005F00004C0EF10105D3244410173002030854586
:1006000037050040EF10305A19C9854537050040BD
:10061000EF10305B83A78183850723ACF1827300E1
:100620002030411122C6370400408545130504409F
:10063000EF10705711C5854513050440EF10705831
:100640003244410173002030411122C6371400406A
:10065000854513050480EF10105511C58545130518
:100660000480EF10105632444101730020304111D4
:1006700022C6371400408545130504C0EF10B05260
:1006800011C58545130504C0EF10B0533244410134
:1006900073002030854537150040EF10D05011C54C
:1006A000854537150040EF10D051730020304111BF
:1006B00022C637140040854513050440EF10B04EA4
:1006C00011C5854513050440EF10B04F3244410178
:1006D00073002030411122C637340140854513058F
:1006E0000440EF10504C11C5854513050440EF1030
:1006F000504D3244410173002030411122C637541D
:1007000001408545130504C0EF10F04911C585452A
:10071000130504C0EF10F04A324441017300203049
:10072000854537550140EF10104811C585453755AF
:100730000140EF10104973002030411106C622C459
:10074000834515002A840145EF10A0288345240025
:100750000145EF100028834534000145EF10602764
:100760009305E0020145EF10C02683454400014592
:10077000EF102026B5450145EF10A0252244B240D8
:10078000A945014541016F10C024011106CEEF10AB
:10079000A0139D282C00EF1000242800793F13059A
:1007A000401F092EFDB7411106C622C415E537C406
:1007B0000200A1460146930504F213053020EF0024
:1007C0005025A1460146930504F21305202022443A
:1007D000B24041016F00F02385476313F50237C42F
:1007E000020081460146930504F213051010EF0044
:1007F000502281460146930504F213050010C1BF43
:10080000B240224441018280397122DC06DE26DAC0
:100810004AD84ED652D456D25AD05ECE62CC66CA90
:100820006AC86EC60544130590060D23E30D85FEC8
:10083000854513054002C529514589248145130585
:100840004002D52183C5C18303A601843E84B757E6
:10085000000083A947F4B757000083AD81830145A9
:100860003689BA84B75C0000375C0000B75B0000D3
:1008700003AA87F583AAC7F5375B0000A5C53285B3
:10088000EF30002DCE85EF20D0582A8D6E85EF30C9
:10089000202CAA856A85EF203021CE85EF304002DA
:1008A00083A58CF4EF30C0018325CCF4EF20705683
:1008B000EF30E03603A60BF583A64BF5EF20804D15
:1008C0005286D686EF20004D5286D686EF20804C89
:1008D00003260BF683264BF6EF20C04BEF201017B4
:1008E000238E018223A00184F250625423AC018242
:1008F0004259D254B259225A925A025BF24B624C7C
:10090000D24C424DB24D21618280797122D44AD0BD
:100910004ECE52CC56CA06D626D28347150037345F
:10092000014081452306F100834705001309C100FA
:10093000130AF100A306F10083472500130504C044
:10094000130404C02307F100EF1090238965938AF4
:10095000C55193894513A14483470900FD14CE85F1
:10096000B3D79740858B91E3D6850D4519218545F1
:100970002285EF10D01685452285EF10302165DDE8
:1009800081452285EF10B01585452285EF10D020D6
:1009900081452285EF10D01EE1F00509E31D2AFBF9
:1009A000B250225492540259F249624AD24A4561E5
:1009B0008280B7C50200011181460146938505F288
:1009C0000D4506CE2316010023070100EF00700439
:1009D000373501408945130505C0EF10F018680050
:1009E0002D3713054006592868000537F240056188
:1009F0008280B7170240DC4337177A0013070720BD
:100A0000C983BD8BB387E7023727F400130707407C
:100A1000F16593061002130600029385052009452F
:100A2000BA9723A2F1826F00F04A011126CAB75487
:100A3000004022CC4AC84EC606CEAE893289014457
:100A400093840480634A2401F24062444A85D2447C
:100A50004249B24905618280930500042685EF1062
:100A600030277DD9B3878900838507002685050453
:100A7000C205C181EF103025F1B7828083A7C18004
:100A800037177A0013070720B3D7E70281460147DB
:100A90003385A702B7F700E023A0070094C7D8C7A3
:100AA000054798C3B7F600E09846DC4699E3E37D36
:100AB000E5FE828083A7C1800967130707F4B3D7D7
:100AC000E702814601473385A702B7F700E023A07C
:100AD000070094C7D8C7054798C3B7F600E0984603
:100AE000DC4699E3E37DE5FE828009E58146014627
:100AF0008145A1AA0547E30BE5FE0947E308E5FEAA
:100B00000D47E305E5FE1147E302E5FE1547E30F58
:100B1000E5FC1947E30CE5FC1D47E309E5FC21472B
:100B20006318E50081460146814513050002D1B7EF
:100B300025476318E50081460146814513051002EB
:100B40004DBF29476318E5008146014681451305DD
:100B5000000445B72D476318E500814601468145ED
:100B60001305100479B731476318E5008146014643
:100B7000814513052004B5BF35476318E50081465C
:100B80000146814513053004ADB739476318E500C8
:100B900081460146814513054004A1BF3D476318C6
:100BA000E5008146014681451305500499B78280CE
:100BB000797122D485452A841305002006D626D2D1
:100BC000EF1000332285153703A74182B7C701050F
:100BD000938707D0316563E3E7002165372401403F
:100BE000EF10C01E13050440EF009079B7070E0008
:100BF0003EC68A85854713050440230AF10002C0DA
:100C000002C202C402C8EF00107C854513050440EF
:100C1000EF10E00013050440EF106001930404405E
:100C20002685EF1060016DFD130504403724014057
:100C3000EF100001130404402285EF1000016DFD48
:100C4000B25022549254456182809307F00F630B97
:100C5000F50C797122D41354550026D24AD04ECEC9
:100C600052CC06D61D889374F5003689328AAE8937
:100C700035E085451145EF10A0278547B3949700CF
:100C8000C204C180231291006399F90093170901EE
:100C9000C183A18391E38D473EC49567938787F60F
:100CA0000A043E9400401379F90F4C0022854AC68D
:100CB000EF00B07C85476397F9005286A6852285B0
:100CC000EF10C007B250225492540259F249624ABE
:100CD0004561828085476315F4008545214561BFE4
:100CE00089476315F4008545414571B78D47631603
:100CF000F400854513050002BDBF91476316F4005B
:100D000085451305000485BF95476316F4008545A6
:100D1000130500088DB79947E311F4F685451305CF
:100D2000001091BF82809357550013972700956755
:100D3000938787F6BA9798439377F500054533155F
:100D4000F50099C108CB828048CB828013573500CB
:100D50009376C7011567130787F636971C439847A4
:100D600085473395A700798D3335A0008280828036
:100D700082809357850015671307C7F78A07BA97CC
:100D800098430D890A058357C7023A95B385F50242
:100D9000896793870771B3D5F502C205C1814CD924
:100DA000828019E59306803101468545214571BD54
:100DB00085476318F5009306803101468545254532
:100DC000FDB789476318F5009306803101468545D4
:100DD0002945F1BF8D476318F50093068031014620
:100DE00085452D45E9B7C1476319F5009306803164
:100DF00001468545130590085DBFC5476319F50099
:100E000093068031014685451305B0084DB7C947A3
:100E10006319F50093068031014685451305D00816
:100E200079B7CD476319F5009306803101468545B2
:100E30001305E008ADBF930700106318F500930693
:100E400080310146854501459DB793071010631811
:100E5000F5009306803101468545054589BF930716
:100E600020106318F5009306803101468545094539
:100E70003DBF930730106318F5009306803101469B
:100E800085450D452DB7930700116318F5009306AE
:100E90008031014685453D4519BF930710116319FF
:100EA000F50093068031014685451305300201B7F0
:100EB000930720116319F50093068031014685459B
:100EC0001305A002EDB5930730116319F5009306E1
:100ED0008031014685451305B002D1BD930700203E
:100EE0006318F50093068031014685451945C1B563
:100EF000930710206318F50093068031014685455D
:100F00001D4575B5930720206319F50093068031C0
:100F1000014685451305000259BD9307302063192A
:100F2000F50093068031014685451305100241B551
:100F3000930700216319F50093068031014685452A
:100F400013056004ADB5930710216319F5009306EE
:100F50008031014685451305700491BD930720211A
:100F60006319F50093068031014685451305800419
:100F70003DBD930730216319F5009306803101468A
:100F800085451305900425B5930700226319F500E4
:100F900093068031014685451305400209BD93073C
:100FA00010226319F500930680310146854513052B
:100FB0005002F5BB930700306319F50093068031AA
:100FC0000146854513056002DDB3930710306319B0
:100FD000F500930680310146854513057002C1BBBB
:100FE000930720306319F50093068031014685454B
:100FF000130580026DBB930730306319F50093062B
:101000008031014685451305900255B393070031A1
:101010006319F50093068031014685451305C00626
:1010200079B3930710316319F500930680310146B7
:1010300085451305D006A5BB930720316319F5003C
:1010400093068031014685451305E0068DB393076D
:1010500030316319F500930680310146854513054B
:10106000F006B1B393070040E30BF5DC93071040A3
:10107000E301F5DE93072040E307F5DE93073040F8
:10108000E30DF5DE93070070E308F5EA93071070AF
:10109000E30FF5EA93072070E306F5EC9307307051
:1010A000E30DF5EC93070071E30AF5F09307107177
:1010B000E301F5F293072071E308F5F2930730712D
:1010C0006319F50093068031014685451305D00468
:1010D000F9B993070580E38807D8856713871780D8
:1010E000E30DE5D8138727806318E5009306803168
:1010F00001468545114565B9938737806319F50029
:101100009306803101468545130540044DB185673E
:10111000138707816319E5009306803101468545F1
:101120001305900669B1138717816319E5009306CB
:101130008031014685451305B00695B9138727818F
:10114000E305E5EE13873781E307E5F013870790A2
:10115000E30CE5E813871790E303E5EA138727908C
:101160006319E50093068031014685451305300477
:101170003DB9138737906319E50093068031014626
:1011800085451305B00425B1138707916319E50060
:1011900093068031014685451305100609B99387EA
:1011A00017916319F50093068031014685451305B3
:1011B0003006F5BE8567138727916319E50093060E
:1011C00080310146854513055006D5B61387379102
:1011D0006319E500930680310146854513057006C5
:1011E000F9B613870792E30EE5CA13871792E30156
:1011F000E5DA13872792E308E5DA938737926319D4
:10120000F50093068031014685451305F00445B687
:101210008280397106DE22DC26DA2A844AD84ED64C
:101220002EC632C43689B53EB24583A7C180224658
:101230009359840033D7B7024E8541839306170034
:10124000B386B602B3D7D70293940701C180B384A3
:10125000C402096613060671FD1793950701C18143
:10126000B3D4C4023A86B52285450545EF005048FF
:10127000935744000547C204C1806394E7063705CD
:10128000160085451305050CEF00F02BC1671567A7
:1012900093870706139529001307C7F73EC83A95A9
:1012A00093773400231B9100231C0100231E0100AF
:1012B0000041E9E70C082285EF003055854522857D
:1012C000EF10A003CA852285EF1080042285854592
:1012D000EF10E000F2506254D2544259B2592161E9
:1012E000828045476398E700370518008545130558
:1012F000053059BF130710026398E70037151A002D
:101300008545130505C049B7130720026398E70018
:1013100037151A00854513050580BDB7130710035F
:101320006395E7008545056585B713071007639941
:10133000E700370701405C4F93E747005CCFB9B740
:10134000130710086398E700370701405C4F93E7E5
:101350000701EDB7130710096398E700370701404D
:101360005C4F93E70704D9BF13072009E390E7F226
:10137000370701405C4F93E70702C9B70547639FF2
:10138000E7000C082285EF00505222858545EF00CA
:10139000D076CA852285EF00D0780DBF09470C08AA
:1013A0002285639DE700EF00105D22858545EF00F3
:1013B000D074CA852285EF00707809BFEF005068AD
:1013C00022858545EF007073CA852285EF0030784D
:1013D000F5BD011122CC26CA4AC806CE2A842E8920
:1013E000B28401E90565854513050580EF0050309D
:1013F00039A08547631EF5028545EF00503195679A
:101400009387C7F70A043E9408404C002314210137
:10141000231291002315010023130100230601006C
:10142000EF00B032F2406244D2444249056182800A
:101430008947E303F5FC8D476315F50085451145A4
:101440006DBF91476315F500854521457DB79D47E3
:101450006315F5008545096551BFA1476316F50081
:1014600085453705080059B7A547E31AF5F88545BE
:1014700037051000A5BF95670A059387C7F9AA9796
:1014800098438357070093F70708E5DFC205C1813A
:101490002312B7008280411106C60DE1854763988B
:1014A000F522E14601462545EFF02FFA9146014627
:1014B00081452945B24041016FF02FF98947631FEB
:1014C000F500E1460146854513056002EFF0EFF7B0
:1014D00091460146814513057002E9BFC147631D6E
:1014E000F500E146014685450945EFF00FF69146C6
:1014F000014681450D457DBFC947631FF500E146A3
:101500000146854513055006EFF02FF4914601463C
:1015100081451305600679BF93070002631FF5003C
:10152000E146014685451305A002EFF00FF2914612
:10153000014681451305B002B5BF93072002631F22
:10154000F500E146014685451305A004EFF0EFEFF5
:101550009146014681451305B004A9BF9307400297
:101560006310F502E1460146854513058006EFF05C
:10157000CFED9306800401468145130590061DBFFB
:1015800093070004E30FF5FA93072004631FF500A7
:10159000E1460146854513050002EFF00FEB914649
:1015A000014681451305100231B793070005631FFB
:1015B000F500E146014685451305C004EFF0EFE86C
:1015C00091460146814513052006EDB59307200598
:1015D000631FF500E1460146854513058008EFF0DD
:1015E000CFE691460146814513059008E1B5930782
:1015F00000066310F502E146014685451305000427
:10160000EFF0AFE493068004014681451305100412
:1016100055B593072006631FF500E1460146854551
:101620001305A008EFF06FE29146014681451305CE
:10163000B00849B593070007631FF500E14601466E
:10164000854513052004EFF04FE0914601468145A2
:101650001305300485B5930720076317F500E146AD
:10166000014685451945C5B793074007631FF50037
:10167000E146014685451305C008EFF00FDD9146B0
:10168000014681451305D00835B593070008631F4F
:10169000F500E1460146854513054004EFF0EFDA19
:1016A0009146014681451305500429B5930720084A
:1016B000631FF500E146014685451305E008EFF09C
:1016C000CFD89146014681451305F008E5B3B240F5
:1016D00041018280797122D44ECE2A84AE8905459B
:1016E000854526D24AD006D6B2843689EF0050000E
:1016F0008947639DF4048D476315F90085451145BD
:101700009925631B041285451165EF00607ECA852B
:1017100026855133B7070C003EC495679387C7F9F8
:101720000A043E9400408A854EC0228502C22316D8
:101730000100EF00F04922858545EF001057B250B7
:10174000225492540259F24945618280C9476398F4
:10175000F400CD47E317F9FA8545214555B79307BE
:101760002002639BF40093073002E31CF9F837056D
:1017700014008545410569B793074002639CF40056
:1017800093075002E31FF9F637051400854513054A
:101790000503BDB7930720046399F4009307300451
:1017A000E311F9F685450565A1BF93072005639B05
:1017B000F40093073005E316F9F43705200085455A
:1017C00005053DBF93072006639CF4009307300690
:1017D000E319F9F2371500808545130505800DB72B
:1017E00093072007639EF40093073007E31BF9F08B
:1017F000370701405C4FB7064000D58F5CCF11B76B
:1018000093074007639CF40093075007E31BF9EE2E
:10181000370701405C4FB7068000C5B79307200823
:10182000E391F4EE93073008E31DF9EC370701402C
:101830005C4FB7060002D1B785476317F4008545B2
:1018400037050200E925E1B589476316F4008545AF
:1018500037050400C5BF8D476316F400854537057D
:101860000800CDB791476316F40085453705100091
:10187000D1BF95476316F400854513050004D9B719
:1018800099476316F40085451305000865BF9D4719
:10189000E31FF4E68545130500106DB78547631A0D
:1018A000F5009306003105468545130520086FF0C5
:1018B000CFB989476319F500930600310546854580
:1018C00013053008EDB78280411106C6EFF04FCA0C
:1018D000EFF02F92EFF06F9A0145EFE0DFEC054556
:1018E000EFE07FEC0545A920094599200D458920A9
:1018F00011453D2815452D2819451D280945EFF0AE
:101900002FAB0D45EFF0CFAA1145EFF06FAA1545AB
:10191000EFF00FAA1945EFF0AFA90545413709458A
:10192000B53FEFF00F897128B24041016FF02FC42D
:10193000411122C406C685472A846314F502930622
:1019400080340546814513050004EFF00FB0994738
:101950006315F4069306803405468145130550044B
:1019600025A089476319F500930680340546814513
:1019700013051004D9BF8D47631DF500930680340D
:1019800005468145130520042244B24041016FF011
:10199000CFAB91476319F500930680340546814526
:1019A00013053004D5B79547E313F5FA9306803451
:1019B0000546814513054004C1BFB24022444101A0
:1019C000828093068004054681451305A0066FF0CA
:1019D000CFA76FF05FAA2947B377E5029387070384
:1019E0002382F500B357E502B3F7E70293870703B5
:1019F000A381F50093074006B357F502B3F7E7025A
:101A0000938707032381F5009307803EB357F502C0
:101A1000B3F7E70293870703A380F50089679387ED
:101A200007713355F5023375E5021305050323806D
:101A3000A500828001A001A001A001A001A001A039
:101A400001A001A001A001A001A001A001A001A08E
:101A500001A001A001A001A001A001A001A001A07E
:101A600001A001A001A001A001A001A001A001A06E
:101A700001A001A001A001A001A001A001A001A05E
:101A800001A001A001A001A001A001A001A001A04E
:101A900001A001A001A001A001A001A001A001A03E
:101AA00001A001A001A001A001A001A001A001A02E
:101AB00001A001A001A001A001A001A001A001A01E
:101AC00001A001A001A001A001A001A001A001A00E
:101AD00001A001A001A001A001A001A001A001A0FE
:101AE00001A001A001A001A001A001A001A001A0EE
:101AF00001A07390123497F1FF1F938121DC1761CD
:101B0000002013012150174500001305258797E594
:101B1000FF1F9385254F1386018263FAC500832238
:101B2000050023A0550011059105E3EAC5FE1385C4
:101B300001829385C19A6377B500232005001105C2
:101B4000E36DB5FEFD42739002BCFD42739042808E
:101B5000B78200009382828873A0023097E2FFFF71
:101B60009382C24D93E2320073905230EF106010B6
:101B700097F2FFFF9382A2C173901234730020305A
:101B80004111B727014006C693870740631CF50043
:101B9000854513050020592E814513050020B240CC
:101BA000410169A6B737014093870780631AF500A2
:101BB0008545130500409D2E814513050040C5B79E
:101BC000B240410182805C413707F1E01307F7EF33
:101BD000944D7D8F9C41D58FD44DD58FD441A20695
:101BE000D58FD98F5CC11C4537F7F1FF1307D77F1D
:101BF000D4457D8F9C49D58F94458606D58FD98F46
:101C00001CC55C55370710FF7D177D8F83C74501C5
:101C1000FD1793F7F70FD207D98F5CD582801C454B
:101C200089C593E717001CC58280F99BEDBF1C4551
:101C300093E787001CC5828008450D810589828055
:101C40001C4593E747001CC582800845098105892A
:101C50008280B70701401387074083A70740584B8E
:101C6000698F09C77D8D3335A00082800145828050
:101C7000B707014023AAA74082809C4513F70701BC
:101C800013F8F70001C7D8413368E80083D5050091
:101C900013F7F50F39C318418146854E3D4F930F19
:101CA000800293028004214E3396DE00B3F8C50013
:101CB000631116039398260033131F011343F3FF98
:101CC0003377E300B318180133E7E800639FF705A3
:101CD00050C98506E39AC6FD18C11307F00F637556
:101CE000B70454412146854E3D4F930F8002930225
:101CF0008004414EB398CE0033F715016392E80299
:101D00001317260001173313EF001343F3FFB376C5
:101D1000D3003317E800D98E639DF701232A1501FC
:101D20000506E319C6FD54C18280E39457FA10C931
:101D30004DB7E39757FE23281501DDB719C20CC92B
:101D400082804CC98280B707014063550504D44F97
:101D5000B7073000131705013376F5004183631D83
:101D6000F602370600F17D1637080140B3F7C600CA
:101D700083264800758E2322C80099C593565501C5
:101D800092063317D700D98F37070140635E0502EB
:101D90005CCF8280D4436DBF9317B50063D0070238
:101DA0009357050113F6F7008D47B397C70093C704
:101DB000F7FFF58FB706000FD58FC1B793575501C1
:101DC0009207B317F700E5B75CC38280B7160240ED
:101DD000DC4251777D17F98F5D8DC8C2828037173D
:101DE00002405C439146B18B6385D700A14663886E
:101DF000D706B7177A00938707201CC13716024011
:101E00005C4237070020130707009183BD8BBA9708
:101E100083C607001C41B3D7D7005CC15442A182DE
:101E20009D8ABA9683C60600B3D6D70014C554421D
:101E3000AD829D8A369703470700B3D7E7005CC59C
:101E40005842398393763700370700201307870BF2
:101E5000369703470700B3D7E7021CC982805C436B
:101E600054434167C983F98E37F7FF1F0327C770B3
:101E7000BD8B8907131617016348060045460147C5
:101E80006392C702C94739A809476389E7023D47FA
:101E90006388E70241476388E70245460147639349
:101EA000C700C14785E6B746024083A60680C18ABF
:101EB0008DC6B7167A009386062025A00147D9B7AC
:101EC0000547B547C5B70147BD47E9BFB71602404B
:101ED000D4421396E600E35E06FCB7163D009386F7
:101EE0000690B387D7021CC111DB1C41858331B733
:101EF00099C5371702401C4F5D8D08CF8280B717F8
:101F00000240984F1345F5FF798D88CF828099C59F
:101F1000371702405C4F5D8D48CF8280B717024073
:101F2000D84F1345F5FF798DC8CF828099C53717F3
:101F300002405C475D8D48C78280B7170240D84792
:101F40001345F5FF798DC8C7828083570500373761
:101F50000140930607C0C207C1836300D504B706DA
:101F60000040630CD502938606406308D502B7167D
:101F70000040138606806302C502938606C0630E86
:101F8000D50013070740630AE50037570140930661
:101F900007C06304D5006317E50003D7250093F756
:101FA000F7F8D98F37170040630DE5001307074096
:101FB0006309E50093F7F7CF03D76500C207C18334
:101FC000D98F2310F50083D745002316F50283D758
:101FD00005002314F502B7370140138707C0630ECD
:101FE000E50093870740630AF500B7570140138760
:101FF00007C06304E5006316F50083C78500231856
:10200000F5028547231AF50082808357050203D61F
:10201000050003D82500C207C183F99BC207C1830D
:102020002310F502835705028356450003578501A7
:10203000C207C183420741831377C7F8518F03D684
:102040008500F59BC20633660601D18F3736014005
:10205000130806C0C182630E050113060640630A19
:10206000C50037560140130806C063040501631319
:10207000C50203D6A500DD9B03D8E500D18F03D6AA
:102080004500ED9B93F6F6CFD18F03D6C50033669E
:102090000601D18E2312D500231CE50003D765006D
:1020A000231AE5022310F502828083570502657723
:1020B0001307F7CFC207C183BD9BC207C18323109B
:1020C000F502835705028356450003D88500C207F1
:1020D0001396060183568501C18393F7F7FD758F2B
:1020E00083D605004182A206558F83D6250042077C
:1020F0004183B3E606019206D58FB7360140C20789
:10210000138806C0C183630E050193860640630AE7
:10211000D500B7560140138806C06304050163115A
:10212000D50483D6A50093F7F7F703D8C500920628
:10213000D58F83D64500C207C183920693F7F7FB7C
:10214000D58FFD769386F63FF18E03D6E500C20764
:10215000C183336606010A06D18E139606014182B9
:102160002312C500231CE50003D76500231CE502EC
:102170002310F50282808357050203D88500C20729
:10218000C18393F7F7EFC207C1832310F50283578A
:102190000502835645000357C501C2071396060181
:1021A000420783D6050041831377C7F8558F83D63E
:1021B0002500C18393F7F7DFB3E60601A206D58FAA
:1021C000B7360140C207138806C04182C183630E3F
:1021D000050193860640630AD500B756014013886F
:1021E00006C0630405016312D504FD769386F67F6D
:1021F000F58F83D6A50003D8C500A206D58F83D658
:102200004500C207C183A20693F7F7BFD58FF576C5
:10221000FD16F18E03D6E500C207C18333660601C1
:102220001206D18E1396060141822312C500231E89
:10223000E50003D76500231EE5022310F502828026
:1022400003570502FD77FD17F98F2310F502035898
:102250000502835645008357C5016577139606012D
:1022600083D605001307F7CF7D8FF977A206FD17F8
:10227000558FB3F7070183D6250003D885004207A1
:102280004182B3E60601B206D58FB7360140C207D8
:10229000138806C04183C183630E050193860640FF
:1022A000630AD500B7560140138806C063040501D0
:1022B000631CD500F176FD16F18E03D6C5001A0613
:1022C000D18E1396060141822312C500231EE5001C
:1022D00003D765002310E5042310F502828083579D
:1022E000050091C593E717002310F5008280C2070F
:1022F000C183F99BC207C183C5BF8357450491C5FC
:102300002167D98F2312F5048280C607C583DDBFFC
:1023100083578501C207C183DD9BDD8D231CB5007A
:10232000828003578501FD779387F77FF98FA20598
:10233000CD8FC207C183231CF50082808357C5015E
:10234000C207C183DD9BDD8D231EB500828003574C
:10235000C501FD779387F77FF98FA205CD8FC2075F
:10236000C183231EF500828003570502F977FD170C
:10237000F98FB205CD8FC207C1832310F502828089
:102380002312B50282800355450282800355050160
:102390006D8D3335A000828093C5F5FFC205C181E4
:1023A0002318B5008280835705010355C500ED8FC2
:1023B0004205418189C76D8D3335A000828001457A
:1023C000828093C5F5FFC205C1812318B5008280C4
:1023D00083560501F577FD17F58F83D665003971B2
:1023E00022DC06DED58F03D7C5002318F5008356FF
:1023F000C500FD779387379FF58F83D645002A84E4
:102400002EC6D58F83D68500D58F83D6A500D58FD0
:102410002316F50083574501C207C18393F7F7CF11
:10242000D98F231AF5006808EFF07F9BB74701406A
:1024300093870780B245631EF404A2578356C400F5
:102440006547B387E702C206C186984163D5060493
:1024500006070356C4004206B3D7E7021307400637
:102460004186B3D6E702B3F7E70292066357060246
:102470008E0793872703B3D7E70213F77700B36775
:10248000D700C207C1832314F400F25062542161C3
:102490008280925765B70A076DBF9207938727031B
:1024A000B3D7E702BD8BD58FE9BF81C98357C5007C
:1024B0000967D98F2316F50082800357C500F97785
:1024C000FD17F98FC5BF93F5F51F2312B500828064
:1024D000035505006D8D3335A000828013F7F50F8D
:1024E00085461583B397B6006313D7020357C5001B
:1024F000F98F0357050001454207418381CB05450C
:10250000A181B315B5006D8F3335E0008280894617
:102510006315D70003570501E1BF03574501C9BF44
:10252000A1818547B397B70093C7F7FFC207C1835F
:102530002310F5008280B7070050239AA70203C733
:1025400067031377C70F238BE7028280B70700501A
:10255000239CA70203C7A7031377C70F238DE702A6
:102560008280814713F7F70F6363A700E9B703A7DA
:10257000419A3E9783460700850793C6F6FF2300DE
:10258000D704CDB7814713F7F70F6363A7007DBF6B
:1025900003A7018D3E9783460700850793C6F6FF84
:1025A0002300D704CDB7B707005003C767001377E0
:1025B000F70F93762700638D0666011122CE26CC95
:1025C0004ACA4EC852C656C403C7770093060002D3
:1025D000137707036305D74C130600036301C70491
:1025E0006317072203C7770005461377F703630FC6
:1025F000C760630907588946631BD72003C7770064
:10260000137707046305072003C7B7031347470081
:10261000A38DE70288471375F50FAD37CDAA19478B
:102620002389E7021147A389E70283A4418D83C769
:10263000740003C76400A207D98F2394F18C03C7E9
:1026400014002385E18C03CA040013770A06630A89
:10265000070E03C7A18C1377070219CF83C7A18C7C
:102660001307100293F7F70F638AE700130720029E
:102670006384E7006396D718014991A0938741804E
:1026800023A6F18C83D7818C1D4721496366F7000F
:1026900003D9818C1379F90F4A8693854180268569
:1026A000EF10006A83D7818CB3872741C207C183AB
:1026B0002394F18C83A7C18CCA9723A6F18C83D76E
:1026C000818C4209135909016374F9002394218D07
:1026D0009387818203D707009D46A14463E6E60005
:1026E00083D4070093F4F40F03A9C18C2686CA850E
:1026F00013858195CA94EF10A06423A6918C620A79
:10270000135A8A41814763520A0203D7818CA14739
:1027100063E6E70083D7818C93F7F70F03D7818CAB
:102720001D8F420741832394E18CC2073707005075
:10273000C1832318F70291472309F702A309F7027F
:10274000F9A083C7A18C2D4793F7F70F636AF70AA7
:1027500015678A071307C7FBBA979C43828783C70D
:10276000340003C724008D46A207D98F13D78700F2
:102770006306D70C63ECE6008547630BF7028947D5
:102780006305F70A1309F00F814715A89D476309F0
:10279000F71093072002630DF70E9947E314F7FE35
:1027A00095679387C70823A6F18C0149A94701A81B
:1027B00095679387070323A6F18C0149C94703D77F
:1027C000818CC207C18363F4E7002394F18C83D723
:1027D000818C1D47A14A6366F70083DA818C93FAE6
:1027E000FA0F83A5C18C56862685EF10605583A706
:1027F000C18CBE9A23A6518D9307F00FE311F9F017
:10280000B70700501D472389E702A389E702B707EE
:10281000005009472383E7007244E2445249C24909
:10282000324AA24A05617300203095679387C7FE3C
:1028300023A6F18C01499307300451B793F7F70FA2
:1028400085466387D70291CF8946638BD702E39B86
:10285000E7F295679387470723A6F18C0149D9478B
:10286000B9BF9387418123A6F18C0149914781BF6C
:1028700095679387470423A6F18C0149B94781B72F
:1028800095679387470523A6F18C0149B14705BF9A
:1028900095679387070623A6F18C0149D14705B7B1
:1028A00083C7B18093F7F70FE39E07EC3709002049
:1028B000130909019565130610049385E5FE1305B8
:1028C0002900EF10E04723A6218DADB783C7240070
:1028D0002394F18C2DB583C741842380F40003D762
:1028E000818C8547E3E6E7FE19BD03C724002382F8
:1028F000E18431B51377FA018947E313F7F083C711
:1029000044006383E704636EF7000547E39AE7EE4C
:10291000370700508347770393F7870FA30BF7021E
:10292000F9BB13071008638AE70213072008E3992D
:10293000E7EC370700508347A70393F7870F93E728
:102940002700230DF70265BB370700508347B70305
:1029500093F7870FA30DF7025DB337070050834746
:10296000670393F7870F93E72700230BF70241BB19
:1029700003C781957D8B19EB9387819583D72700BA
:102980000547E39FE7E62385F18295BB8946E31976
:10299000D7E69387819583D62700E39306E683C71E
:1029A00047006385E7046360F7020547E39AE7E4BD
:1029B000370700508347770393F7C70FA30BF7023E
:1029C00093E73700A1BF13071008638CE7021307D2
:1029D0002008E397E7E2370700508347A70393F700
:1029E000C70F230DF70293E73700A1BF3707005049
:1029F0008347B70393F7C70FA30DF70293E7370099
:102A000091BF370700508347670393F7C70F230B26
:102A1000F70293E7370091BF23800400C9B5238CE8
:102A200001949387818283D607000547E379D7CC49
:102A30002390E700E9B11387819503574700239C52
:102A40000194930610086313D70237070050034719
:102A500067030D8B8D466315D7000547238CE194E2
:102A60009387818283D607000947C9B785466317D4
:102A7000D7003707005003477703E1BF93062008CC
:102A80006317D700370700500347A703D9B7894614
:102A9000E318D7FC370700500347B7035DBF83C671
:102AA00077001306100293F6F6036381C60A130635
:102AB0002002638AC60AE39CE6D403C7A18C95462C
:102AC0001377F70F6300D7069946631ED70683D79F
:102AD000818C1D4721446366F70003D4818C1374F5
:102AE000F40F03A5418D83A5C18C2286EF104025EC
:102AF00083D7818C131704014183998FC207C18347
:102B00002394F18C83A7C18C3E9423A6818CB707B4
:102B100000502398E70203C7270313474700238980
:102B2000E702F5B103C7370083D6818C1377070816
:102B3000558F1377F70FA381E70009472389E70231
:102B4000A3890702E9B123980702C5BF03C767033A
:102B50001377C70F238BE70203C7670313474700A9
:102B6000238BE7026DB103C7A70313474700238DEB
:102B7000E70203C7A7031377C70F13672700238D47
:102B8000E70271B183C7A18C6393F60483A7418DDB
:102B900083C6170003C70700558F83C62700558FCC
:102BA00083C63700558F05CB83C5170003C70700C1
:102BB00037550000A205D98D03C7270013058509E5
:102BC00042074D8F93958601D98DEF10300EB707D0
:102BD00000509C472DB983C5670037550000130589
:102BE000850AEF10B00C83A7418D375500001305FF
:102BF000850B83C54700EF10700B83A7418D3755B8
:102C000000001305850C83C55700C1B703C77700C3
:102C100013770704E30D07BE03C777031347470085
:102C2000A38BE70288471375F50FEFF09F93C5B6A6
:102C30009376170085CAA3810700A3890702A38B97
:102C40000702A38D070209472389E702238BE702C6
:102C5000238DE70203C76700136717002383E7008C
:102C60007300203093764700F5DA03C75700114709
:102C7000F5B7B71702409843B706FFF8411113673D
:102C8000170098C3D84337060200758FD8C39843FE
:102C9000B706F7FEFD16758F98C39843B706FCFF7D
:102CA000FD16758F98C3D843B70681FFFD16758F43
:102CB000D8C337079F0098C702C402C69843C166AD
:102CC000558F98C3B7160240130700509C42F18FEE
:102CD0003EC6A24785073EC4B24781E7A247E397B5
:102CE000E7FEB71702409C431397E7006350070ABB
:102CF00085473EC6324785476318F708B727024025
:102D00009843B706C1FFFD161367070198C39843A0
:102D1000719B98C398431367270098C3B717024065
:102D2000D843D8C3D843D8C3D84313670740D8C3C0
:102D3000D843758FD8C337F7FF1F0327C770931683
:102D40001701D84363C60604B7063D00558FD8C3A4
:102D5000371702401C43B7060001D58F1CC3B717B5
:102D60000240984393166700E3DD06FED843B7168A
:102D70000240719BD8C3D84313672700D8C32147AB
:102D8000DC42B18BE39EE7FE4101828002C69DB723
:102D9000C1666DBF39714AD813D945014ED652D498
:102DA00056D29399C50006DE22DC26DA5AD05ECED2
:102DB0001379F97F2A8A93D9C90093DAF501630D53
:102DC000090E9307F07F6306F9181354D5018E0995
:102DD000B36934013704800033E48900931435006B
:102DE000130919C08149814B13D74601139AC600B4
:102DF0001377F77FB285135ACA0013DBF601630B12
:102E000007109307F07F6303F7049357D6010E0A68
:102E100033EA4701130717C0B7078000B367FA000A
:102E2000931536003A99814833C76A01BD463A8501
:102E30001308190063E83617172600001306462A00
:102E40008A09B29983A60900B2968286B367CA003E
:102E50001309F97F6399071293E92900814589488D
:102E6000E1B701479307F07F37040800814432043B
:102E7000D20731807E075D8C598CA285F250625456
:102E800026854259D254B259225A925A025BF24BC9
:102E9000216182805A853E84AE84C68B8947638DCA
:102EA000FB0E8D47E38FFBFA85472A87639EFB382D
:102EB00081470144814465BF33E4A90061C036C63F
:102EC00032C4638C092A4E85EF0030602246B24638
:102ED000AA87130755FF7544938487FF198CB3990C
:102EE000990033548A0033643401B3149A0013D721
:102EF00046011309D0C0139AC6001377F77F330930
:102F0000F9408149814BB285135ACA0013DBF6019F
:102F1000E31907EEB367CA00B1C7630F0A225285EF
:102F200032C4EF00905A22462A87930655FFF54790
:102F3000930587FF958F331ABA00B357F600B3E7AE
:102F40004701B315B6003309E9401309D9C08148D8
:102F5000E1BD33E4A90001ECA14981441309F07FEC
:102F6000894B59B593E919008145854875BD4E8453
:102F7000AA84B1491309F07F8D4BBDB591498144B5
:102F80000149854B95B593E93900D2878D4869BDD4
:102F900089475685E397FBF02A879307F07F014422
:102FA0008144F1B5C16E1386FEFF93D6040113DE92
:102FB0000501F18CF18D338695023383B602935867
:102FC000060133059E021A95AA98B382C60363F3DD
:102FD0006800F692C16F1383FFFF33F5670093D348
:102FE0000701B3F76800C207337366003E933306E8
:102FF000950293D80801B387A602135F0601B38434
:103000009302BE94FA94B38E760263F3F400FE9EAC
:10301000416A9307FAFF935F0401B376F400B3F9B2
:10302000F4007D8EC1803384D502C209338FD40170
:10303000B299CE98B307DE02935E0401B385BF0256
:10304000AE97BE9E330EFE0363F3BE00529EC16771
:103050009385F7FF33F6BE006D8C4206229693DE11
:103060000E01B305D502769E3385AF0213D4050158
:10307000B386D302AA96A296B38FF30363F3A60096
:10308000BE9F41657D15B3F7A600C2076D8DAA9757
:10309000B3855800B3B93501FA97B2953384370137
:1030A00033B6C500B30EC4013385CE0033343401CA
:1030B000B3B7E701C18F33BECE0113D40601333657
:1030C000C5003E943366CE009394950032947E946E
:1030D000B3E46400260493567501B3349000DD8197
:1030E00093179500CD8C558CDD8C9317740063DBA2
:1030F000070093D7140085889316F401DD8CD58CD6
:10310000058042899307F93F6359F00893F67400EC
:1031100081CE93F6F40011466388C600938644007E
:10312000B3B496002694B6849316740063D8060050
:10313000B70700FFFD177D8C930709409306E07FDA
:1031400063CFF60E93D634009314D4012604D58CA5
:10315000318093F7F77F21BB328532C4EF00F03620
:1031600093065501F147130705022246E3D1D7DC48
:103170006115B317A6008145F9B3EF0010351307A9
:103180005501F145930705022246B246E3D5E5D441
:1031900061153314AA00814499BB85469D8EB1E721
:1031A0001309E941B3972401B3D4D400331924019E
:1031B000B337F000B3649900DD8C93F77400B35615
:1031C000D40081CF93F7F40011466388C70093873A
:1031D0004400B3B49700A696BE849397860063D844
:1031E000070485470144814459B113068003E34134
:1031F000D6CC7D46E356D6FA0556B307F64093057E
:1032000000023356F4006387B6001309E943B3178D
:103210002401DD8CB3349000D18C93F6740001440A
:1032200099CA93F7F40011468146E392C7FA1394C2
:1032300096003180F6068D80D58C81470DB99307B5
:10324000F07F0144814425B142896DBD93D745018A
:10325000B70610001387F6FF93F7F77F1306E03FDA
:103260002A886D8F0145FD816354F60099C18280E3
:1032700082801306E0417D55E34BF6FE1305304393
:103280001D8D7D46558F634AA6009387D7BE3317A1
:10329000F7003355A800598D828013053041B307DC
:1032A000F5403355F70082804111370780007D17C4
:1032B00013D8750126C2935475013373A70093F494
:1032C000F40FB376B7004AC01378F80F1359F5011D
:1032D00006C622C4FD819A8726854A86131E3300BE
:1032E000939E3600B3880441630AB90E6350100DF3
:1032F000630408149307F00F638BF414B7070004FA
:10330000B3EEFE00ED4763C1172993070002B387B0
:103310001741B397FE00B3D81E01B337F000B3E7EF
:10332000F800B307FE4013975700635E0718370491
:1033300000047D147D8C2285EF0030196D15B317C4
:10334000A4006348951A058D1304150013070002A5
:10335000018F3397E7003337E000B3D78700D98F69
:10336000814413F7770019C713F7F70091466303F9
:10337000D700910713975700635B07148504130761
:10338000F00F4A866383E4169A07A58313F5F40FBA
:10339000B2402244A6079314750113D59700458DBA
:1033A0007E0692440249518D410182806399080A48
:1033B000138714001377E70F631707146390042231
:1033C000630D0E1EE3860EFCB307DE411397570014
:1033D00063500722B387CE412E8961B7635C100B1F
:1033E000630E08089307F00F6383F406B707000421
:1033F000B3EEFE00ED4763C9171F93070002B387C2
:103400001741B397FE00B3D81E01B337F000B3E7FE
:10341000F800F297139757006357070A85041307BC
:10342000F00F6384E40CB706007E13D71700FD1677
:10343000858B758FD98F35B7638D0E08FD18B3074F
:10344000DE41E38208EE9307F00FE39DF4EA630D9B
:10345000030801461305F00FB707400015BF3307F7
:103460009840EDE863020E147D1763080718930770
:10347000F00F6319F80E2E893683D1BF638B0E04CB
:10348000FD18B307DE01E38708F89307F00FE39315
:10349000F4F675BF63950808850413F7E40F63130A
:1034A000071263170510630F0E14E3830EEEB307C4
:1034B000DE0113975700814463570700370700FC6C
:1034C0007D17F98F854413F77700E31F07E813D3BF
:1034D00037009307F00FE38CF4F693179300A5835E
:1034E00013F5F40F4A866DB54A861305F00F814730
:1034F00045B5370700FC7D17F98F13F77700898CE6
:10350000E31407E6E9B73304DE419317540063C3BD
:10351000070CE31204E201460145814795BD3307DC
:103520009840ADC49307F00FE308F8F4B707000420
:10353000336EFE00ED4763CCE70C93070002998FD2
:10354000B317FE003357EE00B337F000D98FF6976C
:10355000C284C9B59307F00FE30FF8F0B707000472
:10356000336EFE00ED4763C3E70893060002998EB1
:10357000B316DE00B357EE003337D000D98FB387D0
:10358000FE40C2842E8945B3854761BB630E0E069B
:103590007D17B307DE01C284E30E07E69307F00F41
:1035A000E31AF8F8368365B53683C2842E8915B7D9
:1035B000E3040EECE38D0EE869BD638D0E022E86EA
:1035C000B687F9B39307F00FE381F4F2B307DE0196
:1035D0008583D5BD3384CE412E89B1BBE31C0EFC5F
:1035E000E3890EE62E8949BD854725B5854741BF4C
:1035F000E39B07EC0146814761BBB387CE41C284A0
:103600002E8915B3B68769B33683C284D9B5854789
:103610003DBF3971935775014AD856D25ECE931A81
:1036200095001359F50106DE22DC26DA4ED652D477
:103630005AD093F7F70F93DA9A00CA8B6382071276
:103640001307F00F6384E7128E0A37070004B3EA0A
:10365000EA00138A17F80144014B93D7750193943C
:10366000950093F7F70FA58093D9F501FDC71307D0
:10367000F00F6387E7028E04938717F8370700047B
:10368000D98C330AFA408146558C1727000013075E
:1036900027A90A043A941C4033493901BA97828712
:1036A000130A1AF0F9E88946558C1727000013070A
:1036B00027AB0A043A941C4033493901BA978287F0
:1036C00001491307F00FB707400013959700F25018
:1036D00062549317770125817E095D8D336525013D
:1036E000D2544259B259225A925A025BF24B21618A
:1036F00082801307F00F8147C9BFA68ACE8B368B15
:1037000089476309FB1A8D47E30CFBFA8547630879
:10371000FB0A1307FA0713F91B006355E01293F72E
:103720007A0099C793F7FA0091466383D700910A0C
:1037300093974A0063D90700B70700F8FD17B3FA5B
:10374000FA0013070A089307E00FE3C4E7FA939718
:103750006A00A5831377F70F8DBFB1E48546A9B73B
:1037600063940A021144014A054BC5BD63990A00DE
:103770002144130AF00F094BCDB58D4631B73144C2
:10378000130AF00F0D4BD1BD56852EC63D2B930766
:10379000B5FFB39AFA009307A0F8338AA740014413
:1037A000014BB2455DBD26850D231307B5FFB30759
:1037B000AA00B394E400138A67078146F1B513F9B0
:1037C0001B000147814711B74166139554007D16D0
:1037D00093570501698E63FA9A0AB3D5FA027D1AE6
:1037E000D68601473388C502B3F6F602C206558F66
:1037F000637B07012A979386F5FF6368A70A6376C0
:10380000070BF9152A9733070741B356F7023377A9
:10381000F702B38AC6029317070163FB5701AA9701
:103820001387F6FF63E1A70863FF5707F916AA9706
:10383000C205B38A5741D58DB33A5001B3EA550159
:10384000CA8BC1BD8546998E11C76D460147814718
:10385000E34DD6E6130AEA09339A4A01B3D7DA00F0
:10386000B33A4001B3E7570113F7770019C713F7CD
:10387000F70091466303D7009107139757006348F9
:1038800007029A07A583014789B593D61A00B3D5D5
:10389000F6021397FA0141833388C502B1B7CE8B84
:1038A000368B814AB1BDBA8661B7B685A9BF0547D7
:1038B000814721BD13F91B001307F00F814731B574
:1038C000797122D4135475014ECE52CC93199500C0
:1038D00006D626D24AD056CA5AC81374F40F93D9C2
:1038E0009900135AF50169C49307F00F6308F40EA9
:1038F0009397390037070004B3E9E700130414F87D
:103900008144014B13D77501939A95001377F70FF4
:1039100093DA9A0013D9F50145CF9307F00F630CA2
:10392000F7028E0A130717F8B7070004B3EAFA0084
:103930003A94014633452A01BD47AA8693051400EF
:1039400063E0971017270000130787858A04BA944D
:103950009C40BA9782871304F40F63960A0C93E491
:1039600024000946C1BF01451307F00FB707400007
:10397000B2502254A6075E07A5837E05D98F9254C4
:103980000259F249624AD24A424B5D8D45618280BA
:10399000CA86D689328B8947630FFB088D47E304BB
:1039A000FBFC854736856310FB1A01478147C9B781
:1039B000639D090413D77501939A95001377F70F48
:1039C00091440144054B93DA9A0013D9F50131F77C
:1039D000639D0A0093E414000546A9BF639209029F
:1039E000A1441304F00F094B31BF5685F92C9307FE
:1039F000B5FF098CB39AFA001304A4F801461DBF61
:103A0000B1441304F00F0D4BF5BD4E852EC6752C39
:103A10009307B5FF1304A0F8B399F900098C81440A
:103A2000014BB245C5B593E434000D4621B7894733
:103A3000D286E315FBF636851307F00F81470DBFDD
:103A400041639306F3FF13D6090193D80A01B3F734
:103A5000D900B3FADA0033885703B389F802135751
:103A60000801B30A5603D6994E97330616036373BB
:103A700057011A96C167FD17B376F7003378F8003F
:103A8000C206C2969399660093570701B339300175
:103A9000E982B2979A07B3E6D900B3E9D7009397C2
:103AA000490063D9070013D7190093F71900B369C8
:103AB000F7002E841307F4076350E00493F77900AE
:103AC00099C793F7F90091466383D70091099397BB
:103AD000490063D90700B70700F8FD17B3F9F900EB
:103AE000130704089307E00F63CBE704939769007B
:103AF000A5831377F70FADBD8547B386E74011C7A0
:103B00006D4601478147E345D6E61307E40933973D
:103B1000E9003337E000B3D7D900D98F13F7770026
:103B200019C713F7F70091466303D700910713975E
:103B30005700634C07009A07A583014715BD13077B
:103B4000F00F814735B52E84B5B7054781470DB5D0
:103B5000411106C622C415CD2A84852A9307E0099F
:103B60003387A7409307600963C0E704A1469377B2
:103B7000F70F63D5A60061153314A4002604258031
:103B8000260413559400B2402244DE075D8D4101A6
:103B900082800144260413559400B2402244814798
:103BA000DE075D8D410182809307900963DDE700A8
:103BB0009307B5019546B317F400898EB337F0002B
:103BC0003354D4005D8C954763D6A7009307B5FFA7
:103BD0003314F400B70600FCFD16937774003376B7
:103BE000D40085C39377F4009145638CB700110628
:103BF0009317560063D707009307F009758E338734
:103C0000A740131466002580260413559400B24083
:103C100022449377F70FDE075D8D410182801357B1
:103C200075011377F70F41119307170022C426C2BD
:103C30001314950006C693F7E70F25809354F501FA
:103C400085C793573400130707387604B207520725
:103C5000B1831395F401D98FC98FB24022852244D4
:103C60009244BE854101828005EB39C42285B1288A
:103C7000A94763C6A7042D47098F930755013357FA
:103C8000E4003314F4009317C70013079038098F2A
:103C9000B1831377F77F5DBF01CC13573400B707AB
:103CA0000800D98FB2077604B1831307F07F79BF7C
:103CB0001307F07F814759BF0147814741BF130771
:103CC00055FF3317E40001447DBFC167637EF502F1
:103CD0009307F00F1307000263ECA700971700008B
:103CE00093870750AA9703C507003305A740828032
:103CF0002181971700009387A74EAA9703C5070055
:103D000061473305A7408280B7070001636EF50065
:103D10006181971700009387A74CAA9703C50700F6
:103D200021473305A7408280418197170000938780
:103D3000274BAA9703C5070041473305A740828058
:103D4000B3C7A5008D8B3307C50081E78D4763EEB0
:103D5000C700AA876370E50A83C605008507850545
:103D6000A38FD7FEE3EAE7FE828093763500AA8729
:103D700091CA83C6050085078505A38FD7FE93F6F4
:103D80003700FDB79376C7FF138606FE63F0C706BC
:103D900083A3050083A2450083AF850003AFC50060
:103DA00083AE050103AE450103A3850183A8C501C8
:103DB0009385450223A0770003A8C5FF23A25700DF
:103DC00023A4F70123A6E70123A8D70123AAC7014B
:103DD00023AC670023AE17019387470223AE07FF8A
:103DE00075B790419107910523AEC7FEE3EBD7FE6F
:103DF000E3E4E7F682801C46FD171CC663D9070082
:103E0000184E63C5E700A9476393F500C5A51C429A
:103E10002E851387170018C22380B70082800111F6
:103E200022CC26CA4AC84EC652C406CE2A89AE89BA
:103E30003284B304D6007D5A63149400014509A866
:103E4000834504004E864A857D370504E31645FF09
:103E5000F2406244D2444249B249224A056182801A
:103E6000357122CD26CB4AC94EC706CF52C556C39F
:103E70005AC1DEDEE2DCE6DAAA89AE843289368413
:103E800009C51C4D99E3EF00D028971700009387D0
:103E9000E74A639CF40C83A4490083D7C400A18B38
:103EA000FDC79C48EDC793070002A304F1029307E6
:103EB000000302D22305F10222C6930B5002971A87
:103EC0000000938AEA41054C294B4A848347040049
:103ED00099C36390770FB30C2441638D0C00E68681
:103EE0004A86A6854E85253FFD576308F51E9256E6
:103EF000E69636D2834704006381071EFD571309F7
:103F0000140002C802CE3ECA02CCA309010482D426
:103F10008345090015465685EF00D0451304190066
:103F2000C24751E913F7070109C713070002A309A4
:103F3000E10413F7870009C71307B002A309E104DE
:103F4000834609001307A002638FE606F2474A84FE
:103F5000814625460347040093051400130707FD17
:103F60006378E60AADCA3ECEBDA0971700009387DE
:103F7000E73E6395F40083A4890005B79717000016
:103F80009387C739E39BF4F083A4C90039B7A685AA
:103F90004E85292D09D97D55FA406A44DA444A49AB
:103FA000BA492A4A9A4A0A4BF65B665CD65C0D61AE
:103FB0008280050421BF330555413315AC00C98FFC
:103FC0003EC82289B1B7324793064700184336C628
:103FD000634907023ACE034704009307E002631FD8
:103FE000F704034714009307A002631BF702B247CC
:103FF0000904138747009C433AC663C107023ECABF
:1040000035A83307E04093E727003ACE3EC8E1B732
:10401000B387670385462E84BA972DBFFD57C5B772
:10402000050402CA814681472546034704009305DB
:104030001400130707FD6378E606F1F283450400D8
:104040000D46171500001305252AEF00B03211CDDB
:1040500097170000938747291D8D93070004B39796
:10406000A700424505045D8D2AC883450400194612
:104070001715000013058527130914002304B10246
:10408000EF00502F3DC197C7FFFF9387A7F795E734
:104090004247B2471377071009CF91073EC69257A0
:1040A000D2973ED21DB5B387670385462E84BA9753
:1040B000ADBF9D07E19BA107D5B77800970600002B
:1040C000938626D626860C084E8597000000E700CA
:1040D0000000FD572A8AE314F5FC83D7C40093F748
:1040E0000704E39A07EA125545BD780097060000D9
:1040F000938626D326860C084E85012AD9BF79716E
:1041000056CA9C49BA8A984522D426D24ECE52CC61
:1041100006D64AD05AC85EC6AA892E84B284368A88
:1041200063D3E700BA879CC00347340419C38507EB
:104130009CC01C4093F7070281C79C4089079CC024
:104140000329040013796900631A0900130B940111
:10415000FD5B5C449840998F634CF9041C40834696
:10416000340493F70702B336D000A5EB13063404EA
:10417000D2854E85829AFD576303F5041C40114693
:104180009840998B544481446397C700B384E640B8
:1041900063D3040081441C4418486354F700998F8A
:1041A000BE94014969047D5B63982405014509A813
:1041B00085465A86D2854E85829A631E75017D5545
:1041C000B250225492540259F249624AD24A424BA6
:1041D000B24B456182800509ADBF3307D400130699
:1041E0000003A301C7040347540493871600A29752
:1041F0008906A381E7049DBF85462286D2854E8528
:10420000829AE30E65FB050945B7797122D426D25F
:104210004AD04ECE06D652CC56CA5AC8B68983C6A4
:1042200085019307E0063289AA842E84138635041B
:104230006380F61E63E2D706930730066382F60AB0
:1042400063EDD700638A061E930780056386F61622
:10425000930A24042301D40469A8930740066386C3
:10426000F60093079006E395F6FE1C40084393F68C
:10427000070893054500C1C21C410CC363D8070061
:104280001307D002B307F040A301E404971600001F
:1042900093864606294765A0930730076382F61A7E
:1042A00063EFD7009307F006638FF60493070007C8
:1042B000E390F6FA9C4193E707029CC109A8930793
:1042C00050076382F60493078007E393F6F8930799
:1042D0008007A302F404971600009386E602DDA08F
:1042E0001C43938A2504938647009C4314C323816F
:1042F000F5048547ADA293F607041C410CC3BDDE4F
:10430000C207C187A5BF0C401C4313F805081385DD
:1043100047006305080008C39C4339A093F50504D2
:1043200008C3FDD983D707001307F006638AE60C9C
:1043300097160000938606FC2947A30104044C400D
:104340000CC463C5050008406D9908C099E3B28AA2
:1043500091CDB28AB3F5E702FD1AB69583C5050083
:104360002380BA00B3D5E70263F2E70AA147631ED0
:10437000F7001C40858B91CB58401C4863C7E70071
:1043800093070003A38FFAFEFD1A3306564110C8A7
:104390004E87CA867000A285268595337D5A6314A0
:1043A000450D7D55B250225492540259F249624A49
:1043B000D24A424B45618280A382D5049716000001
:1043C000938646F30C40084313F805081C41110579
:1043D0006300080208C313F7150001C793E505023F
:1043E0000CC04147B9FB0C4093F5F5FD0CC0B1B7CB
:1043F00013F8050408C3E30008FEC207C183E1BF48
:1044000097160000938606EF214705BFAE8799B740
:1044100094411C43CC4913F80608138547006306F2
:10442000080008C39C438CC301A808C393F6060484
:104430009C43F5DA2390B70023280400B28A89BF91
:104440001C43D04181459386470014C383AA0700CB
:1044500056850D2701C53305554148C05C401CC831
:10446000A301040435B714485686CA852685829967
:10447000E30945F31C40898B8DE7B2474844E35379
:10448000F5F23E8505B785465686CA85268582990A
:10449000E30965F1050A5C443247998FE345FAFE6A
:1044A000E9BF014A930A94017D5BF5B739713EDAA1
:1044B0002ED232D436D63AD842DC46DE93870181FA
:1044C00022CC804326CA06CEAA8409C41C4C99E398
:1044D000228581210C4454102686228536C6EFF0B1
:1044E0003F98F2406244D24421618280011122CC83
:1044F00026CA4AC806CE4EC6AA842E89328401C571
:104500001C4D91E3392197170000938727E3631926
:10451000F406C0401C4C1CC48357C400A18BC9C303
:104520001C48BDCF1C4808409379F90F1379F90F47
:104530001D8D5C486346F500A2852685652C2DE51A
:104540001C440505FD171CC41C401387170018C028
:10455000238037015C486389A7008357C400858B9B
:1045600081CBA9476316F900A285268561240DED4C
:10457000F24062444A85D2444249B2490561828090
:1045800097170000938787DD6314F400804459B7C0
:1045900097170000938787D8E31EF4F6C0449DBFA9
:1045A000A285268521203DDD7D59D9B7411193870C
:1045B000018126C2844322C44AC006C62A892E84A9
:1045C00089C49C4C99E32685A926971700009387F8
:1045D000E7D6631CF402C0400317C4009317070119
:1045E000C18393F68700B5EE93F607019DEEA547CC
:1045F0002320F900136707042316E4007D55B24019
:104600002244924402494101828097170000938717
:10461000E7D46314F4008044C1B797170000938770
:10462000E7CFE31BF4FAC04445BF918B8DC74C58CC
:1046300089C9930744046384F5004A85892B232A9A
:1046400004028357C4002322040093F7B7FD231606
:10465000F4001C481CC08357C40093E7870023164E
:10466000F4001C4881EF8357C4001307002093F720
:1046700007286385E700A2854A85B9298357C400C6
:1046800013F7170005C75C4823240400B307F04064
:104690001CCC1C480145A5F78317C40013F7070875
:1046A00039DF93E707042316F40089BF898B01479C
:1046B00091E3584818C4F1BF83D7C500011122CC3B
:1046C00026CA06CE4AC84EC613F78700AA842E848F
:1046D00071EFD841634DE000B841634AE000014505
:1046E000F2406244D2444249B24905618280585442
:1046F0007DD703A904009396370123A0040063DD4E
:10470000060670488357C400918B99C75C401D8E84
:104710005C5899C33C401D8E5C540C5081462685E4
:104720008297FD570357C400631DF5009440F54779
:1047300063E8D706B70740208507B3D7D700858B36
:10474000A5C31C48232204001CC09317370163D85B
:104750000700FD576314F5009C4091E368C84C586E
:1047600023A02401ADDD930744046384F50026856E
:104770003929232A0402A5B70C500146854626850F
:104780000297FD572A86E31FF5F69C40A5DF754783
:104790006385E70059476394E70423A0240181B7A8
:1047A000136707042316E4007D551DBF83A9050187
:1047B000E38709F203A905008D8B23A03501330996
:1047C0003941014791E3D84918C4E35A20F11C54F8
:1047D0000C50CA864E86268582976349A00083576F
:1047E000C40093E707042316F4007DBFAA99330998
:1047F000A940E1BF9C49B9CF011122CC06CE2A8441
:1048000011C51C4D81E72EC62922B245971700001D
:104810009387C7B2639BF5004C408397C50095C74B
:1048200022856244F240056141BD971700009387DD
:10483000E7B26394F5000C44CDB797170000938757
:10484000E7ADE39CF5FC4C44C9BFF240624401452E
:104850000561828001458280411122C406C62A84F6
:104860002316B5002317C5002320050023220500C9
:10487000232405002322050623280500232A0500FA
:10488000232C0500214681451305C505EFB05F9730
:1048900097070000938787495CD0970700009387AC
:1048A000E74B1CD497070000938727505CD49707E9
:1048B00000009387E75200D01CD8B2402244410147
:1048C000828097050000938525F3A9A2411126C295
:1048D000130680069384F5FFB384C4024AC02E8970
:1048E00022C406C693854407A9262A8401CD232025
:1048F000050023222501310508C41386840681455D
:10490000EFB01F902285B2402244924402494101F7
:1049100082801C4DADE3411106C622C497070000FA
:10492000938767FA1CD5938781819C4323240504D0
:1049300023260504232805046314F50085471CCDB0
:104940002A841D2848C02285052808C422852D20D8
:1049500048C4484001469145013708440546A545ED
:10496000E53D48440946C945C53D85471CCCB24094
:10497000224441018280828041119387818126C235
:1049800084434AC006C69C4C22C42A8999E32685E2
:104990004937938484048044DC40FD1763D60700C4
:1049A0009C40B9CF8440C5BF0317C40039E7C17725
:1049B0008507232204062320040023220400232445
:1049C00004005CC423280400232A0400232C0400D0
:1049D000214681451305C405EFB09F82232A0402B6
:1049E000232C040223240404232604042285B24039
:1049F000224492440249410182801304840671BF1B
:104A000091454A85E13588C051FDB1472320F90021
:104A10000144E9BF797122D44AD052CC56CA5AC84F
:104A20005EC606D626D24ECE2A8AAE8A13048504E6
:104A30000149054BFD5B09ECB25022544A85925462
:104A40000259F249624AD24A424BB24B45618280D6
:104A5000044483294400FD1963D409000040E1BFE8
:104A600083D7C400637BFB008397E40063877701EF
:104A7000A6855285829A3369A90093848406E1BF92
:104A80001971A6DAAE848395E500A2DC86DE328455
:104A900063DC050083D7C40023A0060093F7070852
:104AA0009DE39307004015A0300836C67126B24634
:104AB000E34205FE7247BD67F98F7977BA9793B7DE
:104AC00017009CC2F9BF930700041CC0F65066543F
:104AD000D65401450961828083D7C500011122CCDB
:104AE00006CE26CA4AC8898B2E8489CF93077404C0
:104AF0001CC01CC885475CC8F2406244D24442498D
:104B00000561828074003000AA849D3FA2452A89F5
:104B10002685052201ED8317C40013F7072069FFDE
:104B2000F19B93E727002316F400C9B7970700000D
:104B3000938767D99CD48357C40008C008C893E7FB
:104B400007082316F400A2475CC8B24789CF831533
:104B5000E4002685392601C98357C400F19B93E7F9
:104B600017002316F4008357C4003369F900231695
:104B7000240159B793F5F50F2A966314C500014532
:104B8000828083470500E38DB7FE0505FDB7CDC1E3
:104B900083A7C5FF411122C406C626C21384C5FFE0
:104BA00063D307003E94AA8439269387C1829C432D
:104BB00099EB2322040023A681822244B240268559
:104BC00092444101D5AC637EF40014403307D40015
:104BD0006396E7009843DC43369718C05CC0E1BF9A
:104BE000BA87D84319C3E37DE4FE94433386D700E4
:104BF000631F86001040B29694C33386D700E31E2D
:104C0000C7FA10435843B29694C3D8C37DB76375AF
:104C1000C400B1479CC055B71040B306C40063162A
:104C2000D70014435843B29614C058C0C0C371B7DC
:104C30008280011126CA93843500F19806CE22CCD9
:104C40004AC84EC6A104B14763F1F404B14463E01D
:104C5000B4042A898D249387C18298433A8431E031
:104C6000938701839C4391E781454A85512823A876
:104C7000A182A6854A856920FD5963173507B1478A
:104C80002320F9004A850D2C29A0E3D204FCB1476A
:104C90001CC10145F2406244D2444249B249056117
:104CA00082801C40858F63CE0702AD4663F6F60016
:104CB0001CC03E9404C031A05C406312870223A64E
:104CC000F1824A85D52A1305B400930744006199FF
:104CD0003307F54061D33A94898F1CC065BF5CC32C
:104CE000CDB722874040A5BF130435007198E30378
:104CF00085FCB305A4404A852120E31D35FB41B75F
:104D0000411122C42A842E8523A4019A06C6112C9F
:104D1000FD576317F5009387819A9C4391C31CC08C
:104D2000B240224441018280411122C42E848395E5
:104D3000E50006C65922634905007C48AA977CC84D
:104D4000B2402244410182808357C4007D777D17A1
:104D5000F98F2316F400EDB783D7C500011122CCDB
:104D600026CA4AC84EC606CE93F70710AA842E84D8
:104D70003289B68991C78395E5008946014631227B
:104D80008357C4007D777D17F98F2316F4008315B0
:104D9000E4006244F240CE864A86B2494249268502
:104DA000D24405613DA8411122C42E848395E500BB
:104DB00006C6E128FD570357C400631BF500FD77C5
:104DC000FD17F98F2316F400B2402244410182807E
:104DD0008567D98F2316F40068C8FDB78395E50071
:104DE00005A8411122C42A842E85B285368623A4C3
:104DF000019A06C6EFB07FC3FD576317F50093878E
:104E0000819A9C4391C31CC0B240224441018280DC
:104E1000411122C42A842E8523A4019A06C6E120CA
:104E2000FD576317F5009387819A9C4391C31CC07B
:104E3000B240224441018280411122C42A842E853D
:104E4000B28523A4019A06C66D20FD576317F500AD
:104E50009387819A9C4391C31CC0B2402244410174
:104E60008280411122C42A842E8523A4019A06C679
:104E70007920FD576317F5009387819A9C4391C36E
:104E80001CC0B240224441018280411122C42A84C4
:104E90002E85B285368623A4019A06C6BD20FD570D
:104EA0006317F5009387819A9C4391C31CC0B2405D
:104EB00022444101828082808280411122C42A845E
:104EC0002E85B285368623A4019A06C6A920FD57F1
:104ED0006317F5009387819A9C4391C31CC0B2402D
:104EE0002244410182809307800523A4F19A7D55D5
:104EF00082809307800523A4F19A7D5582809307D1
:104F0000800523A4F19A014582809307800523A49C
:104F1000F19A7D5582809307800523A4F19A7D55EF
:104F20008280938741839C4391C73E9523AAA182A7
:104F30003E8582809387C19A3E9523AAA1823E85B1
:104F40008280000000409C45000090424054894C03
:104F5000B81E85EB51E87440000000000000594085
:104F6000000000000000E03F00080140000C01408C
:104F7000001001400014014000180140002C0140C5
:104F8000000000400004004000080040000C004009
:104F900000340140004C0140005001400038014005
:104FA0000044004000480040004C004000500040D9
:104FB00000180040001C004000200040362A00007D
:104FC000F4280000002800007029000000280000DC
:104FD000CC2800005E27000000280000D628000032
:104FE000EA280000182A00001E2A000009024300D7
:104FF000020100A0320904000001020201000524A0
:10500000001001052401000004240202052406000A
:1050100001070581034000FF09040100020A0000A6
:105020000007050202400000070582024000000060
:105030001201000202000008861A22570001010234
:10504000030100000E037700630068002E00630078
:105050006E0000000C0343004800330030003700AE
:10506000140332003000310037002D0032002D00D3
:1050700032003500160330003100320033003400B6
:105080003500360037003800390000000A060002FB
:10509000FF00FF40010000000A4261756420526178
:1050A0007465203D202564000A646174614269745E
:1050B000203D2025640000000A73746F70426974FB
:1050C000203D2025640000000A70617269747954E3
:1050D000797065203D20256400000000C8DEFFFFD8
:1050E000BADDFFFFBADDFFFFB8DDFFFFC0DDFFFF68
:1050F000C0DDFFFF86DDFFFFB8DDFFFFC0DDFFFF86
:1051000086DDFFFFC0DDFFFFB8DDFFFFB4DEFFFF80
:10511000B4DEFFFFB4DEFFFF86DDFFFFACE6FFFF7E
:10512000D6E5FFFFA6E6FFFFDEE5FFFFA6E6FFFFF1
:10513000A4E5FFFFA6E6FFFFDEE5FFFFD6E5FFFFE4
:10514000D6E5FFFFA4E5FFFFDEE5FFFFE4E5FFFF97
:10515000E4E5FFFFE4E5FFFFA4E5FFFF96E5FFFFC1
:1051600096E5FFFF66E6FFFF42E7FFFF66E6FFFF0B
:1051700064E5FFFF66E6FFFF42E7FFFF96E5FFFFFE
:1051800096E5FFFF64E5FFFF42E7FFFFA4E5FFFFB1
:10519000A4E5FFFFA4E5FFFF64E5FFFFA4E8FFFF30
:1051A000F6E7FFFFF6E7FFFFF4E7FFFFFAE7FFFF91
:1051B000FAE7FFFFCAE7FFFFF4E7FFFFFAE7FFFFA9
:1051C000CAE7FFFFFAE7FFFFF4E7FFFF92E8FFFF00
:1051D00092E8FFFF92E8FFFFCAE7FFFF000102022B
:1051E000030303030404040404040404050505057F
:1051F000050505050505050505050505060606065B
:10520000060606060606060606060606060606063E
:10521000060606060606060606060606070707072A
:10522000070707070707070707070707070707070E
:1052300007070707070707070707070707070707FE
:1052400007070707070707070707070707070707EE
:1052500007070707070707070707070708080808DA
:1052600008080808080808080808080808080808BE
:1052700008080808080808080808080808080808AE
:10528000080808080808080808080808080808089E
:10529000080808080808080808080808080808088E
:1052A000080808080808080808080808080808087E
:1052B000080808080808080808080808080808086E
:1052C000080808080808080808080808080808085E
:1052D000080808080808080808080808232D302BC3
:1052E00020000000686C4C0065666745464700007A
:1052F000303132333435363738394142434445460C
:1053000000000000303132333435363738396162CD
:1053100063646566000000000000000000000000FB
:10532000000000000000000000000000000000007D
:10533000000000000000000000000000000000006D
:10534000000000000000000000000000000000005D
:10535000000000000000000000000000000000004D
:10536000000000000000000000000000000000003D
:08537000000000000000000035
:1053780000000000010203040102030406070809F3
:105388000907000000000000000000000000000005
:105398000000000000000000000000000000000005
:1053A80000000000000000000000000000000000F5
:1053B80000000000000000000000000000000000E5
:1053C800000000000000000038530000585300009F
:1053D800185300000000000000000000000000005A
:1053E80000000000000000000000000000000000B5
:1053F80000000000000000000000000000000000A5
:105408000000000000000000000000000000000094
:105418000000000000000000000000000000000084
:1054280000000000000000000204060800C201009D
:1054380000000801004495085400002004030904F2
:085448005400002000000000E8
:00000001FF
