:100000006F20206B1300000013000000130000009D
:100010001300000013000000130000001300000094
:100020001300000013000000130000001300000084
:08003000130000007300100032
:100038000000000000000000A8020000AC02000060
:1000480000000000F825000000000000000000008B
:10005800FA250000FC250000000000000000000058
:10006800FE2500000000000000260000000000003F
:1000780002260000042600000626000008260000CC
:100088000A2600000C2600000A0400001E040000D6
:10009800440400005A040000700400001826000000
:1000A8001A2600001C2600001E260000202600003C
:1000B800222600002426000026260000282600000C
:1000C8002A2600002C2600002E26000086040000A8
:1000D800322600007A050000362600003826000087
:1000E800A0050000BA050000E00500004026000059
:1000F800422600004426000046260000482600004C
:100108004A260000AE020000D802000002030000E8
:10011800F804000054260000562600005826000067
:100128006C0600005C2600005E26000060260000C9
:10013800622600006426000006060000682600000B
:100148002C030000560300002C06000046060000A1
:10015800722600007426000076260000782600002B
:100168007A2600007C2600007E26000080260000FB
:10017800822600008426000086260000EC3200005B
:100188008A2600008C260000EA030000780300009D
:10019800A2030000CC03000096260000920600008F
:1001A8009A2600009C2600009E260000B806000043
:1001B800A2260000A4260000A6260000A82600000B
:1001C800AA260000AC260000AE260000B0260000DB
:1001D8000000000000000000000000000000000017
:1001E8000000000000000000000000000000000007
:0801F8000000000000000000FF
:100200003D432A876373C3029377F700BDEFADE5E3
:10021000937606FF3D8ABA960CC34CC30CC74CC7F5
:100220004107E36BD7FE11E28280B306C3408A0622
:100230009702000096966780A6002307B700A306E2
:10024000B7002306B700A305B7002305B700A30432
:10025000B7002304B700A303B7002303B700A3022A
:10026000B7002302B700A301B7002301B700A30022
:10027000B7002300B700828093F5F50F93968500B1
:10028000D58D93960501D58D61B79396270097027A
:10029000000096968682E78086FA9680C1171D8FA9
:1002A0003E96E374C3F8A5B77300203001A0411156
:1002B00022C6374401409305505213050480EF20B5
:1002C000D07519C59305505213050480EF2030797D
:1002D0003244410173002030411122C637440040AE
:1002E0009305505213050440EF20307319C5930550
:1002F000505213050440EF209076324441017300C0
:100300002030411122C63754004093055052130546
:100310000480EF20907019C5930550521305048096
:10032000EF20F0733244410173002030411122C6A6
:100330003754004093055052130504C0EF20F06D70
:1003400019C593055052130504C0EF205071324473
:100350004101730020309305505237550040EF2083
:10036000D06B09C9EF003026930550523755004035
:10037000EF20F06E73002030411122C63724004078
:100380009305505213050480EF20306919C5930579
:10039000505213050480EF20906C324441017300E9
:1003A0002030411122C637240040930550521305D6
:1003B00004C0EF20906619C593055052130504C080
:1003C000EF20F06932444101730020309305505210
:1003D00037250040EF20706419C59305505237252A
:1003E0000040EF20D06773002030B707055003C7E7
:1003F0000701118B09CB03C707011377B70F2388B8
:10040000E700EF005022730020300545EF20A040A8
:1004100085476314F500EF20E04173002030094563
:10042000EF20603F8547631DF5000945EF208040C0
:10043000130520088145EF1020125145EF0090531D
:10044000730020301145EF20003D85476315F5000E
:100450001145EF20203E730020302145EF20A03BC6
:1004600085476315F5002145EF20C03C730020301F
:100470004145EF20403A85476315F5004145EF209F
:10048000603B7300203013050002EF20C038854721
:100490006316F50013050002EF20C03913050004B0
:1004A000EF20603785476316F50013050004EF2041
:1004B000603813050008EF20003685476316F50005
:1004C00013050008EF20003713050010EF20A034BB
:1004D00085476316F50013050010EF20A0351305BE
:1004E0000020EF20403385476316F50013050020F8
:1004F000EF2040347300203041111305004022C624
:10050000EF20603185476316F50013050040EF20AA
:100510006032056413050480EF20E02F85476316E1
:10052000F50013050480EF20E0300565EF20A02ED4
:1005300085476315F5000565EF20C02F0965EF209D
:10054000802D85476315F5000965EF20A02E116504
:10055000EF20602C85476315F5001165EF20802D95
:100560002165EF20402B85476315F5002165EF20BD
:10057000602C3244410173002030411122C63734CF
:1005800001408545130504C0EF20703211C5854533
:10059000130504C0EF207033324441017300203052
:1005A000854537050040EF20903011C5854537055A
:1005B0000040EF20903173002030411122C63704F3
:1005C0000040854513050440EF20702E11C5854578
:1005D00013050440EF20702F324441017300203096
:1005E000411122C637140040854513050480EF20D1
:1005F000102C11C5854513050480EF20102D3244C1
:10060000410173002030411122C637140040854556
:10061000130504C0EF20B02911C58545130504C09A
:10062000EF20B02A32444101730020308545371550
:100630000040EF20D02711C5854537150040EF2039
:10064000D02873002030411122C637140040854560
:1006500013050440EF20B02511C58545130504405E
:10066000EF20B0263244410173002030411122C6F0
:1006700037340140854513050440EF20502311C550
:10068000854513050440EF20502432444101730096
:100690002030411122C6375401408545130504C05E
:1006A000EF20F02011C58545130504C0EF20F0218F
:1006B0003244410173002030854537550140EF2019
:1006C000101F11C5854537550140EF2010207300DC
:1006D000203001118145094506CE22CC26CA4EC6DE
:1006E0004AC8EF10D0089305F00F0945EF10300805
:1006F00085450945EF10B00737040020996485450A
:1007000009451304441593840482EF105006A29403
:100710009309C00B0149B307240183C507000945AC
:100720000509EF10D004E31839FF1304C40BE313D9
:1007300094FEF2406244D2444249B249056182804B
:10074000411106C622C4EF10505A15263756000034
:100750001306C6EB81450145D12C37560000130620
:1007600046ECD1450145D924EF00006E1305400643
:10077000EF00502083C7018391E301A02388018209
:10078000893FCDBF411106C622C415E537C402001A
:10079000A1460146930504F213053020EF10402EC8
:1007A000A1460146930504F2130520202244B240DD
:1007B00041016F10E02C85476313F50237C4020036
:1007C00081460146930504F213051010EF10402BEB
:1007D00081460146930504F213050010C1BFB240E3
:1007E0002244410182804111956722C403A44755E8
:1007F00026C24AC006C6C14404C844C8130900083A
:10080000232A2401AA850545EF10406723282401E7
:1008100004C844C8B2402244924402494101828043
:1008200083A74180011122CC26CA4AC84EC606CEF3
:10083000AA89AE8432893684A1EF1305A0026537F8
:1008400093854903C205C1810545EF10E064930516
:100850004903C205C1810545EF1000641305B002CC
:10086000593793858402C205C1810545EF10C062E6
:1008700093058402C2050545C181EF10E061624421
:10088000F240D2444249B2491305C0020561A1BFFA
:100890000547639FE7001305A002B137938559030D
:1008A000C205C1810545EF10205F9305590355B777
:1008B0009309850213098602C2094209094793D99F
:1008C0000901135909011305A0026398E702213FAA
:1008D000CE850545EF10405CCA850545EF10C05B2D
:1008E0001305B002093793855403C205C18105453C
:1008F000EF10805A93055403B5BFF535CE850545F5
:10090000EF108059CA850545EF1000591305B00254
:10091000D93D93854403C205C1810545EF10C057F9
:100920009305440381BF03C6A18083C6B1804111F2
:1009300022C43304D602FD167D16C2064206C182C9
:1009400041828145014526C206C6B7040020C93D43
:1009500011E4B240224492444101828083D50410C4
:1009600005457D14EF104053E5B723A2A1808546CD
:100970001387A1809387B18063EAA600930670F87D
:100980002300D70041572380E7008280C15623000F
:10099000D700130770F8C5BF79714ECE95679309DC
:1009A00075001206938787F5C20922D44AD056CA29
:1009B0005AC85EC662C466C206D626D252CCAA8A7D
:1009C000AE8B3304F600014993D90901370C00209E
:1009D000414BB3862B01C206C1824E86B685568531
:1009E0008135034A04E0A14493771A008DCF83D563
:1009F0008180FD14054593F4F40FEF10E049135A7C
:100A00001A00FDF005090504E31569FDB2502254F2
:100A100092540259F249624AD24A424BB24B224C9A
:100A2000924C4561828083550C10E1B7011122CCB4
:100A300026CA4AC84EC606CE2A89AE89B284014467
:100A4000B38784000386070001EAF2406244D2447F
:100A50004249B24905618280131534004A95420526
:100A60000504CE8541814204053F4180D1BF03A8E2
:100A7000818141111307F00F81479306F00F130690
:100A8000200293050002054506C622C426C24AC0BC
:100A9000EF10C02EC1460146854513057006EF00D4
:100AA000F01DC1460146854513057002EF00101D7B
:100AB000C1460146854513054006EF00301C8545BB
:100AC000C146054613050006EF00501B1384418004
:100AD000084013090008513D956783A4C7541305C6
:100AE000800C23AA2401EF00E0681305400623A828
:100AF0002401EF00206813056003F531130540065B
:100B0000EF0040671C40814589CF05479305000CE5
:100B10006389E7000947930500076384E7009305AD
:100B2000000A0545EF1080351305A0036D39954582
:100B30000545EF10A0341305200B7531B14505456F
:100B4000EF10C033B1450545EF10403381450545F1
:100B5000EF10C032930530030545EF1020329305A6
:100B600030030545EF1080311305700BAD39930547
:100B700050030545EF1080301305B00BAD319305E0
:100B800070030545EF10802F1305000CA93993055C
:100B9000C0020545EF10802E1305200CA9318545B4
:100BA0000545EF10A02D1305300C3539C945054515
:100BB000EF10C02C1305400C3D3193050002054594
:100BC000EF10C02B1305600C3939BD450545EF10FA
:100BD000E02A1305000D01399305400A0545EF1081
:100BE000E0299305100A0545EF1040291305000E72
:100BF000DD3E9305000D0545EF1040289145054564
:100C0000EF10C027B5450545EF104027C545054500
:100C1000EF10C026CD450545EF1040269305B002E4
:100C20000545EF10A0259305F0030545EF100025BD
:100C3000930540050545EF1060249305C004054564
:100C4000EF10C023E1450545EF104023B5450545AC
:100C5000EF10C022AD450545EF104022FD4505458A
:100C6000EF10C021930530020545EF102021130538
:100C7000100E953E9305000D0545EF10202091457F
:100C80000545EF10A01FB1450545EF10201FC545D4
:100C90000545EF10A01ECD450545EF10201E93051C
:100CA000C0020545EF10801D9305F0030545EF10C8
:100CB000E01C930540040545EF10401C930510050A
:100CC0000545EF10A01B9305F0020545EF10001B32
:100CD000FD450545EF10801AFD450545EF10001A4A
:100CE000930500020545EF10601993053002054594
:100CF000EF10C01813051002FD344545ED341305FF
:100D000080078D2913059002F93C2244B240924499
:100D10000249410109B9797126D24ECE52CCB704AD
:100D200000207D7A22D456CA5AC806D64AD0938467
:100D300004000144130A5A1A7D5B9389418383D7C7
:100D4000040011466C0013978700A183D98F1145C9
:100D5000231641012317F10013090008EF10202387
:100D60009387818383C707001387818393F7F70FE6
:100D7000A1C36313090031C483C71900230007000E
:100D800003C72900A2070504D98F42042391F40068
:100D90004180A5479104E314F4FA0145B25022546E
:100DA00092540259F249624AD24A424B45618280CA
:100DB0007D19420913590941E30F69FB05455D2E71
:100DC00045B70545E1BF411122C483C7718326C2DF
:100DD00093854183BE95114506C6EF10602B938421
:100DE00041839387718311C503C7070005072380DB
:100DF000E70083C607000547639FE60083C604003B
:100E00001307500A6384E60023800700B24022449F
:100E10009244410182800D46E39AC6FE238007007A
:100E2000238CE182E5B7B767002003A74797B70790
:100E30000550854698C72388D18203C707001367EA
:100E400017002380E70082808965397193061005B9
:100E50001306000593850558114506DE22DC26DAC7
:100E60004AD84ED652D4EF10E04801468545114588
:100E7000EF10C014EF00A0749387818323800700D4
:100E8000593D05C1B75600001566938606EE130658
:100E9000C6EC9305B01237550000130545EEEF2060
:100EA000104813848183B704002023000400938436
:100EB00044022300040013898402930950FA83D763
:100EC000040011466C08A30EF10083D724001145DD
:100ED000230E310113978700A183D98F231FF100BF
:100EE000EF10E00A094591047124E39A24FD93046C
:100EF00010088347040093F7F70F89E7FD14C20435
:100F0000C18085EC23000400930400081389418309
:100F1000130AF00FFD598347190003472900F98F81
:100F20006390470395E4B75600001566938606EE76
:100F30001306C6EC93052013B9BF0545252C55BFF4
:100F4000FD14C204C184E38034FF05452524E1B7C4
:100F500023000400C93319C9B756000015669386EB
:100F600006EE1306C6EC9305901335B7912D914705
:100F70003EC495473EC299473EC09308900213086D
:100F80008002930760021307B004930690041306CF
:100F90008004A9452545952E3705002019661307BD
:100FA0004515B767002013054515854613060682CB
:100FB000814523AAE7962129F2506254D25442591E
:100FC000B259225A014521618280797122D44AD0D6
:100FD0004ECE52CC56CA06D626D283471500373499
:100FE000014081452306F100834705001309C10034
:100FF000130AF100A306F10083472500130504C07E
:10100000130404C02307F100EF2060088965938A68
:10101000C55193894513A14483470900FD14CE852A
:10102000B3D79740858B91E3D6850D45552B8545E4
:101030002285EF10B07B85452285EF20A00565DD78
:1010400081452285EF10907A85452285EF20400565
:1010500081452285EF20A003E1F00509E31D2AFB6D
:10106000B250225492540259F249624AD24A45611E
:101070008280B7C50200011181460146938505F2C1
:101080000D4506CE2316010023070100EF00501F77
:10109000373501408945130505C0EF10D07D680044
:1010A0002D3713054006592868000537F2400561C1
:1010B0008280B7170240DC4337177A0013070720F6
:1010C000C983BD8BB387E7023727F40013070740B6
:1010D000F165930610021306000293850520094569
:1010E000BA9723AEF1826F10E020011126CAB754DF
:1010F000004022CC4AC84EC606CEAE893289014491
:1011000093840480634A2401F24062444A85D244B5
:101110004249B24905618280930500042685EF208B
:10112000000F7DD9B38789008385070026850504D4
:10113000C205C181EF20000DF1B7828083A78181B4
:1011400037177A0013070720B3D7E7028146014714
:101150003385A702B7F700E023A0070094C7D8C7DC
:10116000054798C3B7F600E09846DC4699E3E37D6F
:10117000E5FE828083A781810967130707F4B3D74F
:10118000E702814601473385A702B7F700E023A0B5
:10119000070094C7D8C7054798C3B7F600E098463C
:1011A000DC4699E3E37DE5FE828009E58146014660
:1011B0008145E9A40547E30BE5FE0947E308E5FEA1
:1011C0000D47E305E5FE1147E302E5FE1547E30F92
:1011D000E5FC1947E30CE5FC1D47E309E5FC214765
:1011E0006318E50081460146814513050002D1B729
:1011F00025476318E5008146014681451305100225
:101200004DBF29476318E500814601468145130516
:10121000000445B72D476318E50081460146814526
:101220001305100479B731476318E500814601467C
:10123000814513052004B5BF35476318E500814695
:101240000146814513053004ADB739476318E50001
:1012500081460146814513054004A1BF3D476318FF
:10126000E5008146014681451305500499B7828007
:10127000797122D485452A841305002006D626D20A
:10128000EF1070102285153703A7C183B7C701057A
:10129000938707D0316563E3E70021653724014078
:1012A000EF10807A13050440EF10C049B7070E0015
:1012B0003EC68A85854713050440230AF10002C013
:1012C00002C202C402C8EF10404C85451305044019
:1012D000EF10205113050440EF10A0519304044077
:1012E0002685EF10A0516DFD130504403724014001
:1012F000EF104051130404402285EF1040516DFD62
:10130000B250225492544561828079714ECE52CCB3
:1013100056CA328AAE8AB689014693068004814550
:1013200006D622D426D24AD046C042C23EC43AC6CD
:101330008344010303494103034481038122568509
:101340009306800401468145152A52859306800440
:101350000146814525224E8593068004014681453C
:10136000312A32479306800401463A858145392265
:10137000A2479306800401463E858145012212481A
:1013800093068004014642858145CD288248930614
:101390008004014646858145D5204A859306800410
:1013A00001468145E1282685930680040146814552
:1013B000F12022852254B25092540259F249624AD5
:1013C000D24A9306800401468145456145A8011132
:1013D00022CC26CA2E84AA848545096506CE32C64B
:1013E00036C4EF106078B707055003C70700130530
:1013F00060058D451377F70C2380E70003C70700CE
:10140000136727042380E70003C717001377970F9C
:10141000A380E700A24632462392D7002393C70059
:1014200084C7C0C703C717001377F703A380E7007B
:1014300003C717001377F70FA380E70003C7170050
:1014400013670701A380E70003C72700136747005E
:101450002381E70003C7170013671700A380E70085
:1014600003C70700136717002380E700992262442F
:10147000F240D24413056005056111A29307F00FF5
:10148000630BF50C797122D41354550026D24AD03F
:101490004ECE52CC06D61D889374F5003689328A1A
:1014A000AE8935E085451145EF10E06D8547B39471
:1014B0009700C204C180231291006399F900931729
:1014C0000901C183A18391E38D473EC4956793874A
:1014D00087540A043E9400401379F90F4C0022858A
:1014E0004AC6EF10C03585476397F9005286A68536
:1014F0002285EF10E040B250225492540259F24932
:10150000624A4561828085476315F400854521451F
:1015100061BF89476315F4008545414571B78D4723
:101520006316F400854513050002BDBF914763169D
:10153000F40085451305000485BF95476316F40044
:101540008545130500088DB79947E311F4F68545E5
:101550001305001091BF8280935755001397270001
:10156000956793878754BA9798439377F500054515
:101570003315F50099C108CB828048CB8280935700
:1015800055000547938707043315A7008A0737E7F7
:1015900000E0BA9788C38280935755000547938728
:1015A00007063315A7008A0737E700E0BA9788C314
:1015B0008280B7E700E03E952300B54082808280BC
:1015C000828001112304A100280006CEA304B100EB
:1015D0002305C10036C6EF10A03BF24005618280B2
:1015E000935785001567130787568A07BA9798435C
:1015F0000D890A058357C7023A95B385F5028967B5
:1016000093870771B3D5F502C205C1814CD9828099
:1016100019E59306803101468545214585B5854705
:101620006318F50093068031014685452545FDB7D1
:1016300089476318F50093068031014685452945A1
:10164000F1BF8D476318F50093068031014685454B
:101650002D45E9B7C1476319F5009306803101466E
:101660008545130590085DBFC5476319F5009306CE
:101670008031014685451305B0084DB7C947631948
:10168000F50093068031014685451305D00879B7EA
:10169000CD476319F5009306803101468545130552
:1016A000E008ADBF930700106318F5009306803182
:1016B0000146854501459DB7930710106318F50055
:1016C0009306803101468545054589BF9307201063
:1016D0006318F500930680310146854509453DBFF5
:1016E000930730106318F500930680310146854555
:1016F0000D452DB7930700116318F500930680314F
:10170000014685453D4519BF930710116319F50042
:1017100093068031014685451305300201B79307D2
:1017200020116319F50093068031014685451305A4
:10173000A002EDB5930730116319F50093068031CF
:10174000014685451305B002D1BD930700206318FB
:10175000F50093068031014685451945C1B59307CB
:1017600010206318F50093068031014685451D451C
:1017700075B5930720206319F50093068031014663
:1017800085451305000259BD930730206319F50004
:1017900093068031014685451305100241B5930734
:1017A00000216319F5009306803101468545130534
:1017B0006004ADB5930710216319F50093068031DD
:1017C000014685451305700491BD930720216319D7
:1017D000F5009306803101468545130580043DBD23
:1017E000930730216319F500930680310146854542
:1017F0001305900425B5930700226319F50093069D
:101800008031014685451305400209BD930710222A
:101810006319F50093068031014685451305500292
:10182000F5BB930700306319F5009306803101463C
:10183000854513056002DDB3930710306319F50089
:10184000930680310146854513057002C1BB93079D
:1018500020306319F5009306803101468545130554
:1018600080026DBB930730306319F5009306803119
:10187000014685451305900255B39307003163195E
:10188000F50093068031014685451305C00679B3FE
:10189000930710316319F5009306803101468545A1
:1018A0001305D006A5BB930720316319F5009306F5
:1018B0008031014685451305E0068DB3930730312D
:1018C0006319F50093068031014685451305F0063E
:1018D000B1B393070040E30BF5DC93071040E3013D
:1018E000F5DE93072040E307F5DE93073040E30D74
:1018F000F5DE93070070E308F5EA93071070E30F35
:10190000F5EA93072070E306F5EC93073070E30DDA
:10191000F5EC93070071E30AF5F093071071E3010A
:10192000F5F293072071E308F5F29307307163191C
:10193000F50093068031014685451305D004F9B9B9
:1019400093070580E38807D8856713871780E30D21
:10195000E5D8138727806318E50093068031014698
:101960008545114565B9938737806319F50093065E
:10197000803101468545130540044DB185671387C5
:1019800007816319E50093068031014685451305FB
:10199000900669B1138717816319E50093068031BA
:1019A000014685451305B00695B913872781E305E0
:1019B000E5EE13873781E307E5F013870790E30C23
:1019C000E5E813871790E303E5EA13872790631987
:1019D000E5009306803101468545130530043DB985
:1019E000138737906319E5009306803101468545DA
:1019F0001305B00425B1138707916319E500930619
:101A00008031014685451305100609B99387179162
:101A10006319F500930680310146854513053006AC
:101A2000F5BE8567138727916319E500930680311A
:101A30000146854513055006D5B6138737916319BE
:101A4000E500930680310146854513057006F9B619
:101A500013870792E30EE5CA13871792E301E5DACD
:101A600013872792E308E5DA938737926319F50025
:101A700093068031014685451305F00445B6828002
:101A8000397106DE22DC26DA2A844AD84ED62EC6E2
:101A900032C43689EFF0DFB7B24583A78181224691
:101AA0009359840033D7B7024E85418393061700BC
:101AB000B386B602B3D7D70293940701C180B3842B
:101AC000C402096613060671FD1793950701C181CB
:101AD000B3D4C4023A86D52E85450545EF10A00A39
:101AE000935744000547C204C1806394E706370555
:101AF000160085451305050CEF003061C1671567B9
:101B00009387070613952900130787563EC83A9511
:101B100093773400231B9100231C0100231E010036
:101B20000041E9E70C082285EF10001F854522855A
:101B3000EF10804DCA852285EF10604E22858545C5
:101B4000EF10C04AF2506254D2544259B259216146
:101B5000828045476398E7003705180085451305DF
:101B6000053059BF130710026398E70037151A00B4
:101B70008545130505C049B7130720026398E700A0
:101B800037151A00854513050580BDB713071003E7
:101B90006395E7008545056585B7130710076399C9
:101BA000E700370701405C4F93E747005CCFB9B7C8
:101BB000130710086398E700370701405C4F93E76D
:101BC0000701EDB7130710096398E70037070140D5
:101BD0005C4F93E70704D9BF13072009E390E7F2AE
:101BE000370701405C4F93E70702C9B70547639F7A
:101BF000E7000C082285EF10201C22858545EF1098
:101C0000A040CA852285EF10A0420DBF09470C08ED
:101C10002285639DE700EF10E02622858545EF10C1
:101C2000A03ECA852285EF10404209BFEF10203246
:101C300022858545EF10403DCA852285EF10004280
:101C4000F5BD411122C426C24AC006C6AE84328404
:101C5000368921E993068031054685451545EFF023
:101C6000FF8189476393F4089306803105468545D3
:101C70001D45EFF0BF808547631DF40A9306803150
:101C8000054681451945EFF06FFF2244B24092446A
:101C90004A850249930600310146854541016FF0AE
:101CA000EFFDC1476319F500930680310546854570
:101CB000130530026DB7930700026319F500930610
:101CC0008031054685451305D00251BF93070003B7
:101CD000E30CF5FC93070004E315F5F89306803157
:101CE000054685451305A0049DBFC9476399F400C7
:101CF0009306803105468545130550029DBF930725
:101D000020026399F400930680310546854513054A
:101D1000F00285B793072003E38CF4FC93072004BB
:101D2000E39BF4F493068031054685451305C00412
:101D300089B7C5476319F40093068031054681458C
:101D40001305400289B7930710026319F400930644
:101D50008031054681451305E00235B7930710042D
:101D60006319F40093068031054681451305B004DC
:101D700019BF93071003E31AF4F07DBF397122DC19
:101D800026DA4AD84ED652D456D25AD006DE2A8403
:101D90002E89328AB68A3A8BBE84C28949E50565A6
:101DA00085450505EF00305EDA865686D2854A8580
:101DB000493DB70704013EC62318010085476388E3
:101DC000F408C9C009476389E4088D466389D408CB
:101DD00093070020231BF1009D47231EF100956708
:101DE0009387C7550A043E9400408E096C002285F3
:101DF000231C3101231D0100EF00905EC1476315D4
:101E0000F90685450545EF00503022858545EF00F0
:101E1000D062F2506254D2544259B259225A925A64
:101E2000025B2161828085476318F5008545116555
:101E30000505EF0030578DBF8947E317F5F6854557
:101E40002165FDB723190100231A010051B7231999
:101E50000100231A9100ADBF23199100F5B7231992
:101E6000E100231AF100ADB793070004E31FF9F86E
:101E70003715200085451305051071B795670A05CC
:101E80009387C755AA9798432316B70083578700AF
:101E900093F70708E5FF828095670A059387C75582
:101EA000AA979C4313D785002396E70003D78700A2
:101EB0001377070865FF93F5F50F2396B70003D74F
:101EC00087001377070865FF8280011122CC26CA9C
:101ED0004AC806CE2A842E89B28401E90565854563
:101EE00013050580EF00304A39A08547631EF502CF
:101EF0008545EF00304B9567938787560A043E94DB
:101F000008404C00231421012312910023150100E5
:101F10002313010023060100EF001054F240624435
:101F2000D2444249056182808947E303F5FC8D472D
:101F30006315F500854511456DBF91476315F500A3
:101F4000854521457DB79D476315F50085450965A4
:101F500051BFA1476316F50085453705080059B7FD
:101F6000A547E31AF5F8854537051000A5BF956725
:101F70000A0593878758AA9798438357070093F7D2
:101F80000708E5DFC205C1812312B7008280411135
:101F900022C426C24AC006C62A892E84B384C5003C
:101FA00063189400B2402244924402494101828065
:101FB00005048345F4FF4A855D3FDDB7411122C426
:101FC00026C206C64AC02A84AE841DEE9567131742
:101FD0002500938787582E86BA97930550528843D9
:101FE000EF10E01E938701823E9403450400B7E79B
:101FF00000E0AA97238007408DC42244B240924457
:10200000024941016FF0AFD785476313F602956728
:1020100013172500938787582E86BA9793057072F9
:102020007DBF2244B2409244024941016FF0CFD6B5
:1020300089476319F6049567131725009387875816
:10204000BA9703A907000546930550524A85EF1039
:10205000001813045403A686228501468145EFF03B
:102060004FD64A85054693057072EF1040162285BB
:102070002244B2400249A686924405468145410168
:102080006FF02FD4B2402244924402494101828031
:1020900095670A0593878758AA979843835707003F
:1020A00093F7070299C78357470005452380F5003A
:1020B000828001458280411106C60DE18547639803
:1020C000F522E14601462545EFF04FBB914601461A
:1020D00081452945B24041016FF04FBA8947631FDE
:1020E000F500E1460146854513056002EFF00FB9A2
:1020F00091460146814513057002E9BFC147631D42
:10210000F500E146014685450945EFF02FB79146B8
:10211000014681450D457DBFC947631FF500E14676
:102120000146854513055006EFF04FB5914601462F
:1021300081451305600679BF93070002631FF50010
:10214000E146014685451305A002EFF02FB3914605
:10215000014681451305B002B5BF93072002631FF6
:10216000F500E146014685451305A004EFF00FB1E7
:102170009146014681451305B004A9BF930740026B
:102180006310F502E1460146854513058006EFF030
:10219000EFAE9306800401468145130590061DBFEE
:1021A00093070004E30FF5FA93072004631FF5007B
:1021B000E1460146854513050002EFF02FAC91463C
:1021C000014681451305100231B793070005631FCF
:1021D000F500E146014685451305C004EFF00FAA5E
:1021E00091460146814513052006EDB5930720056C
:1021F000631FF500E1460146854513058008EFF0B1
:10220000EFA791460146814513059008E1B5930774
:1022100000066310F502E1460146854513050004FA
:10222000EFF0CFA593068004014681451305100405
:1022300055B593072006631FF500E1460146854525
:102240001305A008EFF08FA39146014681451305C1
:10225000B00849B593070007631FF500E146014642
:10226000854513052004EFF06FA191460146814595
:102270001305300485B5930720076317F500E14681
:10228000014685451945C5B793074007631FF5000B
:10229000E146014685451305C008EFF02F9E9146A3
:1022A000014681451305D00835B593070008631F23
:1022B000F500E1460146854513054004EFF00F9C0B
:1022C0009146014681451305500429B5930720081E
:1022D000631FF500E146014685451305E008EFF070
:1022E000EF999146014681451305F008E5B3B240E8
:1022F00041018280797122D44ECE2A84AE8905456F
:10230000854526D24AD006D6B2843689EF00B0077A
:102310008947639EF4048D476315F900854511458F
:10232000ED23631C041285451165EF00D005CA85B5
:102330002685EFF05FD8B7070C003EC495679387FA
:1023400087580A043E9400408A854EC0228502C206
:1023500023160100EF00505822858545EF00706577
:10236000B250225492540259F24945618280C947C1
:102370006398F400CD47E316F9FA854521454DB73A
:1023800093072002639BF40093073002E31BF9F8E4
:10239000370514008545410561B793074002639CEA
:1023A000F40093075002E31EF9F637051400854543
:1023B00013050503B5B7930720046399F400930749
:1023C0003004E310F9F68545056599BF93072005AC
:1023D000639BF40093073005E315F9F437052000FB
:1023E0008545050535BF93072006639CF4009307D8
:1023F0003006E318F9F2371500808545130505808E
:1024000005B793072007639EF40093073007E31A8C
:10241000F9F0370701405C4FB7064000D58F5CCF1D
:1024200009B793074007639CF40093075007E31A2A
:10243000F9EE370701405C4FB7068000C5B7930738
:102440002008E390F4EE93073008E31CF9EC37071B
:1024500001405C4FB7060002D1B785476317F4000F
:102460008545370502003D2FD9B589476316F4002D
:10247000854537050400C5BF8D476316F4008545C3
:1024800037050800CDB791476316F4008545370539
:102490001000D1BF95476316F4008545130500046D
:1024A000D9B799476316F40085451305000865BF41
:1024B0009D47E31EF4E68545130500106DB785477B
:1024C000631AF5009306003105468545130520087B
:1024D0006FE0DFFA89476319F5009306003105467E
:1024E000854513053008EDB78280411106C6EFF02F
:1024F0002F8DEFE01FBCEFE05FC40145EFE08FA838
:102500000545EFE02FA80545A920094599200D456F
:10251000892011453D2815452D2819451D280945B7
:10252000EFE01FD50D45EFE0BFD41145EFE05FD4DC
:102530001545EFE0FFD31945EFE09FD3054541373F
:102540000945B53FEFE0FFB27128B24041016FF09D
:102550000F87411122C406C685472A846314F502F9
:10256000930680340546814513050004EFE01FF112
:1025700099476315F4069306803405468145130593
:10258000500425A089476319F50093068034054659
:10259000814513051004D9BF8D47631DF5009306CF
:1025A000803405468145130520042244B240410190
:1025B0006FE0DFEC91476319F50093068034054620
:1025C000814513053004D5B79547E313F5FA930613
:1025D00080340546814513054004C1BFB240224402
:1025E0004101828093068004054681451305A006BB
:1025F0006FE0DFE801A001A001A001A001A001A0FF
:1026000001A001A001A001A001A001A001A001A0C2
:1026100001A001A001A001A001A001A001A001A0B2
:1026200001A001A001A001A001A001A001A001A0A2
:1026300001A001A001A001A001A001A001A001A092
:1026400001A001A001A001A001A001A001A001A082
:1026500001A001A001A001A001A001A001A001A072
:1026600001A001A001A001A001A001A001A001A062
:1026700001A001A001A001A001A001A001A001A052
:1026800001A001A001A001A001A001A001A001A042
:1026900001A001A001A001A001A001A001A001A032
:1026A00001A001A001A001A001A001A001A001A022
:1026B00001A07390123497E1FF1F9381A124176149
:1026C000002013012194173500001305E50D97E54F
:1026D000FF1F938525931386018363FAC500832228
:1026E000050023A0550011059105E3EAC5FE1385F9
:1026F0000183973500209385E53E6377B50023205D
:1027000005001105E36DB5FEFD42739002BCFD426C
:1027100073904280B78200009382828873A0023057
:1027200097E2FFFF9382829193E2320073905230DE
:10273000EF10C02C97E2FFFF9382C2007390123417
:10274000730020304111B727014006C69387074028
:10275000631CF500854513050020A521814513055F
:102760000020B2404101B1A9B737014093870780EB
:10277000631AF500854513050040A1218145130525
:102780000040C5B7B240410182805C413707F1E0AB
:102790001307F7EF944D7D8F9C41D58FD44DD58F86
:1027A000D441A206D58FD98F5CC11C4537F7F1FF04
:1027B0001307D77FD4457D8F9C49D58F94458606D6
:1027C000D58FD98F1CC55C55370710FF7D177D8FBE
:1027D00083C74501FD1793F7F70FD207D98F5CD553
:1027E00082801C4589C593E717001CC58280F99B30
:1027F000EDBF1C4593E787001CC5828008450D810D
:10280000058982801C4593E747001CC582800845E6
:10281000098105898280B70701401387074083A794
:102820000740584B698F09C77D8D3335A0008280E2
:1028300001458280B707014023AAA74082809C45BA
:1028400013F7070113F8F70001C7D8413368E80010
:1028500083D5050013F7F50F39C318418146854E1E
:102860003D4F930F800293028004214E3396DE0089
:10287000B3F8C500631116039398260033131F01A4
:102880001343F3FF3377E300B318180133E7E8008D
:10289000639FF70550C98506E39AC6FD18C1130763
:1028A000F00F6375B70454412146854E3D4F930F99
:1028B000800293028004414EB398CE0033F7150195
:1028C0006392E8021317260001173313EF00134336
:1028D000F3FFB376D3003317E800D98E639DF70179
:1028E000232A15010506E319C6FD54C18280E3942D
:1028F00057FA10C94DB7E39757FE23281501DDB7E6
:1029000019C20CC982804CC98280B7070140635547
:102910000504D44FB7073000131705013376F500CF
:102920004183631DF602370600F17D16370801402A
:10293000B3F7C60083264800758E2322C80099C5C8
:102940009356550192063317D700D98F37070140A8
:10295000635E05025CCF8280D4436DBF9317B500E0
:1029600063D007029357050113F6F7008D47B3971D
:10297000C70093C7F7FFF58FB706000FD58FC1B714
:10298000935755019207B317F700E5B75CC38280F0
:102990009387018494430347050089E68347250014
:1029A000920731A8944305466391C60483472500E6
:1029B0000346150092076314D60093E707F8B7E6BD
:1029C00000E093F7F70FBA962380F64085469357B9
:1029D00057003397E6005441ADC6938707048A0732
:1029E000B7E600E0B69798C382808C43894663932C
:1029F000D50283461500834725006365D6008A0605
:102A0000B69779BF9386E6038A06B69793F7F70FD2
:102A1000920765B790438D46631ED6008346150026
:102A2000834725006364D6008606D9BF9386C60710
:102A30008606E1BF94439147E39AF6F88347150071
:102A400085B79387070661BFB7160240DC4251770E
:102A50007D17F98F5D8DC8C28280371702405C43B5
:102A60009146B18B6385D700A1466386D706B71719
:102A70007A00938707201CC1371602405C42370753
:102A800000201307C7049183BD8BBA9783C6070044
:102A90001C41B3D7D7005CC15442A1829D8ABA962B
:102AA00083C60600B3D6D70014C55442AD829D8AB2
:102AB000369703470700B3D7E7005CC55842398310
:102AC000937637001387C180369703470700B3D743
:102AD000E7021CC982805C4354434167C983F98E75
:102AE00037F7FF1F0327C770BD8B89071316170120
:102AF00063480600454601476392C702C94739A8A3
:102B000009476389E7023D476388E70241476388D5
:102B1000E702454601476393C700C14785E6B746CC
:102B2000024083A60680C18A8DC6B7167A009386B6
:102B3000062025A00147D9B70547B547C5B70147C6
:102B4000BD47E9BFB7160240D4421396E600E35EE4
:102B500006FCB7163D0093860690B387D7021CC1CA
:102B600001DF1C41858301BF99C5371702405C4BCB
:102B70005D8D48CB8280B7170240D84B1345F5FFD7
:102B8000798DC8CB828099C5371702401C4F5D8D67
:102B900008CF8280B7170240984F1345F5FF798D13
:102BA00088CF828099C5371702405C4F5D8D48CF32
:102BB0008280B7170240D84F1345F5FF798DC8CFF3
:102BC000828099C5371702405C475D8D48C7828077
:102BD000B7170240D8471345F5FF798DC8C78280E3
:102BE000035705008D679387070483D625007D8FE3
:102BF00083D70500D58F83D64500D58F83D6650052
:102C0000D58F83D68500D58F83D6A500D58F83D663
:102C1000C500D58F83D6E500D58FD98F2310F50059
:102C20000357C501FD779387F77FF98F231EF500C2
:102C300083D705012318F50082808357050091C5CD
:102C400093E707042310F5008280C207C18393F73E
:102C5000F7FBC207C183FDB7835705003737014033
:102C6000930607C0C207C1836300D504B7060040BE
:102C7000630CD502938606406308D502B716004060
:102C8000138606806302C502938606C0630ED500D4
:102C900013070740630AE50037570140930607C052
:102CA0006304D5006317E50003D7250093F7F7F811
:102CB000D98F37170040630DE500130707406309FC
:102CC000E50093F7F7CF03D76500C207C183D98F1B
:102CD0002310F50083D745002316F50283D705009E
:102CE0002314F502B7370140138707C0630EE500D0
:102CF00093870740630AF500B7570140138707C061
:102D00006304E5006316F50083C785002318F50208
:102D10008547231AF50082808357050203D60500F4
:102D200003D82500C207C183F99BC207C1832310C2
:102D3000F502835705028356450003578501C207F4
:102D4000C183420741831377C7F8518F03D68500AB
:102D5000F59BC20633660601D18F37360140130852
:102D600006C0C182630E050113060640630AC50052
:102D700037560140130806C0630405016313C502FA
:102D800003D6A500DD9B03D8E500D18F03D645000F
:102D9000ED9B93F6F6CFD18F03D6C50033660601BF
:102DA000D18E2312D500231CE50003D76500231A1A
:102DB000E5022310F5028280835705026577130729
:102DC000F7CFC207C183BD9BC207C1832310F502A1
:102DD000835705028356450003D88500C207139622
:102DE000060183568501C18393F7F7FD758F83D65E
:102DF00005004182A206558F83D6250042074183F4
:102E0000B3E606019206D58FB7360140C207138894
:102E100006C0C183630E050193860640630AD50090
:102E2000B7560140138806C0630405016311D50439
:102E300083D6A50093F7F7F703D8C5009206D58F80
:102E400083D64500C207C183920693F7F7FBD58F5F
:102E5000FD769386F63FF18E03D6E500C207C18367
:102E6000336606010A06D18E1396060141822312AB
:102E7000C500231CE50003D76500231CE5022310D1
:102E8000F50282808357050203D88500C207C183FB
:102E900093F7F7EFC207C1832310F50283570502AA
:102EA000835645000357C501C20713960601420722
:102EB00083D6050041831377C7F8558F83D6250045
:102EC000C18393F7F7DFB3E60601A206D58FB736C5
:102ED0000140C207138806C04182C183630E050109
:102EE00093860640630AD500B7560140138806C092
:102EF000630405016312D504FD769386F67FF58F92
:102F000083D6A50003D8C500A206D58F83D6450079
:102F1000C207C183A20693F7F7BFD58FF576FD16DA
:102F2000F18E03D6E500C207C1833366060112069F
:102F3000D18E1396060141822312C500231EE5009F
:102F400003D76500231EE5022310F5028280035794
:102F50000502FD77FD17F98F2310F50203580502CE
:102F6000835645008357C50165771396060183D6BE
:102F700005001307F7CF7D8FF977A206FD17558F50
:102F8000B3F7070183D6250003D8850042074182A5
:102F9000B3E60601B206D58FB7360140C2071388E3
:102FA00006C04183C183630E050193860640630A10
:102FB000D500B7560140138806C063040501631CA1
:102FC000D500F176FD16F18E03D6C5001A06D18E16
:102FD0001396060141822312C500231EE50003D784
:102FE00065002310E5042310F50282808357050055
:102FF00091C593E717002310F5008280C207C183B3
:10300000F99BC207C183C5BF8357450491C521679A
:10301000D98F2312F5048280C607C583DDBF83578D
:103020008501C207C183DD9BDD8D231CB500828035
:1030300003578501FD779387F77FF98FA205CD8F21
:10304000C207C183231CF50082808357C501C207D4
:10305000C183DD9BDD8D231EB50082800357C50132
:10306000FD779387F77FF98FA205CD8FC207C183C4
:10307000231EF500828003570502F977FD17F98FAB
:10308000B205CD8FC207C1832310F50282802312BF
:10309000B5028280035505016D8D3335A000828015
:1030A00093C5F5FFC205C1812318B50082808357FF
:1030B00005010355C500ED8F4205418189C76D8D1E
:1030C0003335A00082800145828093C5F5FFC2059B
:1030D000C1812318B500828083560501F577FD175D
:1030E000F58F83D66500397122DC06DED58F03D7D4
:1030F000C5002318F5008356C500FD779387379FD9
:10310000F58F83D645002A842EC6D58F83D68500B9
:10311000D58F83D6A500D58F2316F500835745019B
:10312000C207C18393F7F7CFD98F231AF500680838
:10313000EFF0BF92B747014093870780B245631E07
:10314000F404A2578356C4006547B387E702C2065A
:10315000C186984163D5060406070356C40042069B
:10316000B3D7E702130740064186B3D6E702B3F7A9
:10317000E7029206635706028E0793872703B3D7A9
:10318000E70213F77700B367D700C207C1832314A0
:10319000F400F250625421618280925765B70A07A9
:1031A0006DBF920793872703B3D7E702BD8BD58FF7
:1031B000E9BF81C98357C5000967D98F2316F50078
:1031C00082800357C500F977FD17F98FC5BF13F744
:1031D000F50F85471583B395B7006319F70093077B
:1031E000C500984301CED98D8CC382808946930750
:1031F0004501E318D7FE93070501E5B793C5F5FF31
:10320000F98DDDB793F5F51F2312B50082800355C4
:1032100005006D8D3335A000828013F7F50F8546CC
:103220001583B397B6006313D7020357C500F98F10
:103230000357050001454207418381CB0545A18124
:10324000B315B5006D8F3335E00082808946631574
:10325000D70003570501E1BF03574501C9BFA1814D
:103260008547B397B70093C7F7FFC207C183231001
:10327000F5008280B7070050239AA70203C76703AF
:103280001377C70F238BE7028280B7070050239C78
:10329000A70203C7A7031377C70F238DE702828016
:1032A00081473766002013F7F70F6363A700D9B78C
:1032B000032786AD3E9783460700850793C6F6FF32
:1032C0002300D704CDB781473766002013F7F70FE7
:1032D0006363A7005DBF032746A03E9783460700B0
:1032E000850793C6F6FF2300D704CDB7B707005074
:1032F00003C767001377F70F93762700638F066A7B
:10330000011122CE26CC4ACA4EC852C656C403C7A3
:1033100077009306000213770703630AD74E13065C
:1033200000036301C7046313072403C7770005463E
:103330001377F7036301C7666307075C8946631762
:10334000D72203C77700137707046301072203C757
:10335000B70313474700A38DE70288471375F50F9E
:103360009D3729A419472389E7021147A389E7025A
:10337000B767002083A487A03764002083C7740048
:1033800003C76400A207D98F231EF49E03C714004D
:10339000B7670020238FE79E03CA040013770A064D
:1033A000630F070E03C7E79F1377070219CF83C781
:1033B000E79F1307100293F7F70F638AE7001307DD
:1033C00020026384E700639CD7180149A1A093877A
:1033D0000181B769002023A0F9A08357C49F1D472E
:1033E00021496366F7000359C49F1379F90F4A8690
:1033F000938501812685EF0080788357C49FB3872A
:103400002741C207C183231EF49E83A709A0CA9740
:1034100023A0F9A08357C49F42091359090163747B
:10342000F900231E249F9387418403D707009D46FC
:10343000A14463E6E60083D4070093F4F40FB76970
:10344000002003A909A0376500202686CA85130538
:10345000C5A8CA942D2723A099A0620A135A8A41AD
:10346000814763520A020357C49FA14763E6E700FE
:103470008357C49F93F7F70F0357C49F1D8F4207CD
:103480004183231EE49EC20737070050C1832318DF
:10349000F70291472309F702A309F702C1A883C7DE
:1034A000E79F2D4793F7F70F636BF70A15678A07B6
:1034B0001307875ABA979C43828783C7340003C790
:1034C00024008D46A207D98F13D78700B769002043
:1034D0006305D70C63ECE6008547630BF702894769
:1034E0006304F70A1309F00F814715A89D47630885
:1034F000F71093072002630CF70E9947E314F7FEC9
:1035000095679387876723A0F9A00149A94701A878
:1035100095679387C76123A0F9A00149C94703575D
:10352000C49FC207C18363F4E700231EF49E835740
:10353000C49F1D47A14A6366F700835AC49F93FA4C
:10354000FA0F83A509A056862685152D83A709A005
:10355000BE9A23A059A19307F00FE310F9F0B70723
:1035600000501D472389E702A389E702B7070050EF
:1035700009472383E7007244E2445249C249324A70
:10358000A24A05617300203095679387875D23A069
:10359000F9A001499307300459B793F7F70F85460F
:1035A0006387D70291CF8946638BD702E39CE7F20A
:1035B00095679387076623A0F9A00149D94785B786
:1035C0009387818223A0F9A00149914789BF95671C
:1035D0009387076323A0F9A00149B94789B7956785
:1035E0009387076423A0F9A00149B1470DBF9567F0
:1035F0009387C76423A0F9A00149D1470DB783C7BA
:10360000718193F7F70FE39F07EC37090020130947
:10361000C9059565130610049385A55D130529005A
:10362000B92B23A029A1B5B783C72400231EF49E7C
:103630002DB5B767002083C787972380F400035711
:10364000C49F8547E3E4E7FE09BD03C72400B767CD
:103650000020238CE79611B51377FA018947E31010
:10366000F7F083C744006383E704636EF700054700
:10367000E397E7EE370700508347770393F7870F09
:10368000A30BF702D9BB13071008638AE7021307DD
:103690002008E396E7EC370700508347A70393F72A
:1036A000870F93E72700230DF70245BB370700502C
:1036B0008347B70393F7870FA30DF70279BB37074B
:1036C00000508347670393F7870F93E72700230B87
:1036D000F70261B3B767002003C7C7A87D8B19EB5A
:1036E0009387C7A883D727000547E39AE7E6238394
:1036F000F184A5B38946E314D7E69387C7A883D698
:103700002700E39E06E483C747006385E704636000
:10371000F7020547E395E7E437070050834777034F
:1037200093F7C70FA30BF70293E7370091BF130777
:103730001008638CE70213072008E392E7E23707DB
:1037400000508347A70393F7C70F230DF70293E7B2
:10375000370091BF370700508347B70393F7C70F70
:10376000A30DF70293E7370081BF37070050834767
:10377000670393F7C70F230BF70293E7370081BF67
:10378000238004006DBDB7670020238607A89387B8
:10379000418483D607000547E371D7CC2390E70027
:1037A0006DB9B76700201387C7A803574700239652
:1037B00007A8930610086313D70237070050034782
:1037C00067030D8B8D466315D70005472386E7A851
:1037D0009387418483D6070009477DBF85466317D9
:1037E000D7003707005003477703E1BF930620084F
:1037F0006317D700370700500347A703D9B7894697
:10380000E318D7FC370700500347B7035DBF83C6F3
:1038100077001306100293F6F603638AC60A1306AE
:1038200020026383C60CE393E6D437670020034786
:10383000E79F95461377F70F6305D70699466315FB
:10384000D708B764002083D7C49F1D47214463660F
:10385000F70003D4C49F1374F40F37690020B767CF
:10386000002003A587A0832509A02286092E83D7DF
:10387000C49F131704014183998FC207C183239EFC
:10388000F49E832709A03E94232089A0B707005007
:103890002398E70203C72703134747002389E7025A
:1038A000F1B103C73700B766002083D6C69F1377F0
:1038B0000708558F1377F70FA381E700094723897E
:1038C000E702A38907025DB123980702C5BF03C7BA
:1038D00067031377C70F238BE70203C767031347F9
:1038E0004700238BE70259B103C7A70313474700DB
:1038F000238DE70203C7A7031377C70F13672700BA
:10390000238DE702A5B1B767002083C7E79F6395C2
:10391000F60437640020832784A083C6170003C7FA
:103920000700558F83C62700558F83C63700558FF4
:1039300005CB83C5170003C7070037550000A20554
:10394000D98D03C727001305456842074D8F93950E
:103950008601D98DEF00101AB70700509C4739B186
:1039600083C567003755000013054569EF009018BF
:10397000832784A0375500001305456A83C5470097
:10398000EF005017832784A0375500001305456BBF
:1039900083C55700C1B703C7770013770704E30750
:1039A00007BC03C7770313474700A38BE702884789
:1039B0001375F50FEFF0DF8E55BE9376170085CAAD
:1039C000A3810700A3890702A38B0702A38D070227
:1039D00009472389E702238BE702238DE70203C708
:1039E0006700136717002383E70073002030937686
:1039F0004700F5DA03C757001147F5B7B71702407C
:103A00009843B706FFF841111367170098C3D843CE
:103A100037060200758FD8C39843B706F7FEFD1628
:103A2000758F98C39843B706FCFFFD16758F98C332
:103A3000D843B70681FFFD16758FD8C337079F009F
:103A400098C702C402C69843C166558F98C3B7167B
:103A50000240130700509C42F18F3EC6A2478507E3
:103A60003EC4B24781E7A247E397E7FEB71702409B
:103A70009C431397E7006350070A85473EC63247C9
:103A800085476318F708B72702409843B706C1FF78
:103A9000FD161367070198C39843719B98C3984319
:103AA0001367270098C3B7170240D843D8C3D84339
:103AB000D8C3D84313670740D8C3D843758FD8C33A
:103AC00037F7FF1F0327C77093161701D84363C644
:103AD0000604B7063D00558FD8C3371702401C4374
:103AE000B7060001D58F1CC3B71702409843931641
:103AF0006700E3DD06FED843B7160240719BD8C3CA
:103B0000D84313672700D8C32147DC42B18BE39E1B
:103B1000E7FE4101828002C69DB7C1666DBF9387F3
:103B2000C1819C434111328806C6AA882E87C847A6
:103B3000368697270000938767B963170800972791
:103B40000000938767B93E88C68697250000938555
:103B5000E5B81920EF00D01A397132D436D63EDAE2
:103B60003AD842DC46DE9387C1812E86AA858843F7
:103B7000341006CE36C62522F24021618280B3C7BA
:103B8000A5008D8B3307C50081E78D4763EEC70025
:103B9000AA876370E50A83C6050085078505A38F9C
:103BA000D7FEE3EAE7FE828093763500AA8791CAC2
:103BB00083C6050085078505A38FD7FE93F63700DA
:103BC000FDB79376C7FF138606FE63F0C70683A38F
:103BD000050083A2450083AF850003AFC50083AE17
:103BE000050103AE450103A3850183A8C5019385A3
:103BF000450223A0770003A8C5FF23A2570023A4F2
:103C0000F70123A6E70123A8D70123AAC70123AC04
:103C1000670023AE17019387470223AE07FF75B7EE
:103C200090419107910523AEC7FEE3EBD7FEE3E495
:103C3000E7F682801C46FD171CC663D90700184EA4
:103C400063C5E700A9476393F500EDA51C422E85E7
:103C50001387170018C22380B7008280011122CC7D
:103C600026CA4AC84EC652C406CE2A89AE893284B4
:103C7000B304D6007D5A63149400014509A8834516
:103C800004004E864A857D370504E31645FFF24061
:103C90006244D2444249B249224A05618280357168
:103CA00022CD26CB4AC94EC706CF52C556C35AC1EC
:103CB000DEDEE2DCE6DAAA89AE843289368409C522
:103CC0001C4D99E3EF00702A972700009387C7A93E
:103CD000639CF40C83A4490083D7C400A18BFDC767
:103CE0009C48EDC793070002A304F1029307000369
:103CF00002D22305F10222C6930B5002972A00003C
:103D0000938ACAA0054C294B4A848347040099C36F
:103D10006390770FB30C2441638D0C00E6864A86CE
:103D2000A6854E85253FFD576308F51E9256E696FB
:103D300036D2834704006381071EFD571309140020
:103D400002C802CE3ECA02CCA309010482D4834534
:103D5000090015465685EF00304813041900C24784
:103D600051E913F7070109C713070002A309E1048A
:103D700013F7870009C71307B002A309E1048346BC
:103D800009001307A002638FE606F2474A848146C2
:103D900025460347040093051400130707FD6378C5
:103DA000E60AADCA3ECEBDA0972700009387C79D07
:103DB0006395F40083A4890005B7972700009387D3
:103DC000A798E39BF4F083A4C90039B7A6854E8574
:103DD000152509D97D55FA406A44DA444A49BA4959
:103DE0002A4A9A4A0A4BF65B665CD65C0D61828071
:103DF000050421BF330555413315AC00C98F3EC8BA
:103E00002289B1B7324793064700184336C6634943
:103E100007023ACE034704009307E002631FF7044A
:103E2000034714009307A002631BF702B24709047B
:103E3000138747009C433AC663C107023ECA35A8B0
:103E40003307E04093E727003ACE3EC8E1B7B38797
:103E5000670385462E84BA972DBFFD57C5B7050465
:103E600002CA814681472546034704009305140092
:103E7000130707FD6378E606F1F2834504000D465B
:103E80001725000013050589EF00103511CD972780
:103E90000000938727881D8D93070004B397A70020
:103EA000424505045D8D2AC883450400194617253F
:103EB000000013056586130914002304B102EF0006
:103EC000B0313DC197C7FFFF9387C71395E74247BE
:103ED000B2471377071009CF91073EC69257D29782
:103EE0003ED21DB5B387670385462E84BA97ADBF12
:103EF0009D07E19BA107D5B7780097060000938640
:103F000026D626860C084E8597000000E7000000A4
:103F1000FD572A8AE314F5FC83D7C40093F70704FE
:103F2000E39A07EA125545BD78009706000093868C
:103F300026D326860C084E85012AD9BF797156CA28
:103F40009C49BA8A984522D426D24ECE52CC06D667
:103F50004AD05AC85EC6AA892E84B284368A63D3F0
:103F6000E700BA879CC00347340419C385079CC087
:103F70001C4093F7070281C79C4089079CC0032916
:103F8000040013796900631A0900130B9401FD5BA7
:103F90005C449840998F634CF9041C408346340478
:103FA00093F70702B336D000A5EB13063404D2858D
:103FB0004E85829AFD576303F5041C4011469840D4
:103FC000998B544481446397C700B384E64063D31C
:103FD000040081441C4418486354F700998FBE9430
:103FE000014969047D5B63982405014509A885465C
:103FF0005A86D2854E85829A631E75017D55B250D0
:10400000225492540259F249624AD24A424BB24B6C
:10401000456182800509ADBF3307D4001306000354
:10402000A301C7040347540493871600A297890687
:10403000A381E7049DBF85462286D2854E85829A5C
:10404000E30E65FB050945B7797122D426D24AD023
:104050004ECE06D652CC56CA5AC8B68983C68501FA
:10406000930790063289AA842E8413863504638DC3
:10407000F60263E2D706930780056389F61863EDBD
:10408000D7006382062293073004638FF60A930AEF
:1040900024042301D404D1A0930730066386F60AD2
:1040A00093074006E395F6FE1C40084393F6070885
:1040B00093054500CDC61C410CC363D80700130708
:1040C000D002B307F040A301E404971600009386E2
:1040D0002665294775A8930700076385F61663E5EB
:1040E000D7029307E006638CF6189307F006E39077
:1040F000F6FA0C401C4313F80508138547006308C3
:10410000080608C39C4395A893075007E383F6FE6F
:1041100093078007638CF61293073007E399F6F64E
:104120001C43D04181459386470014C383AA0700EE
:104130005685EF00700A01C53305554148C05C4003
:104140001CC8A301040471A81C43930A2404938689
:1041500047009C4314C32301F4048547D5B793F665
:1041600007041C410CC3B1DAC207C187B9B793F584
:10417000050408C3C1D983D707001307F006638875
:10418000E60E971600009386A6592947A30104045A
:104190004C400CC463C5050008406D9908C099E304
:1041A000B28A91CDB28AB3F5E702FD1AB69583C5FE
:1041B00005002380BA00B3D5E70263F0E70CA147FE
:1041C000631EF7001C40858B91CB58401C4863C789
:1041D000E70093070003A38FFAFEFD1A330656414A
:1041E00010C84E87CA867000A2852685EFF01FD5BD
:1041F0007D5A631E450B7D55B2502254925402598C
:10420000F249624AD24A424B45618280A382D50478
:10421000971600009386C6500C40084313F8050813
:104220001C411105630D080208C313F7150001C7EF
:1042300093E505020CC04147B1FB0C4093F5F5FD39
:104240000CC0A9B79C4193E707029CC19307800764
:10425000A302F404971600009386C64D75BF13F8A9
:10426000050408C3E30308FCC207C1837DBF97169A
:1042700000009386E64A214711BFAE872DB79441CF
:104280001C43CC4913F80608138547006306080051
:1042900008C39C438CC301A808C393F606049C433F
:1042A000F5DA2390B70023280400B28A1DBF144812
:1042B0005686CA8526858299E30F45F31C40898B73
:1042C0008DE7B2474844E359F5F23E8535B7854658
:1042D0005686CA8526858299E30F65F1050A5C44F6
:1042E0003247998FE345FAFEE9BF014A930A9401E8
:1042F0007D5BF5B739713EDA2ED232D436D63AD854
:1043000042DC46DE9387C18122CC804326CA06CE9A
:10431000AA8409C41C4C99E3228581290C445410B9
:104320002686228536C6EFF09F97F2406244D2443B
:1043300021618280011122CC26CA4AC806CE4EC60F
:10434000AA842E89328401C51C4D91E3392997171F
:104350000000938767416319F406C0401C4C1CC4DD
:104360008357C400A18BC9C31C48BDCF1C4808405B
:104370009379F90F1379F90F1D8D5C486346F500A9
:10438000A2852685D9242DE51C440505FD171CC4EE
:104390001C401387170018C0238037015C486389CD
:1043A000A7008357C400858B81CBA9476316F9000A
:1043B000A2852685592C0DEDF24062444A85D244EF
:1043C0004249B24905618280971700009387C73B35
:1043D0006314F400804459B7971700009387C736D9
:1043E000E31EF4F6C0449DBFA285268521203DDD55
:1043F0007D59D9B741119387C18126C2844322C414
:104400004AC006C62A892E8489C49C4C99E3268515
:10441000A92E9717000093872735631CF402C0402C
:104420000317C40093170701C18393F68700B5EE05
:1044300093F607019DEEA5472320F90013670704B3
:104440002316E4007D55B2402244924402494101C2
:10445000828097170000938727336314F400804409
:10446000C1B7971700009387272EE31BF4FAC044C7
:1044700045BF918B8DC74C5889C993074404638409
:10448000F5004A85BD23232A04028357C400232252
:10449000040093F7B7FD2316F4001C481CC0835793
:1044A000C40093E787002316F4001C4881EF83576C
:1044B000C4001307002093F707286385E700A2854F
:1044C0004A85A5298357C40013F7170005C75C4820
:1044D00023240400B307F0401CCC1C480145A5F779
:1044E0008317C40013F7070839DF93E7070423167F
:1044F000F40089BF898B014791E3584818C4F1BF84
:104500004111194506C6C52D0545EF00F01A83D7A0
:10451000C500011122CC26CA06CE4AC84EC613F7E2
:104520008700AA842E8471EFD841634DE000B84122
:10453000634AE0000145F2406244D2444249B24934
:104540000561828058547DD703A9040093963701F2
:1045500023A0040063DD060670488357C400918BD6
:1045600099C75C401D8E5C5899C33C401D8E5C54BD
:104570000C50814626858297FD570357C400631D62
:10458000F5009440F54763E8D706B7074020850754
:10459000B3D7D700858BA5C31C48232204001CC0B9
:1045A0009317370163D80700FD576314F5009C404B
:1045B00091E368C84C5823A02401ADDD930744045F
:1045C0006384F50026853521232A0402A5B70C5003
:1045D0000146854626850297FD572A86E31FF5F694
:1045E0009C40A5DF75476385E70059476394E7045E
:1045F00023A0240181B7136707042316E4007D5527
:104600001DBF83A90501E38709F203A905008D8B6E
:1046100023A0350133093941014791E3D84918C432
:10462000E35A20F11C540C50CA864E862685829788
:104630006349A0008357C40093E707042316F400DE
:104640007DBFAA993309A940E1BF9C49A5C30111C7
:1046500022CC06CE2A8411C51C4D81E72EC63122FC
:10466000B2459717000093872710639CF5004C40D4
:104670008397C5009DC722856244F24005616FF0B3
:104680001FE997170000938727106394F5000C44E7
:10469000C5B7971700009387270BE39BF5FC4C44A5
:1046A000C1BFF240624401450561828001458280BC
:1046B000411122C406C62A842316B5002317C5005B
:1046C00023200500232205002324050023220506BC
:1046D00023280500232A0500232C050021468145B7
:1046E0001305C505EFB0DFB1970700009387E754C6
:1046F0005CD097070000938747571CD497070000AA
:104700009387875B5CD4970700009387475E00D050
:104710001CD8B24022444101828097050000938555
:1047200005F391AA411126C2130680069384F5FF72
:10473000B384C4024AC02E8922C406C693854407A6
:10474000992E2A8401CD232005002322250131053D
:1047500008C4138684068145EFB09FAA2285B24023
:10476000224492440249410182801C4DA5E7411137
:1047700006C622C497070000938767FA1CD5938763
:10478000C1829C4323240504232605042328050411
:104790006314F50085471CCD2A84352848C022853E
:1047A0001D2808C42285052848C448400146914573
:1047B000EFF01FF008440546A545EFF07FEF4844B1
:1047C0000946C945EFF0DFEE85471CCCB2402244D4
:1047D00041018280828041119387C18226C2844335
:1047E0004AC006C69C4C22C42A8981E72685EFF080
:1047F000DFF7938484048044DC40FD1763D6070010
:104800009C40B9CF8440C5BF0317C40039E7C177C6
:1048100085072322040623200400232204002324E6
:1048200004005CC423280400232A0400232C040071
:10483000214681451305C405EFB09F9C232A04023D
:10484000232C040223240404232604042285B240DA
:10485000224492440249410182801304840671BFBC
:1048600091454A85EFF01FEC88C049FDB1472320F0
:10487000F9000144E1BF797122D44AD052CC56CA22
:104880005AC85EC606D626D24ECE2A8AAE8A1304EF
:1048900085040149054BFD5B09ECB25022544A8561
:1048A00092540259F249624AD24A424BB24B456194
:1048B0008280044483294400FD1963D40900004028
:1048C000E1BF83D7C400637BFB008397E400638769
:1048D0007701A6855285829A3369A900938484065C
:1048E000E1BF1971A6DAAE848395E500A2DC86DE0D
:1048F000328463DC050083D7C40023A0060093F74D
:1049000007089DE39307004015A0300836C6A12193
:10491000B246E34205FE7247BD67F98F7977BA97D1
:1049200093B717009CC2F9BF930700041CC0F65050
:104930006654D65401450961828083D7C5000111B0
:1049400022CC06CE26CA4AC8898B2E8489CF9307EB
:1049500074041CC01CC885475CC8F2406244D24441
:1049600042490561828074003000AA84EFF07FF72D
:10497000A2452A892685052201ED8317C40013F775
:10498000072061FFF19B93E727002316F400C1B7CE
:10499000970700009387A7D89CD48357C40008C00A
:1049A00008C893E707082316F400A2475CC8B2477B
:1049B00089CF8315E4002685C12E01C98357C40021
:1049C000F19B93E717002316F4008357C400336963
:1049D000F9002316240151B793F5F50F2A966314B5
:1049E000C5000145828083470500E38DB7FE0505BC
:1049F000FDB7CDC183A7C5FF411122C406C626C29B
:104A00001384C5FF63D307003E94AA84C526938709
:104A100081849C4399EB2322040023A481842244B3
:104A2000B240268592444101D9A6637EF400144029
:104A30003307D4006396E7009843DC43369718C0E9
:104A40005CC0E1BFBA87D84319C3E37DE4FE944359
:104A50003386D700631F86001040B29694C3338616
:104A6000D700E31EC7FA10435843B29694C3D8C385
:104A70007DB76375C400B1479CC055B71040B306FD
:104A8000C4006316D70014435843B29614C058C0EC
:104A9000C0C371B78280011126CA93843500F19892
:104AA00006CE22CC4AC84EC6A104B14763F1F40435
:104AB000B14463E0B4042A89152E93878184984316
:104AC0003A8431E09387C1849C4391E781454A85CC
:104AD000512823A6A184A6854A856920FD5963171C
:104AE0003507B1472320F9004A85112629A0E3D2D2
:104AF00004FCB1471CC10145F2406244D244424922
:104B0000B249056182801C40858F63CE0702AD46A5
:104B100063F6F6001CC03E9404C031A05C406312F2
:104B2000870223A4F1844A85D9241305B40093078E
:104B3000440061993307F54061D33A94898F1CC0D2
:104B400065BF5CC3CDB722874040A5BF13043500C5
:104B50007198E30385FCB305A4404A852120E31D39
:104B600035FB41B7411122C42A842E8597170020B6
:104B700023A807F606C6392EFD576319F5009717C7
:104B800000209387E7F59C4391C31CC0B2402244A8
:104B900041018280FD4763F6B700D9471CC17D55AE
:104BA00082807C41011122CC06CE2E862A8491C7B8
:104BB00013972500BA97984319EB228532C69D2892
:104BC000AA85228562443246F24005611DA88546C9
:104BD00001456308D700FD566319D700D9471CC0AB
:104BE0000545F2406244056182802E8523A00700BE
:104BF00002970145FDB79387C181AA8588436FF06D
:104C00007FF9411122C42A842E85B285971700208E
:104C100023A807EC06C6B924FD576319F5009717BA
:104C200000209387E7EB9C4391C31CC0B240224411
:104C30004101828001AC411122C42E848395E5009C
:104C400006C67D22634905007C48AA977CC8B2400D
:104C50002244410182808357C4007D777D17F98FFC
:104C60002316F400EDB783D7C500011122CC26CA64
:104C70004AC84EC606CE93F70710AA842E843289FE
:104C8000B68991C78395E500894601463522835749
:104C9000C4007D777D17F98F2316F4008315E40097
:104CA0006244F240CE864A86B24942492685D244C1
:104CB00005613DA8411122C42E848395E50006C6F6
:104CC000E528FD570357C400631BF500FD77FD176A
:104CD000F98F2316F400B240224441018280856797
:104CE000D98F2316F40068C8FDB78395E50025A881
:104CF000411122C42A842E85B2853686971700205A
:104D000023A007DE06C6EFC04FBEFD576319F500AE
:104D1000971700209387C7DC9C4391C31CC0B24007
:104D2000224441018280411122C42A842E85971792
:104D3000002023A707DA06C6F520FD576319F50002
:104D4000971700209387C7D99C4391C31CC0B240DA
:104D5000224441018280411122C42A842E85B285D9
:104D60009717002023AE07D606C6E920FD57631922
:104D7000F500971700209387A7D69C4391C31CC0CA
:104D8000B240224441018280411122C42A842E85EE
:104D90009717002023A607D406C66D28FD57631970
:104DA000F500971700209387A7D39C4391C31CC09D
:104DB000B240224441018280411122C42A842E85BE
:104DC000B28536869717002023AC07D006C65D2033
:104DD000FD576319F50097170020938767D09C4310
:104DE00091C31CC0B24022444101828082808280F3
:104DF000411122C42A842E85B28536869717002059
:104E000023A007CE06C6BD28FD576319F5009717E6
:104E100000209387E7CC9C4391C31CC0B24022443E
:104E2000410182809307800517170020232AF7CAC3
:104E30007D55828093078005171700202322F7CA2B
:104E40007D5582809307800517170020232AF7C815
:104E50007D55828093078005171700202322F7C80D
:104E6000014582809307800517170020232AF7C683
:104E70007D55828093078005171700202322F7C6EF
:104E80007D5582809307800517170020232AF7C4D9
:104E90007D558280938701859C4391C73E9523A8C9
:104EA000A1843E858280971700209387A7C33E95F3
:104EB00023A8A1843E85828001A0000043414D2D9E
:104EC0004950530044454D4F000000006D74397641
:104ED0003033785F696E69745F647670000000003B
:104EE00030000000433A2F55736572732F6C69755B
:104EF0002F4465736B746F702FD6C7C4DCD0A1B319
:104F0000B5B1C8C8FC2FBBF9B4A1D7E9C9E3CFF14B
:104F1000CDB7D7CAC1CFA3A8C9E3CFF1CDB7A3A955
:104F2000D7CAC1CF56312E312F342E44656D6F2F25
:104F30004C69627261726965732F68656665695F45
:104F40007065726970686572616C2F48465F4D5478
:104F500039563033582E6300000000000000000076
:104F60000000000000000000000000080808080819
:104F7000080800000808000000482424120000006F
:104F800000000000000000000000004848487E24A7
:104F900024247E24242400000000103C5252121CC1
:104FA00030505052523C1010000000222515150DB3
:104FB0002A585454522200000000000C1212120A07
:104FC00076252919916E00000006040402000000F5
:104FD0000000000000000000004020101008080839
:104FE00008080810102040000002040808101010E3
:104FF00010101008080402000000000008086B1CD4
:105000001C6B0808000000000000000000101010D9
:10501000FE10101000000000000000000000000062
:105020000000000006040402000000000000000070
:105030007E000000000000000000000000000000F2
:105040000000000006060000000040202020101094
:10505000080808040402020000000018244242422A
:105060004242424224180000000000101C101010A0
:1050700010101010107C00000000003C4242424022
:1050800020100804427E00000000003C4242402004
:1050900018204042423C000000000020303028240C
:1050A0002422FE2020F800000000007E0202021EE2
:1050B00022404042221C0000000000182402023A54
:1050C00046424242443800000000007E4220201048
:1050D00010080808080800000000003C4242422472
:1050E00018244242423C00000000001C224242427E
:1050F000625C404024180000000000000000181806
:105100000000000018180000000000000000000867
:1051100000000000000808080000004020100804FB
:1051200002040810204000000000000000007E0083
:10513000007E0000000000000000000204081020B3
:1051400040201008040200000000003C42424620BB
:1051500010101000181800000000001C225A5555AD
:105160005555553A423C0000000000080818141438
:10517000243C224242E700000000001F2222221E9F
:1051800022424242221F00000000007C42420101F4
:1051900001010142221C00000000001F2242424285
:1051A00042424242221F00000000003F4212121EF3
:1051B00012120242423F00000000003F4212121E43
:1051C00012120202020700000000003C222201012C
:1051D00001712122221C0000000000E742424242ED
:1051E0007E42424242E700000000003E08080808F4
:1051F00008080808083E00000000007C101010108D
:10520000101010101010110F0000007722120A0E5B
:105210000A12122222770000000000070202020296
:1052200002020202427F0000000000773636363666
:10523000362A2A2A2A6B0000000000E346464A4A22
:1052400052525262624700000000001C224141415C
:1052500041414141221C00000000003F42424242C5
:105260003E020202020700000000001C22414141F0
:105270004141414D321C60000000003F4242423E2D
:105280001212222242C700000000007C42420204A7
:1052900018204042423E00000000007F49080808F4
:1052A00008080808081C0000000000E742424242CB
:1052B00042424242423C0000000000E742422224B7
:1052C00024141418080800000000006B2A2A2A2A57
:1052D0002A36141414140000000000E74224241895
:1052E0001818242442E7000000000077222214143A
:1052F00008080808081C00000000007E212010108B
:1053000008040442423F0000007808080808080822
:1053100008080808080878000000020404040808C7
:105320000810102020204040001E101010101010F7
:105330001010101010101E000018240000000000B3
:10534000000000000000000000000000000000005D
:1053500000000000000000FF000608000000000040
:105360000000000000000000000000000000001C21
:1053700022302C22326C0000000000000302021ACE
:1053800026424242261A00000000000000000038B9
:105390004402020244380000000000006040407CEB
:1053A0004242424262DC0000000000000000003C7B
:1053B00042427E02423C0000000000003048083EAD
:1053C00008080808083E0000000000000000007CFB
:1053D00022221C023C42423C000000000302023A2E
:1053E0004642424242E700000000000C0C00000E62
:1053F00008080808083E00000000003030000038AF
:10540000202020202020221E000000000302027223
:10541000120A0E1222770000000000080E08080889
:1054200008080808083E0000000000000000007F97
:105430009292929292B70000000000000000003BA0
:105440004642424242E70000000000000000003CEB
:1054500042424242423C0000000000000000001BAB
:1054600026424242261A02070000000000000058AF
:1054700064424242645840E00000000000000077AF
:105480004C040404041F0000000000000000007C25
:1054900042023C40423E0000000000000008083E7E
:1054A0000808080848300000000000000000006301
:1054B0004242424262DC000000000000000000772F
:1054C000222214140808000000000000000000DB85
:1054D00091525A2A24240000000000000000006EAF
:1054E000241818182476000000000000000000E7CF
:1054F0004224241818080806000000000000007E5E
:1055000022100808447E000000C020202020202017
:10551000102020202020C00010101010101010109B
:1055200010101010101010100003040404040404E0
:105530000804040404040300045A200000000000CE
:10554000000000000000000000080140000C0140C5
:1055500000100140001401400018014000300140DB
:1055600000380040003C0040002C0140000000409A
:105570000004004000080040000C004000340140DE
:10558000004C014000500140003801400044004000
:1055900000480040004C004000500040001800400F
:1055A000001C004000200040A237000058360000D8
:1055B0005E350000D43600005E350000283600005D
:1055C000BA3400005E350000323600004A36000072
:1055D000803700008637000009024300020100A066
:1055E0003209040000010202010005240010010537
:1055F000240100000424020205240600010705819D
:10560000034000FF09040100020A00000007050230
:105610000240000007058202400000001201000263
:1056200002000008861A225700010102030100004F
:105630000E037700630068002E0063006E00000018
:105640000C034300480033003000370014033200DD
:105650003000310037002D0032002D0032003500BF
:1056600016033000310032003300340035003600BC
:1056700037003800390000000A060002FF00FF4032
:10568000010000000A426175642052617465203D8A
:10569000202564000A64617461426974203D2025FC
:1056A000640000000A73746F70426974203D202505
:1056B000640000000A706172697479547970652021
:1056C0003D202564000000002C2066756E6374691F
:1056D0006F6E3A2000000000617373657274696F29
:1056E0006E2022257322206661696C65643A20660B
:1056F000696C6520222573222C206C696E6520253B
:1057000064257325730A0000232D302B2000000030
:10571000686C4C006566674546470000303132339F
:10572000343536373839414243444546000000009D
:105730003031323334353637383961626364656607
:105740000000000000000000000000000000000059
:105750000000000000000000000000000000000049
:105760000000000000000000000000000000000039
:105770000000000000000000000000000000000029
:105780000000000000000000000000000000000019
:105790000000000000000000000000000000000009
:0457A0000000000005
:1057A40001000000020000000300000004000000EB
:1057B40005000000060000000700000008000000CB
:1057C40009000000010000000200C20103003200D1
:1057D4000400BC000500780006000000070000007B
:1057E400080014000900010000000000000000008F
:1057F4000102030401020304060708090907000063
:105804000000000000000000000000000000000094
:105814000000000000000000000000000000000084
:105824000000000000000000000000000000000074
:105834000000000000000000000000000000000064
:105844000000000064570000845700004457000023
:105854000000000000000000000000000000000044
:105864000000000000000000000000000000000034
:105874000000000000000000000000000000000024
:105884000000000000000000000000000000000014
:105894000000000000000000000000000000000004
:1058A400FFFF00000200000000F8F0870204060871
:1058B40000C201000000080100449508A000002077
:1058C400353637444557585904030904A0000020CD
:00000001FF
