:100000006F10101C1300000013000000130000000C
:100010001300000013000000130000001300000094
:100020001300000013000000130000001300000084
:08003000130000007300100032
:100038000000000000000000A8020000AC02000060
:100048000000000006190000000000000000000089
:10005800081900000A190000000000000000000054
:100068000C190000000000000E190000000000003C
:1000780010190000121900001419000016190000C8
:10008800181900001A1900000204000016040000E4
:100098003A0400005004000066040000261900001D
:1000A800281900002A1900002C1900002E19000038
:1000B8003019000032190000341900003619000008
:1000C800381900003A1900003C1900007C040000AF
:1000D800401900007005000044190000461900008E
:1000E80096050000B6050000DC0500004E1900006A
:1000F8005019000052190000541900005619000048
:1001080058190000AE020000D802000002030000E7
:10011800EE0400006219000064190000661900006E
:10012800680600006A1900006C1900006E190000CA
:10013800701900007219000002060000761900000C
:100148002C030000560300002806000042060000A9
:100158008019000082190000841900008619000027
:10016800881900008A1900008C1900008E190000F7
:100178009019000092190000941900006A240000E8
:10018800981900009A190000E603000074030000A3
:100198009E030000C8030000A41900008E0600009A
:1001A800A8190000AA190000AC190000B406000044
:1001B800B0190000B2190000B4190000B619000007
:1001C800B8190000BA190000BC190000BE190000D7
:1001D8000000000000000000000000000000000017
:1001E8000000000000000000000000000000000007
:0801F8000000000000000000FF
:100200003D432A876373C3029377F700BDEFADE5E3
:10021000937606FF3D8ABA960CC34CC30CC74CC7F5
:100220004107E36BD7FE11E28280B306C3408A0622
:100230009702000096966780A6002307B700A306E2
:10024000B7002306B700A305B7002305B700A30432
:10025000B7002304B700A303B7002303B700A3022A
:10026000B7002302B700A301B7002301B700A30022
:10027000B7002300B700828093F5F50F93968500B1
:10028000D58D93960501D58D61B79396270097027A
:10029000000096968682E78086FA9680C1171D8FA9
:1002A0003E96E374C3F8A5B77300203001A0411156
:1002B00022C6374401409305505213050480EF20B5
:1002C000200E19C59305505213050480EF208011AC
:1002D0003244410173002030411122C637440040AE
:1002E0009305505213050440EF20800B19C5930568
:1002F000505213050440EF20E00E324441017300D8
:100300002030411122C63754004093055052130546
:100310000480EF20E00819C59305505213050480AE
:10032000EF20400C3244410173002030411122C6BD
:100330003754004093055052130504C0EF20400687
:1003400019C593055052130504C0EF20A00932448B
:100350004101730020309305505237550040EF2083
:10036000200419C59305505237550040EF208007EF
:1003700073002030411122C63724004093055052AB
:1003800013050480EF20C00119C5930550521305D1
:100390000480EF20200532444101730020304111D8
:1003A00022C63724004093055052130504C0EF10B5
:1003B000307F19C593055052130504C0EF20800209
:1003C00032444101730020309305505237250040DC
:1003D000EF10107D19C59305505237250040EF20CE
:1003E000600073002030B707055003C70701118B69
:1003F00019C703C707011377B70F2388E7007300F6
:1004000020300545EF10C07185476314F500EF10EB
:100410000073730020300945EF1080708547631C1E
:10042000F5000945EF10A071130520088145EF0084
:10043000A0745145C929730020301145EF10406E5A
:1004400085476315F5001145EF10606F730020308C
:100450002145EF10E06C85476315F5002145EF104D
:10046000006E730020304145EF10806B85476315A7
:10047000F5004145EF10A06C730020301305000219
:10048000EF10006A85476316F50013050002EF10B0
:10049000006B13050004EF10A06885476316F50094
:1004A00013050004EF10A06913050008EF10406762
:1004B00085476316F50013050008EF104068130523
:1004C0000010EF10E06585476316F5001305001076
:1004D000EF10E06613050020EF1080648547631677
:1004E000F50013050020EF108065730020304111E6
:1004F0001305004022C6EF10A06285476316F50081
:1005000013050040EF10A063056413050480EF108D
:10051000206185476316F50013050480EF10206203
:100520000565EF10E05F85476315F5000565EF1081
:1005300000610965EF10C05E85476315F500096528
:10054000EF10E05F1165EF10A05D85476315F500C2
:100550001165EF10C05E2165EF10805C8547631563
:10056000F5002165EF10A05D324441017300203099
:10057000411122C6373401408545130504C0EF10F0
:10058000D04E11C58545130504C0EF10D04F32443D
:10059000410173002030854537050040EF10F04CD5
:1005A00009C9370500408545EF10F04D13053008A7
:1005B000012D73002030411122C6370400408545CB
:1005C00013050440EF10704A11C58545130504401A
:1005D000EF10704B3244410173002030411122C6AC
:1005E00037140040854513050480EF10104811C5ED
:1005F000854513050480EF10104932444101730012
:100600002030411122C6371400408545130504C02F
:10061000EF10B04511C58545130504C0EF10B04675
:100620003244410173002030854537150040EF10FA
:10063000D04311C5854537150040EF10D0447300F5
:100640002030411122C6371400408545130504406F
:10065000EF10B04111C5854513050440EF10B042BD
:100660003244410173002030411122C63734014029
:10067000854513050440EF10503F11C5854513050E
:100680000440EF10504032444101730020304111CA
:1006900022C6375401408545130504C0EF10F03CD5
:1006A00011C58545130504C0EF10F03D32444101EA
:1006B00073002030854537550140EF10103B11C5C0
:1006C000854537550140EF10103C73002030411133
:1006D00022C426C206C6EF10A0048544EF10C02035
:1006E00083C70185639897000145EF1000132945E2
:1006F000192CEDB7EF10801CDDBF411106C622C4D6
:1007000015E537C40200A1460146930504F213051E
:100710003020EF007017A1460146930504F213053F
:1007200020202244B24041016F0010168547631318
:10073000F50237C4020081460146930504F2130511
:100740001010EF00701481460146930504F2130562
:100750000010C1BFB240224441018280797122D48D
:100760004AD04ECE52CC56CA06D626D28347150062
:100770003734014081452306F10083470500130902
:10078000C100130AF100A306F100834725001305F9
:1007900004C0130404C02307F100EF10102B896577
:1007A000938AC55193894513A14483470900FD14D9
:1007B000CE85B3D79740858B91E3D6850D452D2106
:1007C00085452285EF10501E85452285EF10502863
:1007D00065DD81452285EF10301D85452285EF10AE
:1007E000F02781452285EF105026E1F00509E31D31
:1007F0002AFBB250225492540259F249624AD24A18
:1008000045618280B7C5020001118146014693858A
:1008100005F20D4506CE2316010023070100EF0067
:10082000B006373501408945130505C0EF1070202B
:1008300068002D3713054006592868000537F24037
:1008400005618280B7170240DC4337177A0013072F
:100850000720C983BD8BB387E7023727F40013074E
:100860000740F165930610021306000293850520E8
:100870000945BA9723ACF1826F00304B011126CAAB
:10088000B754004022CC4AC84EC606CEAE89328943
:10089000014493840480634A2401F24062444A85FF
:1008A000D2444249B24905618280930500042685FD
:1008B000EF10502E7DD9B3878900838507002685E8
:1008C0000504C205C181EF10502CF1B7828083A7C7
:1008D000818237177A0013070720B3D7E7028146D2
:1008E00001473385A702B7F700E023A0070094C7AC
:1008F000D8C7054798C3B7F600E09846DC4699E3A9
:10090000E37DE5FE828083A781820967130707F4F0
:10091000B3D7E702814601473385A702B7F700E066
:1009200023A0070094C7D8C7054798C3B7F600E0CF
:100930009846DC4699E3E37DE5FE828009E5814641
:1009400001468145A1AA0547E30BE5FE0947E308F7
:10095000E5FE0D47E305E5FE1147E302E5FE154719
:10096000E30FE5FC1947E30CE5FC1D47E309E5FC53
:1009700021476318E50081460146814513050002C1
:10098000D1B725476318E500814601468145130527
:1009900010024DBF29476318E50081460146814595
:1009A0001305000445B72D476318E500814601464D
:1009B00081451305100479B731476318E500814676
:1009C0000146814513052004B5BF35476318E5008E
:1009D00081460146814513053004ADB73947631898
:1009E000E50081460146814513054004A1BF3D470E
:1009F0006318E5008146014681451305500499B707
:100A00008280797122D485452A841305002006D678
:100A100026D2EF10803A2285153703A78183B7C706
:100A20000105938707D0316563E3E700216537242B
:100A30000140EF10802613050440EF104001B70776
:100A40000E003EC68A85854713050440230AF1003F
:100A500002C002C202C402C8EF10C00385451305DC
:100A60000440EF10A00813050440EF102009930480
:100A700004402685EF1020096DFD1305044037243E
:100A80000140EF10C008130404402285EF10C00895
:100A90006DFDB25022549254456182809307F00F4D
:100AA000630BF50C797122D41354550026D24AD029
:100AB0004ECE52CC06D61D889374F5003689328A04
:100AC000AE8935E085451145EF10202F8547B39459
:100AD0009700C204C180231291006399F900931713
:100AE0000901C183A18391E38D473EC49167938738
:100AF00087E50A043E9400401379F90F4C002285E3
:100B00004AC6EF10600485476397F9005286A685B0
:100B10002285EF10800FB250225492540259F249AC
:100B2000624A4561828085476315F4008545214509
:100B300061BF89476315F4008545414571B78D470D
:100B40006316F400854513050002BDBF9147631687
:100B5000F40085451305000485BF95476316F4002E
:100B60008545130500088DB79947E311F4F68545CF
:100B70001305001091BF82809357550013972700EB
:100B80009167938787E5BA9798439377F500054572
:100B90003315F50099C108CB828048CB828013576A
:100BA00035009376C7011167130787E536971C4315
:100BB000984785473395A700798D3335A00082800B
:100BC0009357350013F7C7019167938787E5BA9765
:100BD00098439377F500054554473315F500358D57
:100BE00048C78280828082809357850011671307EF
:100BF000C7E68A07BA9798430D890A058357C70243
:100C00003A95B385F502896793870771B3D5F502E5
:100C1000C205C1814CD9828019E593068031014615
:100C200085452145A5BD85476318F50093068031AC
:100C3000014685452545FDB789476318F5009306AC
:100C40008031014685452945F1BF8D476318F50080
:100C500093068031014685452D45E9B7C1476319A3
:100C6000F5009306803101468545130590085DBF68
:100C7000C5476319F5009306803101468545130584
:100C8000B0084DB7C9476319F50093068031014696
:100C900085451305D00879B7CD476319F50093064C
:100CA0008031014685451305E008ADBF930700106C
:100CB0006318F500930680310146854501459DB7CF
:100CC000930710106318F50093068031014685459F
:100CD000054589BF930720106318F50093068031FE
:100CE0000146854509453DBF930730106318F5005F
:100CF00093068031014685450D452DB793070011B8
:100D00006318F50093068031014685453D4519BFBE
:100D1000930710116319F50093068031014685454C
:100D20001305300201B7930720116319F5009306EC
:100D30008031014685451305A002EDB593073011BA
:100D40006319F50093068031014685451305B0020D
:100D5000D1BD930700206318F5009306803101464A
:100D600085451945C1B5930710206318F500930612
:100D70008031014685451D4575B5930720206319CF
:100D8000F50093068031014685451305000259BDE3
:100D9000930730206319F50093068031014685459D
:100DA0001305100241B5930700216319F50093065E
:100DB00080310146854513056004ADB593071021C8
:100DC0006319F500930680310146854513057004CB
:100DD00091BD930720216319F500930680310146E8
:100DE0008545130580043DBD930730216319F50047
:100DF00093068031014685451305900425B5930778
:100E000000226319F50093068031014685451305DC
:100E1000400209BD930710226319F5009306803143
:100E20000146854513055002F5BB93070030631951
:100E3000F500930680310146854513056002DDB358
:100E4000930710306319F5009306803101468545FC
:100E500013057002C1BB930720306319F500930698
:100E6000803101468545130580026DBB9307303004
:100E70006319F500930680310146854513059002FC
:100E800055B3930700316319F5009306803101468D
:100E900085451305C00679B3930710316319F50032
:100EA00093068031014685451305D006A5BB9307FF
:100EB00020316319F50093068031014685451305FD
:100EC000E0068DB3930730316319F5009306803146
:100ED000014685451305F006B1B393070040E30BC7
:100EE000F5DC93071040E301F5DE93072040E307AC
:100EF000F5DE93073040E30DF5DE93070070E3085D
:100F0000F5EA93071070E30FF5EA93072070E30604
:100F1000F5EC93073070E30DF5EC93070071E30AED
:100F2000F5F093071071E301F5F293072071E308E0
:100F3000F5F2930730716319F5009306803101468D
:100F400085451305D004F9B993070580E38807D8D0
:100F5000856713871780E30DE5D81387278063180B
:100F6000E5009306803101468545114565B99387B3
:100F700037806319F50093068031014685451305D6
:100F800040044DB18567138707816319E500930617
:100F90008031014685451305900669B11387178195
:100FA0006319E50093068031014685451305B006B7
:100FB00095B913872781E305E5EE13873781E307AA
:100FC000E5F013870790E30CE5E813871790E30338
:100FD000E5EA138727906319E500930680310146FF
:100FE0008545130530043DB9138737906319E50033
:100FF00093068031014685451305B00425B113875A
:1010000007916319E5009306803101468545130574
:10101000100609B9938717916319F500930680317B
:101020000146854513053006F5BE85671387279170
:101030006319E50093068031014685451305500686
:10104000D5B6138737916319E500930680310146C1
:10105000854513057006F9B613870792E30EE5CAB6
:1010600013871792E301E5DA13872792E308E5DA9D
:10107000938737926319F5009306803101468545C1
:101080001305F00445B68280397106DE22DC26DACB
:101090002A844AD84ED62EC632C43689B53EB245C9
:1010A00083A7818222469359840033D7B7024E85A5
:1010B000418393061700B386B602B3D7D702939441
:1010C0000701C180B384C402096613060671FD17C7
:1010D00093950701C181B3D4C4023A86B5228545F0
:1010E0000545EF00904D935744000547C204C18069
:1010F0006394E7063705160085451305050CEF00D8
:101100007031C1671167938707061395290013078C
:10111000C7E63EC83A9593773400231B9100231C01
:101120000100231E01000041E9E70C082285EF00C1
:10113000705A85452285EF10E008CA852285EF1098
:10114000C00922858545EF102006F2506254D25422
:101150004259B2592161828045476398E7003705BB
:10116000180085451305053059BF13071002639811
:10117000E70037151A008545130505C049B7130761
:1011800020026398E70037151A008545130505808E
:10119000BDB7130710036395E7008545056585B75F
:1011A000130710076399E700370701405C4F93E787
:1011B00047005CCFB9B7130710086398E7003707FB
:1011C00001405C4F93E70701EDB7130710096398DF
:1011D000E700370701405C4F93E70704D9BF1307C7
:1011E0002009E390E7F2370701405C4F93E70702DD
:1011F000C9B70547639FE7000C082285EF009057A9
:1012000022858545EF00107CCA852285EF00107E7F
:101210000DBF09470C082285639DE700EF0050626F
:1012200022858545EF00107ACA852285EF00B07DC2
:1012300009BFEF00906D22858545EF00B078CA8523
:101240002285EF00707DF5BD011122CC26CA4AC867
:1012500006CE2A842E89B28401E9056585451305E9
:101260000580EF00903539A08547631EF50285455E
:10127000EF00903691679387C7E60A043E940840D2
:101280004C00231421012312910023150100231384
:10129000010023060100EF00F037F2406244D2441F
:1012A0004249056182808947E303F5FC8D47631558
:1012B000F500854511456DBF91476315F5008545DE
:1012C00021457DB79D476315F5008545096551BFEB
:1012D000A1476316F50085453705080059B7A547AE
:1012E000E31AF5F8854537051000A5BF411106C67C
:1012F0000DE185476398F522E14601462545EFF06B
:10130000EFF99146014681452945B24041016FF010
:10131000EFF88947631FF500E1460146854513054F
:101320006002EFF0AFF79146014681451305700268
:10133000E9BFC147631DF500E14601468545094502
:10134000EFF0CFF59146014681450D457DBFC94778
:10135000631FF500E1460146854513055006EFF091
:10136000EFF39146014681451305600679BF930767
:101370000002631FF500E146014685451305A00202
:10138000EFF0CFF19146014681451305B002B5BF9C
:1013900093072002631FF500E146014685451305CA
:1013A000A004EFF0AFEF9146014681451305B0046C
:1013B000A9BF930740026310F502E1460146854547
:1013C00013058006EFF08FED9306800401468145FA
:1013D000130590061DBF93070004E30FF5FA93076A
:1013E0002004631FF500E146014685451305000210
:1013F000EFF0CFEA9146014681451305100231B75F
:1014000093070005631FF500E14601468545130576
:10141000C004EFF0AFE89146014681451305200670
:10142000EDB593072005631FF500E14601468545AC
:1014300013058008EFF08FE69146014681451305BC
:101440009008E1B5930700066310F502E1460146F6
:10145000854513050004EFF06FE493068004014610
:1014600081451305100455B593072006631FF50049
:10147000E146014685451305A008EFF02FE29146AD
:10148000014681451305B00849B593070007631F5E
:10149000F500E1460146854513052004EFF00FE015
:1014A0009146014681451305300485B59307200711
:1014B0006317F500E146014685451945C5B7930711
:1014C0004007631FF500E146014685451305C00846
:1014D000EFF0CFDC9146014681451305D00835B5C4
:1014E00093070008631FF500E14601468545130593
:1014F0004004EFF0AFDA91460146814513055004F0
:1015000029B593072008631FF500E146014685458C
:101510001305E008EFF08FD8914601468145130589
:10152000F008E5B3B24041018280797122D44ECEF9
:101530002A84AE890545854526D24AD006D6B2848E
:101540003689EF0090078947639DF4048D47631542
:10155000F900854511457D2D631B041285451165F4
:10156000EF00B005CA8526855133B7070C003EC48D
:1015700091679387C7E80A043E9400408A854EC06D
:10158000228502C223160100EF00D0502285854536
:10159000EF00F05DB250225492540259F249456175
:1015A0008280C9476398F400CD47E317F9FA85456F
:1015B000214555B793072002639BF400930730023F
:1015C000E31CF9F8370514008545410569B7930711
:1015D0004002639CF40093075002E31FF9F63705BD
:1015E0001400854513050503BDB7930720046399CF
:1015F000F40093073004E311F9F685450565A1BFB2
:1016000093072005639BF40093073005E316F9F474
:1016100037052000854505053DBF93072006639CDF
:10162000F40093073006E319F9F237150080854579
:10163000130505800DB793072007639EF4009307F9
:101640003007E31BF9F0370701405C4FB706400055
:10165000D58F5CCF11B793074007639CF4009307C5
:101660005007E31BF9EE370701405C4FB7068000D7
:10167000C5B793072008E391F4EE93073008E31D04
:10168000F9EC370701405C4FB7060002D1B7854738
:101690006318F400854537050200EF00E073D9B503
:1016A00089476316F400854537050400FDB78D476B
:1016B0006316F400854537050800C5B791476316E2
:1016C000F400854537051000C9BF95476316F4003F
:1016D000854513050004D1B799476316F400854585
:1016E000130500085DBF9D47E31EF4E6854513051D
:1016F000001065B78547631AF5009306003105466B
:101700008545130520086FF06FB989476319F50007
:10171000930600310546854513053008EDB78280F4
:10172000411106C6EFF02FCCEFF0CF91EFF00F9AFA
:101730000145EFE09FFC0545EFE03FFC0545A92092
:10174000094599200D45892011453D2815452D282D
:1017500019451D280945EFF0CFAA0D45EFF06FAAF6
:101760001145EFF00FAA1545EFF0AFA91945EFF0BD
:101770004FA9054541370945B53FEFF0AF88A92A84
:10178000B24041016FF00FC6411122C406C6854721
:101790002A846314F50293068034054681451305B7
:1017A0000004EFF0AFAF99476315F4069306803459
:1017B000054681451305500425A089476319F500A6
:1017C000930680340546814513051004D9BF8D4723
:1017D000631DF500930680340546814513052004FA
:1017E0002244B24041016FF06FAB91476319F5009D
:1017F000930680340546814513053004D5B79547D7
:10180000E313F5FA93068034054681451305400439
:10181000C1BFB240224441018280411106C622C4A8
:1018200001ED13850181EFE07FF3138501812244EF
:10183000B24041016FE09FF285476319F5001385BF
:101840008181EFE0BFF113858181D5B789476319A5
:10185000F50013854181EFE07FF013854181C1BF21
:101860009147631BF500370400201305840BEFE05C
:10187000FFEE1305840B65BF8D476319F5001385D3
:101880008180EFE0BFED1385818055B795476319DF
:10189000F50013854180EFE07FEC1385418041BF67
:1018A00099476319F5001385C180EFE03FEB13857D
:1018B000C180B5BFB240224441018280411122C49F
:1018C0001385C18306C6EFE07FE91385C1832244F7
:1018D000B24041016FE09FE89306800405468145D0
:1018E0001305A0066FF08F9B41111305A00606C6D5
:1018F000EFF0EFAAB240133515002388A18441010F
:10190000828001A001A001A001A001A001A001A06E
:1019100001A001A001A001A001A001A001A001A0BF
:1019200001A001A001A001A001A001A001A001A0AF
:1019300001A001A001A001A001A001A001A001A09F
:1019400001A001A001A001A001A001A001A001A08F
:1019500001A001A001A001A001A001A001A001A07F
:1019600001A001A001A001A001A001A001A001A06F
:1019700001A001A001A001A001A001A001A001A05F
:1019800001A001A001A001A001A001A001A001A04F
:1019900001A001A001A001A001A001A001A001A03F
:1019A00001A001A001A001A001A001A001A001A02F
:1019B00001A001A001A001A001A001A001A001A01F
:1019C0007390123497F1FF1F938141EF176100204C
:1019D00013014163172500001305456997E5FF1FB3
:1019E000938545621386818363FAC50083220500CF
:1019F00023A0550011059105E3EAC5FE13858183F7
:101A00009385C19B6377B500232005001105E36D25
:101A1000B5FEFD42739002BCFD4273904280B782D6
:101A200000009382828873A0023097E2FFFF9382C6
:101A3000E26093E2320073905230EF10200F97F281
:101A4000FFFF938202C9739012347300203041115A
:101A5000B727014006C693870740631CF5008545FC
:101A600013050020492E814513050020B240410195
:101A700059A6B737014093870780631AF50085455B
:101A8000130500408D2E814513050040C5B7B240B7
:101A9000410182805C413707F1E01307F7EF944D75
:101AA0007D8F9C41D58FD44DD58FD441A206D58F43
:101AB000D98F5CC11C4537F7F1FF1307D77FD44599
:101AC0007D8F9C49D58F94458606D58FD98F1CC5AF
:101AD0005C55370710FF7D177D8F83C74501FD17C4
:101AE00093F7F70FD207D98F5CD582801C4589C543
:101AF00093E717001CC58280F99BEDBF1C4593E757
:101B000087001CC5828008450D81058982801C459F
:101B100093E747001CC582800845098105898280BA
:101B2000B70701401387074083A70740584B698FC9
:101B300009C77D8D3335A000828001458280B707BB
:101B4000014023AAA74082809C4513F7070113F8A0
:101B5000F70001C7D8413368E80083D5050013F7C3
:101B6000F50F39C318418146854E3D4F930F8002D2
:101B700093028004214E3396DE00B3F8C500631152
:101B800016039398260033131F011343F3FF337793
:101B9000E300B318180133E7E800639FF70550C965
:101BA0008506E39AC6FD18C11307F00F6375B704E5
:101BB00054412146854E3D4F930F8002930280048D
:101BC000414EB398CE0033F715016392E802131724
:101BD000260001173313EF001343F3FFB376D3004E
:101BE0003317E800D98E639DF701232A15010506F6
:101BF000E319C6FD54C18280E39457FA10C94DB76A
:101C0000E39757FE23281501DDB719C20CC982805E
:101C10004CC98280B707014063550504D44FB7070C
:101C20003000131705013376F5004183631DF6027A
:101C3000370600F17D1637080140B3F7C60083264A
:101C40004800758E2322C80099C593565501920607
:101C50003317D700D98F37070140635E05025CCF89
:101C60008280D4436DBF9317B50063D007029357AA
:101C7000050113F6F7008D47B397C70093C7F7FF29
:101C8000F58FB706000FD58FC1B79357550192074F
:101C9000B317F700E5B75CC38280B7160240DC4299
:101CA00051777D17F98F5D8DC8C28280371702404A
:101CB0005C439146B18B6385D700A1466386D70606
:101CC000B7177A00938707201CC1371602405C4281
:101CD00037070020130707009183BD8BBA9783C68F
:101CE00007001C41B3D7D7005CC15442A1829D8A32
:101CF000BA9683C60600B3D6D70014C55442AD8247
:101D00009D8A369703470700B3D7E7005CC5584262
:101D10003983937637001387C181369703470700CD
:101D2000B3D7E7021CC982805C4354434167C9832F
:101D3000F98E37F7FF1F0327C770BD8B890713166E
:101D4000170163480600454601476392C702C94729
:101D500039A809476389E7023D476388E70241479D
:101D60006388E702454601476393C700C14785E69C
:101D7000B746024083A60680C18A8DC6B7167A0090
:101D80009386062025A00147D9B70547B547C5B7B3
:101D90000147BD47E9BFB7160240D4421396E6009B
:101DA000E35E06FCB7163D0093860690B387D70224
:101DB0001CC101DF1C41858301BF99C53717024053
:101DC0001C4F5D8D08CF8280B7170240984F134596
:101DD000F5FF798D88CF828099C5371702405C4F17
:101DE0005D8D48CF8280B7170240D84F1345F5FF6D
:101DF000798DC8CF828099C5371702405C475D8DC9
:101E000048C78280B7170240D8471345F5FF798D40
:101E1000C8C782808357050037370140930607C043
:101E2000C207C1836300D504B7060040630CD50226
:101E3000938606406308D502B716004013860680D5
:101E40006302C502938606C0630ED50013070740E0
:101E5000630AE50037570140930607C06304D500C5
:101E60006317E50003D7250093F7F7F8D98F3717E5
:101E70000040630DE500130707406309E50093F791
:101E8000F7CF03D76500C207C183D98F2310F500B0
:101E900083D745002316F50283D705002314F502E6
:101EA000B7370140138707C0630EE50093870740EB
:101EB000630AF500B7570140138707C06304E500C4
:101EC0006316F50083C785002318F5028547231A9A
:101ED000F50082808357050203D6050003D825004C
:101EE000C207C183F99BC207C1832310F502835740
:101EF00005028356450003578501C207C183420787
:101F000041831377C7F8518F03D68500F59BC2062E
:101F100033660601D18F37360140130806C0C182EF
:101F2000630E050113060640630AC50037560140DB
:101F3000130806C0630405016313C50203D6A50098
:101F4000DD9B03D8E500D18F03D64500ED9B93F6CA
:101F5000F6CFD18F03D6C50033660601D18E23128A
:101F6000D500231CE50003D76500231AE5022310E2
:101F7000F50282808357050265771307F7CFC20702
:101F8000C183BD9BC207C1832310F502835705029D
:101F90008356450003D88500C20713960601835671
:101FA0008501C18393F7F7FD758F83D605004182C4
:101FB000A206558F83D6250042074183B3E606016A
:101FC0009206D58FB7360140C207138806C0C18379
:101FD000630E050193860640630AD500B75601409B
:101FE000138806C0630405016311D50483D6A500D8
:101FF00093F7F7F703D8C5009206D58F83D645002F
:10200000C207C183920693F7F7FBD58FFD769386BF
:10201000F63FF18E03D6E500C207C18333660601A1
:102020000A06D18E1396060141822312C500231C95
:10203000E50003D76500231CE5022310F50282802A
:102040008357050203D88500C207C18393F7F7EFD2
:10205000C207C1832310F50283570502835645004A
:102060000357C501C20713960601420783D6050030
:1020700041831377C7F8558F83D62500C18393F723
:10208000F7DFB3E60601A206D58FB7360140C207D7
:10209000138806C04182C183630E05019386064002
:1020A000630AD500B7560140138806C063040501D2
:1020B0006312D504FD769386F67FF58F83D6A5004F
:1020C00003D8C500A206D58F83D64500C207C183B9
:1020D000A20693F7F7BFD58FF576FD16F18E03D6DE
:1020E000E500C207C183336606011206D18E13963E
:1020F000060141822312C500231EE50003D76500B7
:10210000231EE5022310F502828003570502FD77A6
:10211000FD17F98F2310F502035805028356450079
:102120008357C50165771396060183D6050013070B
:10213000F7CF7D8FF977A206FD17558FB3F707010B
:1021400083D6250003D8850042074182B3E6060105
:10215000B206D58FB7360140C207138806C0418347
:10216000C183630E050193860640630AD500B75606
:102170000140138806C063040501631CD500F17695
:10218000FD16F18E03D6C5001A06D18E13960601F0
:1021900041822312C500231EE50003D765002310EA
:1021A000E5042310F50282808357050091C593E76B
:1021B00017002310F5008280C207C183F99BC20774
:1021C000C183C5BF8357450491C52167D98F2312A9
:1021D000F5048280C607C583DDBF83578501C2072A
:1021E000C183DD9BDD8D231CB500828003578501F3
:1021F000FD779387F77FF98FA205CD8FC207C18343
:10220000231CF50082808357C501C207C183DD9B73
:10221000DD8D231EB50082800357C501FD779387AE
:10222000F77FF98FA205CD8FC207C183231EF5006A
:10223000828003570502F977FD17F98FB205CD8F1C
:10224000C207C1832310F50282802312B502828067
:10225000035505016D8D3335A000828093C5F5FFD0
:10226000C205C1812318B50082808357050103553B
:10227000C500ED8F4205418189C76D8D3335A000C2
:1022800082800145828093C5F5FFC205C181231874
:10229000B500828083560501F577FD17F58F83D64B
:1022A0006500397122DC06DED58F03D7C5002318FF
:1022B000F5008356C500FD779387379FF58F83D64A
:1022C00045002A842EC6D58F83D68500D58F83D628
:1022D000A500D58F2316F50083574501C207C1839A
:1022E00093F7F7CFD98F231AF5006808EFF01F9CFA
:1022F000B747014093870780B245631EF404A25795
:102300008356C4006547B387E702C206C186984179
:1023100063D5060406070356C4004206B3D7E70296
:10232000130740064186B3D6E702B3F7E7029206E9
:10233000635706028E0793872703B3D7E70213F785
:102340007700B367D700C207C1832314F400F250AB
:10235000625421618280925765B70A076DBF920768
:1023600093872703B3D7E702BD8BD58FE9BF81C918
:102370008357C5000967D98F2316F500828003575C
:10238000C500F977FD17F98FC5BF93F5F51F231227
:10239000B5008280035505006D8D3335A000828025
:1023A00013F7F50F85461583B397B6006313D7026D
:1023B0000357C500F98F03570500014542074183C4
:1023C00081CB0545A181B315B5006D8F3335E00094
:1023D000828089466315D70003570501E1BF035783
:1023E0004501C9BFA1818547B397B70093C7F7FFE0
:1023F000C207C1832310F5008280B7070050239ADB
:10240000A70203C767031377C70F238BE7028280F6
:10241000B7070050239CA70203C7A7031377C70F72
:10242000238DE7028280814713F7F70F6363A700CC
:10243000E9B703A7419B3E9783460700850793C6EC
:10244000F6FF2300D704CDB7814713F7F70F636377
:10245000A7007DBF03A7018E3E978346070085072F
:1024600093C6F6FF2300D704CDB7B707005003C7C4
:1024700067001377F70F93762700638806660111CC
:1024800022CE26CC4ACA4EC852C656C403C77700CD
:1024900093060002137707036301D74C130600036A
:1024A0006301C7046314072203C777000546137747
:1024B000F703630AC7606304075889466318D72087
:1024C00003C77700137707046302072003C7B70326
:1024D00013474700A38DE70288471375F50FAD3703
:1024E000F5A219472389E7021147A389E70283A4CC
:1024F000418E83C7740003C76400A207D98F239C51
:10250000F18C03C71400238DE18C03CA04001377F8
:102510000A066308070E03C7A18D1377070219CFB8
:1025200083C7A18D1307100293F7F70F638AE700A3
:10253000130720026384E7006393D718014989A039
:102540009387018223AEF18C83D7818D1D4721496A
:102550006366F70003D9818D1379F90F4A86938555
:1025600001822685ED2583D7818DB3872741C20758
:10257000C183239CF18C83A7C18DCA9723AEF18CB4
:1025800083D7818D4209135909016374F900239C93
:10259000218D9387018403D707009D46A14463E6FC
:1025A000E60083D4070093F4F40F03A9C18D2686B7
:1025B000CA8513858196CA94592D23AE918C620ADF
:1025C000135A8A41814763520A0203D7818DA1477A
:1025D00063E6E70083D7818D93F7F70F03D7818DEB
:1025E0001D8F42074183239CE18CC20737070050AF
:1025F000C1832318F70291472309F702A309F702C1
:10260000F1A083C7A18D2D4793F7F70F6369F70AF0
:1026100011678A071307C7EABA979C43828783C763
:10262000340003C724008D46A207D98F13D7870033
:102630006305D70C63ECE6008547630BF702894717
:102640006304F70A1309F00F814715A89D47630833
:10265000F71093072002630CF70E9947E314F7FE77
:1026600091679387C7F723AEF18C0149A94701A869
:102670009167938707F223AEF18C0149C94703D7CD
:10268000818DC207C18363F4E700239CF18C83D75B
:10269000818D1D47A14A6366F70083DA818D93FA25
:1026A000FA0F83A5C18D56862685552383A7C18D34
:1026B000BE9A23AE518D9307F00FE312F9F0B707DE
:1026C00000501D472389E702A389E702B70700509E
:1026D00009472383E7007244E2445249C249324A1F
:1026E000A24A05617300203091679387C7ED23AE3E
:1026F000F18C01499307300459B793F7F70F8546DA
:102700006387D70291CF8946638BD702E39CE7F2B8
:102710009167938747F623AEF18C0149D94785B776
:102720009387018323AEF18C0149914789BF91675B
:10273000938747F323AEF18C0149B94789B7916775
:10274000938747F423AEF18C0149B1470DBF9167E0
:10275000938707F523AEF18C0149D1470DB783C7A5
:10276000718293F7F70FE39F07EC370900201309F5
:1027700009019165130610049385E5ED1305290001
:10278000F92123AE218DB5B783C72400239CF18C9A
:102790003DB583C741852380F40003D7818D8547EC
:1027A000E3E6E7FE29BD03C72400238AE18401BDD7
:1027B0001377FA018947E314F7F083C74400638372
:1027C000E704636EF7000547E39BE7EE3707005029
:1027D0008347770393F7870FA30BF702CDB3130754
:1027E0001008638AE70213072008E39AE7EC37072B
:1027F00000508347A70393F7870F93E72700230D24
:10280000F70275BB370700508347B70393F7870F6D
:10281000A30DF7026DB3370700508347670393F7A3
:10282000870F93E72700230BF70251BB03C781965D
:102830007D8B19EB9387819683D727000547E3901B
:10284000E7E82381F184A5BB8946E31AD7E693879D
:10285000819683D62700E39406E683C74700638505
:10286000E7046360F7020547E39BE7E4370700509E
:102870008347770393F7C70FA30BF70293E737005C
:10288000A1BF13071008638CE70213072008E39821
:10289000E7E2370700508347A70393F7C70F230DDD
:1028A000F70293E73700A1BF370700508347B7030C
:1028B00093F7C70FA30DF70293E7370091BF3707D0
:1028C00000508347670393F7C70F230BF70293E783
:1028D000370091BF23800400C9B5238401969387F4
:1028E000018483D607000547E37BD7CC2390E7001C
:1028F000F9B11387819603574700239401969306F5
:1029000010086313D70237070050034767030D8B86
:102910008D466315D70005472384E196938701848C
:1029200083D607000947C9B785466317D70037071D
:10293000005003477703E1BF930620086317D700D1
:10294000370700500347A703D9B78946E318D7FCD8
:10295000370700500347B7035DBF83C677001306F0
:10296000100293F6F6036380C60A130620026389F9
:10297000C60AE39DE6D403C7A18D95461377F70FEA
:10298000630FD7049946631DD70683D7818D1D47F2
:1029900021446366F70003D4818D1374F40F03A5FB
:1029A000418E83A5C18D22865D2483D7818D131727
:1029B00004014183998FC207C183239CF18C83A7B3
:1029C000C18D3E9423AE818CB70700502398E70257
:1029D00003C72703134747002389E702C5B903C785
:1029E000370083D6818D13770708558F1377F70F3C
:1029F000A381E70009472389E702A3890702F9B108
:102A000023980702C5BF03C767031377C70F238B3C
:102A1000E70203C7670313474700238BE7027DB133
:102A200003C7A70313474700238DE70203C7A70384
:102A30001377C70F13672700238DE70241B983C7B8
:102A4000A18D6393F60483A7418E83C6170003C745
:102A50000700558F83C62700558F83C63700558FD3
:102A600005CB83C5170003C7070037450000A20543
:102A7000D98D03C72700130585F842074D8F93951D
:102A80008601D98DEF00F013B70700509C473DB980
:102A900083C5670037450000130585F9EF00701204
:102AA00083A7418E37450000130585FA83C547008B
:102AB000EF00301183A7418E37450000130585FBD9
:102AC00083C55700C1B703C7770013770704E30F27
:102AD00007BE03C7770313474700A38BE702884766
:102AE0001375F50FEFF03F94D5B69376170085CAAE
:102AF000A3810700A3890702A38B0702A38D070206
:102B000009472389E702238BE702238DE70203C7E6
:102B10006700136717002383E70073002030937664
:102B20004700F5DA03C757001147F5B7B71702405A
:102B30009843B706FFF841111367170098C3D843AD
:102B400037060200758FD8C39843B706F7FEFD1607
:102B5000758F98C39843B706FCFFFD16758F98C311
:102B6000D843B70681FFFD16758FD8C337079F007E
:102B700098C702C402C69843C166558F98C3B7165A
:102B80000240130700509C42F18F3EC6A2478507C2
:102B90003EC4B24781E7A247E397E7FEB71702407A
:102BA0009C431397E7006350070A85473EC63247A8
:102BB00085476318F708B72702409843B706C1FF57
:102BC000FD161367070198C39843719B98C39843F8
:102BD0001367270098C3B7170240D843D8C3D84318
:102BE000D8C3D84313670740D8C3D843758FD8C319
:102BF00037F7FF1F0327C77093161701D84363C623
:102C00000604B7063D00558FD8C3371702401C4352
:102C1000B7060001D58F1CC3B7170240984393161F
:102C20006700E3DD06FED843B7160240719BD8C3A8
:102C3000D84313672700D8C32147DC42B18BE39EFA
:102C4000E7FE4101828002C69DB7C1666DBFB3C772
:102C5000A5008D8B3307C50081E78D4763EEC70064
:102C6000AA876370E50A83C6050085078505A38FDB
:102C7000D7FEE3EAE7FE828093763500AA8791CA01
:102C800083C6050085078505A38FD7FE93F6370019
:102C9000FDB79376C7FF138606FE63F0C70683A3CE
:102CA000050083A2450083AF850003AFC50083AE56
:102CB000050103AE450103A3850183A8C5019385E2
:102CC000450223A0770003A8C5FF23A2570023A431
:102CD000F70123A6E70123A8D70123AAC70123AC44
:102CE000670023AE17019387470223AE07FF75B72E
:102CF00090419107910523AEC7FEE3EBD7FEE3E4D5
:102D0000E7F682801C46FD171CC663D90700184EE3
:102D100063C5E700A9476393F500E5A51C422E852E
:102D20001387170018C22380B7008280011122CCBC
:102D300026CA4AC84EC652C406CE2A89AE893284F3
:102D4000B304D6007D5A63149400014509A8834555
:102D500004004E864A857D370504E31645FFF240A0
:102D60006244D2444249B249224A056182803571A7
:102D700022CD26CB4AC94EC706CF52C556C35AC12B
:102D8000DEDEE2DCE6DAAA89AE843289368409C561
:102D90001C4D99E3EF0050299717000093870729EE
:102DA000639CF40C83A4490083D7C400A18BFDC7A6
:102DB0009C48EDC793070002A304F10293070003A8
:102DC00002D22305F10222C6930B5002971A00008B
:102DD000938A0A20054C294B4A848347040099C3EF
:102DE0006390770FB30C2441638D0C00E6864A860E
:102DF000A6854E85253FFD576308F51E9256E6963B
:102E000036D2834704006381071EFD57130914005F
:102E100002C802CE3ECA02CCA309010482D4834573
:102E2000090015465685EF00504613041900C247A5
:102E300051E913F7070109C713070002A309E104C9
:102E400013F7870009C71307B002A309E1048346FB
:102E500009001307A002638FE606F2474A84814601
:102E600025460347040093051400130707FD637804
:102E7000E60AADCA3ECEBDA0971700009387071D96
:102E80006395F40083A4890005B797170000938722
:102E9000E717E39BF4F083A4C90039B7A6854E85F4
:102EA0000D2509D97D55FA406A44DA444A49BA49A0
:102EB0002A4A9A4A0A4BF65B665CD65C0D618280B0
:102EC000050421BF330555413315AC00C98F3EC8F9
:102ED0002289B1B7324793064700184336C6634983
:102EE00007023ACE034704009307E002631FF7048A
:102EF000034714009307A002631BF702B2470904BB
:102F0000138747009C433AC663C107023ECA35A8EF
:102F10003307E04093E727003ACE3EC8E1B7B387D6
:102F2000670385462E84BA972DBFFD57C5B70504A4
:102F300002CA8146814725460347040093051400D1
:102F4000130707FD6378E606F1F2834504000D469A
:102F50001715000013054508EF00303311CD971702
:102F60000000938767071D8D93070004B397A700A0
:102F7000424505045D8D2AC883450400194617158E
:102F800000001305A505130914002304B102EF0086
:102F9000D02F3DC197D7FFFF9387C70695E74247DC
:102FA000B2471377071009CF91073EC69257D297C1
:102FB0003ED21DB5B387670385462E84BA97ADBF51
:102FC0009D07E19BA107D5B778009706000093867F
:102FD00026D626860C084E8597000000E7000000E4
:102FE000FD572A8AE314F5FC83D7C40093F707043E
:102FF000E39A07EA125545BD7800970600009386CC
:1030000026D326860C084E85012AD9BF797156CA67
:103010009C49BA8A984522D426D24ECE52CC06D6A6
:103020004AD05AC85EC6AA892E84B284368A63D32F
:10303000E700BA879CC00347340419C385079CC0C6
:103040001C4093F7070281C79C4089079CC0032955
:10305000040013796900631A0900130B9401FD5BE6
:103060005C449840998F634CF9041C4083463404B7
:1030700093F70702B336D000A5EB13063404D285CC
:103080004E85829AFD576303F5041C401146984013
:10309000998B544481446397C700B384E64063D35B
:1030A000040081441C4418486354F700998FBE946F
:1030B000014969047D5B63982405014509A885469B
:1030C0005A86D2854E85829A631E75017D55B2500F
:1030D000225492540259F249624AD24A424BB24BAC
:1030E000456182800509ADBF3307D4001306000394
:1030F000A301C7040347540493871600A2978906C7
:10310000A381E7049DBF85462286D2854E85829A9B
:10311000E30E65FB050945B7797122D426D24AD062
:103120004ECE06D652CC56CA5AC8B68983C6850139
:10313000930790063289AA842E8413863504638D02
:10314000F60263E2D706930780056388F61863EDFD
:10315000D7006381062293073004638FF60A930A2F
:1031600024042301D404D1A0930730066386F60A11
:1031700093074006E395F6FE1C40084393F60708C4
:1031800093054500CDC61C410CC363D80700130747
:10319000D002B307F040A301E40497160000938621
:1031A00066E4294775A8930700076384F61663E56C
:1031B000D7029307E006638BF6189307F006E390B7
:1031C000F6FA0C401C4313F8050813854700630802
:1031D000080608C39C4395A893075007E383F6FEAF
:1031E00093078007638BF61293073007E399F6F68F
:1031F0001C43D04181459386470014C383AA07002E
:103200005685EF00900801C53305554148C05C4024
:103210001CC8A301040471A81C43930A24049386C8
:1032200047009C4314C32301F4048547D5B793F6A4
:1032300007041C410CC3B1DAC207C187B9B793F5C3
:10324000050408C3C1D983D707001307F0066387B5
:10325000E60E971600009386E6D82947A3010404DA
:103260004C400CC463C5050008406D9908C099E343
:10327000B28A91CDB28AB3F5E702FD1AB69583C53D
:1032800005002380BA00B3D5E70263FFE70AA14730
:10329000631EF7001C40858B91CB58401C4863C7C8
:1032A000E70093070003A38FFAFEFD1A3306564189
:1032B00010C84E87CA867000A2852685813B7D5A3C
:1032C000631E450B7D55B250225492540259F24967
:1032D000624AD24A424B45618280A382D504971646
:1032E0000000938626D00C40084313F805081C41C3
:1032F0001105630D080208C313F7150001C793E514
:1033000005020CC04147B9FB0C4093F5F5FD0CC01C
:10331000B1B79C4193E707029CC193078007A302C2
:10332000F40497160000938626CD75BF13F80504A4
:1033300008C3E30308FCC207C1837DBF97160000E2
:10334000938646CA214719BFAE8735B794411C43BF
:10335000CC4913F80608138547006306080008C324
:103360009C438CC301A808C393F606049C43F5DA7A
:103370002390B70023280400B28A25BF144856863C
:10338000CA8526858299E30F45F31C40898B8DE71A
:10339000B2474844E359F5F23E8535B7854656862F
:1033A000CA8526858299E30F65F1050A5C44324798
:1033B000998FE345FAFEE9BF014A930A94017D5BC8
:1033C000F5B739713EDA2ED232D436D63AD842DC4D
:1033D00046DE9387C18222CC804326CA06CEAA84C9
:1033E00009C41C4C99E3228581210C445410268683
:1033F000228536C6EFF0BF97F2406244D244216185
:103400008280011122CC26CA4AC806CE4EC6AA84A2
:103410002E89328401C51C4D91E339219717000094
:103420009387C7C06319F406C0401C4C1CC4835763
:10343000C400A18BC9C31C48BDCF1C480840937968
:10344000F90F1379F90F1D8D5C486346F500A285CD
:103450002685652C2DE51C440505FD171CC41C4064
:103460001387170018C0238037015C486389A700C1
:103470008357C400858B81CBA9476316F900A285C9
:10348000268561240DEDF24062444A85D2444249CA
:10349000B2490561828097170000938727BB6314A8
:1034A000F400804459B797170000938727B6E31EAE
:1034B000F4F6C0449DBFA285268521203DDD7D59BF
:1034C000D9B741119387C18226C2844322C44AC01E
:1034D00006C62A892E8489C49C4C99E32685A92690
:1034E00097170000938787B4631CF402C04003174A
:1034F000C40093170701C18393F68700B5EE93F6D6
:1035000007019DEEA5472320F90013670704231642
:10351000E4007D55B2402244924402494101828038
:1035200097170000938787B26314F4008044C1B7F3
:1035300097170000938787ADE31BF4FAC04445BF9B
:10354000918B8DC74C5889C9930744046384F50057
:103550004A85892B232A04028357C40023220400AE
:1035600093F7B7FD2316F4001C481CC08357C40012
:1035700093E787002316F4001C4881EF8357C400AB
:103580001307002093F707286385E700A2854A8583
:10359000B9298357C40013F7170005C75C482324D3
:1035A0000400B307F0401CCC1C480145A5F7831765
:1035B000C40013F7070839DF93E707042316F40064
:1035C00089BF898B014791E3584818C4F1BF83D75D
:1035D000C500011122CC26CA06CE4AC84EC613F732
:1035E0008700AA842E8471EFD841634DE000B84172
:1035F000634AE0000145F2406244D2444249B24984
:103600000561828058547DD703A904009396370141
:1036100023A0040063DD060670488357C400918B25
:1036200099C75C401D8E5C5899C33C401D8E5C540C
:103630000C50814626858297FD570357C400631DB1
:10364000F5009440F54763E8D706B70740208507A3
:10365000B3D7D700858BA5C31C48232204001CC008
:103660009317370163D80700FD576314F5009C409A
:1036700091E368C84C5823A02401ADDD93074404AE
:103680006384F50026853929232A0402A5B70C5046
:103690000146854626850297FD572A86E31FF5F6E3
:1036A0009C40A5DF75476385E70059476394E704AD
:1036B00023A0240181B7136707042316E4007D5576
:1036C0001DBF83A90501E38709F203A905008D8BBE
:1036D00023A0350133093941014791E3D84918C482
:1036E000E35A20F11C540C50CA864E8626858297D8
:1036F0006349A0008357C40093E707042316F4002E
:103700007DBFAA993309A940E1BF9C49B9CF0111F6
:1037100022CC06CE2A8411C51C4D81E72EC6292253
:10372000B2459717000093876790639BF5004C4064
:103730008397C50095C722856244F240056141BD6B
:1037400097170000938787906394F5000C44CDB7DA
:10375000971700009387878BE39CF5FC4C44C9BF07
:10376000F240624401450561828001458280411139
:1037700022C406C62A842316B5002317C5002320B9
:103780000500232205002324050023220506232803
:103790000500232A0500232C050021468145130539
:1037A000C505EFC0FFA597070000938787495CD048
:1037B000970700009387E74B1CD497070000938777
:1037C00027505CD4970700009387E75200D01CD89D
:1037D000B24022444101828097050000938525F381
:1037E000A9A2411126C2130680069384F5FFB38473
:1037F000C4024AC02E8922C406C693854407A9265E
:103800002A8401CD2320050023222501310508C487
:10381000138684068145EFC0BF9E2285B2402244B4
:1038200092440249410182801C4DADE3411106C61C
:1038300022C497070000938767FA1CD593874183BA
:103840009C4323240504232605042328050463142C
:10385000F50085471CCD2A841D2848C022850528EF
:1038600008C422852D2048C44840014691450137AF
:1038700008440546A545E53D48440946C945C53DBA
:1038800085471CCCB2402244410182808280411194
:103890009387418326C284434AC006C69C4C22C4F7
:1038A0002A8999E326854937938484048044DC403F
:1038B000FD1763D607009C40B9CF8440C5BF0317EE
:1038C000C40039E7C17785072322040623200400BA
:1038D00023220400232404005CC423280400232A98
:1038E0000400232C0400214681451305C405EFC0C4
:1038F0003F91232A0402232C0402232404042326B8
:1039000004042285B240224492440249410182804B
:103910001304840671BF91454A85E13588C051FD85
:10392000B1472320F9000144E9BF797122D44AD07C
:1039300052CC56CA5AC85EC606D626D24ECE2A8A5F
:10394000AE8A130485040149054BFD5B09ECB250B6
:1039500022544A8592540259F249624AD24A424B51
:10396000B24B45618280044483294400FD1963D42D
:1039700009000040E1BF83D7C400637BFB0083974D
:10398000E40063877701A6855285829A3369A9008E
:1039900093848406E1BF1971A6DAAE848395E500AD
:1039A000A2DC86DE328463DC050083D7C40023A05A
:1039B000060093F707089DE39307004015A0300821
:1039C00036C67126B246E34205FE7247BD67F98FDF
:1039D0007977BA9793B717009CC2F9BF9307000491
:1039E0001CC0F6506654D65401450961828083D7C5
:1039F000C500011122CC06CE26CA4AC8898B2E8466
:103A000089CF930774041CC01CC885475CC8F2406A
:103A10006244D24442490561828074003000AA8425
:103A20009D3FA2452A892685052201ED8317C40002
:103A300013F7072069FFF19B93E727002316F40093
:103A4000C9B797070000938767D99CD48357C400F0
:103A500008C008C893E707082316F400A2475CC80B
:103A6000B24789CF8315E4002685392601C98357DB
:103A7000C400F19B93E717002316F4008357C4009A
:103A80003369F9002316240159B793F5F50F2A96E7
:103A90006314C5000145828083470500E38DB7FEAE
:103AA0000505FDB7CDC183A7C5FF411122C406C6D8
:103AB00026C21384C5FF63D307003E94AA84392627
:103AC000938741849C4399EB2322040023A28184A1
:103AD0002244B240268592444101D5AC637EF40075
:103AE00014403307D4006396E7009843DC433697CD
:103AF00018C05CC0E1BFBA87D84319C3E37DE4FEB8
:103B000094433386D700631F86001040B29694C357
:103B10003386D700E31EC7FA10435843B29694C3C6
:103B2000D8C37DB76375C400B1479CC055B710407A
:103B3000B306C4006316D70014435843B29614C0AA
:103B400058C0C0C371B78280011126CA9384350062
:103B5000F19806CE22CC4AC84EC6A104B14763F103
:103B6000F404B14463E0B4042A898D24938741842A
:103B700098433A8431E0938781849C4391E781455F
:103B80004A85512823A4A184A6854A856920FD5928
:103B900063173507B1472320F9004A850D2C29A06A
:103BA000E3D204FCB1471CC10145F2406244D24457
:103BB0004249B249056182801C40858F63CE07026D
:103BC000AD4663F6F6001CC03E9404C031A05C40D4
:103BD0006312870223A2F1844A85D52A1305B40013
:103BE0009307440061993307F54061D33A94898F74
:103BF0001CC065BF5CC3CDB722874040A5BF13047E
:103C000035007198E30385FCB305A4404A85212063
:103C1000E31D35FB41B7411122C42A842E8523AC14
:103C2000019A06C6112CFD576317F5009387819BF7
:103C30009C4391C31CC0B240224441018280411187
:103C400022C42E848395E50006C6592263490500E7
:103C50007C48AA977CC8B2402244410182808357A5
:103C6000C4007D777D17F98F2316F400EDB783D755
:103C7000C500011122CC26CA4AC84EC606CE93F70B
:103C80000710AA842E843289B68991C78395E500EE
:103C90008946014631228357C4007D777D17F98F0D
:103CA0002316F4008315E4006244F240CE864A866F
:103CB000B24942492685D24405613DA8411122C43A
:103CC0002E848395E50006C6E128FD570357C400FE
:103CD000631BF500FD77FD17F98F2316F400B24042
:103CE0002244410182808567D98F2316F40068C879
:103CF000FDB78395E50005A8411122C42A842E85CD
:103D0000B285368623AC019A06C6EFC03FB7FD5791
:103D10006317F5009387819B9C4391C31CC0B240FD
:103D2000224441018280411122C42A842E8523AC81
:103D3000019A06C6E120FD576317F5009387819B22
:103D40009C4391C31CC0B240224441018280411176
:103D500022C42A842E85B28523AC019A06C66D2022
:103D6000FD576317F5009387819B9C4391C31CC04B
:103D7000B240224441018280411122C42A842E850E
:103D800023AC019A06C67920FD576317F500938787
:103D9000819B9C4391C31CC0B2402244410182805C
:103DA000411122C42A842E85B285368623AC019A1D
:103DB00006C6BD20FD576317F5009387819B9C4382
:103DC00091C31CC0B2402244410182808280828023
:103DD000411122C42A842E85B285368623AC019AED
:103DE00006C6A920FD576317F5009387819B9C4366
:103DF00091C31CC0B24022444101828093078005D8
:103E000023ACF19A7D5582809307800523ACF19A0B
:103E10007D5582809307800523ACF19A014582800D
:103E20009307800523ACF19A7D5582809307800526
:103E300023ACF19A7D5582809387C1849C4391C7BE
:103E40003E9523A6A1843E8582809387C19B3E95A3
:103E500023A6A1843E85828000080140000C014019
:103E6000001001400014014000180140002C0140E6
:103E7000000000400004004000080040000C00402A
:103E800000340140004C0140005001400038014026
:103E90000044004000480040004C004000500040FA
:103EA00000180040001C004000200040F2280000E4
:103EB000B0270000BE2600002C280000BE2600000F
:103EC000882700001E260000BE2600009227000062
:103ED000A6270000D4280000DA28000009024300C9
:103EE000020100A0320904000001020201000524C1
:103EF000001001052401000004240202052406002C
:103F000001070581034000FF09040100020A0000C7
:103F10000007050202400000070582024000000081
:103F20001201000202000008861A22570001010255
:103F3000030100000E037700630068002E00630099
:103F40006E0000000C0343004800330030003700CF
:103F5000140332003000310037002D0032002D00F4
:103F600032003500160330003100320033003400D7
:103F70003500360037003800390000000A0600021C
:103F8000FF00FF40010000000A4261756420526199
:103F90007465203D202564000A646174614269747F
:103FA000203D2025640000000A73746F704269741C
:103FB000203D2025640000000A7061726974795404
:103FC000797065203D20256400000000232D302BF2
:103FD00020000000686C4C0065666745464700009D
:103FE000303132333435363738394142434445462F
:103FF00000000000303132333435363738396162F1
:10400000636465660000000000000000000000001E
:1040100000000000000000000000000000000000A0
:104020000000000000000000000000000000000090
:104030000000000000000000000000000000000080
:104040000000000000000000000000000000000070
:104050000000000000000000000000000000000060
:08406000000000000000000058
:104068000000000001020304010203040607080916
:104078000907000000000000000000000000000028
:104088000000000000000000000000000000000028
:104098000000000000000000000000000000000018
:1040A8000000000000000000000000000000000008
:1040B8000000000000000000284000004840000008
:1040C80008400000000000000000000000000000A0
:1040D80000000000000000000000000000000000D8
:1040E80000000000000000000000000000000000C8
:1040F80000000000000000000000000000000000B8
:1041080000000000000000000000000000000000A7
:1041180000000000000000000000FF0000FFFF009A
:1041280000FF0000FF00FF00FF000000FFFFFF008E
:10413800FFFF00000204060800C201000000080199
:10414800004495085400002004030904540000208A
:00000001FF
