:100000006F20C00B1300000013000000130000005D
:100010001300000013000000130000001300000094
:100020001300000013000000130000001300000084
:08003000130000007300100032
:100038000000000000000000A8020000AC02000060
:100048000000000002200000000000000000000086
:10005800042000000620000000000000000000004E
:1000680008200000000000000A2000000000000036
:100078000C2000000E2000001020000012200000BC
:1000880014200000162000000A0400001E040000CE
:10009800440400005A0400007004000022200000FC
:1000A8002420000026200000282000002A2000002C
:1000B8002C2000002E2000003020000032200000FC
:1000C800342000003620000038200000860400009C
:1000D8003C2000007A05000040200000422000007B
:1000E800A0050000BA050000E00500004A20000055
:1000F8004C2000004E20000050200000522000003C
:1001080054200000AE020000D802000002030000E4
:10011800F80400005E20000060200000622000005B
:100128006C06000066200000682000006A200000BD
:100138006C2000006E2000000606000072200000FF
:100148002C030000560300002C06000046060000A1
:100158007C2000007E20000080200000822000001B
:100168008420000086200000882000008A200000EB
:100178008C2000008E20000090200000722B0000D0
:100188009420000096200000EA0300007803000095
:10019800A2030000CC030000A0200000920600008B
:1001A800A4200000A6200000A8200000B806000037
:1001B800AC200000AE200000B0200000B2200000FB
:1001C800B4200000B6200000B8200000BA200000CB
:1001D8000000000000000000000000000000000017
:1001E8000000000000000000000000000000000007
:0801F8000000000000000000FF
:100200003D432A876373C3029377F700BDEFADE5E3
:10021000937606FF3D8ABA960CC34CC30CC74CC7F5
:100220004107E36BD7FE11E28280B306C3408A0622
:100230009702000096966780A6002307B700A306E2
:10024000B7002306B700A305B7002305B700A30432
:10025000B7002304B700A303B7002303B700A3022A
:10026000B7002302B700A301B7002301B700A30022
:10027000B7002300B700828093F5F50F93968500B1
:10028000D58D93960501D58D61B79396270097027A
:10029000000096968682E78086FA9680C1171D8FA9
:1002A0003E96E374C3F8A5B77300203001A0411156
:1002B00022C6374401409305505213050480EF20B5
:1002C000207E19C59305505213050480EF2090013C
:1002D0003244410173002030411122C637440040AE
:1002E0009305505213050440EF20807B19C59305F8
:1002F000505213050440EF20E07E32444101730068
:100300002030411122C63754004093055052130546
:100310000480EF20E07819C593055052130504803E
:10032000EF20407C3244410173002030411122C64D
:100330003754004093055052130504C0EF20407617
:1003400019C593055052130504C0EF20A07932441B
:100350004101730020309305505237550040EF2083
:10036000207409C9EF00E0699305505237550040E9
:10037000EF20407773002030411122C6372400401F
:100380009305505213050480EF20807119C5930521
:10039000505213050480EF20E07432444101730091
:1003A0002030411122C637240040930550521305D6
:1003B00004C0EF20E06E19C593055052130504C028
:1003C000EF204072324441017300203093055052B7
:1003D00037250040EF20C06C19C5930550523725D2
:1003E0000040EF20207073002030B707055003C78E
:1003F0000701118B09CB03C707011377B70F2388B8
:10040000E700EF00806E730020300545EF1050616B
:1004100085476314F500EF109062730020300945A2
:10042000EF1010608547631DF5000945EF1030613E
:10043000130520088145EF00302F5145EF00B0072C
:10044000730020301145EF10B05D85476315F5004E
:100450001145EF10D05E730020302145EF10505C45
:1004600085476315F5002145EF10705D730020305E
:100470004145EF10F05A85476315F5004145EF10EF
:10048000105C7300203013050002EF10705985478F
:100490006316F50013050002EF10705A13050004EF
:1004A000EF10105885476316F50013050004EF1090
:1004B000105913050008EF10B05685476316F50074
:1004C00013050008EF10B05713050010EF1050553A
:1004D00085476316F50013050010EF1050561305FD
:1004E0000020EF10F05385476316F5001305002038
:1004F000EF10F0547300203041111305004022C664
:10050000EF10105285476316F50013050040EF10F9
:100510001053056413050480EF109050854763164F
:10052000F50013050480EF1090510565EF10504F52
:1005300085476315F5000565EF1070500965EF10EC
:10054000304E85476315F5000965EF10504F116572
:10055000EF10104D85476315F5001165EF10304E13
:100560002165EF10F04B85476315F5002165EF100D
:10057000104D3244410173002030411122C63734FE
:1005800001408545130504C0EF20203E11C5854577
:10059000130504C0EF20203F324441017300203096
:1005A000854537050040EF20403C11C5854537059E
:1005B0000040EF20403D73002030411122C6370437
:1005C0000040854513050440EF20203A11C58545BC
:1005D00013050440EF20203B3244410173002030DA
:1005E000411122C637140040854513050480EF20D1
:1005F000C03711C5854513050480EF20C03832444B
:10060000410173002030411122C637140040854556
:10061000130504C0EF20603511C58545130504C0DE
:10062000EF20603632444101730020308545371594
:100630000040EF20803311C5854537150040EF207D
:10064000803473002030411122C6371400408545A4
:1006500013050440EF20603111C5854513050440A2
:10066000EF2060323244410173002030411122C634
:1006700037340140854513050440EF20002F11C594
:10068000854513050440EF200030324441017300DA
:100690002030411122C6375401408545130504C05E
:1006A000EF20A02C11C58545130504C0EF20A02D17
:1006B0003244410173002030854537550140EF2019
:1006C000C02A11C5854537550140EF20C02B730066
:1006D00020301307E005A380E19685670111938719
:1006E00087BB23AEF18C22CC9307401F23A4F19645
:1006F000A947A388F19E238AF18CB7070020238A9B
:10070000E71023A0018E23A4019E06CE26CA4AC864
:100710004EC623AC019EEF10A07D03D58196B7098C
:100720000020812683C7018289CB1305600EEF105C
:100730000042EF106045EF10A06481481308800765
:100740009307C00B130780079306C00B1386492B32
:100750008145014523800182CD2A83D541960545F7
:10076000BD2083D5818501459D206DBF411106C601
:1007700022C415E537C40200A1460146930504F2E0
:1007800013053020EF00F046A1460146930504F220
:10079000130520202244B24041016F009045854757
:1007A0006313F50237C4020081460146930504F243
:1007B00013051010EF00F04381460146930504F243
:1007C00013050010C1BFB240224441018280411193
:1007D00006C601ED13053020EF00A0778145130513
:1007E0002020B24041016F00C0768547631AF500B2
:1007F00013051010EF00E075814513050010D5B703
:10080000B240410182804111916722C403A48760F4
:1008100026C24AC006C6C14404C844C81309000819
:10082000232A2401AA850545EF00B0582328240176
:1008300004C844C8B2402244924402494101828023
:10084000B707002083A7870B011122CC26CA4AC80C
:100850004EC606CEAA89AE8432893684A1EF13052E
:10086000A002553793854903C205C1810545EF00B4
:10087000105693054903C205C1810545EF00305567
:100880001305B002493793858402C205C18105452D
:10089000EF00F05393058402C2050545C181EF00C6
:1008A00010536244F240D2444249B2491305C00297
:1008B000056191BF0547639FE7001305A002A137BB
:1008C00093855903C205C1810545EF00505093053A
:1008D000590355B79309850213098602C2094209D3
:1008E000094793D90901135909011305A002639817
:1008F000E702113FCE850545EF00704DCA850545DD
:10090000EF00F04C1305B002FD3D93855403C20582
:10091000C1810545EF00B04B93055403B5BFE535E4
:10092000CE850545EF00B04ACA850545EF00304A3F
:100930001305B002C93D93854403C205C181054535
:10094000EF00F0489305440381BF397162CC6AC857
:10095000368C328D9306F8FF1386F7FFAE962A96F3
:10096000C206420656D2C1824182C16A26DA4AD8FC
:100970004ED652D466CA6EC606DE22DC5AD05ECE91
:10098000BA8D3E8A4289C68C81495D3D8144FD1AFB
:1009900063E12403F2506254D2544259B259225AAC
:1009A000925A025BF24B624CD24C424DB24D2161E5
:1009B000828033D42903814B014B330484036A942E
:1009C00063654B018504EE99E1B7B3D74B03A2975A
:1009D00083C7070063920C02C207C18393D5370017
:1009E00089831397B5009607D98FDD8D0545EF00F4
:1009F000103E050BE29BE9B7D685E3E9FCFE814595
:100A0000F5B7411122C483C7718226C29385418202
:100A1000BE95114506C6EF00D04D93844182938761
:100A2000718211C503C7070005072380E70083C64D
:100A300007000547639FE60083C604001307500ABA
:100A40006384E60023800700B240224492444101BF
:100A500082800D46E39AC6FE238007002384E1824C
:100A6000E5B7FD7779719387570A135785002316E9
:100A7000F1009317850026D2D98FAA8411466C0005
:100A8000114522D44AD04ECE06D62317F1001304C6
:100A90000008EF003043FD599387818283C7070028
:100AA0001387818293F7F70F91E77D144204418405
:100AB000631A34032300070013874182834717001A
:100AC0000145034727006358800013958700598D1F
:100AD000058D13351500B250225492540259F24933
:100AE000456182800545C12A45BFB767002003A73D
:100AF00047ADB7070550854698C72380D18203C705
:100B00000700136717002380E7008280797122D4E1
:100B10004AD04ECE52CC56CA06D626D283471500AE
:100B20003734014081452306F1008347050013094E
:100B3000C100130AF100A306F10083472500130545
:100B400004C0130404C02307F100EF10106089658E
:100B5000938AC55193894513A14483470900FD1425
:100B6000CE85B3D79740858B91E3D6850D45D526A5
:100B700085452285EF10505385452285EF10505D45
:100B800065DD81452285EF10305285452285EF10C5
:100B9000F05C81452285EF10505BE1F00509E31D13
:100BA0002AFBB250225492540259F249624AD24A64
:100BB00045618280B7C502000111814601469385D7
:100BC00005F20D4506CE2316010023070100EF00B4
:100BD0005002373501408945130505C0EF107055A7
:100BE00068002D3713054006592868000537F24084
:100BF00005618280B7170240DC4337177A0013077C
:100C00000720C983BD8BB387E7023727F40013079A
:100C10000740F16593061002130600029385052034
:100C20000945BA9723A6F1826F00F052011126CA36
:100C3000B754004022CC4AC84EC606CEAE8932898F
:100C4000014493840480634A2401F24062444A854B
:100C5000D2444249B2490561828093050004268549
:100C6000EF1050637DD9B3878900838507002685FF
:100C70000504C205C181EF105061F1B7828083A7DE
:100C8000018137177A0013070720B3D7E70281469F
:100C900001473385A702B7F700E023A0070094C7F8
:100CA000D8C7054798C3B7F600E09846DC4699E3F5
:100CB000E37DE5FE828083A701810967130707F4BE
:100CC000B3D7E702814601473385A702B7F700E0B3
:100CD00023A0070094C7D8C7054798C3B7F600E01C
:100CE0009846DC4699E3E37DE5FE828009E581468E
:100CF00001468145A1AA0547E30BE5FE0947E30844
:100D0000E5FE0D47E305E5FE1147E302E5FE154765
:100D1000E30FE5FC1947E30CE5FC1D47E309E5FC9F
:100D200021476318E500814601468145130500020D
:100D3000D1B725476318E500814601468145130573
:100D400010024DBF29476318E500814601468145E1
:100D50001305000445B72D476318E5008146014699
:100D600081451305100479B731476318E5008146C2
:100D70000146814513052004B5BF35476318E500DA
:100D800081460146814513053004ADB739476318E4
:100D9000E50081460146814513054004A1BF3D475A
:100DA0006318E5008146014681451305500499B753
:100DB0008280797122D485452A841305002006D6C5
:100DC00026D2EF10806F2285153703A7C182B7C7DF
:100DD0000105938707D0316563E3E7002165372478
:100DE0000140EF10805B13050440EF104036B70759
:100DF0000E003EC68A85854713050440230AF1008C
:100E000002C002C202C402C8EF10C03885451305F3
:100E10000440EF10A03D13050440EF10203E930462
:100E200004402685EF10203E6DFD13050440372455
:100E30000140EF10C03D130404402285EF10C03D77
:100E40006DFDB25022549254456182809307F00F99
:100E5000630BF50C797122D41354550026D24AD075
:100E60004ECE52CC06D61D889374F5003689328A50
:100E7000AE8935E085451145EF1020648547B39470
:100E80009700C204C180231291006399F90093175F
:100E90000901C183A18391E38D473EC49167938784
:100EA000C75F0A043E9400401379F90F4C00228575
:100EB0004AC6EF10603985476397F9005286A685C8
:100EC0002285EF108044B250225492540259F249C4
:100ED000624A4561828085476315F4008545214556
:100EE00061BF89476315F4008545414571B78D475A
:100EF0006316F400854513050002BDBF91476316D4
:100F0000F40085451305000485BF95476316F4007A
:100F10008545130500088DB79947E311F4F685451B
:100F20001305001091BF8280935755001397270037
:100F300091679387C75FBA9798439377F500054504
:100F40003315F50099C108CB828048CB828082801E
:100F500082809357850011671307C7618A07BA9784
:100F600098430D890A058357C7023A95B385F50260
:100F7000896793870771B3D5F502C205C1814CD942
:100F8000828019E5930680310146854521457DBD66
:100F900085476318F5009306803101468545254550
:100FA000FDB789476318F5009306803101468545F2
:100FB0002945F1BF8D476318F5009306803101463E
:100FC00085452D45E9B7C1476319F5009306803182
:100FD00001468545130590085DBFC5476319F500B7
:100FE00093068031014685451305B0084DB7C947C2
:100FF0006319F50093068031014685451305D00835
:1010000079B7CD476319F5009306803101468545D0
:101010001305E008ADBF930700106318F5009306B1
:1010200080310146854501459DB79307101063182F
:10103000F5009306803101468545054589BF930734
:1010400020106318F5009306803101468545094557
:101050003DBF930730106318F500930680310146B9
:1010600085450D452DB7930700116318F5009306CC
:101070008031014685453D4519BF9307101163191D
:10108000F50093068031014685451305300201B70E
:10109000930720116319F5009306803101468545B9
:1010A0001305A002EDB5930730116319F5009306FF
:1010B0008031014685451305B002D1BD930700205C
:1010C0006318F50093068031014685451945C1B581
:1010D000930710206318F50093068031014685457B
:1010E0001D4575B5930720206319F50093068031DF
:1010F000014685451305000259BD93073020631949
:10110000F50093068031014685451305100241B56F
:10111000930700216319F500930680310146854548
:1011200013056004ADB5930710216319F50093060C
:101130008031014685451305700491BD9307202138
:101140006319F50093068031014685451305800437
:101150003DBD930730216319F500930680310146A8
:1011600085451305900425B5930700226319F50002
:1011700093068031014685451305400209BD93075A
:1011800010226319F5009306803101468545130549
:101190005002F5BB930700306319F50093068031C8
:1011A0000146854513056002DDB3930710306319CE
:1011B000F500930680310146854513057002C1BBD9
:1011C000930720306319F500930680310146854569
:1011D000130580026DBB930730306319F500930649
:1011E0008031014685451305900255B393070031C0
:1011F0006319F50093068031014685451305C00645
:1012000079B3930710316319F500930680310146D5
:1012100085451305D006A5BB930720316319F5005A
:1012200093068031014685451305E0068DB393078B
:1012300030316319F5009306803101468545130569
:10124000F006B1B393070040E30BF5DC93071040C1
:10125000E301F5DE93072040E307F5DE9307304016
:10126000E30DF5DE93070070E308F5EA93071070CD
:10127000E30FF5EA93072070E306F5EC930730706F
:10128000E30DF5EC93070071E30AF5F09307107195
:10129000E301F5F293072071E308F5F2930730714B
:1012A0006319F50093068031014685451305D00486
:1012B000F9B993070580E38807D8856713871780F6
:1012C000E30DE5D8138727806318E5009306803186
:1012D00001468545114565B9938737806319F50047
:1012E0009306803101468545130540044DB185675D
:1012F000138707816319E500930680310146854510
:101300001305900669B1138717816319E5009306E9
:101310008031014685451305B00695B913872781AD
:10132000E305E5EE13873781E307E5F013870790C0
:10133000E30CE5E813871790E303E5EA13872790AA
:101340006319E50093068031014685451305300495
:101350003DB9138737906319E50093068031014644
:1013600085451305B00425B1138707916319E5007E
:1013700093068031014685451305100609B9938708
:1013800017916319F50093068031014685451305D1
:101390003006F5BE8567138727916319E50093062C
:1013A00080310146854513055006D5B61387379120
:1013B0006319E500930680310146854513057006E3
:1013C000F9B613870792E30EE5CA13871792E30174
:1013D000E5DA13872792E308E5DA938737926319F2
:1013E000F50093068031014685451305F00445B6A6
:1013F0008280397106DE22DC26DA2A844AD84ED66B
:101400002EC632C43689B53EB24583A70181224635
:101410009359840033D7B7024E8541839306170052
:10142000B386B602B3D7D70293940701C180B384C1
:10143000C402096613060671FD1793950701C18161
:10144000B3D4C4023A866D2A85450545EF10E006FF
:10145000935744000547C204C1806394E7063705EB
:10146000160085451305050CEF00D06AC1671167AA
:1014700093870706139529001307C7613EC83A955D
:1014800093773400231B9100231C0100231E0100CD
:101490000041E9E70C082285EF10C013854522853D
:1014A000EF104042CA852285EF10204322858545F2
:1014B000EF10803FF2506254D2544259B259216128
:1014C000828045476398E700370518008545130576
:1014D000053059BF130710026398E70037151A004B
:1014E0008545130505C049B7130720026398E70037
:1014F00037151A00854513050580BDB7130710037E
:101500006395E7008545056585B71307100763995F
:10151000E700370701405C4F93E747005CCFB9B75E
:10152000130710086398E700370701405C4F93E703
:101530000701EDB7130710096398E700370701406B
:101540005C4F93E70704D9BF13072009E390E7F244
:10155000370701405C4F93E70702C9B70547639F10
:10156000E7000C082285EF10E01022858545EF107A
:101570006035CA852285EF1060370DBF09470C081A
:101580002285639DE700EF10A01B22858545EF10A3
:101590006033CA852285EF10003709BFEF10E026BF
:1015A00022858545EF100032CA852285EF10C036AE
:1015B000F5BD91670A0593870761AA97984323169B
:1015C000B7008357870093F70708E5FF828091678C
:1015D0000A0593870761AA979C4313D78500239632
:1015E000E70003D787001377070865FF93F5F50F2A
:1015F0002396B70003D787001377070865FF82801B
:10160000011122CC26CA4AC806CE2A842E89B28469
:1016100001E90565854513050580EF00106A39A0CD
:101620008547631EF5028545EF00106B9167938730
:10163000C7610A043E9408404C0023142101231280
:101640009100231501002313010023060100EF0080
:10165000706CF2406244D2444249056182808947FD
:10166000E303F5FC8D476315F500854511456DBF16
:1016700091476315F500854521457DB79D47631565
:10168000F5008545096551BFA1476316F5008545FD
:101690003705080059B7A547E31AF5F8854537051A
:1016A0001000A5BF91670A059387C763AA9798435F
:1016B0008357070093F70708E5DFC205C1812312AE
:1016C000B7008280411122C426C24AC006C62A89B8
:1016D0002E84B384C50063189400B240224492441F
:1016E00002494101828005048345F4FF4A855D3F3C
:1016F000DDB791670A059387C763AA979843835715
:10170000070093F7070299C78357470005452380D1
:10171000F500828001458280411106C60DE18547B2
:101720006398F522E14601462545EFF02FF29146F8
:10173000014681452945B24041016FF02FF18947AB
:10174000631FF500E1460146854513056002EFF091
:10175000EFEF91460146814513057002E9BFC1478D
:10176000631DF500E146014685450945EFF00FEEA2
:101770009146014681450D457DBFC947631FF50070
:10178000E1460146854513055006EFF02FEC9146E2
:10179000014681451305600679BF93070002631F68
:1017A000F500E146014685451305A002EFF00FEA7A
:1017B0009146014681451305B002B5BF930720024B
:1017C000631FF500E146014685451305A004EFF0CF
:1017D000EFE79146014681451305B004A9BF930781
:1017E00040026310F502E146014685451305800677
:1017F000EFF0CFE59306800401468145130590067E
:101800001DBF93070004E30FF5FA93072004631F3D
:10181000F500E1460146854513050002EFF00FE3B0
:101820009146014681451305100231B79307000523
:10183000631FF500E146014685451305C004EFF03E
:10184000EFE091460146814513052006EDB593076B
:101850002005631FF500E146014685451305800814
:10186000EFF0CFDE91460146814513059008E1B5C2
:10187000930700066310F502E1460146854513050E
:101880000004EFF0AFDC93068004014681451305A8
:10189000100455B593072006631FF500E146014685
:1018A00085451305A008EFF06FDA914601468145A2
:1018B0001305B00849B593070007631FF500E1461B
:1018C0000146854513052004EFF04FD891460146A7
:1018D00081451305300485B5930720076317F5008C
:1018E000E146014685451945C5B793074007631F83
:1018F000F500E146014685451305C008EFF00FD518
:101900009146014681451305D00835B59307000877
:10191000631FF500E1460146854513054004EFF0DD
:10192000EFD29146014681451305500429B593072E
:101930002008631FF500E146014685451305E008D0
:10194000EFF0CFD09146014681451305F008E5B38D
:10195000B24041018280797122D44ECE2A84AE8970
:101960000545854526D24AD006D6B2843689EF0091
:10197000D0348947639EF4048D476316F90085458A
:101980001145EF003019631B041285451165EF0006
:10199000D032CA8526854933B7070C003EC491670B
:1019A0009387C7630A043E9400408A854EC022850F
:1019B00002C223160100EF00F07D22858545EF105D
:1019C000000BB250225492540259F2494561828070
:1019D000C9476398F400CD47E317F9FA85452145D7
:1019E0004DB793072002639BF40093073002E31C7A
:1019F000F9F8370514008545410561B793074002A2
:101A0000639CF40093075002E31FF9F637051400B6
:101A1000854513050503B5B7930720046399F400C2
:101A200093073004E311F9F68545056599BF9307DF
:101A30002005639BF40093073005E316F9F437059E
:101A400020008545050535BF93072006639CF400FB
:101A500093073006E319F9F2371500808545130521
:101A6000058005B793072007639EF40093073007AE
:101A7000E31BF9F0370701405C4FB7064000D58FF4
:101A80005CCF11B793074007639CF400930750079E
:101A9000E31BF9EE370701405C4FB7068000C5B77E
:101AA00093072008E391F4EE93073008E31DF9EC67
:101AB000370701405C4FB7060002D1B7854763186E
:101AC000F400854537050200EF001021D9B589479C
:101AD0006316F400854537050400FDB78D4763168E
:101AE000F400854537050800C5B791476316F40033
:101AF000854537051000C9BF95476316F400854535
:101B000013050004D1B799476316F4008545130502
:101B100000085DBF9D47E31EF4E6854513050010F0
:101B200065B78547631AF50093060031054685457C
:101B3000130520086FF08FB189476319F5009306EC
:101B400000310546854513053008EDB78280B7079B
:101B5000002019679387472B130707823E971308C6
:101B6000C00B3E8681458346060085050506B336D3
:101B7000D50093C61600A30FD6FEE39605FF938704
:101B8000C70BE390E7FE828001114EC803A8018EC7
:101B900083A9819F37050020B707002022CE26CCDD
:101BA0004ACA52C656C45AC25EC01305451113072D
:101BB0008007930240F49387472B9303A00B85453E
:101BC0009308C00B894F938E01971304C0FB138FAA
:101BD000818E8D44B306570203460500328993C6B1
:101BE000F6FFB296BE9663ED230383CA160003CABE
:101BF0000600930BF9FF130B1900630B5A0503CA78
:101C0000260063175A056315BA04B3061703CA8979
:101C1000BE96DE962380F601B306D7012380260107
:101C20004E8963980900B306D70123808600130903
:101C3000C00BB3061703B296BE9663EEC5006317DA
:101C40000804B306E7012380060089A0014859B7BC
:101C500085065A8949BF03CA060083C91600130BBB
:101C60001600930AF6FF6385490F83C9F6FF639157
:101C7000490F639FB90CB30617033288BE96DA96F4
:101C80002380F601B306E7012380C600330617035D
:101C9000B306090185823E9636968349F6FF639620
:101CA000B900034616006308B600330617033E96D4
:101CB000369623009600A300D5007D1705058149BF
:101CC000E316B7F82388019E23A4D19E23A601978B
:101CD00023ACD18C23A6219F238101961387818E6B
:101CE0008346470613870197034547061567130781
:101CF0000797369723AC019E23A0018E3E9713864B
:101D000001979385818E154863E7A60483C6050570
:101D10001167130707AC0345060536973E9715482C
:101D200063E2A60403C7C5038D66938606C1034616
:101D3000C603BA96B6979546636DC7027244E244ED
:101D40005249C249324AA24A124B824B05618280F3
:101D5000FD165686DDB585062300070193F6F60FBE
:101D600005075DB785062300070193F6F60F050703
:101D700045BF05072380D7001377F70F85076DBF91
:101D8000370800201303481183C611968347430187
:101D9000130848111387018463F4D70CBDC7834827
:101DA0008302638F080A338816418348C303B387CD
:101DB000F64023A0F184B3861641C297B69723223A
:101DC000070114C7032807015447C2960328470197
:101DD000C29603C8418DB386D740B386060303C8B5
:101DE000119FB307F802096813080871B69783A614
:101DF000C18D8583B388D70063731801C28823A27D
:101E0000119763FAF60423AC018483A6818583A726
:101E1000419633E8F6006310080C83A7C18D23AC0C
:101E2000F18423A2F19603A88185F9779387078F20
:101E3000C29783A64196CDE7C5E683A7C18D23ACA3
:101E4000F18423A2F19683A701845CC75C431CCB79
:101E50001C475CCB8280B387F64023ACF18475B716
:101E6000E3F5F6FA834888020348C803958FB388E0
:101E7000D84023A0F184B306D840C697B69703286C
:101E8000070114C7544723221701C29603284701AC
:101E9000C29603C8418DB386D740B386060303C8F4
:101EA000119FB307F802096813080871B69783A653
:101EB000C18D8583B388D70063731801C28823ACB2
:101EC000118563F5F60023A2019681B7B387F6402A
:101ED00023A2F1961DBF23AAD19E23A2F18EA1B702
:101EE000E31308F6F9779387078FBE96B9D6A1BF9B
:101EF000411106C6EFF0CF85EFE0DFCFEFE01FD84E
:101F00000145EFE0BF860545EFE05F860545B92056
:101F10000945A9200D4599201145892015453D28E1
:101F200019452D280945EFE0DFE80D45EFE07FE892
:101F30001145EFE01FE81545EFE0BFE71945EFE079
:101F40005FE70545EFF0FFBD0945EFF09FBDEFE00E
:101F50007FC67128B24041016FE07FFF411122C46A
:101F600006C685472A846314F50293068034054625
:101F7000814513050004EFE07FED99476315F406F2
:101F800093068034054681451305500425A08947F2
:101F90006319F50093068034054681451305100446
:101FA000D9BF8D47631DF5009306803405468145F2
:101FB000130520042244B24041016FE03FE99147FC
:101FC0006319F500930680340546814513053004F6
:101FD000D5B79547E313F5FA930680340546814556
:101FE00013054004C1BFB2402244410182809306E0
:101FF0008004054681451305A0066FE03FE501A07A
:1020000001A001A001A001A001A001A001A001A0C8
:1020100001A001A001A001A001A001A001A001A0B8
:1020200001A001A001A001A001A001A001A001A0A8
:1020300001A001A001A001A001A001A001A001A098
:1020400001A001A001A001A001A001A001A001A088
:1020500001A001A001A001A001A001A001A001A078
:1020600001A001A001A001A001A001A001A001A068
:1020700001A001A001A001A001A001A001A001A058
:1020800001A001A001A001A001A001A001A001A048
:1020900001A001A001A001A001A001A001A001A038
:1020A00001A001A001A001A001A001A001A001A028
:1020B00001A001A001A001A001A001A07390123411
:1020C00097E1FF1F9381817F17610020130181F346
:1020D000172500001305857497E5FF1F938585F28A
:1020E0001386018263FAC5008322050023A05500F0
:1020F00011059105E3EAC5FE13850182974500208D
:10210000938545B46377B500232005001105E36D81
:10211000B5FEFD42739002BCFD4273904280B782CF
:1021200000009382828873A0023097E2FFFF9382BF
:10213000E2F093E2320073905230EF10601497E2B5
:10214000FFFF938242597390123473002030411183
:10215000B727014006C693870740631CF5008545F5
:1021600013050020492E814513050020B24041018E
:1021700059A6B737014093870780631AF500854554
:10218000130500408D2E814513050040C5B7B240B0
:10219000410182805C413707F1E01307F7EF944D6E
:1021A0007D8F9C41D58FD44DD58FD441A206D58F3C
:1021B000D98F5CC11C4537F7F1FF1307D77FD44592
:1021C0007D8F9C49D58F94458606D58FD98F1CC5A8
:1021D0005C55370710FF7D177D8F83C74501FD17BD
:1021E00093F7F70FD207D98F5CD582801C4589C53C
:1021F00093E717001CC58280F99BEDBF1C4593E750
:1022000087001CC5828008450D81058982801C4598
:1022100093E747001CC582800845098105898280B3
:10222000B70701401387074083A70740584B698FC2
:1022300009C77D8D3335A000828001458280B707B4
:10224000014023AAA74082809C4513F7070113F899
:10225000F70001C7D8413368E80083D5050013F7BC
:10226000F50F39C318418146854E3D4F930F8002CB
:1022700093028004214E3396DE00B3F8C50063114B
:1022800016039398260033131F011343F3FF33778C
:10229000E300B318180133E7E800639FF70550C95E
:1022A0008506E39AC6FD18C11307F00F6375B704DE
:1022B00054412146854E3D4F930F80029302800486
:1022C000414EB398CE0033F715016392E80213171D
:1022D000260001173313EF001343F3FFB376D30047
:1022E0003317E800D98E639DF701232A15010506EF
:1022F000E319C6FD54C18280E39457FA10C94DB763
:10230000E39757FE23281501DDB719C20CC9828057
:102310004CC98280B707014063550504D44FB70705
:102320003000131705013376F5004183631DF60273
:10233000370600F17D1637080140B3F7C600832643
:102340004800758E2322C80099C593565501920600
:102350003317D700D98F37070140635E05025CCF82
:102360008280D4436DBF9317B50063D007029357A3
:10237000050113F6F7008D47B397C70093C7F7FF22
:10238000F58FB706000FD58FC1B793575501920748
:10239000B317F700E5B75CC38280B7160240DC4292
:1023A00051777D17F98F5D8DC8C282803717024043
:1023B0005C439146B18B6385D700A1466386D706FF
:1023C000B7177A00938707201CC1371602405C427A
:1023D00037070020130707009183BD8BBA9783C688
:1023E00007001C41B3D7D7005CC15442A1829D8A2B
:1023F000BA9683C60600B3D6D70014C55442AD8240
:102400009D8A369703470700B3D7E7005CC558425B
:102410003983937637001387418036970347070047
:10242000B3D7E7021CC982805C4354434167C98328
:10243000F98E37F7FF1F0327C770BD8B8907131667
:10244000170163480600454601476392C702C94722
:1024500039A809476389E7023D476388E702414796
:102460006388E702454601476393C700C14785E695
:10247000B746024083A60680C18A8DC6B7167A0089
:102480009386062025A00147D9B70547B547C5B7AC
:102490000147BD47E9BFB7160240D4421396E60094
:1024A000E35E06FCB7163D0093860690B387D7021D
:1024B0001CC101DF1C41858301BF99C5371702404C
:1024C0001C4F5D8D08CF8280B7170240984F13458F
:1024D000F5FF798D88CF828099C5371702405C4F10
:1024E0005D8D48CF8280B7170240D84F1345F5FF66
:1024F000798DC8CF828099C5371702405C475D8DC2
:1025000048C78280B7170240D8471345F5FF798D39
:10251000C8C782808357050037370140930607C03C
:10252000C207C1836300D504B7060040630CD5021F
:10253000938606406308D502B716004013860680CE
:102540006302C502938606C0630ED50013070740D9
:10255000630AE50037570140930607C06304D500BE
:102560006317E50003D7250093F7F7F8D98F3717DE
:102570000040630DE500130707406309E50093F78A
:10258000F7CF03D76500C207C183D98F2310F500A9
:1025900083D745002316F50283D705002314F502DF
:1025A000B7370140138707C0630EE50093870740E4
:1025B000630AF500B7570140138707C06304E500BD
:1025C0006316F50083C785002318F5028547231A93
:1025D000F50082808357050203D6050003D8250045
:1025E000C207C183F99BC207C1832310F502835739
:1025F00005028356450003578501C207C183420780
:1026000041831377C7F8518F03D68500F59BC20627
:1026100033660601D18F37360140130806C0C182E8
:10262000630E050113060640630AC50037560140D4
:10263000130806C0630405016313C50203D6A50091
:10264000DD9B03D8E500D18F03D64500ED9B93F6C3
:10265000F6CFD18F03D6C50033660601D18E231283
:10266000D500231CE50003D76500231AE5022310DB
:10267000F50282808357050265771307F7CFC207FB
:10268000C183BD9BC207C1832310F5028357050296
:102690008356450003D88500C2071396060183566A
:1026A0008501C18393F7F7FD758F83D605004182BD
:1026B000A206558F83D6250042074183B3E6060163
:1026C0009206D58FB7360140C207138806C0C18372
:1026D000630E050193860640630AD500B756014094
:1026E000138806C0630405016311D50483D6A500D1
:1026F00093F7F7F703D8C5009206D58F83D6450028
:10270000C207C183920693F7F7FBD58FFD769386B8
:10271000F63FF18E03D6E500C207C183336606019A
:102720000A06D18E1396060141822312C500231C8E
:10273000E50003D76500231CE5022310F502828023
:102740008357050203D88500C207C18393F7F7EFCB
:10275000C207C1832310F502835705028356450043
:102760000357C501C20713960601420783D6050029
:1027700041831377C7F8558F83D62500C18393F71C
:10278000F7DFB3E60601A206D58FB7360140C207D0
:10279000138806C04182C183630E050193860640FB
:1027A000630AD500B7560140138806C063040501CB
:1027B0006312D504FD769386F67FF58F83D6A50048
:1027C00003D8C500A206D58F83D64500C207C183B2
:1027D000A20693F7F7BFD58FF576FD16F18E03D6D7
:1027E000E500C207C183336606011206D18E139637
:1027F000060141822312C500231EE50003D76500B0
:10280000231EE5022310F502828003570502FD779F
:10281000FD17F98F2310F502035805028356450072
:102820008357C50165771396060183D60500130704
:10283000F7CF7D8FF977A206FD17558FB3F7070104
:1028400083D6250003D8850042074182B3E60601FE
:10285000B206D58FB7360140C207138806C0418340
:10286000C183630E050193860640630AD500B756FF
:102870000140138806C063040501631CD500F1768E
:10288000FD16F18E03D6C5001A06D18E13960601E9
:1028900041822312C500231EE50003D765002310E3
:1028A000E5042310F50282808357050091C593E764
:1028B00017002310F5008280C207C183F99BC2076D
:1028C000C183C5BF8357450491C52167D98F2312A2
:1028D000F5048280C607C583DDBF83578501C20723
:1028E000C183DD9BDD8D231CB500828003578501EC
:1028F000FD779387F77FF98FA205CD8FC207C1833C
:10290000231CF50082808357C501C207C183DD9B6C
:10291000DD8D231EB50082800357C501FD779387A7
:10292000F77FF98FA205CD8FC207C183231EF50063
:10293000828003570502F977FD17F98FB205CD8F15
:10294000C207C1832310F50282802312B502828060
:10295000035505016D8D3335A000828093C5F5FFC9
:10296000C205C1812318B500828083570501035534
:10297000C500ED8F4205418189C76D8D3335A000BB
:1029800082800145828093C5F5FFC205C18123186D
:10299000B500828083560501F577FD17F58F83D644
:1029A0006500397122DC06DED58F03D7C5002318F8
:1029B000F5008356C500FD779387379FF58F83D643
:1029C00045002A842EC6D58F83D68500D58F83D621
:1029D000A500D58F2316F50083574501C207C18393
:1029E00093F7F7CFD98F231AF5006808EFF01F9CF3
:1029F000B747014093870780B245631EF404A2578E
:102A00008356C4006547B387E702C206C186984172
:102A100063D5060406070356C4004206B3D7E7028F
:102A2000130740064186B3D6E702B3F7E7029206E2
:102A3000635706028E0793872703B3D7E70213F77E
:102A40007700B367D700C207C1832314F400F250A4
:102A5000625421618280925765B70A076DBF920761
:102A600093872703B3D7E702BD8BD58FE9BF81C911
:102A70008357C5000967D98F2316F5008280035755
:102A8000C500F977FD17F98FC5BF93F5F51F231220
:102A9000B5008280035505006D8D3335A00082801E
:102AA00013F7F50F85461583B397B6006313D70266
:102AB0000357C500F98F03570500014542074183BD
:102AC00081CB0545A181B315B5006D8F3335E0008D
:102AD000828089466315D70003570501E1BF03577C
:102AE0004501C9BFA1818547B397B70093C7F7FFD9
:102AF000C207C1832310F5008280B7070050239AD4
:102B0000A70203C767031377C70F238BE7028280EF
:102B1000B7070050239CA70203C7A7031377C70F6B
:102B2000238DE702828081473766002013F7F70F75
:102B30006363A700D9B7032786C33E978346070080
:102B4000850793C6F6FF2300D704CDB781473766C4
:102B5000002013F7F70F6363A7005DBF032746B696
:102B60003E9783460700850793C6F6FF2300D704E8
:102B7000CDB7B707005003C767001377F70F9376F9
:102B80002700638E066A011122CE26CC4ACA4EC89F
:102B900052C656C403C77700930600021377070393
:102BA0006309D74E130600036301C70463120724A9
:102BB00003C7770005461377F7036300C76663060C
:102BC000075C89466316D72203C77700137707048B
:102BD0006300072203C7B70313474700A38DE7022B
:102BE00088471375F50F9D3721A419472389E702FC
:102BF0001147A389E702B767002083A487B637642B
:102C0000002083C7740003C76400A207D98F231E66
:102C1000F4B403C71400B7670020238FE7B403CAD6
:102C2000040013770A06630E070E03C7E7B5137790
:102C3000070219CF83C7E7B51307100293F7F70F01
:102C4000638AE700130720026384E700639BD718B9
:102C5000014999A093878180B769002023A0F9B624
:102C60008357C4B51D4721496366F7000359C4B5AE
:102C70001379F90F4A869385818026851D2783570E
:102C8000C4B5B3872741C207C183231EF4B483A709
:102C900009B6CA9723A0F9B68357C4B54209135998
:102CA00009016374F900231E24B59387018303D7B8
:102CB00007009D46A14463E6E60083D4070093F431
:102CC000F40FB769002003A909B6376500202686EE
:102CD000CA851305C5BECA94E92523A099B6620A20
:102CE000135A8A41814763520A020357C4B5A14768
:102CF00063E6E7008357C4B593F7F70F0357C4B5EE
:102D00001D8F42074183231EE4B4C20737070050DA
:102D1000C1832318F70291472309F702A309F70299
:102D2000C1A883C7E7B52D4793F7F70F636BF70A81
:102D300011678A071307C765BA979C43828783C7C1
:102D4000340003C724008D46A207D98F13D787000C
:102D5000B76900206305D70C63ECE6008547630B79
:102D6000F70289476304F70A1309F00F814715A892
:102D70009D476308F71093072002630CF70E9947ED
:102D8000E314F7FE91679387C77223A0F9B6014950
:102D9000A94701A891679387076D23A0F9B6014958
:102DA000C9470357C4B5C207C18363F4E700231EB4
:102DB000F4B48357C4B51D47A14A6366F700835A2C
:102DC000C4B593FAFA0F83A509B656862685D12B8A
:102DD00083A709B6BE9A23A059B79307F00FE31053
:102DE000F9F0B70700501D472389E702A389E702DE
:102DF000B707005009472383E7007244E244524971
:102E0000C249324AA24A0561730020309167938714
:102E1000C76823A0F9B601499307300459B793F75F
:102E2000F70F85466387D70291CF8946638BD70218
:102E3000E39CE7F291679387477123A0F9B60149B4
:102E4000D94785B79387818123A0F9B60149914776
:102E500089BF91679387476E23A0F9B60149B947A7
:102E600089B791679387476F23A0F9B60149B147A6
:102E70000DBF91679387077023A0F9B60149D14729
:102E80000DB783C7F18093F7F70FE39F07EC37097E
:102E90000020130909019165130610049385E56864
:102EA00013052900FD2923A029B7B5B783C724003E
:102EB000231EF4B42DB5B767002083C787AD2380E8
:102EC000F4000357C4B58547E3E4E7FE09BD03C733
:102ED0002400B7670020238CE7AC11B51377FA0103
:102EE0008947E310F7F083C744006383E704636E08
:102EF000F7000547E397E7EE37070050834777036E
:102F000093F7870FA30BF702D9BB13071008638A47
:102F1000E70213072008E396E7EC370700508347E2
:102F2000A70393F7870F93E72700230DF70245BB0D
:102F3000370700508347B70393F7870FA30DF702B6
:102F400079BB370700508347670393F7870F93E7F1
:102F50002700230BF70261B3B767002003C7C7BE82
:102F60007D8B19EB9387C7BE83D727000547E39A6C
:102F7000E7E62389F182A5B38946E314D7E6938770
:102F8000C7BE83D62700E39E06E483C74700638558
:102F9000E7046360F7020547E395E7E4370700506D
:102FA0008347770393F7C70FA30BF70293E7370025
:102FB00091BF13071008638CE70213072008E39200
:102FC000E7E2370700508347A70393F7C70F230DA6
:102FD000F70293E7370091BF370700508347B703E5
:102FE00093F7C70FA30DF70293E7370081BF3707A9
:102FF00000508347670393F7C70F230BF70293E74C
:10300000370081BF238004006DBDB7670020238691
:1030100007BE9387018383D607000547E371D7CCAA
:103020002390E7006DB9B76700201387C7BE035729
:103030004700239607BE930610086313D70237078D
:103040000050034767030D8B8D466315D700054776
:103050002386E7BE9387018383D6070009477DBF98
:1030600085466317D7003707005003477703E1BF52
:10307000930620086317D700370700500347A703BC
:10308000D9B78946E318D7FC370700500347B70381
:103090005DBF83C677001306100293F6F603638ABA
:1030A000C60A130620026383C60CE393E6D437678F
:1030B00000200347E7B595461377F70F6305D7065A
:1030C00099466315D708B764002083D7C4B51D4758
:1030D00021446366F70003D4C4B51374F40F376951
:1030E0000020B767002003A587B6832509B622868E
:1030F0004D2C83D7C4B5131704014183998FC207A0
:10310000C183239EF4B4832709B63E94232089B655
:10311000B70700502398E70203C727031347470068
:103120002389E702F1B103C73700B766002083D6D1
:10313000C6B513770708558F1377F70FA381E700FC
:1031400009472389E702A38907025DB12398070293
:10315000C5BF03C767031377C70F238BE70203C7F6
:10316000670313474700238BE70259B103C7A7033F
:1031700013474700238DE70203C7A7031377C70F41
:1031800013672700238DE702A5B1B767002083C727
:10319000E7B56395F60437640020832784B683C6B9
:1031A000170003C70700558F83C62700558F83C6B6
:1031B0003700558F05CB83C5170003C70700374578
:1031C0000000A205D98D03C72700130585734207A8
:1031D0004D8F93958601D98DEF00F013B7070050FE
:1031E0009C4739B183C567003745000013058574D6
:1031F000EF007012832784B63745000013058575EC
:1032000083C54700EF003011832784B6374500009F
:103210001305857683C55700C1B703C777001377B9
:103220000704E30707BC03C7770313474700A38BD3
:10323000E70288471375F50FEFF0FF8E55BE9376C2
:10324000170085CAA3810700A3890702A38B070281
:10325000A38D070209472389E702238BE702238D09
:10326000E70203C76700136717002383E7007300B3
:10327000203093764700F5DA03C757001147F5B7BA
:10328000B71702409843B706FFF8411113671700BC
:1032900098C3D84337060200758FD8C39843B70642
:1032A000F7FEFD16758F98C39843B706FCFFFD1611
:1032B000758F98C3D843B70681FFFD16758FD8C3A5
:1032C00037079F0098C702C402C69843C166558F4E
:1032D00098C3B7160240130700509C42F18F3EC6B8
:1032E000A24785073EC4B24781E7A247E397E7FEBE
:1032F000B71702409C431397E7006350070A8547BE
:103300003EC6324785476318F708B72702409843FF
:10331000B706C1FFFD161367070198C39843719B59
:1033200098C398431367270098C3B7170240D84340
:10333000D8C3D843D8C3D84313670740D8C3D843AA
:10334000758FD8C337F7FF1F0327C7709316170170
:10335000D84363C60604B7063D00558FD8C3371758
:1033600002401C43B7060001D58F1CC3B7170240AB
:10337000984393166700E3DD06FED843B716024074
:10338000719BD8C3D84313672700D8C32147DC42B9
:10339000B18BE39EE7FE4101828002C69DB7C16604
:1033A0006DBFB3C7A5008D8B3307C50081E78D477F
:1033B00063EEC700AA876370E50A83C60500850728
:1033C0008505A38FD7FEE3EAE7FE8280937635007A
:1033D000AA8791CA83C6050085078505A38FD7FEF6
:1033E00093F63700FDB79376C7FF138606FE63F0AA
:1033F000C70683A3050083A2450083AF850003AF02
:10340000C50083AE050103AE450103A3850183A872
:10341000C5019385450223A0770003A8C5FF23A219
:10342000570023A4F70123A6E70123A8D70123AA65
:10343000C70123AC670023AE17019387470223AE71
:1034400007FF75B790419107910523AEC7FEE3EBE7
:10345000D7FEE3E4E7F682801C46FD171CC663D95D
:103460000700184E63C5E700A9476393F500E5A57B
:103470001C422E851387170018C22380B700828054
:10348000011122CC26CA4AC84EC652C406CE2A8989
:10349000AE893284B304D6007D5A6314940001458A
:1034A00009A8834504004E864A857D370504E31646
:1034B00045FFF2406244D2444249B249224A056182
:1034C0008280357122CD26CB4AC94EC706CF52C560
:1034D00056C35AC1DEDEE2DCE6DAAA89AE8432895E
:1034E000368409C51C4D99E3EF0050299717000059
:1034F0009387C72E639CF40C83A4490083D7C40030
:10350000A18BFDC79C48EDC793070002A304F102FD
:103510009307000302D22305F10222C6930B500247
:10352000971A0000938ACA25054C294B4A84834781
:10353000040099C36390770FB30C2441638D0C0092
:10354000E6864A86A6854E85253FFD576308F51E0B
:103550009256E69636D2834704006381071EFD57D4
:103560001309140002C802CE3ECA02CCA30901040A
:1035700082D48345090015465685EF005046130452
:103580001900C24751E913F7070109C713070002E1
:10359000A309E10413F7870009C71307B002A309C1
:1035A000E104834609001307A002638FE606F24791
:1035B0004A848146254603470400930514001307F7
:1035C00007FD6378E60AADCA3ECEBDA0971700009E
:1035D0009387C7226395F40083A4890005B79717E2
:1035E00000009387A71DE39BF4F083A4C90039B7BB
:1035F000A6854E850D2509D97D55FA406A44DA44E1
:103600004A49BA492A4A9A4A0A4BF65B665CD65C32
:103610000D618280050421BF330555413315AC008F
:10362000C98F3EC82289B1B7324793064700184375
:1036300036C6634907023ACE034704009307E00207
:10364000631FF704034714009307A002631BF702EC
:10365000B2470904138747009C433AC663C1070277
:103660003ECA35A83307E04093E727003ACE3EC86C
:10367000E1B7B387670385462E84BA972DBFFD5700
:10368000C5B7050402CA81468147254603470400A1
:1036900093051400130707FD6378E606F1F28345EE
:1036A00004000D46171500001305050EEF0030331A
:1036B00011CD971700009387270D1D8D93070004E8
:1036C000B397A700424505045D8D2AC883450400D1
:1036D0001946171500001305650B13091400230480
:1036E000B102EF00D02F3DC197D7FFFF938787919D
:1036F00095E74247B2471377071009CF91073EC6B7
:103700009257D2973ED21DB5B387670385462E8464
:10371000BA97ADBF9D07E19BA107D5B77800970683
:103720000000938626D626860C084E85970000005A
:10373000E7000000FD572A8AE314F5FC83D7C40094
:1037400093F70704E39A07EA125545BD78009706F8
:103750000000938626D326860C084E85012AD9BF01
:10376000797156CA9C49BA8A984522D426D24ECE3F
:1037700052CC06D64AD05AC85EC6AA892E84B284D4
:10378000368A63D3E700BA879CC00347340419C361
:1037900085079CC01C4093F7070281C79C4089079E
:1037A0009CC00329040013796900631A0900130BF4
:1037B0009401FD5B5C449840998F634CF9041C4074
:1037C0008346340493F70702B336D000A5EB130603
:1037D0003404D2854E85829AFD576303F5041C405C
:1037E00011469840998B544481446397C700B38431
:1037F000E64063D3040081441C4418486354F70036
:10380000998FBE94014969047D5B63982405014545
:1038100009A885465A86D2854E85829A631E75010F
:103820007D55B250225492540259F249624AD24A0A
:10383000424BB24B456182800509ADBF3307D400CE
:1038400013060003A301C70403475404938716001B
:10385000A2978906A381E7049DBF85462286D2856B
:103860004E85829AE30E65FB050945B7797122D42E
:1038700026D24AD04ECE06D652CC56CA5AC8B6899F
:1038800083C68501930790063289AA842E84138605
:103890003504638DF60263E2D706930780056388DB
:1038A000F61863EDD7006381062293073004638F17
:1038B000F60A930A24042301D404D1A09307300606
:1038C0006386F60A93074006E395F6FE1C4008431C
:1038D00093F6070893054500CDC61C410CC363D879
:1038E00007001307D002B307F040A301E4049716C2
:1038F0000000938626EA294775A89307000763848A
:10390000F61663E5D7029307E006638BF618930774
:10391000F006E390F6FA0C401C4313F805081385F3
:1039200047006308080608C39C4395A893075007FF
:10393000E383F6FE93078007638BF6129307300745
:10394000E399F6F61C43D04181459386470014C3A2
:1039500083AA07005685EF00900801C5330555413D
:1039600048C05C401CC8A301040471A81C43930A0E
:103970002404938647009C4314C32301F404854721
:10398000D5B793F607041C410CC3B1DAC207C1874F
:10399000B9B793F5050408C3C1D983D70700130746
:1039A000F0066387E60E971600009386A6DE294789
:1039B000A30104044C400CC463C5050008406D9984
:1039C00008C099E3B28A91CDB28AB3F5E702FD1A35
:1039D000B69583C505002380BA00B3D5E70263FF1F
:1039E000E70AA147631EF7001C40858B91CB584026
:1039F0001C4863C7E70093070003A38FFAFEFD1A74
:103A00003306564110C84E87CA867000A2852685A7
:103A1000813B7D5A631E450B7D55B2502254925412
:103A20000259F249624AD24A424B45618280A382DE
:103A3000D504971600009386E6D50C40084313F88A
:103A400005081C411105630D080208C313F7150092
:103A500001C793E505020CC04147B9FB0C4093F543
:103A6000F5FD0CC0B1B79C4193E707029CC19307D9
:103A70008007A302F404971600009386E6D275BF70
:103A800013F8050408C3E30308FCC207C1837DBF24
:103A900097160000938606D0214719BFAE8735B729
:103AA00094411C43CC4913F806081385470063066C
:103AB000080008C39C438CC301A808C393F60604FE
:103AC0009C43F5DA2390B70023280400B28A25BF6F
:103AD00014485686CA8526858299E30F45F31C4013
:103AE000898B8DE7B2474844E359F5F23E8535B7F7
:103AF00085465686CA8526858299E30F65F1050AB3
:103B00005C443247998FE345FAFEE9BF014A930AC4
:103B100094017D5BF5B739713EDA2ED232D436D6B8
:103B20003AD842DC46DE9387418122CC804326CAC4
:103B300006CEAA8409C41C4C99E3228581210C4439
:103B400054102686228536C6EFF0BF97F2406244B5
:103B5000D24421618280011122CC26CA4AC806CEF5
:103B60004EC6AA842E89328401C51C4D91E33921A9
:103B700097170000938787C66319F406C0401C4C52
:103B80001CC48357C400A18BC9C31C48BDCF1C48AB
:103B900008409379F90F1379F90F1D8D5C4863463E
:103BA000F500A2852685652C2DE51C440505FD172D
:103BB0001CC41C401387170018C0238037015C48C1
:103BC0006389A7008357C400858B81CBA9476316FF
:103BD000F900A285268561240DEDF24062444A85F4
:103BE000D2444249B2490561828097170000938709
:103BF000E7C06314F400804459B797170000938717
:103C0000E7BBE31EF4F6C0449DBFA28526852120B4
:103C10003DDD7D59D9B741119387418126C2844347
:103C200022C44AC006C62A892E8489C49C4C99E3C2
:103C30002685A92697170000938747BA631CF402CC
:103C4000C0400317C40093170701C18393F6870090
:103C5000B5EE93F607019DEEA5472320F900136703
:103C600007042316E4007D55B240224492440249E1
:103C70004101828097170000938747B86314F400CE
:103C80008044C1B797170000938747B3E31BF4FA4A
:103C9000C04445BF918B8DC74C5889C993074404D4
:103CA0006384F5004A85892B232A04028357C400C4
:103CB0002322040093F7B7FD2316F4001C481CC010
:103CC0008357C40093E787002316F4001C4881EF54
:103CD0008357C4001307002093F707286385E70084
:103CE000A2854A85B9298357C40013F7170005C771
:103CF0005C4823240400B307F0401CCC1C48014559
:103D0000A5F78317C40013F7070839DF93E7070403
:103D10002316F40089BF898B014791E3584818C4E2
:103D2000F1BF83D7C500011122CC26CA06CE4AC8EE
:103D30004EC613F78700AA842E8471EFD841634DD5
:103D4000E000B841634AE0000145F2406244D244D9
:103D50004249B2490561828058547DD703A90400C5
:103D60009396370123A0040063DD0606704883574D
:103D7000C400918B99C75C401D8E5C5899C33C4030
:103D80001D8E5C540C50814626858297FD57035743
:103D9000C400631DF5009440F54763E8D706B707F4
:103DA00040208507B3D7D700858BA5C31C482322A5
:103DB00004001CC09317370163D80700FD57631434
:103DC000F5009C4091E368C84C5823A02401ADDD68
:103DD000930744046384F50026853929232A0402C5
:103DE000A5B70C500146854626850297FD572A86C1
:103DF000E31FF5F69C40A5DF75476385E70059474B
:103E00006394E70423A0240181B7136707042316F2
:103E1000E4007D551DBF83A90501E38709F203A9CD
:103E200005008D8B23A0350133093941014791E30A
:103E3000D84918C4E35A20F11C540C50CA864E8647
:103E4000268582976349A0008357C40093E707043F
:103E50002316F4007DBFAA993309A940E1BF9C490C
:103E6000B9CF011122CC06CE2A8411C51C4D81E7A1
:103E70002EC62922B2459717000093872796639B89
:103E8000F5004C408397C50095C722856244F240F7
:103E9000056141BD97170000938747966394F5002D
:103EA0000C44CDB79717000093874791E39CF5FC2E
:103EB0004C44C9BFF240624401450561828001451E
:103EC0008280411122C406C62A842316B500231716
:103ED000C5002320050023220500232405002322FA
:103EE000050623280500232A0500232C050021466A
:103EF00081451305C505EFC0AFB097070000938754
:103F0000074A5CD0970700009387674C1CD497073B
:103F100000009387A7505CD49707000093876753EE
:103F200000D01CD8B2402244410182809705000095
:103F3000938525F3A9A2411126C213068006938416
:103F4000F5FFB384C4024AC02E8922C406C69385F5
:103F50004407A9262A8401CD232005002322250118
:103F6000310508C4138684068145EFC06FA92285F8
:103F7000B240224492440249410182801C4DADE38B
:103F8000411106C622C497070000938767FA1CD523
:103F90009387C1819C4323240504232605042328F9
:103FA00005046314F50085471CCD2A841D2848C0EC
:103FB0002285052808C422852D2048C44840014692
:103FC0009145013708440546A545E53D4844094665
:103FD000C945C53D85471CCCB24022444101828081
:103FE000828041119387C18126C284434AC006C69C
:103FF0009C4C22C42A8999E32685493793848404FA
:104000008044DC40FD1763D607009C40B9CF844054
:10401000C5BF0317C40039E7C1778507232204060B
:104020002320040023220400232404005CC423284A
:104030000400232A0400232C040021468145130593
:10404000C405EFC0EF9B232A0402232C040223247F
:104050000404232604042285B240224492440249E7
:10406000410182801304840671BF91454A85E13580
:1040700088C051FDB1472320F9000144E9BF79719F
:1040800022D44AD052CC56CA5AC85EC606D626D2C8
:104090004ECE2A8AAE8A130485040149054BFD5B86
:1040A00009ECB25022544A8592540259F249624AAC
:1040B000D24A424BB24B456182800444832944007A
:1040C000FD1963D409000040E1BF83D7C400637BBE
:1040D000FB008397E40063877701A6855285829A67
:1040E0003369A90093848406E1BF1971A6DAAE840E
:1040F0008395E500A2DC86DE328463DC050083D78D
:10410000C40023A0060093F707089DE3930700402F
:1041100015A0300836C65526B246E34205FE724762
:10412000BD67F98F7977BA9793B717009CC2F9BF2B
:10413000930700041CC0F6506654D654014509612B
:10414000828083D7C500011122CC06CE26CA4AC878
:10415000898B2E8489CF930774041CC01CC88547A3
:104160005CC8F2406244D2444249056182807400D6
:104170003000AA849D3FA2452A892685052201EDAB
:104180008317C40013F7072069FFF19B93E727000B
:104190002316F400C9B797070000938767D99CD40A
:1041A0008357C40008C008C893E707082316F40023
:1041B000A2475CC8B24789CF8315E40026853D2617
:1041C00001C98357C400F19B93E717002316F4003D
:1041D0008357C4003369F9002316240159B793F5B6
:1041E000F50F2A966314C5000145828083470500B8
:1041F000E38DB7FE0505FDB7CDC183A7C5FF41110E
:1042000022C406C626C21384C5FF63D307003E94AA
:10421000AA843D2E938741839C4399EB232204007B
:1042200023AA81822244B24026859244410115A6E8
:10423000637EF40014403307D4006396E70098438C
:10424000DC43369718C05CC0E1BFBA87D84319C3B6
:10425000E37DE4FE94433386D700631F860010405D
:10426000B29694C33386D700E31EC7FA104358436F
:10427000B29694C3D8C37DB76375C400B1479CC0E0
:1042800055B71040B306C4006316D7001443584313
:10429000B29614C058C0C0C371B78280011126CA3B
:1042A00093843500F19806CE22CC4AC84EC6A104AC
:1042B000B14763F1F404B14463E0B4042A89492CA2
:1042C0009387418398433A8431E0938781839C4369
:1042D00091E781454A85512823ACA182A6854A856C
:1042E0006920FD5963173507B1472320F9004A8536
:1042F0008D2429A0E3D204FCB1471CC10145F24042
:104300006244D2444249B249056182801C40858F93
:1043100063CE0702AD4663F6F6001CC03E9404C0AF
:1043200031A05C406312870223AAF1824A851524DA
:104330001305B4009307440061993307F54061D336
:104340003A94898F1CC065BF5CC3CDB722874040BB
:10435000A5BF130435007198E30385FCB305A440A1
:104360004A852120E31D35FB41B7411122C42A842F
:104370002E859727002023A5078C06C6B12CFD5754
:104380006319F500972700209387878B9C4391C37F
:104390001CC0B240224441018280411122C42E84BB
:1043A0008395E50006C67D22634905007C48AA97EF
:1043B0007CC8B2402244410182808357C4007D778B
:1043C0007D17F98F2316F400EDB783D7C5000111CF
:1043D00022CC26CA4AC84EC606CE93F70710AA8436
:1043E0002E843289B68991C78395E50089460146B6
:1043F00035228357C4007D777D17F98F2316F4008B
:104400008315E4006244F240CE864A86B2494249AE
:104410002685D24405613DA8411122C42E8483958E
:10442000E50006C6E528FD570357C400631BF500E9
:10443000FD77FD17F98F2316F400B24022444101A5
:1044400082808567D98F2316F40068C8FDB78395ED
:10445000E50025A8411122C42A842E85B28536861E
:104460009717002023AE077C06C6EFC02FFCFD5730
:104470006319F500971700209387877C9C4391C3AD
:104480001CC0B240224441018280411122C42A84CE
:104490002E859717002023A5077A06C6F520FD571D
:1044A0006319F50097170020938787799C4391C380
:1044B0001CC0B240224441018280411122C42A849E
:1044C0002E85B2859717002023AC077606C6E92013
:1044D000FD576319F50097170020938767769C4373
:1044E00091C31CC0B240224441018280411122C4C8
:1044F0002A842E859717002023A4077406C66D20F2
:10450000FD576319F50097170020938767739C4345
:1045100091C31CC0B240224441018280411122C497
:104520002A842E85B28536869717002023AA077025
:1045300006C65920FD576319F50097170020938789
:1045400027709C4391C31CC0B24022444101828029
:1045500082808280411122C42A842E85B2853686CB
:104560009717002023AE076C06C6B928FD576319BC
:10457000F500971700209387A76C9C4391C31CC03C
:10458000B240224441018280930780051717002022
:104590002328F76A7D55828093078005171700202E
:1045A0002320F76A7D558280930780051717002026
:1045B0002328F7680145828093078005171700209C
:1045C0002320F7687D558280930780051717002008
:1045D0002328F7667D5582809387C1839C4391C7CA
:1045E0003E9523AEA1823E85828097170020938757
:1045F00067653E9523AEA1823E858280000801401A
:10460000000C01400010014000140140001801405E
:104610000030014000380040003C0040002C0140C8
:10462000000000400004004000080040000C004072
:1046300000340140004C014000500140003801406E
:104640000044004000480040004C00400050004042
:1046500000180040001C00400020004026300000F0
:10466000DC2E0000E22D0000582F0000E22D00009B
:10467000AC2E00003E2D0000E22D0000B62E000002
:10468000CE2E0000043000000A3000000902430072
:10469000020100A032090400000102020100052409
:1046A0000010010524010000042402020524060074
:1046B00001070581034000FF09040100020A000010
:1046C00000070502024000000705820240000000CA
:1046D0001201000202000008861A2257000101029E
:1046E000030100000E037700630068002E006300E2
:1046F0006E0000000C034300480033003000370018
:10470000140332003000310037002D0032002D003C
:10471000320035001603300031003200330034001F
:104720003500360037003800390000000A06000264
:10473000FF00FF40010000000A42617564205261E1
:104740007465203D202564000A64617461426974C7
:10475000203D2025640000000A73746F7042697464
:10476000203D2025640000000A706172697479544C
:10477000797065203D20256400000000232D302B3A
:1047800020000000686C4C006566674546470000E5
:104790003031323334353637383941424344454677
:1047A0000000000030313233343536373839616239
:1047B0006364656600000000000000000000000067
:1047C00000000000000000000000000000000000E9
:1047D00000000000000000000000000000000000D9
:1047E00000000000000000000000000000000000C9
:1047F00000000000000000000000000000000000B9
:1048000000000000000000000000000000000000A8
:084810000000000000000000A0
:10481800000000000102030401020304060708095E
:104828000907000000000000000000000000000070
:104838000000000000000000000000000000000070
:104848000000000000000000000000000000000060
:104858000000000000000000000000000000000050
:104868000000000000000000D8470000F8470000E2
:10487800B847000000000000000000000000000031
:104888000000000000000000000000000000000020
:104898000000000000000000000000000000000010
:1048A8000000000000000000000000000000000000
:1048B80000000000000000000000000000000000F0
:1048C80000000000000000000200000002040608CA
:1048D80000C20100000008010044950854000020AF
:0848E800040309045400002040
:00000001FF
